:1065D500526563696265207472616D612070746FC4
:1065E500200D0A006C6F6E67697475642064652000
:0D65F5006C61207472616D613A200D0A0026
:104D70004101660A41016700410173004101680079
:104D80004101710041016F0041017C0049015D005A
:104D9000000000000000000041017206410179039B
:064DA000410178F2C10997
:03000B0002691473
:10691400C0E0C083C082900166E014F0A3E004F0FC
:09692400C28DD082D083D0E03294
:106AED00E58954F04401F589E4F58CF58AD28C22C0
:056BF000C28DD2A922B4
:036BFE00C2A92207
:0B6B760012679EEFF47002EEF460F571
:016B810022F1
:0563FB009000D2EFF05C
:106400009000D2E0FF12652CEF3395E04F6024E45A
:106410009000D3F0A3F0C39000D4E094E89000D3B0
:10642000E0940350DBA3E004F070EB9000D3E004B1
:08643000F080E39000D2E0FFD0
:016438002241
:106AFD00126BF5126BB2126B82C283D287C29722D0
:10562600E4FDFC7FA812656790017AE4F0A3EFF031
:105636007D027C007FA8126567900176E4F0A3EFF7
:10564600F07D047C007FA8126567900174E4F0A3E6
:10565600EFF07D067C007FA812656790016DE4F08F
:10566600A3EFF07D087C007FA812656790016AEFC2
:10567600F07D0A7C007FA8126567900169EFF07DD6
:105686000C7C007FA8126567900170EFF07D0E7CA0
:10569600007FA812656790016CEFF07D0F7C007F9C
:0A56A600A812656790016BEFF02277
:104CB500126AED126BF012665B1266D7126AFDD2AC
:104CC500AF126BB92091031228281256269001665F
:104CD5007405F020803F7B017A00790012535690CD
:104CE500000DEFF0126BA97B017A00790090000DA1
:104CF500E0FD1250E37B017A00790090000DE0FDA4
:104D050090003C7401F0125ABA7B017A01795D1268
:104D15006439126BA9122A6220B34A7B017A0179A0
:104D2500351252BE90000DEFF07BFF7A6579D512F2
:104D350064397B017A01793590000DE0FD90003CE6
:104D45007401F0125ABA7BFF7A6579E912643990D9
:104D5500000DE0FF1261AA7B017A01793590000D03
:0B4D6500E0FD121CCB125A47024CD894
:10692D004C4956450A00477261626163696F6E207A
:08693D0053657269653A200000
:0E1CCB0090000EEBF0A3EAF0A3E9F0A3EDF019
:101CD9006419704490000EE0FBA3E0FAA3E0F91246
:101CE90014006402703290000212141964487028BA
:101CF900900011E07E0024FFF582EE34FFF5831297
:101D090014196403701290000EA3A3E02403F9E4EC
:101D19003AFA12550B0265A090000EE0FBA3E0FA17
:101D2900A3E0F9121400640570057F05021F0B90EA
:101D3900000EE0FBA3E0FAA3E0F912140064B1700D
:101D4900057F60021F0B90000EE0FBA3E0FAA3E001
:101D5900F912140064B270057F5D021F0B90000E2A
:101D6900E0FBA3E0FAA3E0F912140064B370057F65
:101D790063021F0B900011E06401701790000EE0E0
:101D8900FBA3E0FAA3E0F912140064B470057F5EC6
:101D9900021F0B900011E06401701790000EE0FB28
:101DA900A3E0FAA3E0F912140064B570057F62029A
:101DB9001F0B90000EE0FBA3E0FAA3E0F912140058
:101DC90064B67039900167E0C394147480948040BC
:101DD900167FB61225A8C282E4900167F0C297C2A5
:101DE90083900166740AF090016AE0600302200B97
:101DF900900169E06401600302200B804490000EA9
:101E0900E0FBA3E0FAA3E0F912140064AA7046907B
:101E19000167E0C3941474809480500302200BE49A
:101E2900F0C297D282C283900166740AF090016A67
:101E3900E0600302200B900169E064016003022065
:101E49000B90016A04F07BFF7A69792D126439E4F9
:101E590090016AF022900011E0FF6413703C900039
:101E69000EE0FBA3E0FAA3E0F99000011214196453
:101E7900567027EF24FFFFE434FFFE8F82F58312AB
:101E89001419640370148F828E83E4121458E924A0
:101E990002F9E43AFA7F5B021FAC900011E0FF649B
:101EA90013704390000EE0FBA3E0FAA3E0F91214CB
:101EB9000064027031900001121419644F7027EF09
:101EC90024FFFFE434FFFE8F82F5831214196403A3
:101ED90070148F828E83E4121458E92402F9E43ACB
:101EE900FA7F9B021FAC900011E06401701790000B
:101EF9000EE0FBA3E0FAA3E0F912140064A1700557
:101F09007FE70225A8900011E0FF64066003021F25
:101F1900AF90000EE0FBA3E0FAA3E0F9121400640D
:101F2900026003021FAF9000011214196457707602
:101F3900FE74FF2FF582EE34FFF583121419640342
:101F4900706490000EA3A3900002121419FD7B0186
:101F59007A007912125D189000157420F090000E25
:101F6900E0FBA3E0FAA3E0F9900003121419FD9035
:101F7900000EA3A3900004121419900021F07B0114
:101F89007A00791612200C900169E064017B017ACC
:101F99000079127F5C700C12323A7B017A00791257
:101FA90002474902323A900011E0FF640C705390E5
:101FB900000EE0FBA3E0FAA3E0F91214006402703A
:101FC90041FE74FF2FF582EE34FFF5831214196474
:101FD90003702F90000EA3A3E02401F9E43AFA124A
:101FE9006B0D7BFF7A69793312643990000EE0FB3F
:101FF900A3E0FAA3E0F9A3E0FD90003C7401F0121C
:022009005ABAC1
:01200B0022B2
:08000300D294126C04C2942295
:05633E009000A5EFF046
:10634300E4A3F0A3F09000A5E0FFA2E713F030D799
:1063530004D2958002C2951200039000A7E004F0D6
:1063630070069000A6E004F0C39000A7E0940890A4
:0963730000A6E06480948040CC97
:01637C0022FE
:0A53EB00EBF0A3EAF0A3E9F07F8DD8
:0553F5009000A2EFF0A2
:1053FA00D2967F037E00126A819000A2E0FF1263B8
:10540A003EE49000A3F0A3F09000A3E0FCA3E0FD2B
:10541A00C39408EC64809480504F3095169001A391
:10542A00E04480F0ED9406EC648094805005E0FF3F
:10543A00C313F02095209001A3E0547FF0D390008D
:10544A00A4E094069000A3E0648094805008900140
:10545A00A3E0FFC313F01200039000A4E004F0706D
:10546A00A79000A3E004F0809FC2969001A3E0FFFA
:01547A00220F
:1066AF00900020EFF0A3EDF0D2967F037E00126AE8
:1066BF0081900020E0FF12633E900021E0FF9000E8
:0866CF0020F012633EC2962286
:10627C0090001EE475F00112147A90001EE475F083
:10628C000112147A90001EE475F00112147A900039
:10629C001DE0FBA3E0FAA3E0F9121400FF9000014B
:0462AC00121419FDB2
:0C62B000EF540FC454F0FFED540F4FFFEB
:0162BC0022BF
:10550B0090001DEBF0A3EAF0A3E9F012629AAD074D
:10551B007F861266AF12627CAD077F881266AF90F2
:10552B00001EE475F00112147A90001EE475F00170
:10553B0012147A12627CAD077F8C1266AF12627CFA
:10554B00AD077F841266AF12627CAD077F82126655
:10555B00AF12627CAD077F801266AF90001EE475C0
:10556B00F00112147A90001EE475F00112147A9077
:10557B00001EE475F00112147A90001DE0FBA3E00D
:0F558B00FAA3E0F9121400540FFD7F8A0266AFF5
:10688700AE07EEC4540F540FFE6012EF540FFFE42F
:0D689700FDEDC39E5007740A2FFF0D80F425
:0168A40022D1
:105D1800E4FFFE90001DEDF090001DE0C394647454
:105D28008094804007E0249CF00F80ECEF44301210
:105D38001446740129F9E43AFA90001DE0C3940A64
:105D4800748094804007E024F6F00E80ECEE443036
:105D5800121446740129F9E43AFA90001DE044301F
:035D6800021446DC
:0E200C0090001DEBF0A3EAF0A3E9F0A3EDF0C5
:10201A00E4900022F0A3F0900025F0A3F0A3F0A32F
:10202A00F0900024EDF054F0F0E0FFC4540FF0906B
:10203A00002D1214D6404000007F007E007D807C77
:10204A0041123599C004C005C006C007900024E0BB
:10205A00FCE4120F12D003D002D001D000120E02FB
:10206A00C004C005C006C007900022E0FCA3E0FD42
:10207A00E4120F0DD003D002D001D000120D1112BC
:10208A000F46900022EEF0A3EFF0900020E09000BF
:10209A0024F0540FF090002D1214D6400000007F57
:1020AA00007E007D807C41123599C004C005C006BF
:1020BA00C007900024E0FCE4120F12D003D002D033
:1020CA0001D000120E02C004C005C006C00790006D
:1020DA0022E0FCA3E0FDE4120F0DD003D002D001F0
:1020EA00D000120D11120F46900022EEF0A3EFF06D
:1020FA00900021E0900024F054F0F0E0FFC4540F67
:10210A00F090002D1214D63F8000007F007E007DE3
:10211A00807C41123599C004C005C006C0079000F2
:10212A0024E0FCE4120F12D003D002D001D0001236
:10213A000E02C004C005C006C007900022E0FCA33E
:10214A00E0FDE4120F0DD003D002D001D000120D31
:10215A0011120F46900022EEF0A3EFF0900021E05A
:10216A00900024F0540FF090002D1214D6000000B5
:10217A00007F007E007D807C41123599C004C00535
:10218A00C006C007900024E0FCE4120F12D003D06E
:10219A0002D001D000120E02C004C005C006C0075A
:1021AA00900022E0FCA3E0FDE4120F0DD003D00260
:1021BA00D001D000120D11120F46900022EEF0A3AA
:1021CA00EFF0C3EF9410EE9427401074F02FFF74D1
:1021DA00D83EFE900025E004F080E7900025E04418
:1021EA0030FD90001DE0FBA3E0FAA3E0F9ED121424
:1021FA004690001EE475F00112147AC3EF94E8EEDB
:10220A009403401074182FFF74FC3EFE900026E0E1
:10221A0004F080E7900026E04430FD90001DE0FBCA
:10222A00A3E0FAA3E0F9ED12144690001EE475F05B
:10223A000112147AC3EF9464EE94004010749C2F38
:10224A00FF74FF3EFE900027E004F080E79000272D
:10225A00E04430FD90001DE0FBA3E0FAA3E0F9EDB5
:10226A0012144690001EE475F00112147AC3EF941A
:10227A000AEE9400401074F62FFF74FF3EFE9000A1
:10228A0028E004F080E7900028E04430FD90001D2B
:10229A00E0FBA3E0FAA3E0F9ED12144690001EE475
:1022AA0075F00112147AEF4430FF90001DE0FBA391
:1022BA00E0FAA3E0F9EF12144690001EE475F0016B
:1022CA0012147A90001DE0FBA3E0FAA3E0F9E402FD
:0222DA001446A8
:032E960090009F0A
:102E99001253EBEF54F0C4540F4430FE90009FE0FE
:102EA900FBA3E0FAA3E0F9EE1214469000A0E47542
:102EB900F00112147AEF540F4430FF90009FE0FBA9
:102EC900A3E0FAA3E0F9EF1214469000A0E475F02C
:102ED9000112147A7F891253F5EF54F0C4540F4448
:102EE90030FE90009FE0FBA3E0FAA3E0F9EE121494
:102EF900469000A0E475F00112147AEF540F4430A3
:102F0900FF90009FE0FBA3E0FAA3E0F9EF1214465B
:102F19009000A0E475F00112147A7F871253F5EF3F
:102F290054F0C4540F4430FE90009FE0FBA3E0FA34
:102F3900A3E0F9EE1214469000A0E475F001121412
:102F49007AEF540F4430FF90009FE0FBA3E0FAA30F
:102F5900E0F9EF1214469000A0E475F00112147A1A
:102F69007F851253F5EF54F0C4540F4430FE90009E
:102F79009FE0FBA3E0FAA3E0F9EE1214469000A04B
:102F8900E475F00112147AEF540F4430FF90009F5A
:102F9900E0FBA3E0FAA3E0F9EF1214469000A0E4E5
:102FA90075F00112147A7F831253F5EF54F0C4546B
:102FB9000F4430FE90009FE0FBA3E0FAA3E0F9EE96
:102FC9001214469000A0E475F00112147AEF540F20
:102FD9004430FF90009FE0FBA3E0FAA3E0F9EF1271
:102FE90014469000A0E475F00112147A7F811253FF
:102FF900F5EF54F0C4540F4430FE90009FE0FBA35A
:10300900E0FAA3E0F9EE1214469000A0E475F0018D
:1030190012147AEF540F4430FF90009FE0FBA3E0B5
:10302900FAA3E0F9EF1214469000A0E475F001123A
:10303900147A7F8B1253F5EF540F4430FF90009FA1
:10304900E0FBA3E0FAA3E0F9EF1214469000A0E434
:1030590075F00112147A90009FE0FBA3E0FAA3E057
:05306900F9E402144629
:10503D009000381253EB126887900038E0FBA3E024
:10504D00FAA3E0F9EF121446900039E475F001125D
:10505D00147A7F891253F5126887900038E0FBA30C
:10506D00E0FAA3E0F9EF121446900039E475F0016F
:10507D0012147A7F871253F5126887900038E0FB7F
:10508D00A3E0FAA3E0F9EF121446900039E475F0AD
:10509D000112147A7F851253F5126887900038E05B
:1050AD00FBA3E0FAA3E0F9EF121446900039E47582
:1050BD00F00112147A7F831253F51268879000382D
:1050CD00E0FBA3E0FAA3E0F9EF121446900039E4F7
:0650DD0075F00102147AD7
:104A770090002A1253EB90002AE0FBA3E0FAA3E090
:104A8700F9EF12144690002BE475F00112147A7FA7
:104A9700891253F590002AE0FBA3E0FAA3E0F9EFAF
:104AA70012144690002BE475F00112147A7F8712D6
:104AB70053F590002AE0FBA3E0FAA3E0F9EF121404
:104AC7004690002BE475F00112147A7F851253F596
:104AD70090002AE0FBA3E0FAA3E0F9EF1214469056
:104AE700002BE475F00112147A7F831253F59000BE
:104AF7002AE0FBA3E0FAA3E0F9EF12144690002B9B
:104B0700E475F00112147A7F811253F590002AE0C0
:104B1700FBA3E0FAA3E0F9EF12144690002BE4752B
:104B2700F00112147A90002AE0FBA3E0FAA3E0F95F
:044B3700E40214463A
:076BB200C294C296D29522A5
:106A8100E4FDFCC3ED9FEC9E50070DBD00010C80A1
:016A9100F212
:016A920022E1
:0468DF00AB07AA0653
:1068E300900000C3E5829BE5839A500A7F967E0061
:0668F300126A81A380ED92
:0168F900227C
:016C0400226D
:036808001267C450
:10680B00D20AD293D292E4FFFE209205C20AC2931F
:0C681B00220FBF00010EBE04F0BF4CEDC8
:01682700224E
:036828001267C430
:10682B00D293D292D20AE4FFFE209205C20AC293FF
:0C683B00220FBF00010EBE02F0BF8AED6C
:01684700222E
:066BEA00D29300C29322C9
:1067C400E4FEEEC39408748094805015EF25E0FF36
:1067D40030D704D2928002C292D293126BEA0E8016
:0167E400E1D3
:0167E5002291
:086A9300ECFD7C00C293C292ED
:0A6A9B00D292D29300C292C293225D
:096BA000C293C292D293D2922258
:105DBB00E4FBEBFDC39408748094805038C293309D
:105DCB00921690019CE04401F0ED9406748094804F
:105DDB005006E025E0F0D29320921790019CE054FE
:105DEB00FEF0EBD39406748094805006E025E0F02F
:0C5DFB00D2930B80BDC29390019CE0FF8E
:015E07002278
:02637D00AA076D
:10637F00AF05A907126A93AF02126808AF0512683A
:10638F0008AF011267C412680BAF031267C412681B
:10639F000B126BA07F0D7E001268DFD293D2927F1B
:0D63AF00627E00126A817F627E00026A81B8
:02656700AB0780
:10656900AF05AA07126A93AF03126828AF0512682C
:1065790028AF021267C412682B126A9BEB04FF1240
:1065890067C412680BC293125DBB126BA0D293D27F
:066599009290019CE0FF5E
:01659F0022D9
:105C69009000B0EEF0A3EFF0A3EBF0A3EAF0A3E904
:015C7900F03A
:105C7A009000B0E0FCA3E0FD7FA81265679000B237
:105C8A00E0FBA3E0FAA3E0F9EF1214469000B2E0B9
:105C9A00FBA3E0FAA3E0F9121400FF9000B1E004BC
:105CAA00F070069000B0E004F09000B3E475F001E3
:065CBA0012147AEF70BA2B
:015CC00022C1
:1056B00090007DEFF0A3ECF0A3EDF0A3EBF0A3EAF4
:1056C000F0A3E9F0900080E0FBA3E0FAA3E0F91278
:1056D0001400603CB40D04E412144690007DE0FF19
:1056E000A3E0FCA3E0FDA3E0FBA3E0FAA3E0F91232
:1056F0001400FB12637D90007FE004F070069000C0
:105700007EE004F0900081E475F00112147A80B418
:10571000900080E0FBA3E0FAA3E0F9E412144690C5
:10572000007DE0FFA3E0FCA3E0FDA3E0FBA3E0FA23
:0A573000A3E0F9121400FB02637DF0
:1051840053656E736F726573204175746F20792057
:1051940073656E736F72312061637469766F732EF9
:1051A4000053656E736F722061637469766F207348
:1051B400656E736F7231202E00446574656374618B
:1051C400646F2E2053656E736F72204175746F2E59
:1051D4000053656E736F726573206E6F206465741F
:1051E40065637461646F73005665686963756C6F99
:1051F400204573706572616E646F2053616C6972CF
:105204002E005665686963756C6F2053616C69651F
:105214006E646F2E20556E206D6F6D656E746F0019
:076BB900C2B5C2B6C2B7224B
:076BC000C2B5D2B6C2B72234
:076BC700D2B5D2B6C2B7221D
:076BCE00C2B5C2B6D2B72226
:076BD500D2B5C2B6D2B7220F
:076BDC00C2B5D2B6D2B72208
:076BE300D2B5D2B6D2B722F1
:10686800E4FF7D2C7C01309115EFFB3395E04B70F4
:0E6878000DED1D70011CED4C70EC7F0180E8F1
:0168860022EF
:106AA5007F31126BDC3091010F126BE33091020FD5
:016AB5000FD1
:016AB60022BD
:105B2D00126BCE30915D126868EF3395E0FEEF6435
:105B3D00014E7047126BD5209123126BC07BFF2055
:105B4D00910D7A517984126439E490016F80227A33
:105B5D005179A512643990016F74018014126BC0D4
:105B6D007BFF2091107A5179BD12643990016F74C9
:105B7D0001F07FFF227A5179D5800E7BFF7A517922
:0F5B8D00EC80067BFF7A5279061264397F002282
:105A4700126BB920916190000EE07014A3E0701002
:105A570030B35404F012662F90000E7401F08047A3
:105A670090000EE064017014A3E0701030B33804A6
:105A7700F0123BAC90000E7402F0802B90000EE009
:105A870064027023A3E0701F30B31C04F07D667CB2
:105A9700007FA8126567BF53047F5380027F4E12B1
:105AA700573AE490000EF0126BB9309105E490007C
:025AB7000FF0EE
:015AB90022CA
:1022DC004552524F523A2056414C4944414E444F7C
:1022EC0020504C4143412E2E2E20004552524F522D
:1022FC003A204C4F4F50312053494E2050524553A9
:10230C00454E434941205645484943554C4152207E
:10231C00004552524F523A205441524A45544120A2
:10232C00494E56414C49444120005441524A45546F
:10233C0041204E4F2045532044454C205041525192
:10234C002E20005441524A4554412053494E2046B8
:10235C004F524D41544F20005441524A4554412054
:10236C004E4F205245474953545241205041474FFC
:10237C002000455843454445205449454D504F2075
:10238C00444520475241434941200046554552415E
:10239C00204445204C494E454120004249454E566B
:1023AC00454E49444F2050554C534520454C2042F6
:1023BC004F544F4E20004552524F523A2053494EE3
:1023CC0020494E475245534F20005449434B4554E6
:1023DC00204E6F2E00613B30333B4249454E5645F3
:1023EC004E49444F0A0D0000613B30373BA1204D54
:1023FC00454E5355414C494441442056454E434962
:10240C00444120210A0D0000613B39343B4D454EBF
:10241C005355414C494441442045585049524F0A68
:10242C000D0000613B39353B4D454E5355414C49F0
:10243C004441442045584345444520484F5241525D
:10244C00494F204143455251554553452041204366
:10245C00414A410A0D0000613B39373B4D454E5313
:10246C0055414C204E4F205041474F204C4F43413B
:10247C0043494F4E20484F590A0D0000613B3933F8
:10248C003B4D454E5355414C2059412045535441E9
:10249C0020454E20504152515545414445524F0A1A
:1024AC000D0000613B30363B4D454E5355414C20A1
:1024BC00465545524120444520484F524152494FC0
:1024CC000A0D0000613B39363B4E4F204553204DE1
:1024DC00454E5355414C49444144204E492050529D
:1024EC00455041474F0A0D0000613B39323B4C4F80
:1024FC00544520415349474E41444F204553544184
:10250C00204C4C454E4F0A0D000057494547414E53
:10251C00442000613B39323B57494547414E4420EA
:10252C00000A004441544F2057494547414E44004E
:10253C000D0A00613B39313B47524143494153201D
:10254C00000A0000613B30333B4249454E56454E34
:10255C0049444F2000AA80280720000000000014E6
:10256C000000AA8018010200AA8018020200AA80AA
:10257C001801020000000000000000000000000034
:10258C00000000000000000000000000000000003F
:0C259C0000000000000000000000000033
:09677700900052E025E0FFE4FD72
:05678000900059EDF04E
:106785001263FB90005AEFF0900059E0600AE4FFB5
:086795001263FB90005AEFF0C3
:01679D0022D9
:0E64B400900053EBF0A3EAF0A3E9F0A3EDF0A3
:1064C200E4A3F0900053E0FBA3E0FAA3E0F990000C
:1064D20057E0F582758300121419FF601090005680
:0D64E200E0FD126780900057E004F080D6C6
:0164EF00228A
:0E61F100900053EBF0A3EAF0A3E9F0A3EDF069
:1061FF00E4900058F0900056E0FF900058E0FEC386
:10620F009F5024900053E0FBA3E0FAA3E0F98E82A5
:10621F00758300121419FF900057E0FD12678090EC
:07622F000058E004F080CEEE
:016236002245
:1065A000781D7C007D017BFF7A2579617E007F0D5F
:1065B0001213DAC2877B017A007922124A77C29CD1
:1065C0007B017A00791DE4900057F07D0D1261F196
:0465D000D29CD28700
:0165D40022A4
:06594F007B017A007927BC
:0B595500900053EBF0A3EAF0A3E9F090
:1059600012000E900057EFF0E4900056F0900057B0
:10597000E0FF900056E0C39F503DE4900058F09047
:105980000058E0C39464748094805005E004F08073
:10599000EE900053E0FBA3E0FAA3E0F9A3E0F58268
:1059A000758300121419FF1263FB900058EFF090FA
:1059B0000056E004F080B6E4900058F0900058E003
:0E59C000C39464748094805005E004F080EE7F
:0159CE0022B6
:0525A80090001DEFF0A2
:1025AD0078467C007D017BFF7A25796E7E007F0663
:1025BD001213DA784C7C007D017BFF7A2579747ECD
:1025CD00007F061213DAC28790016BE060030227C9
:1025DD00B47B017A007946FD1264B490001DE012BF
:1025ED00152726145026F3B62694DF2634E02654FC
:1025FD00E12674E52731E626B4E726D4E82755FA17
:10260D002712FE000027B07BFF7A2279DC12000E24
:10261D00900052EFF0E4FDFF1267801267777BFFA9
:10262D007A2279DC02274E7BFF7A2279F712000E8F
:10263D00900052EFF0E4FDFF1267801267777BFF89
:10264D007A2279F702274E7BFF7A23791D12000E2D
:10265D00900052EFF0E4FDFF1267801267777BFF69
:10266D007A23791D02274E7BFF7A23793612000ECD
:10267D00900052EFF0E4FDFF1267801267777BFF49
:10268D007A23793602274E7BFF7A23794F12000E7B
:10269D00900052EFF0E4FDFF1267801267777BFF29
:1026AD007A23794F02274E7BFF7A23796412000E2D
:1026BD00900052EFF0E4FDFF1267801267777BFF09
:1026CD007A23796402274E7BFF7A23797E12000EDE
:1026DD00900052EFF0E4FDFF1267801267777BFFE9
:1026ED007A23797E805B7BFF7A23799712000E9097
:1026FD000052EFF0E4FDFF1267801267777BFF7ADF
:10270D00237997803C7BFF7A2379A712000E9000E6
:10271D0052EFF0E4FDFF1267801267777BFF7A239B
:10272D0079A7801D7BFF7A2379C212000E9000528B
:10273D00EFF0E4FDFF1267801267777BFF7A237954
:10274D00C27D011264B4805B7B017A00791E126434
:10275D00F0782D7C007D017BFF7A2379D61217B49A
:10276D009000A27401F0A37400F0A3741EF07B011D
:10277D007A00792D125B9C7B017A00792D12000E67
:10278D00EF04900052F0E4FDFF1267801267777B33
:10279D00017A00792D900052E0FD9000577401F000
:1027AD001261F1D2878071C28790001DE01215274A
:1027BD00281C0527EC5E27F45F28146027FC612890
:1027CD000C6228046327E4B427DCFE000028257B77
:1027DD00FF7A2379E1803E7BFF7A2379F480367B83
:1027ED00FF7A247914802E7BFF7A24792F80267B23
:1027FD00FF7A247963801E7BFF7A24798880167B8B
:10280D00FF7A2479AF800E7BFF7A2479D080067B06
:0A281D00FF7A2479F5125955D2878D
:01282700228E
:0E323A0090001DEFF0A3EBF0A3EAF0A3E9F083
:1032480078217C007D017BFF7A25797A7E007F06D4
:103258001213DA78277C007D017BFF7A2579807E3E
:10326800007F281213DAC28790016BE07062900029
:103278001DE0245070557B017A007921E4FD126429
:10328800B47BFF7A25791612000E90004FEFF0906C
:10329800001EE0FBA3E0FAA3E0F912000E90004F35
:1032A800E02F04F0E4FDFF12678090004F12677A68
:1032B8007BFF7A2579167D011264B490001EE0FB2D
:1032C800A3E0FAA3E0F97D011264B4D2870233F1D6
:1032D800C28790001DE0246570030233B1249C600E
:1032E8006C24A360030233F178277C007D017BFF07
:1032F8007A25791F1217B490001EE0F9A3E0FAA30B
:10330800E09000A2C9F0A3EAF0A3E9F07B017A00FB
:103318007927125B9C9000A274FFF0A37425F0A398
:10332800742DF07B017A007927125B9C12594F7B30
:10333800FF7A25792F1264397B017A007927126484
:10334800397BFF7A25793C1264390233F178277C7E
:10335800007D017BFF7A25793F1217B490001EE0AB
:10336800FBA3E0FAA3E0F912000E90004FEFF0245F
:10337800FFFFE434FFFE90001EE0FBA3E0FAA3E0A9
:10338800F98F828E83E412145890001EE0F9A3E0AE
:10339800FAA3E09000A2C9F0A3EAF0A3E9F07B0148
:1033A8007A007927125B9C802678277C007D017B38
:1033B800FF7A2579501217B412594F78277C007D6F
:1033C8000190001EE0FBA3E0FAA3E0F91217B49005
:1033D80000A274FFF0A37425F0A3744DF07B017A6A
:0B33E800007927125B9C12594FD2871E
:0133F30022B7
:100026000D0A0A25733E20002563002564000D0A8B
:100036000A2041435455414C2049445F434C4945AD
:100046004E54453D25730D0A0A000D0A0A204449FF
:1000560047495445205355204E5545564F2049444F
:100066005F434C49454E54453D000D0A0A20444124
:10007600544F204D4F444946494341444F2049443B
:100086005F434C49454E54453D25730D0A0A000D04
:100096000A0A2041435455414C20434F445F504186
:1000A600524B3D25730D0A0A000D0A0A20444947A2
:1000B600495445205355204E5545564F20434F44ED
:1000C6005F5041524B3D000D0A0A204441544F20D7
:1000D6004D4F444946494341444F20434F445F50A6
:1000E60041524B3D25730D0A0A000D0A0A20414371
:1000F6005455414C205449454D504F5F475241435A
:1001060049413D25730D0A0A000D0A0A2044494754
:10011600495445205355204E5545564F2054494580
:100126004D504F5F4752414349413D000D0A0A2059
:100136004441544F204D4F444946494341444F2082
:100146005449454D504F5F4752414349413D257300
:100156000D0A0A000D0A0A2041435455414C20530A
:10016600494E5F434F42524F20494E484142494C07
:10017600495441444F3D25730D0A0A000D0A0A20D1
:1001860041435455414C2053494E5F434F42524FD1
:10019600204752415449533D25730D0A0A000D0A62
:1001A6000A2041435455414C2053494E5F434F4228
:1001B600524F2047524154495320592053414C49EC
:1001C600444120454C204D49534D4F204449413D23
:1001D60025730D0A0A000D0A0A2044494749544569
:1001E600205355204E5545564F2053494E5F434F99
:1001F60042524F3D000D0A0A2041435455414C20BE
:10020600444542554720494E484142494C4954418C
:10021600444F3D25730D0A0A000D0A0A2041435436
:1002260055414C20444542554720484142494C4996
:100236005441444F3D25730D0A0A000D0A0A204415
:10024600494749544520454C204E5545564F204573
:10025600535441444F2044452044454255473D00B0
:100266000D0A0A2041435455414C205553455F4CD5
:10027600505220494E484142494C495441444F3D11
:1002860025730D0A0A000D0A0A2041435455414CB4
:10029600205553455F4C505220484142494C4954E1
:1002A60041444F3D25730D0A0A000D0A0A204449B0
:1002B6004749544520454C204E5545564F204553F9
:1002C6005441444F204445205553455F4C50523DC0
:1002D600000D0A0A2041435455414C20434F4D50CE
:1002E60041524143494F4E204143544956412049CA
:1002F6004E484142494C495441444F3D25730D0AED
:100306000A000D0A0A2041435455414C20434F4DE3
:100316005041524143494F4E204143544956412092
:1003260020484142494C495441444F3D25730D0AEA
:100336000A000D0A0A2044494749544520454C20E5
:100346004E5545564F2045535441444F2044452071
:10035600434F4D5041524143494F4E20414354492A
:100366005641203D000D0A0A2041435455414C2078
:10037600434F4D5041524143494F4E20414354490A
:1003860056412020494E484142494C495441444F28
:100396003D25730D0A0A000D0A0A204143545541B2
:1003A6004C20434F4449474F204445204241525236
:1003B6004153204143544956303D25730D0A0A00E6
:1003C6000D0A0A2041435455414C20434F444947A6
:1003D6004F2051522041435449564F3D25730D0A33
:1003E6000A000D0A0A2044494749544520454C2035
:1003F6004E5545564F2045535441444F20444520C1
:10040600434F4449474F205152204F20434F4449C0
:10041600474F204445204241525241533D000D0A68
:100426000A2050414E54414C4C41204C43442048F4
:100436004142494C49544144413D25730D0A0A0045
:100446000D0A0A2050414E54414C4C412052415312
:100456005042455252592020484142494C49544144
:1004660044413D25730D0A0A000D0A0A20444947F6
:1004760049544520454C204E5545564F204553542A
:1004860041444F204445204C412050414E54414C5C
:100496004C41203D000D0A0A2050414E54414C4C1F
:1004A60041204C4344204143544956413D25730D58
:1004B6000A0A000D0A0A2050414E54414C4C412074
:1004C6005241535042455252592041435449564194
:1004D600203D25730D0A0A000D0A0A204469676942
:1004E600746520656C206E6F6D6272652064656C44
:1004F60020636C69656E746520000D0A0A207465B8
:1005060078746F206772616261646F3D25730D0AAE
:100516000A000D0A0A2044696769746520656C2023
:100526006E756D65726F206465204E697420000DCE
:100536000A0A204E49543A2025730D0A0A000D0A6C
:100546000A2044696769746520656C204E6F6D6288
:1005560072652064656C20506172717565616465B1
:10056600726F20000D0A0A204E6F6D6272653A2086
:1005760025730D0A0A000D0A0A2044696769746525
:10058600206C6120646972656363696F6E206465BF
:100596006C2065737461626C6563696D69656E7400
:1005A6006F20000D0A0A20446972656363696F6EE5
:1005B6003A2025730D0A0A000D0A0A204469676964
:1005C600746520656C206D736A312064656C2065E6
:1005D600737461626C6563696D69656E746F200022
:1005E6000D0A0A206D736A313A2025730D0A0A0036
:1005F6000D0A0A2044696769746520656C206D736D
:100606006A322064656C2065737461626C65636927
:100616006D69656E746F20000D0A0A20446967696A
:10062600746520656C206D736A332064656C206583
:10063600737461626C6563696D69656E746F2000C1
:100646000D0A0A206D736A333A2025730D0A0A00D3
:100656000D0A0A2044696769746520656C206D730C
:100666006A342064656C2065737461626C656369C5
:100676006D69656E746F20000D0A0A206D736A3409
:100686003A2025730D0A0A000D0A0A204469676993
:10069600746520656C206D736A352064656C206511
:1006A600737461626C6563696D69656E746F200051
:1006B6000D0A0A206D736A353A2025730D0A0A0061
:1006C6000D0A0A2044696769746520656C206D739C
:1006D6006A362064656C2065737461626C65636953
:1006E6006D69656E746F20000D0A0A206D736A3697
:1006F6003A2025730D0A0A000D0A0A204469676923
:10070600746520656C206D736A372064656C20659E
:10071600737461626C6563696D69656E746F2000E0
:100726000D0A0A206D736A373A2025730D0A0A00EE
:100736000D0A2049445F434C49454E54452020202C
:10074600202D2D2D20636D642030204964656E7444
:100756006966696361646F722064656C20636C69A5
:10076600656E7465206D6178696D6F203235350070
:100776000D0A20434F445F5041524B202020202039
:10078600202D2D2D20636D64203120456C206E7543
:100796006D65726F2064656C20706172717565613C
:1007A6006465726F206D6178696D6F203235350032
:1007B6000D0A20545F475241434941202020202002
:1007C600202D2D2D20636D642032205469656D70B7
:1007D6006F2073696E20636F62726F2030302C2039
:1007E600206D6178696D6F20323535000D0A205312
:1007F600494E5F434F42524F20202020202D2D2D61
:1008060020636D64203320496E686162696C697487
:1008160061646F3D20302C204772617469733D20FE
:1008260031202C2047726174697320792073616CC2
:1008360069646120656C206D69736D6F2064696100
:100846003D2032000D0A20444542554720202020F5
:1008560020202020202D2D2D20636D64203420485B
:100866006162696C69746172203D20312C20496E89
:10087600686162696C69746172203D2030000D0AFE
:10088600205553455F4C5052202020202020202DFB
:100896002D2D20636D642035486162696C69746131
:1008A60072203D20312C20496E686162696C697442
:1008B6006172203D2030000D0A20434F4D504152B9
:1008C6004143494F4E5F414354495641202D2D2DFA
:1008D600636D64203620486162696C6974617220B8
:1008E6003D20312C20496E686162696C69746172C1
:1008F600203D2030000D0A2051525F434F445F4295
:100906004152524153202D2D2D636D6420372048CE
:100916006162696C69746172205152203D20312CEC
:1009260020486162696C6974617220434F445F427A
:100936004152524153203D2030000D0A2054495067
:100946004F5F50414E54414C4C41202D2D2D20439C
:100956004D4420382050414E54414C4C41204C438C
:1009660044203D302050414E54414C4C4120524190
:10097600535042455252493D31000D0A20434C49DD
:10098600454E5445202020202020202D2D2D636DFE
:10099600642039204E6F6D6272652064656C206339
:1009A6006C69656E7465000D0A204E49542020203E
:1009B60020202020202020202D2D2D20636D642036
:1009C6003130204E756D65726F2064656C206E69DE
:1009D60074000D0A204E4F4D5F5041525120202089
:1009E6002020202D2D2D20636D64203131204E6F67
:1009F6006D6272652064656C2070617271756561E7
:100A06006465726F000D0A20444952454343494FBD
:100A16004E20202020202D2D2D20636D6420313284
:100A2600204E6F6D6272652064656C207061727114
:100A36007565616465726F000D0A204D534A5F311A
:100A46002020202020202020202D2D2D20636D64A5
:100A5600203133206D736A20646520696E666F727B
:100A66006D6163696F6E2064656C2070617271756B
:100A760065616465726F000D0A204D534A5F32202E
:100A860020202020202020202D2D2D20636D642065
:100A96003134206D736A20646520696E666F726DED
:100AA6006163696F6E2064656C2070617271756533
:100AB600616465726F000D0A204D534A5F33202032
:100AC600202020202020202D2D2D20636D64203114
:100AD60035206D736A20646520696E666F726D617C
:100AE60063696F6E2064656C2070617271756561F3
:100AF6006465726F000D0A204D534A5F3420202032
:100B06002020202020202D2D2D20636D64203136BD
:100B1600206D736A20646520696E666F726D61630D
:100B2600696F6E2064656C207061727175656164B1
:100B360065726F000D0A204D534A5F352020202034
:100B460020202020202D2D2D20636D64203137207C
:100B56006D736A20646520696E666F726D61636984
:100B66006F6E2064656C2070617271756561646575
:100B7600726F000D0A204D534A5F36202020202038
:100B8600202020202D2D2D20636D64203138206DEE
:100B9600736A20646520696E666F726D6163696F42
:100BA6006E2064656C207061727175656164657232
:100BB6006F000D0A204D534A5F3720202020202049
:100BC6002020202D2D2D20636D64203139206D735A
:100BD6006A20646520696E666F726D6163696F6E07
:100BE6002064656C20706172717565616465726FF1
:100BF600000D0A2041595544412020202020202064
:100C060020202D2D2D20636D64203230204D7565FA
:100C160073747261206C6F7320636F6D616E646FA5
:100C260073000D0A2053414C4952202020202020D9
:100C36002020202D2D2D20636D642032312053611C
:100C46006C69722064652070726F6772616D616392
:100C5600696F6E000D0A0A53697374656D612064CD
:100C6600652050726F6772616D6163696F6E2056A1
:100C760065726966696361646F720D0A0D0A000D1B
:100C86000A0A2F3E5573756172696F3A000D0A0A9A
:100C9600206461746F732064656C20627566666596
:100CA600722072782025730D0A0A000D0A0A206444
:100CB60061746F732064656C206275666665722068
:100CC60074782025730D0A0A000D0A0A2F3E50611A
:100CD6007373776F72643A00313233343536000DF0
:100CE6000A436F6D616E646F206E6F20657869735D
:100CF6007465202725732700200D0A00200D0A00A1
:040D0600220D0A00B0
:104DA6005400DF2F0000000000000000000000009B
:104DB600000000000000004900D661646D696E00C5
:104DC600000000604200F3300000310000320000B5
:104DD600330000340000350000360000370000388C
:104DE60000003900003130003131003132003133FA
:104DF60000313400313500313600313700313800AA
:094E060031390032300032310074
:0B5C070090003FEBF0A3EAF0A3E9F0EF
:105C1200E4900045F0900045E0FFC3941674809430
:105C2200805041EF75F003A424F3F9740035F0FAC3
:105C32007B0178427C007D011217B478427C007DA2
:105C42000190003FE0FBA3E0FAA3E0F91216CBEFCC
:105C52003395E04F7006900045E0FF22900045E04A
:065C620004F080B17FFF99
:015C68002219
:0B62370090000EE0FBA3E0FAA3E0F9EA
:0B62420090003FEBF0A3EAF0A3E9F0AE
:10624D0078427C007D017B017A0079D61217B478F3
:10625D00427C007D0190003FE0FBA3E0FAA3E0F952
:0E626D001216CBEF3395E04F7002FF227FFF39
:01627B002200
:0662FE007B017A00792B00
:0B63040090003FEBF0A3EAF0A3E9F0EB
:10630F0078427C007D017BFF7A0C79FE7E007F0452
:10631F001213DA90004D7401F0A37400F0A37442CD
:0F632F00F090003FE0FBA3E0FAA3E0F902458AFB
:10547B00E0FBA3E0FAA3E02FF9EA3EFAE92401F9F5
:03548B00E43AFA06
:0B548E0090003FEBF0A3EAF0A3E9F070
:1054990078427C007D017BFF7A0D79027E007F04D2
:1054A9001213DA78467C007D017BFF7A0D79067E3E
:1054B900007F041213DA90003FE0FBA3E0FAA3E0B7
:1054C900F9121400FFB4200C900040E475F00112A9
:1054D900147A80E2EF90004DB4220D7401F0A374A8
:1054E90000F0A37446F080167401F0A37400F0A3D1
:1054F9007442F090003FE0FBA3E0FAA3E0F9124503
:015509008A17
:01550A00227E
:106945009000A57401F0A37400F0A374DFF07BFF41
:076955007A0079260218B355
:084F90007A00792B7B01E4FD9E
:0E4F980090007DEBF0A3EAF0A3E9F0A3EDF0AA
:104FA600126B7690007DE0FBA3E0FAA3E0F9EF1226
:104FB6001446900080E0701D90007DE0FBA3E0FAAF
:104FC600A3E0F91214009000A5F07BFF7A00792E79
:104FD6001218B380057F2A1263FB90007DE0FBA3C5
:104FE600E0FAA3E0F9121400FF7E00900081EEF0D3
:104FF600A3EFF090007EE475F00112147A90007D24
:10500600E0FBA3E0FAA3E0F9E4121446EF640D60B6
:105016000C900081E07004A3E0640A708390007E27
:1050260074FFF5F012147A90007DE0FBA3E0FAA37A
:07503600E0F9740A021446C0
:104E2600E4FDFC7FA81265677E00900049EEF0A3C2
:104E3600EFF09000A574FFF0A37400F0A37431F0B6
:104E4600A3EEF0A3EFF07B017A00793F1218AD9044
:104E560000A57401F0A37400F0A3743FF07BFF7A01
:104E66000079341218B37BFF7A0079501218B37A9E
:104E760000793F124F947B017A00793F12466E907B
:104E86000049EEF0A3EFF0FBE4FDFC7FA812637D82
:104E9600E4FDFC7FA81265677E00900049EEF0A352
:104EA600EFF09000A574FFF0A37400F0A37431F046
:104EB600A3EEF0A3EFF07B017A00793F1218AD90D4
:104EC60000A57401F0A37400F0A3743FF07BFF7A91
:064ED6000079700218B320
:104B3B007D027C007FA81265677E00900049EEF035
:104B4B00A3EFF09000A574FFF0A37400F0A37431F1
:104B5B00F0A3EEF0A3EFF07B017A00793F1218ADD2
:104B6B009000A57401F0A37400F0A3743FF07BFFD9
:104B7B007A0079951218B37BFF7A0079AF1218B3CC
:104B8B007B017A00793FE4FD124F987B017A007923
:104B9B003F12466E900049EEF0A3EFF0FB7D027CD6
:104BAB00007FA812637D7D027C007FA81265677E63
:104BBB0000900049EEF0A3EFF09000A574FFF0A376
:104BCB007400F0A37431F0A3EEF0A3EFF07B017A45
:104BDB0000793F1218AD9000A57401F0A37400F09A
:0D4BEB00A3743FF07BFF7A0079CD0218B370
:104BF8007D047C007FA81265677E00900049EEF076
:104C0800A3EFF09000A574FFF0A37400F0A3743133
:104C1800F0A3EEF0A3EFF07B017A00793F1218AD14
:104C28009000A57401F0A37400F0A3743FF07BFF1B
:104C38007A0079F01218B37BFF7A01790F1218B352
:104C48007B017A00793FE4FD124F987B017A007965
:104C58003F12466E900049EEF0A3EFF0FB7D047C16
:104C6800007FA812637D7D047C007FA81265677EA3
:104C780000900049EEF0A3EFF09000A574FFF0A3B8
:104C88007400F0A37431F0A3EEF0A3EFF07B017A87
:104C980000793F1218AD9000A57401F0A37400F0DC
:0D4CA800A3743FF07BFF7A0179320218B34C
:1036FF007D067C007FA81265677E00900049EEF082
:10370F00A3EFF09000A574FFF0A37400F0A3743141
:10371F00F0A3EEF0A3EFF07B017A00793F1218AD22
:10372F00900049E07002A3E070159000A504F0A38B
:10373F007400F0A3743FF07BFF7A01795A803590C3
:10374F000049E07004A3E0640170159000A504F037
:10375F00A37400F0A3743FF07BFF7A017982801489
:10376F009000A57401F0A37400F0A3743FF07BFFE9
:10377F007A0179A41218B37BFF7A0179DC1218B39E
:10378F007B017A00793FE4FD124F987B017A007933
:10379F003F12466E900049EEF0A3EFF0FB7D067CE2
:1037AF00007FA812637D7D067C007FA81265677E6F
:1037BF0000900049EEF0A3EFF09000A574FFF0A386
:1037CF007400F0A37431F0A3EEF0A3EFF07B017A55
:1037DF0000793F1218AD900049E07002A3E0701518
:1037EF009000A504F0A37400F0A3743FF07BFF7A60
:1037FF0001795A8035900049E07004A3E0640170AC
:10380F00159000A504F0A37400F0A3743FF07BFFA4
:10381F007A01798280149000A57401F0A37400F0EE
:0D382F00A3743FF07BFF7A0179A41218B357
:01383C002269
:103DC8007D087C007FA81265677E00900049EEF0B0
:103DD800A3EFF09000A574FFF0A37400F0A3743172
:103DE800F0A3EEF0A3EFF07B017A00793F1218AD53
:103DF800900049E07002A3E070159000A504F0A3BC
:103E08007400F0A3743FF07BFF7A0179FB80149073
:103E180000A57401F0A37400F0A3743FF07BFF7A4F
:103E280002791F1218B37BFF7A0279411218B37B0B
:103E3800017A00793FE4FD124F987B017A00793FBF
:103E480012466E900049EEF0A3EFF0FB7D087C006F
:103E58007FA812637D7D087C007FA81265677E00BD
:103E6800900049EEF0A3EFF09000A574FFF0A37462
:103E780000F0A37431F0A3EEF0A3EFF07B017A0019
:103E8800793F1218AD900049E07002A3E0701590D8
:103E980000A504F0A37400F0A3743FF07BFF7A013F
:103EA80079FB80149000A57401F0A37400F0A3744A
:0B3EB8003FF07BFF7A02791F1218B365
:013EC30022DC
:103EC4007D0A7C007FA81265677E00900049EEF0B1
:103ED400A3EFF09000A574FFF0A37400F0A3743175
:103EE400F0A3EEF0A3EFF07B017A00793F1218AD56
:103EF400900049E07002A3E070159000A504F0A3BF
:103F04007400F0A3743FF07BFF7A0279668014900A
:103F140000A57401F0A37400F0A3743FF07BFF7A52
:103F240002798C1218B37BFF7A0279B01218B37B32
:103F3400017A00793FE4FD124F987B017A00793FC2
:103F440012466E900049EEF0A3EFF0FB7D0A7C0070
:103F54007FA812637D7D0A7C007FA81265677E00BE
:103F6400900049EEF0A3EFF09000A574FFF0A37465
:103F740000F0A37431F0A3EEF0A3EFF07B017A001C
:103F8400793F1218AD900049E07002A3E0701590DB
:103F940000A504F0A37400F0A3743FF07BFF7A0241
:103FA400796680149000A57401F0A37400F0A374E2
:0B3FB4003FF07BFF7A02798C1218B3FB
:013FBF0022DF
:103FC0007D0C7C007FA81265677E00900049EEF0B2
:103FD000A3EFF09000A574FFF0A37400F0A3743178
:103FE000F0A3EEF0A3EFF07B017A00793F1218AD59
:103FF000900049E07002A3E070159000A504F0A3C2
:104000007400F0A3743FF07BFF7A0279D78014909C
:1040100000A57401F0A37400F0A3743FF07BFF7A55
:104020000379081218B37BFF7A0379381218B37B2F
:10403000017A00793FE4FD124F987B017A00793FC5
:1040400012466E900049EEF0A3EFF0FB7D0C7C0071
:104050007FA812637D7D0C7C007FA81265677E00BF
:10406000900049EEF0A3EFF09000A574FFF0A37468
:1040700000F0A37431F0A3EEF0A3EFF07B017A001F
:10408000793F1218AD900049E07002A3E0701590DE
:1040900000A504F0A37400F0A3743FF07BFF7A0343
:1040A000796B80149000A57401F0A37400F0A374E0
:0B40B0003FF07BFF7A0379081218B381
:0140BB0022E2
:1040BC007D0E7C007FA81265677E00900049EEF0B3
:1040CC00A3EFF09000A574FFF0A37400F0A374317B
:1040DC00F0A3EEF0A3EFF07B017A00793F1218AD5C
:1040EC00900049E07002A3E070159000A504F0A3C5
:1040FC007400F0A3743FF07BFF7A03799D801490D9
:10410C0000A57401F0A37400F0A3743FF07BFF7A58
:10411C000379C61218B37BFF7A0379E81218B37BC4
:10412C00017A00793FE4FD124F987B017A00793FC8
:10413C0012466E900049EEF0A3EFF0FB7D0E7C0072
:10414C007FA812637D7D0E7C007FA81265677E00C0
:10415C00900049EEF0A3EFF09000A574FFF0A3746B
:10416C0000F0A37431F0A3EEF0A3EFF07B017A0022
:10417C00793F1218AD900049E07002A3E0701590E1
:10418C0000A504F0A37400F0A3743FF07BFF7A0346
:10419C00799D80149000A57401F0A37400F0A374B1
:0B41AC003FF07BFF7A0379C61218B3C6
:0141B70022E5
:1041B8007D0F7C007FA81265677E00900049EEF0B5
:1041C800A3EFF09000A574FFF0A37400F0A374317E
:1041D800F0A3EEF0A3EFF07B017A00793F1218AD5F
:1041E800900049E07002A3E070159000A504F0A3C8
:1041F8007400F0A3743FF07BFF7A04792480149054
:1042080000A57401F0A37400F0A3743FF07BFF7A5B
:104218000479461218B37BFF7A04796F1218B37BBE
:10422800017A00793FE4FD124F987B017A00793FCB
:1042380012466E900049EEF0A3EFF0FB7D0F7C0074
:104248007FA812637D7D0F7C007FA81265677E00C2
:10425800900049EEF0A3EFF09000A574FFF0A3746E
:1042680000F0A37431F0A3EEF0A3EFF07B017A0025
:10427800793F1218AD900049E07002A3E0701590E4
:1042880000A504F0A37400F0A3743FF07BFF7A0448
:10429800799B80149000A57401F0A37400F0A374B6
:0B42A8003FF07BFF7A0479B91218B3D5
:0142B30022E8
:105E9D007BFF7A0479DE1218B37B017A00793FE437
:105EAD00FD124F987B017A00793F7D107C007FA811
:105EBD001256B07B017A00793F7F107E00125C692B
:105ECD009000A57401F0A37400F0A3743FF07BFF64
:075EDD007A0579000218B3F9
:105EE4007BFF7A0579181218B37B017A00793FE4B5
:105EF400FD124F987B017A00793F7D407C007FA89A
:105F04001256B07B017A00793F7F407E00125C69B3
:105F14009000A57401F0A37400F0A3743FF07BFF1C
:075F24007A0579350218B37C
:105F2B007BFF7A0579441218B37B017A00793FE441
:105F3B00FD124F987B017A00793F7D507C007FA842
:105F4B001256B07B017A00793F7F507E00125C695C
:105F5B009000A57401F0A37400F0A3743FF07BFFD5
:075F6B007A05796A0218B300
:105F72007BFF7A05797C1218B37B017A00793FE4C2
:105F8200FD124F987B017A00793F7D807C007FA8CB
:105F92001256B07B017A00793F7F807E00125C69E5
:105FA2009000A57401F0A37400F0A3743FF07BFF8E
:075FB2007A0579A90218B37A
:105FB9007BFF7A0579BE1218B37B017A00793FE439
:105FC900FD124F987B017A00793F7DB07C007FA854
:105FD9001256B07B017A00793F7FB07E00125C696E
:105FE9009000A57401F0A37400F0A3743FF07BFF47
:075FF9007A0579E60218B3F6
:106000007BFF7A0579F61218B37B017A00793FE4B9
:10601000FD124F987B017A00793F7DF17C007FA8CB
:106020001256B07B017A00793F7FF17E00125C69E5
:106030009000A57401F0A37400F0A3743FF07BFFFF
:076040007A0579E60218B3AE
:106047007BFF7A06791E1218B37B017A00793FE449
:10605700FD124F987B017A00793F7D327C017FA842
:106067001256B07B017A00793F7F327E01125C695C
:106077009000A57401F0A37400F0A3743FF07BFFB8
:076087007A0679460218B306
:10608E007BFF7A0679561218B37B017A00793FE4CA
:10609E00FD124F987B017A00793F7D737C017FA8BA
:1060AE001256B07B017A00793F7F737E01125C69D4
:1060BE009000A57401F0A37400F0A3743FF07BFF71
:0760CE007A06797E0218B387
:1060D5007BFF7A06798E1218B37B017A00793FE44B
:1060E500FD124F987B017A00793F7DB47C017FA832
:1060F5001256B07B017A00793F7FB47E01125C694C
:106105009000A57401F0A37400F0A3743FF07BFF29
:076115007A0679B60218B307
:10611C007BFF7A0679C61218B37B017A00793FE4CB
:10612C00FD124F987B017A00793F7DF57C017FA8A9
:10613C001256B07B017A00793F7FF57E01125C69C3
:10614C009000A57401F0A37400F0A3743FF07BFFE2
:07615C007A0679EE0218B388
:106163007BFF7A0679FE1218B37B017A00793FE44C
:10617300FD124F987B017A00793F7D367C027FA820
:106183001256B07B017A00793F7F367E02125C693A
:106193009000A57401F0A37400F0A3743FF07BFF9B
:0761A3007A0779260218B308
:1048EC007BFF7A0779361218B37BFF7A0779761239
:1048FC0018B37BFF7A0779B61218B37BFF7A077966
:10490C00F21218B37BFF7A08794A1218B37BFF7A3C
:10491C000879841218B37BFF7A0879BD1218B37B1F
:10492C00FF7A0879FB1218B37BFF7A0979401218C9
:10493C00B37BFF7A0979801218B37BFF7A0979ADC2
:10494C001218B37BFF7A0979D81218B37BFF7A0A55
:10495C00790B1218B37BFF7A0A793E1218B37BFFDE
:10496C007A0A797D1218B37BFF7A0A79BC1218B3D4
:10497C007BFF7A0A79FB1218B37BFF7A0B793A1218
:10498C0018B37BFF7A0B79791218B37BFF7A0B790A
:10499C00B81218B37BFF7A0B79F71218B37BFF7A36
:0649AC000C79280218B38B
:102828007BFF7A0C795A1218B37BFF7A0C798512E0
:1028380018B3126B68124F901262FE90000EEBF004
:10284800A3EAF0A3E9F09000A5E4F0A37400F0A3D4
:10285800742CF07BFF7A0C79931218B39000A5E4DE
:10286800F0A37400F0A3745EF07BFF7A0C79B112C8
:1028780018B3126237EF70B17BFF7A0C79CF121858
:10288800B37B017A00792B7D01124F981262FE907A
:10289800000EEBF0A3EAF0A3E9F078D67C007D0106
:1028A8007BFF7A0C79DE1217B4126237EF70C90217
:1028B8002A3A126945124F901262FE90000EEBF010
:1028C800A3EAF0A3E9F012000E90000E12547B90D8
:1028D8000011EBF0A3EAF0A3E9F012000E9000114A
:1028E80012547B900014EBF0A3EAF0A3E9F09000F7
:1028F80011E0FBA3E0FAA3E0F9EA494B60171214D0
:1029080000B42F1178177C007D01900011A3A3E07B
:102918001217B4803D900011E0FBA3E0FAA3E0F9A0
:10292800EA494B602D78177C007D017B017A00799C
:10293800DF1217B4900011E0F9A3E0FAA3E09000C9
:10294800A2C9F0A3EAF0A3E9F07B017A0079171293
:102958005B9C90000EE0FBA3E0FAA3E0F9EA494B88
:1029680070030228BA125C07EFB416004003022A6B
:1029780040902980F82828730229C20229C8022910
:10298800CE0229D40229DA0229E00229E60229EC3A
:102998000229F20229F80229FE022A04022A0A025E
:1029A8002A10022A16022A1C022A22022A28022A8D
:1029B8002E022A34022A3A022A61124E260228BA24
:1029C800124B3B0228BA124BF80228BA1236FF0201
:1029D80028BA123DC80228BA123EC40228BA123FC9
:1029E800C00228BA1240BC0228BA1241B80228BA5A
:1029F800125E9D0228BA125EE40228BA125F2B0208
:102A080028BA125F720228BA125FB90228BA126095
:102A1800000228BA1260470228BA12608E0228BA49
:102A28001260D50228BA12611C0228BA1261630228
:102A380028BA1248EC0228BA90000EE0F9A3E0FA8E
:102A4800A3E09000A5C9F0A3EAF0A3E9F07BFF7A20
:092A58000C79E51218B30228BA4A
:012A61002252
:036C010025640007
:0B52BE0090000EEBF0A3EAF0A3E9F073
:1052C9009000137401F0A374F4F0126BFEE49000E3
:1052D90012F0C286900011F0C2B2900013E0FEA352
:1052E900E0FF20B35B900011E07055900013E0FEE1
:1052F900A3E0FFEF1F70011EEF4E7005900011042F
:10530900F030B406900011E060E920B43390001148
:10531900E0702D90000EE0FBA3E0FAA3E0F9E5A010
:10532900121446900012E004F090000FE475F001A9
:1053390012147A900013E0FEA3E0FF30B4FD80A2BE
:0C534900D2B2D286126BF0900012E0FF8E
:015355002235
:0E4EDC00900038EBF0A3EAF0A3E9F0A3EDF0AC
:104EEA00900041F0D2B2D2B4C286E4900040F0C23F
:104EFA00B290003C1214D600004E2030B349900004
:104F0A0040E07043C2B2D2B490003CE0FCA3E0FDA2
:104F1A00A3E0FEA3E0FFEF24FFFFEE34FFFEED3433
:104F2A00FFFDEC34FFFC90003C1214CA90003CE0F8
:104F3A00FCA3E0FDA3E0FEA3E0FFEC4D4E4F70BBE7
:104F4A00A304F0C28280B4900040E0702920B32606
:104F5A00900038E0FBA3E0FAA3E0F9121400F5A0F0
:104F6A00126AB7900039E475F00112147A90003B86
:104F7A00E014F0E070DA75A0FFD2B2D2B4D2867F24
:064F8A00627E00026A8154
:10306E009000367402F0E4A3F090000E7402F0A308
:10307E00EFF07B017A00792C1264F07B017A0079F3
:10308E002C12000EE4FE9000367402F0742C2EF515
:10309E0082E43400F583E0FD900036E0FC04F07429
:1030AE000E2CF582E43400F583EDF01F0EEF70DC8C
:1030BE00900036E0FF04F0740E2FF582E43400F534
:1030CE0083742DF0900036E0A3F0240EF9E4340062
:1030DE00FA7B0112503D900037E0900036F0E0246C
:1030EE000EF582E43400F583E02430FF900036E0E4
:1030FE00FE04F0740E2EF582E43400F583EFF090AA
:10310E000036E0240EF582E43400F583E02430FF2F
:10311E00900036E0FE04F0740E2EF582E43400F5D5
:10312E0083EFF0900036E0240EF582E43400F58350
:10313E00E02430FF900036E0FE04F0740E2EF5828F
:10314E00E43400F583EFF0900036E0240EF582E4CF
:10315E003400F583E02430FF900036E0FE04F07476
:10316E000E2EF582E43400F583EFF0900036E02465
:10317E000EF582E43400F583E02430FF900036E053
:10318E00FE04F0740E2EF582E43400F583EFF09019
:10319E000036E0FF04F0740E2FF582E43400F58360
:1031AE00742DF07B017A01795D12000EE4FEEF6062
:1031BE0026745D2EF582E43401F583E0FD90003631
:1031CE00E0FC04F0740E2CF582E43400F583EDF08F
:1031DE001F0EEF70DC8014900036E0FF04F0740ECA
:1031EE002FF582E43400F5837420F0900036E0FF72
:1031FE0004F0740E2FF582E43400F5837403F0C2EC
:10320E00B230B3FD7B017A00790E900036E0FD12EC
:10321E004EDC126BA97B017A00790E900036E0FD30
:0C322E0090003C7401F0125ABA026BA927
:106AB700C2B47F287E00126A81D2B47F287E00028A
:026AC7006A81E2
:06573A00900010EFF0FBEF
:10574000D2B4C286E4A3F0A31214D600003A988B18
:10575000A0C2B230B343900011E0703DA3E0FCA3BF
:10576000E0FDA3E0FEA3E0FFEF24FFFFEE34FFFE29
:10577000ED34FFFDEC34FFFC9000121214CA9000CF
:1057800012E0FCA3E0FDA3E0FEA3E0FFEC4D4E4FD2
:1057900070C190001104F080BA900011E0700C20EC
:1057A000B309900010E0F5A0126AB7D2B2D2B4D219
:1057B0008675A0FF7F627E00126A817F627E000292
:0257C0006A81FC
:0A6B8200D2B4D2B2D28675A0FF2271
:10662F009000107402F0A37469F07B017A00791264
:10663F00124A777F8B1253F5900018EFF0A3740373
:0C664F00F07B017A0079107D0A024EDC1D
:103BAC00E4900020F09000107402F0A37444F090A4
:103BBC0000A574FFF0A3746CF0A37401F090017A6B
:103BCC00E0FFA3E09000A8CFF0A3EFF07B017A0018
:103BDC00791B1218AD90001F7402F0900020E024A5
:103BEC001BF582E43400F583E0FF601790001FE0C2
:103BFC002410F582E43400F583EFF0900020E0040B
:103C0C00F0801890001FE02410F582E43400F58356
:103C1C00743BF090001FE004F0800890001FE0045B
:103C2C00F080B89000A574FFF0A3746CF0A374013D
:103C3C00F0900176E0FFA3E09000A8CFF0A3EFF0A6
:103C4C007B017A00791B1218ADE4900020F09000F3
:103C5C0020E0241BF582E43400F583E0FF6017902C
:103C6C00001FE02410F582E43400F583EFF090009F
:103C7C0020E004F0801890001FE02410F582E4345A
:103C8C0000F583743BF090001FE004F08008900076
:103C9C001FE004F080B890001FE0FD2410F582E4D2
:103CAC003400F5837403F07B017A007910024EDC4A
:105CC1004461746F73204D462072657370756573FE
:105CD10074613A20004461746F73204D4620456E13
:105CE100766961646F733A20002F2A2D2D2D2D2D99
:105CF1002D2D2D2D2D2D2D2D2D2D2D2D2D2D2D2DD3
:105D01002D2D2D2D2D2D2D2D2D2D2D2D2D2D2D2DC2
:075D11002D2D2A2F0D0A00C1
:06684800AE07EEC313FED3
:10684E00E4FFEFD3940774809480500D0000000095
:09685E000000000000000F80E9B9
:01686700220E
:1068FA00E4FFEFD3940474809480500D00000000EC
:09690A000000000000000F80E90C
:016913002261
:025E5500AE0796
:105E5700C2AFC29012684E0000AD06EE5401FE704C
:105E670004C2908002D29012684E7C01ECD3940752
:105E7700748094805015EDC313FD5401FE7004C265
:105E8700908002D29012684E0C80E1D29012684E38
:055E970012684ED2AFBD
:015E9C0022E3
:0261AA00AB0741
:1061AC0090016AE06401703CEB54F0C4540FFFD3CF
:1061BC00940974809480400674372FFF80047430E7
:1061CC002FFF125E55EB540FFFD39409748094800B
:1061DC00400674372FFF800474302FFF125E557FFA
:0461EC0020125E55CA
:0161F000228C
:0E5ABA00900038EBF0A3EAF0A3E9F0A3EDF0C2
:105AC80090016AE06401705C90003CE0FF3395E06F
:105AD800FEEF4E7BFF60067A5C79C180047A5C79C0
:105AE800D6126439E490003DF090003BE0FF90004E
:105AF8003DE0C39F5024900038E0FBA3E0FAA3E008
:105B0800F9121400FF1261AA900039E475F001122D
:105B1800147A90003DE004F080CF7F0D125E557F2F
:045B28000A125E55AA
:015B2C002256
:0B643900900050EBF0A3EAF0A3E9F0A4
:10644400E4A3F090016AE064017027900053F09097
:106454000050E0FBA3E0FAA3E0F9A3E0F582758322
:1064640000121419FF600B125E55900053E004F003
:0264740080DDC9
:016476002203
:096BA9007BFF7A5C79EA02643991
:1057C2007EFF1268FA12684E208005747FFF800403
:1057D200EE4480FF126848EE208005547FFF80036C
:1057E2004480FF126848EE208005547FFF80034406
:1057F20080FF126848EE208005547FFF80034480BA
:10580200FF126848EE208005547FFF80034480FF2A
:10581200126848EE208005547FFF80034480FF1207
:105822006848EE208005547FFF80034480FF1268A1
:1058320048EE208005547FFF80034480FFAE0712AC
:07584200684E3080FDAF0647
:01584900223C
:056BF500D290D28022C5
:0E4E0F00010B00010C00010900010A00C10B9B
:0300230002481F71
:10481F00C0E0C083C082C0D075D000C000C004C04B
:05482F0005C006C007F2
:104834002098030248BCC298859908C3E509950AE3
:10484400FFE49400FEEF54F84E700BE5095407247E
:104854002CF8A6080509900168E0FFD3940A748037
:1048640094804005900173E4F0900173E014600FAC
:10487400047040900168E4F090017304F08039748E
:10488400222FF8A6087822E6FFFD7C006412700649
:1048940090017C04801AEFB4720790017C7402804A
:1048A4000FED641E4C90017C700474038002740448
:1048B400F08000900173E4F030991AC299E50B6519
:1048C4000C6010E50C5401245EF8E6F599050CC261
:0548D4000B8002D20B75
:1048D900D007D006D005D004D000D0D0D082D08364
:0348E900D0E032EA
:10665B00D310AF01C3C0D01266D7E4F50BF50CF520
:10666B0009F50AC29FD29EC29DD29CC298C299D2F2
:0A667B000BD2ACD2BCD0D092AF22FB
:1066D700D310AF01C3C0D0C299E4F50BF50CC28E3D
:1066E700C2AB43878053890F438920758DF4758B1F
:0866F700F4D28ED0D092AF2244
:10652C00D310AF01C3C0D09000D5EFF0126ADBC31B
:10653C00EF94027480948040047FFF80199000D502
:10654C00E0FFE50B5401245EF8A607050B300B04A5
:0B655C00C20BD2997F00D0D092AF227A
:10679E00D310AF01C3C0D0126AC9EF70067EFF7F5F
:1067AE00FF800EAF0A050AEF5407242CF8E6FF7E91
:0667BE0000D0D092AF22D2
:106AC900D310AF01C3C0D0C3E509950AFFD0D09256
:026AD900AF22EA
:106ADB00D310AF01C3C0D0C3E50B950CFFD0D09240
:026AEB00AF22D8
:0E6B6800E4F50BF50CF509F50AC298C2992266
:1033F40054697175657465204E6F3A20003E002053
:1034040046656368613A203230002D0020003A009E
:10341400205665686963756C6F3A20436172726FF8
:1034240000205665686963756C6F3A204D6F746F40
:1034340000506C6163613A20003E3C0A0025730031
:103444004E49543A202573000A0A0A0A0A0A000A55
:103454000A0A0A0020257300707970002020205485
:10346400697175657465204E6F3A200025730A00F2
:1034740020202046656368613A2020202020200017
:103484003230002020205665686963756C6F3A20DD
:103494002020436172726F0A0020202056656869FB
:1034A40063756C6F3A2020204D6F746F0A002020E2
:1034B40020506C6163613A2020202020005665680A
:1034C4006963756C6F20656E20656C206C6F6F701E
:1034D4000D0A0D0A0050756C7361646F72204163AC
:1034E4007469766F0D0A0050756C7361646F722095
:1034F4004E6F2041637469766F0D0A0056656869E2
:1035040063756C6F206E6F20656E20656C206C6F28
:103514006F700D0A0D0A005345515F504150454CE0
:103524000D0A00496D707265736F726120636F6E6E
:1035340020706170656C200D0A00496D70726573AE
:103544006F7261206E6F207469656E6520706170A2
:10355400656C200D0A004E6976656C2062616A6FA5
:1035640020646520706170656C200D0A00496D70DF
:103574007265736F7261206E6F20726573706F6E07
:103584006465200D0A00496D7072696D69656E6429
:053594006F200D0A008C
:084E1D004101A1004101A200C6
:0A6B8C007F1B1263FB7F400263FBD6
:1067E600900040EFF0A3EDF07F1B1263FB7F441295
:1067F60063FB900040E0FF1263FB900041E0FF0264
:0268060063FB32
:106A59007F1D1263FB7F501263FB7FB41263FB7FC0
:046A6900B40263FB15
:10695C00EF24BD600B24F1600A24067009026B1D44
:07696C00026B2C126B3B22B1
:0F6B1D007F1B1263FB7F611263FB7F300263FB00
:0F6B2C007F1B1263FB7F611263FB7F310263FBF0
:0F6B3B007F1B1263FB7F611263FB7F320263FBE0
:1069730090007EEFF07F1B1263FB7F4D1263FB9051
:07698300007EE0FF0263FB50
:10698A0090007EEFF07F1B1263FB7F331263FB9054
:07699A00007EE0FF0263FB39
:1069A10090007EEFF07F1B1263FB7F451263FB902B
:0769B100007EE0FF0263FB22
:1069B80090004FEFF07F1D1263FB7F211263FB9065
:0769C800004FE0FF0263FB3A
:1069CF0090004FEFF07F1B1263FB7F641263FB900D
:0769DF00004FE0FF0263FB23
:1069E600900040EFF07F1B1263FB7F4A1263FB901F
:0769F6000040E0FF0263FB1B
:1069FD0090004FEFF07F1B1263FB7F201263FB9023
:076A0D00004FE0FF0263FBF4
:106A140090004AEFF07F1D1263FB7F681263FB90C6
:076A2400004AE0FF0263FBE2
:106A2B0090004AEFF07F1D1263FB7F481263FB90CF
:076A3B00004AE0FF0263FBCB
:0F6B4A007F1D1263FB7F661263FB7F300263FBCC
:0E5E080090004AEFF0A3EBF0A3EAF0A3E9F05C
:105E16007F1D1263FB7F6B1263FB90004AE0FF124B
:105E260063FBE490004EF090004BE0FBA3E0FAA386
:105E3600E0F9A3E0F582758300121419FF600B12D6
:0F5E460063FB90004EE004F080DDE4FF0263FB9D
:106602007F1D1263FB7F281263FB7F6B1263FB7F8C
:10661200041263FBE4FF1263FB7F311263FB7F41D1
:0D6622001263FB7F321263FBE4FF0263FB97
:1066FF007F1D1263FB7F281263FB7F6B1263FB7F8F
:10670F00031263FBE4FF1263FB7F311263FB7F45D0
:08671F001263FB7F310263FBF2
:106727007F1D1263FB7F281263FB7F6B1263FB7F66
:10673700031263FBE4FF1263FB7F311263FB7F43AA
:086747001263FB7F070263FBF4
:0B59CF0090009FEBF0A3EAF0A3E9F0CA
:1059DA007F1D1263FB7F281263FB7F6B1263FB90B0
:1059EA00009FE0FBA3E0FAA3E0F912000E9000A2E8
:1059FA00EFF02403FF1263FBE4FF1263FB7F311213
:105A0A0063FB7F501263FB7F301263FBE49000A3B9
:105A1A00F09000A2E0FFA3E0FEC39F501F90009FFA
:105A2A00E0FBA3E0FAA3E0F98E8275830012141951
:0C5A3A00FF1263FB9000A3E004F080D595
:015A4600223D
:10674F007F1D1263FB7F281263FB7F6B1263FB7F3E
:10675F00031263FBE4FF1263FB7F311263FB7F5174
:08676F001263FB7F300263FBA3
:0A6B96007F1B1263FB7F690263FBA3
:106A420090000EEFF07F101263FB7F041263FB9045
:076A5200000EE0FF0263FBF0
:102C8D001266021266FF12672778407C007D017B79
:102C9D00FF7A3379F41217B47B017A0079901264BC
:102CAD00F09000A27401F0A37400F0A37490F07B77
:102CBD00017A007940125B9C9000A274FFF0A3741E
:102CCD0034F0A37401F07B017A007940125B9C9083
:102CDD0000A274FFF0A37434F0A37403F07B017AA7
:102CED00007940125B9C7B017A007990122E9690B0
:102CFD0000A27401F0A37400F0A37490F0A3E4F0AB
:102D0D00A37402F07B017A0079401249B29000A2BF
:102D1D0074FFF0A37434F0A3740EF07B017A007984
:102D2D0040125B9C9000A27401F0A37400F0A37498
:102D3D0092F0A3E4F0A37402F07B017A00794012C3
:102D4D0049B29000A274FFF0A37434F0A3740EF096
:102D5D007B017A007940125B9C9000A27401F0A374
:102D6D007400F0A37494F0A3E4F0A37402F07B015B
:102D7D007A0079401249B29000A274FFF0A3743426
:102D8D00F0A37410F07B017A007940125B9C9000E7
:102D9D00A27401F0A37400F0A37496F0A3E4F0A361
:102DAD007402F07B017A0079401249B29000A2744E
:102DBD00FFF0A37434F0A37412F07B017A00794014
:102DCD00125B9C9000A27401F0A37400F0A37498A0
:102DDD00F0A3E4F0A37402F07B017A00794012496C
:102DED00B29000A274FFF0A37434F0A37401F07BD1
:102DFD00017A007940125B9C90016FE09000A27007
:102E0D000C74FFF0A37434F0A37414800A74FFF0F3
:102E1D00A37434F0A37425F07B017A007940125B22
:102E2D009C9000A274FFF0A37434F0A37401F07BA6
:102E3D00017A007940125B9C9000A274FFF0A3749C
:102E4D0034F0A37435F07B017A007940125B9C90CD
:102E5D0000A27401F0A37401F0A3745DF07B017AFC
:102E6D00007940125B9C9000A274FFF0A37434F0C3
:102E7D00A3743DF07B017A007940125B9C7B017A53
:092E8D000079401259CF02674F91
:10449C00126B8CE4FD7F351267E6126A597F43126A
:1044AC00695C7F011269A17F011269B87F011269F1
:1044BC00FD7F061269E67B017A00790E7F107E0083
:1044CC00125C699000A57401F0A37400F0A3740E43
:1044DC00F07BFF7A3479411218B37B017A00790EA4
:1044EC007F407E00125C69E4FF1269A1E4FF12694F
:1044FC00B8E4FF1269FD9000A57401F0A37400F0FC
:10450C00A3740EF07BFF7A3479441218B37F4312F4
:10451C00695C7B017A00790E7F507E00125C699099
:10452C0000A57401F0A37400F0A3740EF07BFF7A65
:10453C003479411218B37F4312695C7B017A00799C
:10454C000E7F807E00125C699000A57401F0A3744C
:10455C0000F0A3740EF07BFF7A3479411218B37F0C
:10456C000A12698A7F4312695C122C8D12383D1233
:0E457C003A937BFF7A34794C1218B3026B9697
:1042B4007F0212698A7F011269CF125D6B126B8CC7
:1042C400E4FD7F351267E6126A597F4312695C7F09
:1042D400011269A17F011269B87F011269FD7F068D
:1042E4001269E67B017A00790E7F107E00125C6908
:1042F4009000A57401F0A37400F0A3740EF07BFF8A
:104304007A3479411218B37B017A00790E7F407EAA
:1043140000125C69E4FF1269A1E4FF1269B8E4FFCA
:104324001269FD9000A57401F0A37400F0A3740E4B
:10433400F07BFF7A3479441218B37F4312695C7BB3
:10434400017A00790E7F507E00125C699000A5749A
:1043540001F0A37400F0A3740EF07BFF7A3479416A
:104364001218B37F4312695C7B017A00790E7F8057
:104374007E00125C699000A57401F0A37400F0A3A0
:10438400740EF07BFF7A3479411218B37F0A1269F4
:104394008A12383D123A93125D6B7BFF7A3479535B
:0643A4001218B3026B9633
:105D6B00126B8C7F4312695C7F65126A147F311250
:105D7B006A2B126B4A7F311269737B017A0079406F
:105D8B001264F07B017A00794012000E74402FF5FB
:105D9B0082E43400F5837424F074412FF582E434EB
:105DAB0000F583E4F07B017A0079407F04025E0802
:103A93007F311269737F0A12698A7F4C12695CE471
:103AA300FF1269A17B017A0079407FB07E00125C2E
:103AB300699000A57401F0A37400F0A37440F07B37
:103AC300FF7A3479581218B37B017A0079407FF179
:103AD3007E00125C699000A57401F0A37400F0A34A
:103AE3007440F07BFF7A3479581218B37B017A0063
:103AF30079407F327E01125C699000A57401F0A3C6
:103B03007400F0A37440F07BFF7A3479581218B331
:103B13007B017A0079407F737E01125C699000A576
:103B23007401F0A37400F0A37440F07BFF7A34793E
:103B3300581218B37B017A0079407FB47E01125C7E
:103B4300699000A57401F0A37400F0A37440F07BA6
:103B5300FF7A3479581218B37B017A0079407FF5E4
:103B63007E01125C699000A57401F0A37400F0A3B8
:103B73007440F07BFF7A3479581218B37B017A00D2
:103B830079407F367E02125C699000A57401F0A330
:103B93007400F0A37440F07BFF7A3479581218B3A1
:093BA3007BFF7A34795C0218B34F
:10383D007F0A12698A7F011269A17F011269CF7F08
:10384D004C12695C7BFF7A3479601218B3E4FF1275
:10385D0069A17B017A0079401264F09000A5740192
:10386D00F0A37400F0A37440F07BFF7A34797012EA
:10387D0018B37B017A007940122E967F4C12695C49
:10388D007F011269A17BFF7A3479741218B3E4FFBA
:10389D001269A17BFF7A3479841218B3900040E04D
:1038AD00FF1263FB900041E0FF1263FB7F2D12635B
:1038BD00FB900042E0FF1263FB900043E0FF1263B8
:1038CD00FB7F2D1263FB900044E0FF1263FB900021
:1038DD0045E0FF1263FB7F201263FB900046E0FF83
:1038ED001263FB900047E0FF1263FB7F3A1263FB0C
:1038FD00900048E0FF1263FB900049E0FF1263FB6C
:10390D007F0A1263FB7F011269A190016FE07BFFBB
:10391D0070067A34798780047A34799D1218B37FD2
:10392D00011269B87F011269FD7F011269A17BFF48
:10393D007A3479B21218B39000A57401F0A3740112
:10394D00F0A3745DF07BFF7A3479701218B3E4FF45
:0D395D001269B8E4FF1269FDE4FF0269A1E0
:102A6200900171E014607A147003022B2614700333
:102A7200022BB8147003022C0E1460792405600333
:102A8200022C87900166E064016003022C8C125BC9
:102A92002DEF603C7BFF7A3479C11264399001A139
:102AA200E070107FFE1225A87FA012573A9001A174
:102AB2007401F0126BC77BFF20910E7A3479D91220
:102AC20064399001717401F0227A3479EB022B6E31
:102AD2007BFF7A357900126439E49001A1F0022C6F
:102AE200767F451243AA126B687FFE12573A900115
:102AF200717405801E900166E064016003022C8CF3
:102B02007BFF7A35791B1264397F04126A42900185
:102B1200717402F09001667446F0E490017CF090CA
:102B22000173F022900166E06401600990017CE08B
:102B32007003022C8C7B007A00792290003C740195
:102B4200F0FD125ABA90017CE064017011F07BFF33
:102B52007A3579271264399001667437803390018F
:102B62007CE06402700C7BFF7A35793E1264390294
:102B72002C7690017CE064037BFF701D7A35795AD4
:102B82001264399001667437F0E490017CF0900190
:102B920073F09001717403F0227A357971126439FD
:102BA2009001667405F0E490017CF0900173F0905E
:102BB20001717405F022900166E06401600620094B
:102BC20003022C8C7F6112306E7FA112573A7FFA7A
:102BD2001225A87BFF7A35798A12643990016CE05C
:102BE200600512449C80031242B49001667405F0A1
:102BF200E490017CF0900173F09001717404F0D2C2
:102C020097E4900167F01263BC0268A5900166E048
:102C1200640170769001A2E004F0E0D39412748013
:102C220094805045126BC7309129126BCE30910DB2
:102C32009001A2E0C3941274809480400DE490014C
:102C4200A2F09001A1F0C297802A7FFA1225A8C2B1
:102C52009780009001667405F0E490017CF0900189
:102C620073F09001717404F022E49001A2F09001DB
:102C7200A1F0C2979001667405F0E490017CF09097
:0A2C82000173F08001E4900171F08D
:012C8C002225
:046BFA00256C750091
:106B0D0090000AE41214587D007C057FA80256B04F
:106685009000A574FFF0A3746BF0A374FAF0A31245
:1066950014CA7B017A0079121218AD7B017A007950
:0A66A500127D007C057FA80256B0AC
:1068C3007B017A0079A67F007E05125C697B017AE1
:0C68D3000079A6123CBC9000A20214CA7E
:1063BC001268C390000E1214CA90000EE0FCA3E009
:1063CC00FDA3E0FEA3E0FFE4FAF9F8EF2401FFEAF5
:1063DC003EFEE93DFDE83CFC90000E1214CA900014
:0F63EC000EE0FCA3E0FDA3E0FEA3E0FF02668548
:106477009000A27409F0E4A3F09000A3E0FFC39496
:106487000A7480948050259000A2E0C39FFFE49493
:1064970000FE8F82F5831214196430700F8F828E7D
:0C64A700831214589000A3E004F080CD94
:0164B30022C6
:0B64F00090009FEBF0A3EAF0A3E9F09E
:1064FB001268C39000A574FFF0A3746BF0A374FA39
:10650B00F0A31214CA90009FE0FBA3E0FAA3E0F9FA
:10651B001218AD90009FE0FBA3E0FAA3E0F9026430
:01652B0077F8
:0B53560090000EEBF0A3EAF0A3E9F0DA
:10536100E4900012F0A3740CF0900169E064017004
:1053710073900011F0900013E0FF900011E0C39FC3
:105381005053E4FFFEFD30801DED701A0FBF000188
:105391000ED3EF9430EE947540EC7D01900013E054
:1053A100900011F080E0ED6401602A1257C2900074
:1053B1000EE0FBA3E0FAA3E0F9EF12144690000F10
:1053C100E475F00112147A900012E004F0900011DB
:1053D100E004F080A090000EE0FBA3E0FAA3E0F966
:0953E100E4121446900012E0FFF2
:0153EA0022A0
:0B50E30090000EEBF0A3EAF0A3E9F050
:1050EE00E4FF7E029000021214196403701C9000FB
:1050FE000EE0FBA3E0FAA3E0F9900001121419B43C
:10510E005008D297E4900167F02290000EE0FBA3C6
:10511E00E0FAA3E0F9900001121419643C70569065
:10512E00000EE0FBA3E0FAA3E0F98E827583001275
:10513E001419FD745D2FF582E43401F583EDF00E44
:10514E000F8E82758300121419640370D290000EB4
:10515E00E0FBA3E0FAA3E0F98E82758300E412145B
:10516E0058745C2FF582E43401F583E4F0D2099093
:05517E000166740AF057
:015183002209
:0543AA0090000EEFF091
:1043AF00E4A3F090001A7403F090017D14F0126AE8
:1043BF00A590017EEFF090000EE090017FF090014C
:1043CF006FE090001A6013E0FF04F0747D2FF58208
:1043DF00E43401F583744DF08011E0FF04F0747D37
:1043EF002FF582E43401F5837443F07B017A007971
:1043FF00101264F07B017A00791012000E90000FFA
:10440F00E02410F582E43400F583E0FE90001AE01A
:10441F00FD04F0747D2DF582E43401F583EEF01F79
:10442F0090000FE004F0EF70D490001AE0FF04F05A
:10443F00747D2FF582E43401F583743AF090001AFD
:10444F00E0247DF9E43401FA7B01122E9690001AD4
:10445F00E0FF2487F582E43401F583743AF0748821
:10446F002FF582E43401F5837403F07B017A01792F
:10447F007DEF240CFDE490003CF0125ABA7B017AD8
:0D448F0001797D90001AE0240CFD0262BD51
:0E62BD0090003FEBF0A3EAF0A3E9F0A3EDF0B0
:1062CB00E4A3F0900042E0FFA3E0C39F50249000B2
:1062DB003FE0FBA3E0FAA3E0F9121400FF125E55B6
:1062EB00900040E475F00112147A900043E004F042
:0262FB0080D150
:0162FD00227E
:0B47490090001DEBF0A3EAF0A3E9F0E4
:1047540090003E7403F090002014F0126AA59000BB
:1047640021EFF0A37453F090016FE090003E6013CA
:10477400E0FF04F074202FF582E43400F583744DD7
:10478400F08011E0FF04F074202FF582E43400F58A
:10479400837443F090003E7404F090001DE0FBA38A
:1047A400E0FAA3E0F9121400FF602190003EE02437
:1047B40020F582E43400F583EFF090001EE475F0F8
:1047C4000112147A90003EE004F080CE90003EE0A6
:1047D400FF04F074202FF582E43400F583743AF07A
:1047E40090003EE02420F9E43400FA7B01122E9676
:1047F40090003EE0FF242AF582E43400F583743A05
:10480400F0742B2FF582E43400F5837403F07B01FC
:0B4814007A007920EF240CFD0262BD49
:1068A500E4FFEFC3940974809480500F745D2FF555
:0D68B50082E43401F583E4F00F80E7C209AE
:0168C20022B3
:100D0A00020FB2E86480F8E933E83360110460F056
:100D1A00ED33EC337009E8FCE9FDEAFEEBFF22044F
:100D2A0060DED3EB9FEA9EE99DE8C2E78CF0C2F74A
:100D3A0095F0400CE8CCF8E9CDF9EACEFAEBCFFB16
:100D4A00120F7D85D0F05804700320D5B3E80470E3
:100D5A00075002B2D5020FBC92D5EC0460F7E4CC7E
:100D6A00C0E0C398F8603B94186008400DD0E0FBDF
:100D7A00020F94E4FBFAC9FC8028E830E406E4C9CF
:100D8A00FBE4CAFCE830E305E4C9CACBFCE8540733
:100D9A006010F8C3E913F9EA13FAEB13FBEC13FC3E
:100DAA00D8F130F52FC3E49CFCEF9BFFEE9AFEEDE1
:100DBA0099FDD0E0FBEF4E4D4C701222DB03020F7F
:100DCA00B9EC2CFCEF33FFEE33FEED33FDED30E7EB
:100DDA00EB020F94EF2BFFEE3AFEED39FDD0E0FB6C
:100DEA0050130BBB0003020FBCED13FDEE13FEEF15
:080DFA0013FFEC13FC020F943F
:100E0200EC4D6011E8497017ED33EC3304600DE4EA
:100E1200FCFFFEFD22E933E8330470F8020FB21240
:100E22000F7D58046009E4CC248150062850090241
:100E32000FBC284003020FB9C0E0EB4A7044B980EE
:100E420006D0E0FB020FA8EF4E701CBD8008EBFF3E
:100E5200EAFEE9FD80EBE98DF0A4FEE5F0020EEB7F
:100E6200E9CDF9EAFEEBFFEF89F0A4FCE5F0CE89CB
:100E7200F0A42EFFE435F0CD89F0A42DFEE435F088
:100E82008067EF4E7005BD80D780C3EF8BF0A4ACB6
:100E9200F0EE8BF0A42CFCE435F0F8EF8AF0A42CF1
:100EA200E5F038FCE433CB8DF0A42CFCE5F03BF804
:100EB200EE8AF0A42CFCE5F038F8E433CF89F0A4F4
:100EC2002CFCE5F038CF3400CE89F0A42FFFE5F0FA
:100ED2003EFEE433C98DF0A42EFEE5F039CD8AF052
:100EE200A42FFFE5F03EFEE43DFD33D0E0FB5007CA
:100EF2000BBB000F020FBCEC2CFCEF33FFEE33FEFA
:060F0200ED33FD020F9427
:100F080075F020800E75F010800575F0087D007E64
:100F1800007F003392D530D503121490EC33401083
:100F2800EF33FFEE33FEED33FDEC33FCD5F0ED226D
:0E0F3800E5F0247EA2D513CC92E7CDCEFF22A9
:100F4600EDD2E7CD33EC3392D524814006E4FFFEA3
:100F5600FDFC22FCE4CFCECDCC24E0501174FF8002
:100F6600EDC3CC13CCCD13CDCE13CECF13CF04709F
:070F7600F030D5DE021490FB
:10184800E50D24A5F582E43400F583E0050D22902A
:1018580000A23007039000A5E475F00112150702F5
:1018680014002000E97F2ED2008018EF540F249036
:10187800D43440D4FF30040BEF24BFB41A00500313
:101888002461FFE50E6002150E0511E511700205D1
:101898001030070E9000A2E475F001121507EF0250
:1018A80014460263FB7403D2078003E4C207F50DF4
:1018B8009000A212151EE4F50EF510F511E50E6064
:1018C800077F2012188B80F5750FFFC201C200C276
:1018D80002C203C205C206C208121857FF700D30B3
:1018E80007057F0012189CAF11AE1022B4255FC205
:1018F800D5C204121857FF24D0B40A00501A75F044
:101908000A780E30D50508B6FF0106C6A426F620CB
:10191800D5047002D20380D924CFB41A00EF500442
:10192800C2E5D204021B8ED20180C6D20080C0D28A
:101938000280BCD2D580BAD20580B47F2012188B21
:101948002002077401B50E0040F1121848FF121862
:101958008B0218C5D208D2068095121848FB1218B7
:1019680048FA121848F94A4B7006798C7A1C7BFFA2
:1019780020022EE50E602A7E008E827583001214E6
:101988001960060EEE650F70F0C2D5EBC0E0EAC034
:10199800E0E9C0E0EE121BEFD0E0F9D0E0FAD0E0C9
:1019A800FB121400FF60AAEBC0E0EAC0E0E9C0E067
:1019B80012188BD0E02401F9D0E03400FAD0E0FB13
:1019C800E50F0460DCD50FD98087D20280A2121BF4
:1019D800D160F7E50F70010412106BA90F600DE5D7
:1019E8000F600914F50F121C79EF60F3EA30E70273
:1019F800F404C3995079EAF4250F0430E701E404AC
:101A0800F50F800D121BD160C1EA050F250F1210CA
:101A18006BEA9000D1F030E701E4250F04D50F04FC
:101A280020050114121BEFE4C0E0121C799000D1CC
:101A3800E0601320E70714F0121873802204F0D036
:101A4800E014C0E07F00121873E50F600712186AEF
:101A5800150F800B30050312186AD0E00218C5D0A4
:101A6800E00480C4121BD1609EE50F0412106B9035
:101A780000D1EAF0E50F2005026001042404121BDE
:011A8800EF6E
:101A890074FF04C0E0121C79121873E50F200502D7
:101A9900600312186AD0E0B50FE87F4512187D90EF
:101AA90000D1E07F2B30E7047F2DF404C0E0121849
:101AB9008BD0E075F00A84C0F0121874D0E01218C7
