:1064AC00526563696265207472616D612070746FEE
:1064BC00200D0A006C6F6E6769747564206465202A
:0D64CC006C61207472616D613A200D0A0050
:104C47004101660A410167004101730041016800A3
:104C57004101710041016F0041017C0049015D0084
:104C670000000000000000004101720641017903C5
:064C7700410178F2C109C1
:03000B000267EB9E
:1067EB00C0E0C083C082900166E014F0A3E004F027
:0967FB00C28DD082D083D0E032BF
:1069C400E58954F04401F589E4F58CF58AD28C22EA
:056AC700C28DD2A922DE
:036AD500C2A92231
:0B6A4D00126675EFF47002EEF460F5C5
:016A5800221B
:0562D2009000D2EFF086
:1062D7009000D2E0FF126403EF3395E04F6024E4AF
:1062E7009000D3F0A3F0C39000D4E094E89000D3DB
:1062F700E0940350DBA3E004F070EB9000D3E004DC
:08630700F080E39000D2E0FFFA
:01630F00226B
:1069D400126ACC126A89126A59C283D287C2972278
:1054FD00E4FDFC7FA812643E90017AE4F0A3EFF086
:10550D007D027C007FA812643E900176E4F0A3EF4B
:10551D00F07D047C007FA812643E900174E4F0A33A
:10552D00EFF07D067C007FA812643E90016DE4F0E3
:10553D00A3EFF07D087C007FA812643E90016AEF16
:10554D00F07D0A7C007FA812643E900169EFF07D2A
:10555D000C7C007FA812643E900170EFF07D0E7CF4
:10556D00007FA812643E90016CEFF07D0F7C007FF0
:0A557D00A812643E90016BEFF022CB
:104B8C001269C4126AC71265321265AE1269D4D2A8
:104B9C00AF126A902091031227731254FD90016694
:104BAC007405F020803F7B017A00790012522D9021
:104BBC00000DEFF0126A807B017A00790090000DF5
:104BCC00E0FD124FBA7B017A00790090000DE0FDF8
:104BDC0090003C7401F01259917B017A01795D12BD
:104BEC006310126A80122BB620B34A7B017A0179CA
:104BFC003512519590000DEFF07BFF7A6479AC1271
:104C0C0063107B017A01793590000DE0FD90003C3A
:104C1C007401F01259917BFF7A6479C01263109081
:104C2C00000DE0FF1260817B017A01793590000D57
:0B4C3C00E0FD121CCB12591E024BAF12
:106804004C4956450A00477261626163696F6E20A4
:0868140053657269653A20002A
:0E1CCB0090000EEBF0A3EAF0A3E9F0A3EDF019
:101CD9006419704490000EE0FBA3E0FAA3E0F91246
:101CE90014006402703290000212141964487028BA
:101CF900900011E07E0024FFF582EE34FFF5831297
:101D090014196403701290000EA3A3E02403F9E4EC
:101D19003AFA1253E202647790000EE0FBA3E0FA6C
:101D2900A3E0F912140064B170057F60021EF490FB
:101D3900000EE0FBA3E0FAA3E0F912140064B2700C
:101D4900057F5D021EF490000EE0FBA3E0FAA3E01C
:101D5900F912140064B370057F63021EF490001138
:101D6900E06401701790000EE0FBA3E0FAA3E0F92C
:101D790012140064B470057F5E021EF4900011E035
:101D89006401701790000EE0FBA3E0FAA3E0F912DA
:101D9900140064B570057F62021EF490000EE0FB2A
:101DA900A3E0FAA3E0F912140064B6703990016750
:101DB900E0C394147480948040167FB61222C5C281
:101DC90082E4900167F0C297C283900166740AF0B9
:101DD90090016AE06003021FF4900169E064016008
:101DE90003021FF4804490000EE0FBA3E0FAA3E095
:101DF900F912140064AA7046900167E0C394147440
:101E09008094805003021FF4E4F0C297D282C28307
:101E1900900166740AF090016AE06003021FF49071
:101E29000169E064016003021FF490016A04F07B18
:101E3900FF7A687904126310E490016AF022900035
:101E490011E0FF6413703C90000EE0FBA3E0FAA3DD
:101E5900E0F990000112141964567027EF24FFFF6E
:101E6900E434FFFE8F82F583121419640370148F12
:101E7900828E83E4121458E92402F9E43AFA7F5B6A
:101E8900021F95900011E0FF6413704390000EE06B
:101E9900FBA3E0FAA3E0F912140064027031900088
:101EA90001121419644F7027EF24FFFFE434FFFE79
:101EB9008F82F583121419640370148F828E83E460
:101EC900121458E92402F9E43AFA7F9B021F95900B
:101ED9000011E06401701790000EE0FBA3E0FAA383
:101EE900E0F912140064A170057FE70222C5900091
:101EF90011E0FF64066003021F9890000EE0FBA347
:101F0900E0FAA3E0F912140064026003021F98903A
:101F1900000112141964577076FE74FF2FF582EED2
:101F290034FFF5831214196403706490000EA3A39F
:101F3900900002121419FD7B017A007912125BEFED
:101F49009000157420F090000EE0FBA3E0FAA3E0E6
:101F5900F9900003121419FD90000EA3A390000438
:101F6900121419900021F07B017A007916121FF5DD
:101F7900900169E064017B017A0079127F5C700C41
:101F89001232ED7B017A0079120246200232ED907D
:101F99000011E0FF640C705390000EE0FBA3E0FA1F
:101FA900A3E0F912140064027041FE74FF2FF58258
:101FB900EE34FFF5831214196403702F90000EA3F9
:101FC900A3E02401F9E43AFA1269E47BFF7A68791B
:101FD9000A12631090000EE0FBA3E0FAA3E0F9A354
:0B1FE900E0FD90003C7401F0125991E3
:011FF40022CA
:08000300D294126ADBC29422C0
:056215009000A5EFF070
:10621A00E4A3F0A3F09000A5E0FFA2E713F030D7C3
:10622A0004D2958002C2951200039000A7E004F000
:10623A0070069000A6E004F0C39000A7E0940890CE
:09624A0000A6E06480948040CCC1
:016253002228
:0A52C200EBF0A3EAF0A3E9F07F8D02
:0552CC009000A2EFF0CC
:1052D100D2967F037E001269589000A2E0FF12620D
:1052E10015E49000A3F0A3F09000A3E0FCA3E0FD7F
:1052F100C39408EC64809480504F3095169001A3BC
:10530100E04480F0ED9406EC648094805005E0FF69
:10531100C313F02095209001A3E0547FF0D39000B7
:10532100A4E094069000A3E064809480500890016A
:10533100A3E0FFC313F01200039000A4E004F07097
:10534100A79000A3E004F0809FC2969001A3E0FF24
:015351002239
:10658600900020EFF0A3EDF0D2967F037E00126913
:1065960058900020E0FF126215900021E0FF900065
:0865A60020F0126215C29622DA
:1061530090001EE475F00112147A90001EE475F0AD
:106163000112147A90001EE475F00112147A900063
:106173001DE0FBA3E0FAA3E0F9121400FF90000175
:04618300121419FDDC
:0C618700EF540FC454F0FFED540F4FFF15
:0161930022E9
:1053E20090001DEBF0A3EAF0A3E9F0126171AD07A2
:1053F2007F86126586126153AD077F88126586909B
:10540200001EE475F00112147A90001EE475F0019A
:1054120012147A126153AD077F8C126586126153A2
:10542200AD077F84126586126153AD077F821265D4
:1054320086126153AD077F8012658690001EE47567
:10544200F00112147A90001EE475F00112147A90A1
:10545200001EE475F00112147A90001DE0FBA3E037
:0F546200FAA3E0F9121400540FFD7F8A02658649
:10675E00AE07EEC4540F540FFE6012EF540FFFE459
:0D676E00FDEDC39E5007740A2FFF0D80F44F
:01677B0022FB
:105BEF00E4FFFE90001DEDF090001DE0C39464747F
:105BFF008094804007E0249CF00F80ECEF4430123B
:105C0F001446740129F9E43AFA90001DE0C3940A8E
:105C1F00748094804007E024F6F00E80ECEE443060
:105C2F00121446740129F9E43AFA90001DE0443049
:035C3F0002144606
:0E1FF50090001DEBF0A3EAF0A3E9F0A3EDF0DD
:10200300E4900022F0A3F0900025F0A3F0A3F0A346
:10201300F0900024EDF054F0F0E0FFC4540FF09082
:10202300002D1214D6404000007F007E007D807C8E
:1020330041123470C004C005C006C007900024E0FC
:10204300FCE4120F12D003D002D001D000120E0212
:10205300C004C005C006C007900022E0FCA3E0FD59
:10206300E4120F0DD003D002D001D000120D1112D3
:102073000F46900022EEF0A3EFF0900020E09000D6
:1020830024F0540FF090002D1214D6400000007F6E
:10209300007E007D807C41123470C004C005C00600
:1020A300C007900024E0FCE4120F12D003D002D04A
:1020B30001D000120E02C004C005C006C007900084
:1020C30022E0FCA3E0FDE4120F0DD003D002D00107
:1020D300D000120D11120F46900022EEF0A3EFF084
:1020E300900021E0900024F054F0F0E0FFC4540F7E
:1020F300F090002D1214D63F8000007F007E007DFB
:10210300807C41123470C004C005C006C007900033
:1021130024E0FCE4120F12D003D002D001D000124D
:102123000E02C004C005C006C007900022E0FCA355
:10213300E0FDE4120F0DD003D002D001D000120D48
:1021430011120F46900022EEF0A3EFF0900021E071
:10215300900024F0540FF090002D1214D6000000CC
:10216300007F007E007D807C41123470C004C00576
:10217300C006C007900024E0FCE4120F12D003D085
:1021830002D001D000120E02C004C005C006C00771
:10219300900022E0FCA3E0FDE4120F0DD003D00277
:1021A300D001D000120D11120F46900022EEF0A3C1
:1021B300EFF0C3EF9410EE9427401074F02FFF74E8
:1021C300D83EFE900025E004F080E7900025E0442F
:1021D30030FD90001DE0FBA3E0FAA3E0F9ED12143B
:1021E3004690001EE475F00112147AC3EF94E8EEF2
:1021F3009403401074182FFF74FC3EFE900026E0F9
:1022030004F080E7900026E04430FD90001DE0FBE1
:10221300A3E0FAA3E0F9ED12144690001EE475F072
:102223000112147AC3EF9464EE94004010749C2F4F
:10223300FF74FF3EFE900027E004F080E790002744
:10224300E04430FD90001DE0FBA3E0FAA3E0F9EDCC
:1022530012144690001EE475F00112147AC3EF9431
:102263000AEE9400401074F62FFF74FF3EFE9000B8
:1022730028E004F080E7900028E04430FD90001D42
:10228300E0FBA3E0FAA3E0F9ED12144690001EE48C
:1022930075F00112147AEF4430FF90001DE0FBA3A8
:1022A300E0FAA3E0F9EF12144690001EE475F00182
:1022B30012147A90001DE0FBA3E0FAA3E0F9E40214
:0222C3001446BF
:032DB00090009FF1
:102DB3001252C2EF54F0C4540F4430FE90009FE00F
:102DC300FBA3E0FAA3E0F9EE1214469000A0E47529
:102DD300F00112147AEF540F4430FF90009FE0FB90
:102DE300A3E0FAA3E0F9EF1214469000A0E475F013
:102DF3000112147A7F891252CCEF54F0C4540F4459
:102E030030FE90009FE0FBA3E0FAA3E0F9EE12147A
:102E1300469000A0E475F00112147AEF540F443089
:102E2300FF90009FE0FBA3E0FAA3E0F9EF12144642
:102E33009000A0E475F00112147A7F871252CCEF50
:102E430054F0C4540F4430FE90009FE0FBA3E0FA1B
:102E5300A3E0F9EE1214469000A0E475F0011214F9
:102E63007AEF540F4430FF90009FE0FBA3E0FAA3F6
:102E7300E0F9EF1214469000A0E475F00112147A01
:102E83007F851252CCEF54F0C4540F4430FE9000AF
:102E93009FE0FBA3E0FAA3E0F9EE1214469000A032
:102EA300E475F00112147AEF540F4430FF90009F41
:102EB300E0FBA3E0FAA3E0F9EF1214469000A0E4CC
:102EC30075F00112147A7F831252CCEF54F0C4547C
:102ED3000F4430FE90009FE0FBA3E0FAA3E0F9EE7D
:102EE3001214469000A0E475F00112147AEF540F07
:102EF3004430FF90009FE0FBA3E0FAA3E0F9EF1258
:102F030014469000A0E475F00112147A7F811252E6
:102F1300CCEF54F0C4540F4430FE90009FE0FBA369
:102F2300E0FAA3E0F9EE1214469000A0E475F00174
:102F330012147AEF540F4430FF90009FE0FBA3E09C
:102F4300FAA3E0F9EF1214469000A0E475F0011221
:102F5300147A7F8B1252CCEF540F4430FF90009FB2
:102F6300E0FBA3E0FAA3E0F9EF1214469000A0E41B
:102F730075F00112147A90009FE0FBA3E0FAA3E03E
:052F8300F9E402144610
:104F14009000381252C212675E900038E0FBA3E0A2
:104F2400FAA3E0F9EF121446900039E475F0011287
:104F3400147A7F891252CC12675E900038E0FBA38A
:104F4400E0FAA3E0F9EF121446900039E475F00199
:104F540012147A7F871252CC12675E900038E0FBFD
:104F6400A3E0FAA3E0F9EF121446900039E475F0D7
:104F74000112147A7F851252CC12675E900038E0D9
:104F8400FBA3E0FAA3E0F9EF121446900039E475AC
:104F9400F00112147A7F831252CC12675E900038AB
:104FA400E0FBA3E0FAA3E0F9EF121446900039E421
:064FB40075F00102147A01
:10494E0090002A1252C290002AE0FBA3E0FAA3E0E4
:10495E00F9EF12144690002BE475F00112147A7FD1
:10496E00891252CC90002AE0FBA3E0FAA3E0F9EF03
:10497E0012144690002BE475F00112147A7F871200
:10498E0052CC90002AE0FBA3E0FAA3E0F9EF121458
:10499E004690002BE475F00112147A7F851252CCEA
:1049AE0090002AE0FBA3E0FAA3E0F9EF1214469080
:1049BE00002BE475F00112147A7F831252CC900012
:1049CE002AE0FBA3E0FAA3E0F9EF12144690002BC5
:1049DE00E475F00112147A7F811252CC90002AE015
:1049EE00FBA3E0FAA3E0F9EF12144690002BE47556
:1049FE00F00112147A90002AE0FBA3E0FAA3E0F98A
:044A0E00E402144664
:076A8900C294C296D29522CF
:10695800E4FDFCC3ED9FEC9E50070DBD00010C80CB
:01696800F23C
:01696900220B
:0467B600AB07AA067D
:1067BA00900000C3E5829BE5839A500A7F967E008B
:0667CA00126958A380EDE6
:0167D00022A6
:016ADB002298
:0366DF0012669BA5
:1066E200D20AD293D292E4FFFE209205C20AC2934A
:0C66F200220FBF00010EBE04F0BF4CEDF3
:0166FE002279
:0366FF0012669B85
:10670200D293D292D20AE4FFFE209205C20AC29329
:0C671200220FBF00010EBE02F0BF8AED96
:01671E002258
:066AC100D29300C29322F3
:10669B00E4FEEEC39408748094805015EF25E0FF60
:1066AB0030D704D2928002C292D293126AC10E806A
:0166BB00E1FD
:0166BC0022BB
:08696A00ECFD7C00C293C29217
:0A697200D292D29300C292C2932287
:096A7700C293C292D293D2922282
:105C9200E4FBEBFDC39408748094805038C29330C7
:105CA200921690019CE04401F0ED94067480948079
:105CB2005006E025E0F0D29320921790019CE05428
:105CC200FEF0EBD39406748094805006E025E0F059
:0C5CD200D2930B80BDC29390019CE0FFB8
:015CDE0022A3
:02625400AA0797
:10625600AF05A90712696AAF021266DFAF051266BB
:10626600DFAF0112669B1266E2AF0312669B1266EF
:10627600E2126A777F0D7E001267B6D293D2927FC2
:0D628600627E001269587F627E0002695836
:02643E00AB07AA
:10644000AF05AA0712696AAF031266FFAF051266AD
:10645000FFAF0212669B126702126972EB04FF1211
:10646000669B1266E2C293125C92126A77D293D252
:066470009290019CE0FF88
:016476002203
:105B40009000B0EEF0A3EFF0A3EBF0A3EAF0A3E92E
:015B5000F064
:105B51009000B0E0FCA3E0FD7FA812643E9000B28B
:105B6100E0FBA3E0FAA3E0F9EF1214469000B2E0E3
:105B7100FBA3E0FAA3E0F9121400FF9000B1E004E6
:105B8100F070069000B0E004F09000B3E475F0010D
:065B910012147AEF70BA55
:015B970022EB
:1055870090007DEFF0A3ECF0A3EDF0A3EBF0A3EA1E
:10559700F0A3E9F0900080E0FBA3E0FAA3E0F912A2
:1055A7001400603CB40D04E412144690007DE0FF43
:1055B700A3E0FCA3E0FDA3E0FBA3E0FAA3E0F9125C
:1055C7001400FB12625490007FE004F07006900014
:1055D7007EE004F0900081E475F00112147A80B443
:1055E700900080E0FBA3E0FAA3E0F9E412144690F0
:1055F700007DE0FFA3E0FCA3E0FDA3E0FBA3E0FA4E
:0A560700A3E0F9121400FB02625444
:10505B0053656E736F726573204175746F20792081
:10506B0073656E736F72312061637469766F732E23
:10507B000053656E736F722061637469766F207372
:10508B00656E736F7231202E0044657465637461B5
:10509B00646F2E2053656E736F72204175746F2E83
:1050AB000053656E736F726573206E6F2064657449
:1050BB0065637461646F73005665686963756C6FC3
:1050CB00204573706572616E646F2053616C6972F9
:1050DB002E005665686963756C6F2053616C69654A
:1050EB006E646F2E20556E206D6F6D656E746F0044
:076A9000C2B5C2B6C2B72275
:076A9700C2B5D2B6C2B7225E
:076A9E00D2B5D2B6C2B72247
:076AA500C2B5C2B6D2B72250
:076AAC00D2B5C2B6D2B72239
:076AB300C2B5D2B6D2B72232
:076ABA00D2B5D2B6D2B7221B
:10673F00E4FF7D2C7C01309115EFFB3395E04B701E
:0E674F000DED1D70011CED4C70EC7F0180E81B
:01675D002219
:10697C007F31126AB33091010F126ABA3091020F53
:01698C000FFB
:01698D0022E7
:105A0400126AA530915D12673FEF3395E0FEEF64B3
:105A1400014E7047126AAC209123126A977BFF20D3
:105A2400910D7A50795B126310E490016F80227AB1
:105A340050797C12631090016F74018014126A977C
:105A44007BFF2091107A50799412631090016F7447
:105A540001F07FFF227A5079AC800E7BFF7A507977
:0F5A6400C380067BFF7A5079DD1263107F00222A
:10591E00126A9020916190000EE07014A3E0701056
:10592E0030B35404F012650690000E7401F08047F7
:10593E0090000EE064017014A3E0701030B33804D0
:10594E00F0123A8390000E7402F0802B90000EE05D
:10595E0064027023A3E0701F30B31C04F07D667CDC
:10596E00007FA812643EBF53047F5380027F4E1205
:10597E005611E490000EF0126A90309105E49000FA
:02598E000FF018
:0159900022F4
:10251F004552524F523A2056414C4944414E444F36
:10252F0020504C4143412E2E2E20004552524F52E7
:10253F003A204C4F4F50312053494E205052455363
:10254F00454E434941205645484943554C41522039
:10255F00004552524F523A205441524A455441205D
:10256F00494E56414C49444120005441524A45542A
:10257F0041204E4F2045532044454C20504152514D
:10258F002E20005441524A4554412053494E204673
:10259F004F524D41544F20005441524A455441200F
:1025AF004E4F205245474953545241205041474FB7
:1025BF002000455843454445205449454D504F2030
:1025CF004445204752414349412000465545524119
:1025DF00204445204C494E454120004249454E5626
:1025EF00454E49444F2050554C534520454C2042B1
:1025FF004F544F4E20004552524F523A2053494E9E
:10260F0020494E475245534F20005449434B4554A0
:10261F00204E6F2E00613B30333B4249454E5645AD
:10262F004E49444F0A0D0000613B30373BA1204D0E
:10263F00454E5355414C494441442056454E43491C
:10264F00444120210A0D0000613B39343B4D454E7A
:10265F005355414C494441442045585049524F0A23
:10266F000D0000613B39353B4D454E5355414C49AB
:10267F004441442045584345444520484F52415218
:10268F00494F204143455251554553452041204321
:10269F00414A410A0D0000613B39373B4D454E53CE
:1026AF0055414C204E4F205041474F204C4F4341F6
:1026BF0043494F4E20484F590A0D0000613B3933B3
:1026CF003B4D454E5355414C2059412045535441A4
:1026DF0020454E20504152515545414445524F0AD5
:1026EF000D000057494547414E442000613B3932A8
:1026FF003B57494547414E4420000A004441544F3F
:10270F002057494547414E44000D0A00613B39317E
:10271F003B4752414349415320000A0000AA8028F9
:10272F0007200000000000140000AA80180102001A
:10273F00AA8018020200AA801801020000000000FF
:10274F00000000000000000000000000000000007A
:10275F00000000000000000000000000000000006A
:04276F000000000066
:09664E00900052E025E0FFE4FD9C
:05665700900059EDF078
:10665C001262D290005AEFF0900059E0600AE4FF09
:08666C001262D290005AEFF017
:016674002203
:0E638B00900053EBF0A3EAF0A3E9F0A3EDF0CD
:10639900E4A3F0900053E0FBA3E0FAA3E0F9900036
:1063A90057E0F582758300121419FF6010900056AA
:0D63B900E0FD126657900057E004F080D61A
:0163C60022B4
:0E60C800900053EBF0A3EAF0A3E9F0A3EDF093
:1060D600E4900058F0900056E0FF900058E0FEC3B0
:1060E6009F5024900053E0FBA3E0FAA3E0F98E82D0
:1060F600758300121419FF900057E0FD1266579041
:076106000058E004F080CE18
:01610D00226F
:10647700781D7C007D017BFF7A27792C7E007F0DBC
:106487001213DAC2877B017A00792212494EC29C25
:106497007B017A00791DE4900057F07D0D1260C8EA
:0464A700D29CD2872A
:0164AB0022CE
:065826007B017A007927E6
:0B582C00900053EBF0A3EAF0A3E9F0BA
:1058370012000E900057EFF0E4900056F0900057DA
:10584700E0FF900056E0C39F503DE4900058F09071
:105857000058E0C39464748094805005E004F0809D
:10586700EE900053E0FBA3E0FAA3E0F9A3E0F58292
:10587700758300121419FF1262D2900058EFF0904E
:105887000056E004F080B6E4900058F0900058E02D
:0E589700C39464748094805005E004F080EEA9
:0158A50022E0
:0522C50090001DEFF088
:1022CA0078467C007D017BFF7A2779397E007F067C
:1022DA001213DA784C7C007D017BFF7A27793F7EE6
:1022EA00007F061213DAC28790016BE060030224B2
:1022FA00D07B017A007946FD12638B90001DE012B3
:10230A0015272331502410B623B1DF2351E023715E
:10231A00E12391E5244EE623D1E723F1E82472FA7A
:10232A00242FFE000024CD7BFF7A25791F12000E90
:10233A00900052EFF0E4FDFF12665712664E7BFFE3
:10234A007A25791F02246B7BFF7A25793A12000ECF
:10235A00900052EFF0E4FDFF12665712664E7BFFC3
:10236A007A25793A02246B7BFF7A25796012000E6E
:10237A00900052EFF0E4FDFF12665712664E7BFFA3
:10238A007A25796002246B7BFF7A25797912000E0F
:10239A00900052EFF0E4FDFF12665712664E7BFF83
:1023AA007A25797902246B7BFF7A25799212000EBD
:1023BA00900052EFF0E4FDFF12665712664E7BFF63
:1023CA007A25799202246B7BFF7A2579A712000E6F
:1023DA00900052EFF0E4FDFF12665712664E7BFF43
:1023EA007A2579A702246B7BFF7A2579C112000E20
:1023FA00900052EFF0E4FDFF12665712664E7BFF23
:10240A007A2579C1805B7BFF7A2579DA12000E90F2
:10241A000052EFF0E4FDFF12665712664E7BFF7A18
:10242A002579DA803C7BFF7A2579EA12000E900042
:10243A0052EFF0E4FDFF12665712664E7BFF7A25D3
:10244A0079EA801D7BFF7A26790512000E900052E8
:10245A00EFF0E4FDFF12665712664E7BFF7A26798B
:10246A00057D0112638B805B7B017A00791E126302
:10247A00C7782D7C007D017BFF7A2679191217B463
:10248A009000A27401F0A37400F0A3741EF07B0103
:10249A007A00792D125A737B017A00792D12000E77
:1024AA00EF04900052F0E4FDFF12665712664E7B6D
:1024BA00017A00792D900052E0FD9000577401F0E6
:1024CA001260C8D28722C28790001DE024A260232E
:1024DA0014602824FE602C24FE603024AF600C2493
:1024EA00B670317BFF7A26792480267BFF7A26799B
:1024FA0037801E7BFF7A26795780167BFF7A2679EA
:10250A0072800E7BFF7A2679A680067BFF7A26796F
:04251A00CB12582C5C
:01251E00229A
:0E32ED0090001DEFF0A3EBF0A3EAF0A3E9F0D0
:1032FB0078217C007D017BFF7A2779457E007F0654
:10330B001213DA78277C007D017BFF7A27794B7EBD
:10331B00007F281213DAC28790016BE07060900077
:10332B001DE0245070557B017A007921E4FD126376
:10333B008B7BFF7A2679F212000E90004FEFF09004
:10334B00001EE0FBA3E0FAA3E0F912000E90004F81
:10335B00E02F04F0E4FDFF12665790004F12665108
:10336B007BFF7A2679F27D0112638B90001EE0FBC6
:10337B00A3E0FAA3E0F97D0112638BD28722C28707
:10338B0090001DE004606924A3600302346F78276A
:10339B007C007D017BFF7A2679FB1217B490001E0F
:1033AB00E0F9A3E0FAA3E09000A2C9F0A3EAF0A32E
:1033BB00E9F07B017A007927125A739000A274FF0F
:1033CB00F0A37427F0A37409F07B017A007927121C
:1033DB005A731258267BFF7A27790B1263107B01E5
:1033EB007A0079271263107BFF7A27791802631012
:1033FB0078277C007D017BFF7A27791B1217B4900D
:10340B00001EE0FBA3E0FAA3E0F912000E90004FC0
:10341B00EFF024FFFFE434FFFE90001EE0FBA3E07F
:10342B00FAA3E0F98F828E83E412145890001EE009
:10343B00F9A3E0FAA3E09000A2C9F0A3EAF0A3E994
:10344B00F07B017A007927125A739000A274FFF077
:10345B00A37427F0A37429F07B017A007927125A01
:04346B00731258265A
:01346F00223A
:100026000D0A0A25733E20002563002564000D0A8B
:100036000A2041435455414C2049445F434C4945AD
:100046004E54453D25730D0A0A000D0A0A204449FF
:1000560047495445205355204E5545564F2049444F
:100066005F434C49454E54453D000D0A0A20444124
:10007600544F204D4F444946494341444F2049443B
:100086005F434C49454E54453D25730D0A0A000D04
:100096000A0A2041435455414C20434F445F504186
:1000A600524B3D25730D0A0A000D0A0A20444947A2
:1000B600495445205355204E5545564F20434F44ED
:1000C6005F5041524B3D000D0A0A204441544F20D7
:1000D6004D4F444946494341444F20434F445F50A6
:1000E60041524B3D25730D0A0A000D0A0A20414371
:1000F6005455414C205449454D504F5F475241435A
:1001060049413D25730D0A0A000D0A0A2044494754
:10011600495445205355204E5545564F2054494580
:100126004D504F5F4752414349413D000D0A0A2059
:100136004441544F204D4F444946494341444F2082
:100146005449454D504F5F4752414349413D257300
:100156000D0A0A000D0A0A2041435455414C20530A
:10016600494E5F434F42524F20494E484142494C07
:10017600495441444F3D25730D0A0A000D0A0A20D1
:1001860041435455414C2053494E5F434F42524FD1
:10019600204752415449533D25730D0A0A000D0A62
:1001A6000A2041435455414C2053494E5F434F4228
:1001B600524F2047524154495320592053414C49EC
:1001C600444120454C204D49534D4F204449413D23
:1001D60025730D0A0A000D0A0A2044494749544569
:1001E600205355204E5545564F2053494E5F434F99
:1001F60042524F3D000D0A0A2041435455414C20BE
:10020600444542554720494E484142494C4954418C
:10021600444F3D25730D0A0A000D0A0A2041435436
:1002260055414C20444542554720484142494C4996
:100236005441444F3D25730D0A0A000D0A0A204415
:10024600494749544520454C204E5545564F204573
:10025600535441444F2044452044454255473D00B0
:100266000D0A0A2041435455414C205553455F4CD5
:10027600505220494E484142494C495441444F3D11
:1002860025730D0A0A000D0A0A2041435455414CB4
:10029600205553455F4C505220484142494C4954E1
:1002A60041444F3D25730D0A0A000D0A0A204449B0
:1002B6004749544520454C204E5545564F204553F9
:1002C6005441444F204445205553455F4C50523DC0
:1002D600000D0A0A2041435455414C20434F4D50CE
:1002E60041524143494F4E204143544956412049CA
:1002F6004E484142494C495441444F3D25730D0AED
:100306000A000D0A0A2041435455414C20434F4DE3
:100316005041524143494F4E204143544956412092
:1003260020484142494C495441444F3D25730D0AEA
:100336000A000D0A0A2044494749544520454C20E5
:100346004E5545564F2045535441444F2044452071
:10035600434F4D5041524143494F4E20414354492A
:100366005641203D000D0A0A2041435455414C2078
:10037600434F4D5041524143494F4E20414354490A
:1003860056412020494E484142494C495441444F28
:100396003D25730D0A0A000D0A0A204143545541B2
:1003A6004C20434F4449474F204445204241525236
:1003B6004153204143544956303D25730D0A0A00E6
:1003C6000D0A0A2041435455414C20434F444947A6
:1003D6004F2051522041435449564F3D25730D0A33
:1003E6000A000D0A0A2044494749544520454C2035
:1003F6004E5545564F2045535441444F20444520C1
:10040600434F4449474F205152204F20434F4449C0
:10041600474F204445204241525241533D000D0A68
:100426000A2050414E54414C4C41204C43442048F4
:100436004142494C49544144413D25730D0A0A0045
:100446000D0A0A2050414E54414C4C412052415312
:100456005042455252592020484142494C49544144
:1004660044413D25730D0A0A000D0A0A20444947F6
:1004760049544520454C204E5545564F204553542A
:1004860041444F204445204C412050414E54414C5C
:100496004C41203D000D0A0A2050414E54414C4C1F
:1004A60041204C4344204143544956413D25730D58
:1004B6000A0A000D0A0A2050414E54414C4C412074
:1004C6005241535042455252592041435449564194
:1004D600203D25730D0A0A000D0A0A204469676942
:1004E600746520656C206E6F6D6272652064656C44
:1004F60020636C69656E746520000D0A0A207465B8
:1005060078746F206772616261646F3D25730D0AAE
:100516000A000D0A0A2044696769746520656C2023
:100526006E756D65726F206465204E697420000DCE
:100536000A0A204E49543A2025730D0A0A000D0A6C
:100546000A2044696769746520656C204E6F6D6288
:1005560072652064656C20506172717565616465B1
:10056600726F20000D0A0A204E6F6D6272653A2086
:1005760025730D0A0A000D0A0A2044696769746525
:10058600206C6120646972656363696F6E206465BF
:100596006C2065737461626C6563696D69656E7400
:1005A6006F20000D0A0A20446972656363696F6EE5
:1005B6003A2025730D0A0A000D0A0A204469676964
:1005C600746520656C206D736A312064656C2065E6
:1005D600737461626C6563696D69656E746F200022
:1005E6000D0A0A206D736A313A2025730D0A0A0036
:1005F6000D0A0A2044696769746520656C206D736D
:100606006A322064656C2065737461626C65636927
:100616006D69656E746F20000D0A0A20446967696A
:10062600746520656C206D736A332064656C206583
:10063600737461626C6563696D69656E746F2000C1
:100646000D0A0A206D736A333A2025730D0A0A00D3
:100656000D0A0A2044696769746520656C206D730C
:100666006A342064656C2065737461626C656369C5
:100676006D69656E746F20000D0A0A206D736A3409
:100686003A2025730D0A0A000D0A0A204469676993
:10069600746520656C206D736A352064656C206511
:1006A600737461626C6563696D69656E746F200051
:1006B6000D0A0A206D736A353A2025730D0A0A0061
:1006C6000D0A0A2044696769746520656C206D739C
:1006D6006A362064656C2065737461626C65636953
:1006E6006D69656E746F20000D0A0A206D736A3697
:1006F6003A2025730D0A0A000D0A0A204469676923
:10070600746520656C206D736A372064656C20659E
:10071600737461626C6563696D69656E746F2000E0
:100726000D0A0A206D736A373A2025730D0A0A00EE
:100736000D0A2049445F434C49454E54452020202C
:10074600202D2D2D20636D642030204964656E7444
:100756006966696361646F722064656C20636C69A5
:10076600656E7465206D6178696D6F203235350070
:100776000D0A20434F445F5041524B202020202039
:10078600202D2D2D20636D64203120456C206E7543
:100796006D65726F2064656C20706172717565613C
:1007A6006465726F206D6178696D6F203235350032
:1007B6000D0A20545F475241434941202020202002
:1007C600202D2D2D20636D642032205469656D70B7
:1007D6006F2073696E20636F62726F2030302C2039
:1007E600206D6178696D6F20323535000D0A205312
:1007F600494E5F434F42524F20202020202D2D2D61
:1008060020636D64203320496E686162696C697487
:1008160061646F3D20302C204772617469733D20FE
:1008260031202C2047726174697320792073616CC2
:1008360069646120656C206D69736D6F2064696100
:100846003D2032000D0A20444542554720202020F5
:1008560020202020202D2D2D20636D64203420485B
:100866006162696C69746172203D20312C20496E89
:10087600686162696C69746172203D2030000D0AFE
:10088600205553455F4C5052202020202020202DFB
:100896002D2D20636D642035486162696C69746131
:1008A60072203D20312C20496E686162696C697442
:1008B6006172203D2030000D0A20434F4D504152B9
:1008C6004143494F4E5F414354495641202D2D2DFA
:1008D600636D64203620486162696C6974617220B8
:1008E6003D20312C20496E686162696C69746172C1
:1008F600203D2030000D0A2051525F434F445F4295
:100906004152524153202D2D2D636D6420372048CE
:100916006162696C69746172205152203D20312CEC
:1009260020486162696C6974617220434F445F427A
:100936004152524153203D2030000D0A2054495067
:100946004F5F50414E54414C4C41202D2D2D20439C
:100956004D4420382050414E54414C4C41204C438C
:1009660044203D302050414E54414C4C4120524190
:10097600535042455252493D31000D0A20434C49DD
:10098600454E5445202020202020202D2D2D636DFE
:10099600642039204E6F6D6272652064656C206339
:1009A6006C69656E7465000D0A204E49542020203E
:1009B60020202020202020202D2D2D20636D642036
:1009C6003130204E756D65726F2064656C206E69DE
:1009D60074000D0A204E4F4D5F5041525120202089
:1009E6002020202D2D2D20636D64203131204E6F67
:1009F6006D6272652064656C2070617271756561E7
:100A06006465726F000D0A20444952454343494FBD
:100A16004E20202020202D2D2D20636D6420313284
:100A2600204E6F6D6272652064656C207061727114
:100A36007565616465726F000D0A204D534A5F311A
:100A46002020202020202020202D2D2D20636D64A5
:100A5600203133206D736A20646520696E666F727B
:100A66006D6163696F6E2064656C2070617271756B
:100A760065616465726F000D0A204D534A5F32202E
:100A860020202020202020202D2D2D20636D642065
:100A96003134206D736A20646520696E666F726DED
:100AA6006163696F6E2064656C2070617271756533
:100AB600616465726F000D0A204D534A5F33202032
:100AC600202020202020202D2D2D20636D64203114
:100AD60035206D736A20646520696E666F726D617C
:100AE60063696F6E2064656C2070617271756561F3
:100AF6006465726F000D0A204D534A5F3420202032
:100B06002020202020202D2D2D20636D64203136BD
:100B1600206D736A20646520696E666F726D61630D
:100B2600696F6E2064656C207061727175656164B1
:100B360065726F000D0A204D534A5F352020202034
:100B460020202020202D2D2D20636D64203137207C
:100B56006D736A20646520696E666F726D61636984
:100B66006F6E2064656C2070617271756561646575
:100B7600726F000D0A204D534A5F36202020202038
:100B8600202020202D2D2D20636D64203138206DEE
:100B9600736A20646520696E666F726D6163696F42
:100BA6006E2064656C207061727175656164657232
:100BB6006F000D0A204D534A5F3720202020202049
:100BC6002020202D2D2D20636D64203139206D735A
:100BD6006A20646520696E666F726D6163696F6E07
:100BE6002064656C20706172717565616465726FF1
:100BF600000D0A2041595544412020202020202064
:100C060020202D2D2D20636D64203230204D7565FA
:100C160073747261206C6F7320636F6D616E646FA5
:100C260073000D0A2053414C4952202020202020D9
:100C36002020202D2D2D20636D642032312053611C
:100C46006C69722064652070726F6772616D616392
:100C5600696F6E000D0A0A53697374656D612064CD
:100C6600652050726F6772616D6163696F6E2056A1
:100C760065726966696361646F720D0A0D0A000D1B
:100C86000A0A2F3E5573756172696F3A000D0A0A9A
:100C9600206461746F732064656C20627566666596
:100CA600722072782025730D0A0A000D0A0A206444
:100CB60061746F732064656C206275666665722068
:100CC60074782025730D0A0A000D0A0A2F3E50611A
:100CD6007373776F72643A00313233343536000DF0
:100CE6000A436F6D616E646F206E6F20657869735D
:100CF6007465202725732700200D0A00200D0A00A1
:040D0600220D0A00B0
:104C7D005400DF2F000000000000000000000000C5
:104C8D00000000000000004900D661646D696E00EF
:104C9D00000000604200F3300000310000320000DF
:104CAD0033000034000035000036000037000038B6
:104CBD000000390000313000313100313200313324
:104CCD0000313400313500313600313700313800D4
:094CDD003139003230003231009F
:0B5ADE0090003FEBF0A3EAF0A3E9F01A
:105AE900E4900045F0900045E0FFC394167480945B
:105AF900805041EF75F003A424F3F9740035F0FAEE
:105B09007B0178427C007D011217B478427C007DCC
:105B19000190003FE0FBA3E0FAA3E0F91216CBEFF6
:105B29003395E04F7006900045E0FF22900045E074
:065B390004F080B17FFFC3
:015B3F002243
:0B610E0090000EE0FBA3E0FAA3E0F914
:0B61190090003FEBF0A3EAF0A3E9F0D8
:1061240078427C007D017B017A0079D61217B4781D
:10613400427C007D0190003FE0FBA3E0FAA3E0F97C
:0E6144001216CBEF3395E04F7002FF227FFF63
:01615200222A
:0661D5007B017A00792B2A
:0B61DB0090003FEBF0A3EAF0A3E9F016
:1061E60078427C007D017BFF7A0C79FE7E007F047D
:1061F6001213DA90004D7401F0A37400F0A37442F8
:0F620600F090003FE0FBA3E0FAA3E0F90244614F
:10535200E0FBA3E0FAA3E02FF9EA3EFAE92401F91F
:03536200E43AFA30
:0B53650090003FEBF0A3EAF0A3E9F09A
:1053700078427C007D017BFF7A0D79027E007F04FC
:105380001213DA78467C007D017BFF7A0D79067E68
:10539000007F041213DA90003FE0FBA3E0FAA3E0E1
:1053A000F9121400FFB4200C900040E475F00112D3
:1053B000147A80E2EF90004DB4220D7401F0A374D2
:1053C00000F0A37446F080167401F0A37400F0A3FB
:1053D0007442F090003FE0FBA3E0FAA3E0F912442E
:0153E000616B
:0153E10022A9
:10681C009000A57401F0A37400F0A374DFF07BFF6B
:07682C007A0079260218B37F
:084E67007A00792B7B01E4FDC8
:0E4E6F0090007DEBF0A3EAF0A3E9F0A3EDF0D4
:104E7D00126A4D90007DE0FBA3E0FAA3E0F9EF127A
:104E8D001446900080E0701D90007DE0FBA3E0FAD9
:104E9D00A3E0F91214009000A5F07BFF7A00792EA3
:104EAD001218B380057F2A1262D290007DE0FBA319
:104EBD00E0FAA3E0F9121400FF7E00900081EEF0FD
:104ECD00A3EFF090007EE475F00112147A90007D4E
:104EDD00E0FBA3E0FAA3E0F9E4121446EF640D60E1
:104EED000C900081E07004A3E0640A708390007E52
:104EFD0074FFF5F012147A90007DE0FBA3E0FAA3A5
:074F0D00E0F9740A021446EA
:104CFD00E4FDFC7FA812643E7E00900049EEF0A317
:104D0D00EFF09000A574FFF0A37400F0A37431F0E0
:104D1D00A3EEF0A3EFF07B017A00793F1218AD906E
:104D2D0000A57401F0A37400F0A3743FF07BFF7A2B
:104D3D000079341218B37BFF7A0079501218B37AC8
:104D4D0000793F124E6B7B017A00793F12454590F9
:104D5D000049EEF0A3EFF0FBE4FDFC7FA8126254D6
:104D6D00E4FDFC7FA812643E7E00900049EEF0A3A6
:104D7D00EFF09000A574FFF0A37400F0A37431F070
:104D8D00A3EEF0A3EFF07B017A00793F1218AD90FE
:104D9D0000A57401F0A37400F0A3743FF07BFF7ABB
:064DAD000079700218B34A
:104A12007D027C007FA812643E7E00900049EEF089
:104A2200A3EFF09000A574FFF0A37400F0A374311B
:104A3200F0A3EEF0A3EFF07B017A00793F1218ADFC
:104A42009000A57401F0A37400F0A3743FF07BFF03
:104A52007A0079951218B37BFF7A0079AF1218B3F6
:104A62007B017A00793FE4FD124E6F7B017A007977
:104A72003F124545900049EEF0A3EFF0FB7D027C2A
:104A8200007FA81262547D027C007FA812643E7EE1
:104A920000900049EEF0A3EFF09000A574FFF0A3A0
:104AA2007400F0A37431F0A3EEF0A3EFF07B017A6F
:104AB20000793F1218AD9000A57401F0A37400F0C4
:0D4AC200A3743FF07BFF7A0079CD0218B39A
:104ACF007D047C007FA812643E7E00900049EEF0CA
:104ADF00A3EFF09000A574FFF0A37400F0A374315E
:104AEF00F0A3EEF0A3EFF07B017A00793F1218AD3F
:104AFF009000A57401F0A37400F0A3743FF07BFF46
:104B0F007A0079F01218B37BFF7A01790F1218B37C
:104B1F007B017A00793FE4FD124E6F7B017A0079B9
:104B2F003F124545900049EEF0A3EFF0FB7D047C6A
:104B3F00007FA81262547D047C007FA812643E7E21
:104B4F0000900049EEF0A3EFF09000A574FFF0A3E2
:104B5F007400F0A37431F0A3EEF0A3EFF07B017AB1
:104B6F0000793F1218AD9000A57401F0A37400F006
:0D4B7F00A3743FF07BFF7A0179320218B376
:1035D6007D067C007FA812643E7E00900049EEF0D6
:1035E600A3EFF09000A574FFF0A37400F0A374316C
:1035F600F0A3EEF0A3EFF07B017A00793F1218AD4D
:10360600900049E07002A3E070159000A504F0A3B5
:103616007400F0A3743FF07BFF7A01795A803590ED
:103626000049E07004A3E0640170159000A504F061
:10363600A37400F0A3743FF07BFF7A0179828014B3
:103646009000A57401F0A37400F0A3743FF07BFF13
:103656007A0179A41218B37BFF7A0179DC1218B3C8
:103666007B017A00793FE4FD124E6F7B017A007987
:103676003F124545900049EEF0A3EFF0FB7D067C36
:10368600007FA81262547D067C007FA812643E7EED
:1036960000900049EEF0A3EFF09000A574FFF0A3B0
:1036A6007400F0A37431F0A3EEF0A3EFF07B017A7F
:1036B60000793F1218AD900049E07002A3E0701542
:1036C6009000A504F0A37400F0A3743FF07BFF7A8A
:1036D60001795A8035900049E07004A3E0640170D6
:1036E600159000A504F0A37400F0A3743FF07BFFCF
:1036F6007A01798280149000A57401F0A37400F019
:0D370600A3743FF07BFF7A0179A41218B381
:013713002293
:103C9F007D087C007FA812643E7E00900049EEF004
:103CAF00A3EFF09000A574FFF0A37400F0A374319C
:103CBF00F0A3EEF0A3EFF07B017A00793F1218AD7D
:103CCF00900049E07002A3E070159000A504F0A3E6
:103CDF007400F0A3743FF07BFF7A0179FB8014909E
:103CEF0000A57401F0A37400F0A3743FF07BFF7A7A
:103CFF0002791F1218B37BFF7A0279411218B37B36
:103D0F00017A00793FE4FD124E6F7B017A00793F13
:103D1F00124545900049EEF0A3EFF0FB7D087C00C3
:103D2F007FA81262547D087C007FA812643E7E003B
:103D3F00900049EEF0A3EFF09000A574FFF0A3748C
:103D4F0000F0A37431F0A3EEF0A3EFF07B017A0043
:103D5F00793F1218AD900049E07002A3E070159002
:103D6F0000A504F0A37400F0A3743FF07BFF7A0169
:103D7F0079FB80149000A57401F0A37400F0A37474
:0B3D8F003FF07BFF7A02791F1218B38F
:013D9A002206
:103D9B007D0A7C007FA812643E7E00900049EEF005
:103DAB00A3EFF09000A574FFF0A37400F0A374319F
:103DBB00F0A3EEF0A3EFF07B017A00793F1218AD80
:103DCB00900049E07002A3E070159000A504F0A3E9
:103DDB007400F0A3743FF07BFF7A02796680149035
:103DEB0000A57401F0A37400F0A3743FF07BFF7A7D
:103DFB0002798C1218B37BFF7A0279B01218B37B5D
:103E0B00017A00793FE4FD124E6F7B017A00793F16
:103E1B00124545900049EEF0A3EFF0FB7D0A7C00C4
:103E2B007FA81262547D0A7C007FA812643E7E003C
:103E3B00900049EEF0A3EFF09000A574FFF0A3748F
:103E4B0000F0A37431F0A3EEF0A3EFF07B017A0046
:103E5B00793F1218AD900049E07002A3E070159005
:103E6B0000A504F0A37400F0A3743FF07BFF7A026B
:103E7B00796680149000A57401F0A37400F0A3740C
:0B3E8B003FF07BFF7A02798C1218B325
:013E96002209
:103E97007D0C7C007FA812643E7E00900049EEF006
:103EA700A3EFF09000A574FFF0A37400F0A37431A2
:103EB700F0A3EEF0A3EFF07B017A00793F1218AD83
:103EC700900049E07002A3E070159000A504F0A3EC
:103ED7007400F0A3743FF07BFF7A0279D7801490C7
:103EE70000A57401F0A37400F0A3743FF07BFF7A80
:103EF7000379081218B37BFF7A0379381218B37B5A
:103F0700017A00793FE4FD124E6F7B017A00793F19
:103F1700124545900049EEF0A3EFF0FB7D0C7C00C5
:103F27007FA81262547D0C7C007FA812643E7E003D
:103F3700900049EEF0A3EFF09000A574FFF0A37492
:103F470000F0A37431F0A3EEF0A3EFF07B017A0049
:103F5700793F1218AD900049E07002A3E070159008
:103F670000A504F0A37400F0A3743FF07BFF7A036D
:103F7700796B80149000A57401F0A37400F0A3740A
:0B3F87003FF07BFF7A0379081218B3AB
:013F9200220C
:103F93007D0E7C007FA812643E7E00900049EEF007
:103FA300A3EFF09000A574FFF0A37400F0A37431A5
:103FB300F0A3EEF0A3EFF07B017A00793F1218AD86
:103FC300900049E07002A3E070159000A504F0A3EF
:103FD3007400F0A3743FF07BFF7A03799D80149003
:103FE30000A57401F0A37400F0A3743FF07BFF7A83
:103FF3000379C61218B37BFF7A0379E81218B37BEF
:10400300017A00793FE4FD124E6F7B017A00793F1C
:10401300124545900049EEF0A3EFF0FB7D0E7C00C6
:104023007FA81262547D0E7C007FA812643E7E003E
:10403300900049EEF0A3EFF09000A574FFF0A37495
:1040430000F0A37431F0A3EEF0A3EFF07B017A004C
:10405300793F1218AD900049E07002A3E07015900B
:1040630000A504F0A37400F0A3743FF07BFF7A0370
:10407300799D80149000A57401F0A37400F0A374DB
:0B4083003FF07BFF7A0379C61218B3F0
:01408E00220F
:10408F007D0F7C007FA812643E7E00900049EEF009
:10409F00A3EFF09000A574FFF0A37400F0A37431A8
:1040AF00F0A3EEF0A3EFF07B017A00793F1218AD89
:1040BF00900049E07002A3E070159000A504F0A3F2
:1040CF007400F0A3743FF07BFF7A0479248014907E
:1040DF0000A57401F0A37400F0A3743FF07BFF7A86
:1040EF000479461218B37BFF7A04796F1218B37BE9
:1040FF00017A00793FE4FD124E6F7B017A00793F20
:10410F00124545900049EEF0A3EFF0FB7D0F7C00C8
:10411F007FA81262547D0F7C007FA812643E7E0040
:10412F00900049EEF0A3EFF09000A574FFF0A37498
:10413F0000F0A37431F0A3EEF0A3EFF07B017A004F
:10414F00793F1218AD900049E07002A3E07015900E
:10415F0000A504F0A37400F0A3743FF07BFF7A0472
:10416F00799B80149000A57401F0A37400F0A374E0
:0B417F003FF07BFF7A0479B91218B3FF
:01418A002212
:105D74007BFF7A0479DE1218B37B017A00793FE461
:105D8400FD124E6F7B017A00793F7D107C007FA865
:105D94001255877B017A00793F7F107E00125B40A9
:105DA4009000A57401F0A37400F0A3743FF07BFF8E
:075DB4007A0579000218B323
:105DBB007BFF7A0579181218B37B017A00793FE4DF
:105DCB00FD124E6F7B017A00793F7D407C007FA8EE
:105DDB001255877B017A00793F7F407E00125B4032
:105DEB009000A57401F0A37400F0A3743FF07BFF47
:075DFB007A0579350218B3A7
:105E02007BFF7A0579441218B37B017A00793FE46B
:105E1200FD124E6F7B017A00793F7D507C007FA896
:105E22001255877B017A00793F7F507E00125B40DA
:105E32009000A57401F0A37400F0A3743FF07BFFFF
:075E42007A05796A0218B32A
:105E49007BFF7A05797C1218B37B017A00793FE4EC
:105E5900FD124E6F7B017A00793F7D807C007FA81F
:105E69001255877B017A00793F7F807E00125B4063
:105E79009000A57401F0A37400F0A3743FF07BFFB8
:075E89007A0579A90218B3A4
:105E90007BFF7A0579BE1218B37B017A00793FE463
:105EA000FD124E6F7B017A00793F7DB07C007FA8A8
:105EB0001255877B017A00793F7FB07E00125B40EC
:105EC0009000A57401F0A37400F0A3743FF07BFF71
:075ED0007A0579E60218B320
:105ED7007BFF7A0579F61218B37B017A00793FE4E4
:105EE700FD124E6F7B017A00793F7DF17C007FA820
:105EF7001255877B017A00793F7FF17E00125B4064
:105F07009000A57401F0A37400F0A3743FF07BFF29
:075F17007A0579E60218B3D8
:105F1E007BFF7A06791E1218B37B017A00793FE473
:105F2E00FD124E6F7B017A00793F7D327C017FA896
:105F3E001255877B017A00793F7F327E01125B40DA
:105F4E009000A57401F0A37400F0A3743FF07BFFE2
:075F5E007A0679460218B330
:105F65007BFF7A0679561218B37B017A00793FE4F4
:105F7500FD124E6F7B017A00793F7D737C017FA80E
:105F85001255877B017A00793F7F737E01125B4052
:105F95009000A57401F0A37400F0A3743FF07BFF9B
:075FA5007A06797E0218B3B1
:105FAC007BFF7A06798E1218B37B017A00793FE475
:105FBC00FD124E6F7B017A00793F7DB47C017FA886
:105FCC001255877B017A00793F7FB47E01125B40CA
:105FDC009000A57401F0A37400F0A3743FF07BFF54
:075FEC007A0679B60218B332
:105FF3007BFF7A0679C61218B37B017A00793FE4F6
:10600300FD124E6F7B017A00793F7DF57C017FA8FD
:106013001255877B017A00793F7FF57E01125B4041
:106023009000A57401F0A37400F0A3743FF07BFF0C
:076033007A0679EE0218B3B2
:10603A007BFF7A0679FE1218B37B017A00793FE476
:10604A00FD124E6F7B017A00793F7D367C027FA874
:10605A001255877B017A00793F7F367E02125B40B8
:10606A009000A57401F0A37400F0A3743FF07BFFC5
:07607A007A0779260218B332
:1047C3007BFF7A0779361218B37BFF7A0779761263
:1047D30018B37BFF7A0779B61218B37BFF7A077990
:1047E300F21218B37BFF7A08794A1218B37BFF7A67
:1047F3000879841218B37BFF7A0879BD1218B37B4A
:10480300FF7A0879FB1218B37BFF7A0979401218F3
:10481300B37BFF7A0979801218B37BFF7A0979ADEC
:104823001218B37BFF7A0979D81218B37BFF7A0A7F
:10483300790B1218B37BFF7A0A793E1218B37BFF08
:104843007A0A797D1218B37BFF7A0A79BC1218B3FE
:104853007BFF7A0A79FB1218B37BFF7A0B793A1242
:1048630018B37BFF7A0B79791218B37BFF7A0B7934
:10487300B81218B37BFF7A0B79F71218B37BFF7A60
:064883000C79280218B3B5
:102773007BFF7A0C795A1218B37BFF7A0C79851296
:1027830018B3126A3F124E671261D590000EEBF038
:10279300A3EAF0A3E9F09000A5E4F0A37400F0A38A
:1027A300742CF07BFF7A0C79931218B39000A5E494
:1027B300F0A37400F0A3745EF07BFF7A0C79B1127E
:1027C30018B312610EEF70B17BFF7A0C79CF121838
:1027D300B37B017A00792B7D01124E6F1261D59084
:1027E300000EEBF0A3EAF0A3E9F078D67C007D01BC
:1027F3007BFF7A0C79DE1217B412610EEF70C902F7
:10280300298512681C124E671261D590000EEBF0F9
:10281300A3EAF0A3E9F012000E90000E12535290B7
:102823000011EBF0A3EAF0A3E9F012000E900011FF
:10283300125352900014EBF0A3EAF0A3E9F09000D6
:1028430011E0FBA3E0FAA3E0F9EA494B6017121485
:1028530000B42F1178177C007D01900011A3A3E031
:102863001217B4803D900011E0FBA3E0FAA3E0F956
:10287300EA494B602D78177C007D017B017A007952
:10288300DF1217B4900011E0F9A3E0FAA3E090007F
:10289300A2C9F0A3EAF0A3E9F07B017A0079171249
:1028A3005A7390000EE0FBA3E0FAA3E0F9EA494B68
:1028B3007003022805125ADEEFB416004003022902
:1028C3008B9028CBF828287302290D02291302299B
:1028D3001902291F02292502292B0229310229372E
:1028E30002293D02294302294902294F022955029F
:1028F300295B02296102296702296D0229730229D2
:102903007902297F0229850229AC124CFD02280590
:10291300124A12022805124ACF0228051235D6029E
:102923002805123C9F022805123D9B022805123EF2
:1029330097022805123F9302280512408F022805AB
:10294300125D74022805125DBB022805125E0202A5
:102953002805125E49022805125E90022805125EC0
:10296300D7022805125F1E022805125F650228059B
:10297300125FAC022805125FF302280512603A02C7
:1029830028051247C302280590000EE0F9A3E0FAD8
:10299300A3E09000A5C9F0A3EAF0A3E9F07BFF7AD6
:0929A3000C79E51218B3022805B5
:0129AC002208
:036AD80025640032
:0B51950090000EEBF0A3EAF0A3E9F09D
:1051A0009000137401F0A374F4F0126AD5E4900037
:1051B00012F0C286900011F0C2B2900013E0FEA37C
:1051C000E0FF20B35B900011E07055900013E0FE0B
:1051D000A3E0FFEF1F70011EEF4E70059000110459
:1051E000F030B406900011E060E920B43390001173
:1051F000E0702D90000EE0FBA3E0FAA3E0F9E5A03B
:10520000121446900012E004F090000FE475F001D3
:1052100012147A900013E0FEA3E0FF30B4FD80A2E8
:0C522000D2B2D286126AC7900012E0FFE2
:01522C00225F
:0E4DB300900038EBF0A3EAF0A3E9F0A3EDF0D6
:104DC100900041F0D2B2D2B4C286E4900040F0C269
:104DD100B290003C1214D600004E2030B34990002E
:104DE10040E07043C2B2D2B490003CE0FCA3E0FDCD
:104DF100A3E0FEA3E0FFEF24FFFFEE34FFFEED345E
:104E0100FFFDEC34FFFC90003C1214CA90003CE022
:104E1100FCA3E0FDA3E0FEA3E0FFEC4D4E4F70BB11
:104E2100A304F0C28280B4900040E0702920B32630
:104E3100900038E0FBA3E0FAA3E0F9121400F5A01A
:104E410012698E900039E475F00112147A90003BDA
:104E5100E014F0E070DA75A0FFD2B2D2B4D2867F4E
:064E6100627E00026958A8
:102F88009000367402F0E4A3F090000E7402F0A3EF
:102F9800EFF07B017A00792C1263C77B017A007904
:102FA8002C12000EE4FE9000367402F0742C2EF5FC
:102FB80082E43400F583E0FD900036E0FC04F07410
:102FC8000E2CF582E43400F583EDF01F0EEF70DC73
:102FD800900036E0FF04F0740E2FF582E43400F51B
:102FE80083742DF0900036E0A3F0240EF9E4340049
:102FF800FA7B01124F14900037E0900036F0E0247D
:103008000EF582E43400F583E02430FF900036E0CA
:10301800FE04F0740E2EF582E43400F583EFF09090
:103028000036E0240EF582E43400F583E02430FF16
:10303800900036E0FE04F0740E2EF582E43400F5BC
:1030480083EFF0900036E0240EF582E43400F58337
:10305800E02430FF900036E0FE04F0740E2EF58276
:10306800E43400F583EFF0900036E0240EF582E4B6
:103078003400F583E02430FF900036E0FE04F0745D
:103088000E2EF582E43400F583EFF0900036E0244C
:103098000EF582E43400F583E02430FF900036E03A
:1030A800FE04F0740E2EF582E43400F583EFF09000
:1030B8000036E0FF04F0740E2FF582E43400F58347
:1030C800742DF07B017A01795D12000EE4FEEF6049
:1030D80026745D2EF582E43401F583E0FD90003618
:1030E800E0FC04F0740E2CF582E43400F583EDF076
:1030F8001F0EEF70DC8014900036E0FF04F0740EB1
:103108002FF582E43400F5837420F0900036E0FF58
:1031180004F0740E2FF582E43400F5837403F0C2D2
:10312800B230B3FD7B017A00790E900036E0FD12D3
:103138004DB3126A807B017A00790E900036E0FD6B
:0C31480090003C7401F0125991026A8062
:10698E00C2B47F287E00126958D2B47F287E0002DE
:02699E00695836
:06561100900010EFF0FB19
:10561700D2B4C286E4A3F0A31214D600003A988B42
:10562700A0C2B230B343900011E0703DA3E0FCA3E9
:10563700E0FDA3E0FEA3E0FFEF24FFFFEE34FFFE53
:10564700ED34FFFDEC34FFFC9000121214CA9000F9
:1056570012E0FCA3E0FDA3E0FEA3E0FFEC4D4E4FFC
:1056670070C190001104F080BA900011E0700C2016
:10567700B309900010E0F5A012698ED2B2D2B4D26D
:105687008675A0FF7F627E001269587F627E0002E6
:02569700695850
:0A6A5900D2B4D2B2D28675A0FF229B
:106506009000107402F0A37469F07B017A0079128E
:1065160012494E7F8B1252CC900018EFF0A37403F1
:0C652600F07B017A0079107D0A024DB371
:103A8300E4900020F09000107402F0A37444F090CE
:103A930000A574FFF0A3746AF0A374D8F090017AC0
:103AA300E0FFA3E09000A8CFF0A3EFF07B017A0042
:103AB300791B1218AD90001F7402F0900020E024CF
:103AC3001BF582E43400F583E0FF601790001FE0EC
:103AD3002410F582E43400F583EFF0900020E00435
:103AE300F0801890001FE02410F582E43400F58381
:103AF300743BF090001FE004F0800890001FE00486
:103B0300F080B89000A574FFF0A3746AF0A374D892
:103B1300F0900176E0FFA3E09000A8CFF0A3EFF0D0
:103B23007B017A00791B1218ADE4900020F090001D
:103B330020E0241BF582E43400F583E0FF60179056
:103B4300001FE02410F582E43400F583EFF09000C9
:103B530020E004F0801890001FE02410F582E43484
:103B630000F583743BF090001FE004F080089000A0
:103B73001FE004F080B890001FE0FD2410F582E4FC
:103B83003400F5837403F07B017A007910024DB39E
:105B98004461746F73204D46207265737075657328
:105BA80074613A20004461746F73204D4620456E3D
:105BB800766961646F733A20002F2A2D2D2D2D2DC3
:105BC8002D2D2D2D2D2D2D2D2D2D2D2D2D2D2D2DFD
:105BD8002D2D2D2D2D2D2D2D2D2D2D2D2D2D2D2DED
:075BE8002D2D2A2F0D0A00EC
:06671F00AE07EEC313FEFD
:10672500E4FFEFD3940774809480500D00000000BF
:096735000000000000000F80E9E3
:01673E002238
:1067D100E4FFEFD3940474809480500D0000000016
:0967E1000000000000000F80E937
:0167EA00228C
:025D2C00AE07C0
:105D2E00C2AFC2901267250000AD06EE5401FE70A0
:105D3E0004C2908002D2901267257C01ECD39407A6
:105D4E00748094805015EDC313FD5401FE7004C28F
:105D5E00908002D2901267250C80E1D290126725B6
:055D6E00126725D2AF11
:015D7300220D
:02608100AB076B
:1060830090016AE06401703CEB54F0C4540FFFD3F9
:10609300940974809480400674372FFF8004743011
:1060A3002FFF125D2CEB540FFFD39409748094805F
:1060B300400674372FFF800474302FFF125D2C7F4E
:0460C30020125D2C1E
:0160C70022B6
:0E599100900038EBF0A3EAF0A3E9F0A3EDF0EC
:10599F0090016AE06401705C90003CE0FF3395E099
:1059AF00FEEF4E7BFF60067A5B799880047A5B7915
:1059BF00AD126310E490003DF090003BE0FF9000CB
:1059CF003DE0C39F5024900038E0FBA3E0FAA3E032
:1059DF00F9121400FF126081900039E475F0011282
:1059EF00147A90003DE004F080CF7F0D125D2C7F84
:0459FF000A125D2CFF
:015A03002280
:0B631000900050EBF0A3EAF0A3E9F0CE
:10631B00E4A3F090016AE064017027900053F090C1
:10632B000050E0FBA3E0FAA3E0F9A3E0F58275834C
:10633B0000121419FF600B125D2C900053E004F057
:02634B0080DDF3
:01634D00222D
:096A80007BFF7A5B79C10263100F
:105699007EFF1267D1126725208005747FFF800481
:1056A900EE4480FF12671FEE208005547FFF8003C0
:1056B9004480FF12671FEE208005547FFF8003445A
:1056C90080FF12671FEE208005547FFF800344800E
:1056D900FF12671FEE208005547FFF80034480FF7F
:1056E90012671FEE208005547FFF80034480FF125C
:1056F900671FEE208005547FFF80034480FF1267F7
:105709001FEE208005547FFF80034480FFAE0712FF
:0757190067253080FDAF069B
:015720002266
:056ACC00D290D28022EF
:0E4CE600010B00010C00010900010A00C10BC6
:030023000246F69C
:1046F600C0E0C083C082C0D075D000C000C004C076
:0547060005C006C0071C
:10470B00209803024793C298859908C3E509950A37
:10471B00FFE49400FEEF54F84E700BE509540724A8
:10472B002CF8A6080509900168E0FFD3940A748061
:10473B0094804005900173E4F0900173E014600FD6
:10474B00047040900168E4F090017304F0803974B8
:10475B00222FF8A6087822E6FFFD7C006412700673
:10476B0090017C04801AEFB4720790017C74028074
:10477B000FED641E4C90017C700474038002740472
:10478B00F08000900173E4F030991AC299E50B6543
:10479B000C6010E50C5401245EF8E6F599050CC28B
:0547AB000B8002D20B9F
:1047B000D007D006D005D004D000D0D0D082D0838E
:0347C000D0E03214
:10653200D310AF01C3C0D01265AEE4F50BF50CF574
:1065420009F50AC29FD29EC29DD29CC298C299D21C
:0A6552000BD2ACD2BCD0D092AF2225
:1065AE00D310AF01C3C0D0C299E4F50BF50CC28E67
:1065BE00C2AB43878053890F438920758DF4758B49
:0865CE00F4D28ED0D092AF226E
:10640300D310AF01C3C0D09000D5EFF01269B2C36F
:10641300EF94027480948040047FFF80199000D52C
:10642300E0FFE50B5401245EF8A607050B300B04CF
:0B643300C20BD2997F00D0D092AF22A4
:10667500D310AF01C3C0D01269A0EF70067EFF7FB3
:10668500FF800EAF0A050AEF5407242CF8E6FF7EBB
:0666950000D0D092AF22FC
:1069A000D310AF01C3C0D0C3E509950AFFD0D09280
:0269B000AF2214
:1069B200D310AF01C3C0D0C3E50B950CFFD0D0926A
:0269C200AF2202
:0E6A3F00E4F50BF50CF509F50AC298C2992290
:1031540054697175657465204E6F3A20003E0020F5
:1031640046656368613A203230002D0020003A0041
:10317400205665686963756C6F3A20436172726F9B
:1031840000205665686963756C6F3A204D6F746FE3
:1031940000506C6163613A20003E3C0A00257300D4
:1031A4004E49543A202573000A0A0A0A0A0A000AF8
:1031B4000A0A0A0020257300707970002020205428
:1031C400697175657465204E6F3A200025730A0095
:1031D40020202046656368613A20202020202000BA
:1031E4003230002020205665686963756C6F3A2080
:1031F4002020436172726F0A00202020566568699E
:1032040063756C6F3A2020204D6F746F0A00202084
:1032140020506C6163613A202020202000566568AC
:103224006963756C6F20656E20656C206C6F6F70C0
:103234000D0A0D0A0050756C7361646F722041634E
:103244007469766F0D0A0050756C7361646F722037
:103254004E6F2041637469766F0D0A005665686984
:1032640063756C6F206E6F20656E20656C206C6FCB
:103274006F700D0A0D0A00496D707265736F72618B
:1032840020636F6E20706170656C200D0A00496DBB
:10329400707265736F7261206E6F207469656E65FC
:1032A40020706170656C200D0A004E6976656C2093
:1032B40062616A6F20646520706170656C200D0A1C
:1032C40000496D707265736F7261206E6F20726554
:1032D40073706F6E6465200D0A00496D7072696DBC
:0932E40069656E646F200D0A009B
:084CF4004101A1004101A200F1
:0A6A63007F1B1262D27F400262D254
:1066BD00900040EFF0A3EDF07F1B1262D27F4412E9
:1066CD0062D2900040E0FF1262D2900041E0FF02E2
:0266DD0062D287
:106930007F1D1262D27F501262D27FB41262D27F68
:04694000B40262D269
:10683300EF24BD600B24F1600A240670090269F499
:07684300026A03126A12222F
:0F69F4007F1B1262D27F611262D27F300262D2A9
:0F6A03007F1B1262D27F611262D27F310262D298
:0F6A12007F1B1262D27F611262D27F320262D288
:10684A0090007EEFF07F1B1262D27F4D1262D290CF
:07685A00007EE0FF0262D2A4
:1068610090007EEFF07F1B1262D27F331262D290D2
:07687100007EE0FF0262D28D
:1068780090007EEFF07F1B1262D27F451262D290A9
:07688800007EE0FF0262D276
:10688F0090004FEFF07F1D1262D27F211262D290E3
:07689F00004FE0FF0262D28E
:1068A60090004FEFF07F1B1262D27F641262D2908B
:0768B600004FE0FF0262D277
:1068BD00900040EFF07F1B1262D27F4A1262D2909D
:0768CD000040E0FF0262D26F
:1068D40090004FEFF07F1B1262D27F201262D290A1
:0768E400004FE0FF0262D249
:1068EB0090004AEFF07F1D1262D27F681262D29045
:0768FB00004AE0FF0262D237
:1069020090004AEFF07F1D1262D27F481262D2904D
:07691200004AE0FF0262D21F
:0F6A21007F1D1262D27F661262D27F300262D274
:0E5CDF0090004AEFF0A3EBF0A3EAF0A3E9F087
:105CED007F1D1262D27F6B1262D290004AE0FF12CA
:105CFD0062D2E490004EF090004BE0FBA3E0FAA3DB
:105D0D00E0F9A3E0F582758300121419FF600B1200
:0F5D1D0062D290004EE004F080DDE4FF0262D21B
:1064D9007F1D1262D27F281262D27F6B1262D27F35
:1064E900041262D2E4FF1262D27F311262D27F417A
:0D64F9001262D27F321262D2E4FF0262D240
:1065D6007F1D1262D27F281262D27F6B1262D27F37
:1065E600031262D2E4FF1262D27F311262D27F4579
:0865F6001262D27F310262D271
:1065FE007F1D1262D27F281262D27F6B1262D27F0F
:10660E00031262D2E4FF1262D27F311262D27F4352
:08661E001262D27F070262D272
:0B58A60090009FEBF0A3EAF0A3E9F0F4
:1058B1007F1D1262D27F281262D27F6B1262D29058
:1058C100009FE0FBA3E0FAA3E0F912000E9000A212
:1058D100EFF02403FF1262D2E4FF1262D27F311291
:1058E10062D27F501262D27F301262D2E49000A362
:1058F100F09000A2E0FFA3E0FEC39F501F90009F25
:10590100E0FBA3E0FAA3E0F98E827583001214197B
:0C591100FF1262D29000A3E004F080D5E9
:01591D002267
:106626007F1D1262D27F281262D27F6B1262D27FE6
:10663600031262D2E4FF1262D27F311262D27F511C
:086646001262D27F300262D221
:0A6A6D007F1B1262D27F690262D221
:1069190090000EEFF07F101262D27F041262D290C3
:07692900000EE0FF0262D244
:1029AD001264D91265D61265FE78407C007D017BDC
:1029BD00FF7A3179541217B47B017A007990126342
:1029CD00C79000A27401F0A37400F0A37490F07B83
:1029DD00017A007940125A739000A274FFF0A3742B
:1029ED0031F0A37461F07B017A007940125A739033
:1029FD0000A274FFF0A37431F0A37463F07B017A2D
:102A0D00007940125A737B017A007990122DB090A3
:102A1D0000A27401F0A37400F0A37490F0A3E4F08D
:102A2D00A37402F07B017A0079401248899000A2CC
:102A3D0074FFF0A37431F0A3746EF07B017A00790A
:102A4D0040125A739000A27401F0A37400F0A374A5
:102A5D0092F0A3E4F0A37402F07B017A00794012A6
:102A6D0048899000A274FFF0A37431F0A3746EF046
:102A7D007B017A007940125A739000A27401F0A381
:102A8D007400F0A37494F0A3E4F0A37402F07B013E
:102A9D007A0079401248899000A274FFF0A3743136
:102AAD00F0A37470F07B017A007940125A73900094
:102ABD00A27401F0A37400F0A37496F0A3E4F0A344
:102ACD007402F07B017A0079401248899000A2745B
:102ADD00FFF0A37431F0A37472F07B017A0079409A
:102AED00125A739000A27401F0A37400F0A37498AD
:102AFD00F0A3E4F0A37402F07B017A007940124850
:102B0D00899000A274FFF0A37431F0A37461F07B7F
:102B1D00017A007940125A7390016FE09000A27013
:102B2D000C74FFF0A37431F0A37474800A74FFF079
:102B3D00A37431F0A37485F07B017A007940125AA9
:102B4D00739000A274FFF0A37431F0A37461F07B55
:102B5D00017A007940125A739000A274FFF0A374A9
:102B6D0031F0A37495F07B017A007940125A73907D
:102B7D0000A27401F0A37401F0A3745DF07B017ADF
:102B8D00007940125A739000A274FFF0A37431F0D3
:102B9D00A3749DF07B017A007940125A737B017A00
:092BAD000079401258A6026626C8
:10437300126A63E4FD7F351266BD1269307F431212
:1043830068337F011268787F0112688F7F0112689A
:10439300D47F061268BD7B017A00790E7F107E0000
:1043A300125B409000A57401F0A37400F0A3740E97
:1043B300F07BFF7A3179A11218B37B017A00790E71
:1043C3007F407E00125B40E4FF126878E4FF1268CE
:1043D3008FE4FF1268D49000A57401F0A37400F079
:1043E300A3740EF07BFF7A3179A41218B37F4312C2
:1043F30068337B017A00790E7F507E00125B409018
:1044030000A57401F0A37400F0A3740EF07BFF7A8F
:104413003179A11218B37F431268337B017A007993
:104423000E7F807E00125B409000A57401F0A374A0
:1044330000F0A3740EF07BFF7A3179A11218B37FD9
:104443000A1268617F431268331229AD12371412BE
:0E445300396A7BFF7A3179AC1218B3026A6DB8
:10418B007F021268617F011268A6125C42126A6399
:10419B00E4FD7F351266BD1269307F431268337FB1
:1041AB00011268787F0112688F7F011268D47F0635
:1041BB001268BD7B017A00790E7F107E00125B4086
:1041CB009000A57401F0A37400F0A3740EF07BFFB4
:1041DB007A3179A11218B37B017A00790E7F407E78
:1041EB0000125B40E4FF126878E4FF12688FE4FF73
:1041FB001268D49000A57401F0A37400F0A3740EA0
:10420B00F07BFF7A3179A41218B37F431268337BAA
:10421B00017A00790E7F507E00125B409000A574EE
:10422B0001F0A37400F0A3740EF07BFF7A3179A137
:10423B001218B37F431268337B017A00790E7F80AB
:10424B007E00125B409000A57401F0A37400F0A3F4
:10425B00740EF07BFF7A3179A11218B37F0A1268C2
:10426B006112371412396A125C427BFF7A3179B3CF
:06427B001218B3026A6D87
:105C4200126A637F431268337F651268EB7F3112F9
:105C52006902126A217F3112684A7B017A00794017
:105C62001263C77B017A00794012000E74402FF54F
:105C720082E43400F5837424F074412FF582E43415
:105C820000F583E4F07B017A0079407F04025CDF57
:10396A007F3112684A7F0A1268617F4C126833E419
:10397A00FF1268787B017A0079407FB07E00125B83
:10398A00409000A57401F0A37400F0A37440F07B8A
:10399A00FF7A3179B81218B37B017A0079407FF146
:1039AA007E00125B409000A57401F0A37400F0A39E
:1039BA007440F07BFF7A3179B81218B37B017A0030
:1039CA0079407F327E01125B409000A57401F0A31A
:1039DA007400F0A37440F07BFF7A3179B81218B3FF
:1039EA007B017A0079407F737E01125B409000A5CB
:1039FA007401F0A37400F0A37440F07BFF7A31796C
:103A0A00B81218B37B017A0079407FB47E01125B49
:103A1A00409000A57401F0A37400F0A37440F07BF9
:103A2A00FF7A3179B81218B37B017A0079407FF5B1
:103A3A007E01125B409000A57401F0A37400F0A30C
:103A4A007440F07BFF7A3179B81218B37B017A009F
:103A5A0079407F367E02125B409000A57401F0A384
:103A6A007400F0A37440F07BFF7A3179B81218B36E
:093A7A007BFF7A3179BC0218B31C
:103714007F0A1268617F011268787F011268A67FB0
:103724004C1268337BFF7A3179C01218B3E4FF126C
:1037340068787B017A0079401263C79000A5740110
:10374400F0A37400F0A37440F07BFF7A3179D012B7
:1037540018B37B017A007940122DB07F4C12683384
:103764007F011268787BFF7A3179D41218B3E4FFB1
:103774001268787BFF7A3179E41218B3900040E044
:10378400FF1262D2900041E0FF1262D27F2D1262DA
:10379400D2900042E0FF1262D2900043E0FF126236
:1037A400D27F2D1262D2900044E0FF1262D29000C8
:1037B40045E0FF1262D27F201262D2900046E0FF01
:1037C4001262D2900047E0FF1262D27F3A1262D2B4
:1037D400900048E0FF1262D2900049E0FF1262D2EA
:1037E4007F0A1262D27F0112687890016FE07BFF3A
:1037F40070067A3179E780047A3179FD1218B37F43
:103804000112688F7F011268D47F011268787BFFF0
:103814007A3279121218B39000A57401F0A37401DE
:10382400F0A3745DF07BFF7A3179D01218B3E4FF12
:0D38340012688FE4FF1268D4E4FF02687888
:102BB600900171E0146077147003022C5C147003AA
:102BC600022CDB147003022D3124046003022DAAAB
:102BD600900166E064016003022DAF125A04EF60B3
:102BE6003C7BFF7A3279211263109001A1E07010CC
:102BF6007FFE1222C57FA01256119001A17401F02A
:102C0600126A9E7BFF20910E7A32793912631090F8
:102C160001717401F0227A32794B022CA47BFF7A7F
:102C2600327960126310E49001A1F0022D997F457C
:102C3600124281126A3F7F041269197FFE125611F1
:102C46009001717402F09001667446F0E490017C84
:102C5600F0900173F022900166E064016009900132
:102C66007CE07003022DAF7B007A00792290003C55
:102C76007401F0FD12599190017CE064017011F02D
:102C86007BFF7A32797B126310900166743780334A
:102C960090017CE06402700C7BFF7A3279921263B9
:102CA60010022D9990017CE064037BFF701D7A323F
:102CB60079AE1263109001667437F0E490017CF0EF
:102CC600900173F09001717403F0227A3279C51283
:102CD6006310022D99900166E064016006200903E5
:102CE600022DAF7F61122F887FA11256117FFA1233
:102CF60022C57BFF7A3279DE12631090016CE060A8
:102D060005124373800312418B9001667405F0E44B
:102D160090017CF0900173F09001717404F0D297E9
:102D2600E4900167F012629302677C900166E064AA
:102D36000170769001A2E004F0E0D39412748094BE
:102D4600805045126A9E309129126AA530910D90E5
:102D560001A2E0C3941274809480400DE49001A215
:102D6600F09001A1F0C297802A7FFA1222C5C2977D
:102D760080009001667405F0E490017CF090017388
:102D8600F09001717404F022E49001A2F09001A188
:102D9600F0C2979001667405F0E490017CF0900112
:092DA60073F08001E4900171F06A
:012DAF002201
:046AD100256C7500BB
:1069E40090000AE41214587D007C057FA8025587A4
:10655C009000A574FFF0A3746AF0A374D1F0A31299
:10656C0014CA7B017A0079121218AD7B017A00797A
:0A657C00127D007C057FA802558700
:10679A007B017A0079A67F007E05125B407B017A35
:0C67AA000079A6123B939000A20214CAD2
:1062930012679A90000E1214CA90000EE0FCA3E05D
:1062A300FDA3E0FEA3E0FFE4FAF9F8EF2401FFEA1F
:1062B3003EFEE93DFDE83CFC90000E1214CA90003E
:0F62C3000EE0FCA3E0FDA3E0FEA3E0FF02655C9C
:10634E009000A27409F0E4A3F09000A3E0FFC394C0
:10635E000A7480948050259000A2E0C39FFFE494BD
:10636E0000FE8F82F5831214196430700F8F828EA7
:0C637E00831214589000A3E004F080CDBE
:01638A0022F0
:0B63C70090009FEBF0A3EAF0A3E9F0C8
:1063D20012679A9000A574FFF0A3746AF0A374D1B7
:1063E200F0A31214CA90009FE0FBA3E0FAA3E0F925
:1063F2001218AD90009FE0FBA3E0FAA3E0F902635C
:016402004E4B
:0B522D0090000EEBF0A3EAF0A3E9F004
:10523800E4900012F0A3740CF0900169E06401702E
:1052480073900011F0900013E0FF900011E0C39FED
:105258005053E4FFFEFD30801DED701A0FBF0001B2
:105268000ED3EF9430EE947540EC7D01900013E07E
:10527800900011F080E0ED6401602A1256999000C8
:105288000EE0FBA3E0FAA3E0F9EF12144690000F3A
:10529800E475F00112147A900012E004F090001105
:1052A800E004F080A090000EE0FBA3E0FAA3E0F990
:0952B800E4121446900012E0FF1C
:0152C10022CA
:0B4FBA0090000EEBF0A3EAF0A3E9F07A
:104FC500E4FF7E029000021214196403701C900025
:104FD5000EE0FBA3E0FAA3E0F9900001121419B466
:104FE5005008D297E4900167F02290000EE0FBA3F1
:104FF500E0FAA3E0F9900001121419643C70569090
:10500500000EE0FBA3E0FAA3E0F98E82758300129F
:105015001419FD745D2FF582E43401F583EDF00E6E
:105025000F8E82758300121419640370D290000EDE
:10503500E0FBA3E0FAA3E0F98E82758300E4121485
:1050450058745C2FF582E43401F583E4F0D20990BD
:055055000166740AF081
:01505A002233
:0542810090000EEFF0BB
:10428600E4A3F090001A7403F090017D14F0126913
:104296007C90017EEFF090000EE090017FF090019F
:1042A6006FE090001A6013E0FF04F0747D2FF58232
:1042B600E43401F583744DF08011E0FF04F0747D61
:1042C6002FF582E43401F5837443F07B017A00799B
:1042D600101263C77B017A00791012000E90000F4E
:1042E600E02410F582E43400F583E0FE90001AE045
:1042F600FD04F0747D2DF582E43401F583EEF01FA4
:1043060090000FE004F0EF70D490001AE0FF04F084
:10431600747D2FF582E43401F583743AF090001A27
:10432600E0247DF9E43401FA7B01122DB090001AE5
:10433600E0FF2487F582E43401F583743AF074884B
:104346002FF582E43401F5837403F07B017A017959
:104356007DEF240CFDE490003CF01259917B017A2C
:0D43660001797D90001AE0240CFD026194A5
:0E61940090003FEBF0A3EAF0A3E9F0A3EDF0DA
:1061A200E4A3F0900042E0FFA3E0C39F50249000DC
:1061B2003FE0FBA3E0FAA3E0F9121400FF125D2C0A
:1061C200900040E475F00112147A900043E004F06C
:0261D20080D17A
:0161D40022A8
:0B46200090001DEBF0A3EAF0A3E9F00E
:10462B0090003E7403F090002014F012697C90000F
:10463B0021EFF0A37453F090016FE090003E6013F4
:10464B00E0FF04F074202FF582E43400F583744D01
:10465B00F08011E0FF04F074202FF582E43400F5B4
:10466B00837443F090003E7404F090001DE0FBA3B4
:10467B00E0FAA3E0F9121400FF602190003EE02461
:10468B0020F582E43400F583EFF090001EE475F022
:10469B000112147A90003EE004F080CE90003EE0D0
:1046AB00FF04F074202FF582E43400F583743AF0A4
:1046BB0090003EE02420F9E43400FA7B01122DB087
:1046CB0090003EE0FF242AF582E43400F583743A2F
:1046DB00F0742B2FF582E43400F5837403F07B0127
:0B46EB007A007920EF240CFD0261949E
:10677C00E4FFEFC3940974809480500F745D2FF57F
:0D678C0082E43401F583E4F00F80E7C209D8
:0167990022DD
:100D0A00020FB2E86480F8E933E83360110460F056
:100D1A00ED33EC337009E8FCE9FDEAFEEBFF22044F
:100D2A0060DED3EB9FEA9EE99DE8C2E78CF0C2F74A
:100D3A0095F0400CE8CCF8E9CDF9EACEFAEBCFFB16
:100D4A00120F7D85D0F05804700320D5B3E80470E3
:100D5A00075002B2D5020FBC92D5EC0460F7E4CC7E
:100D6A00C0E0C398F8603B94186008400DD0E0FBDF
:100D7A00020F94E4FBFAC9FC8028E830E406E4C9CF
:100D8A00FBE4CAFCE830E305E4C9CACBFCE8540733
:100D9A006010F8C3E913F9EA13FAEB13FBEC13FC3E
:100DAA00D8F130F52FC3E49CFCEF9BFFEE9AFEEDE1
:100DBA0099FDD0E0FBEF4E4D4C701222DB03020F7F
:100DCA00B9EC2CFCEF33FFEE33FEED33FDED30E7EB
:100DDA00EB020F94EF2BFFEE3AFEED39FDD0E0FB6C
:100DEA0050130BBB0003020FBCED13FDEE13FEEF15
:080DFA0013FFEC13FC020F943F
:100E0200EC4D6011E8497017ED33EC3304600DE4EA
:100E1200FCFFFEFD22E933E8330470F8020FB21240
:100E22000F7D58046009E4CC248150062850090241
:100E32000FBC284003020FB9C0E0EB4A7044B980EE
:100E420006D0E0FB020FA8EF4E701CBD8008EBFF3E
:100E5200EAFEE9FD80EBE98DF0A4FEE5F0020EEB7F
:100E6200E9CDF9EAFEEBFFEF89F0A4FCE5F0CE89CB
:100E7200F0A42EFFE435F0CD89F0A42DFEE435F088
:100E82008067EF4E7005BD80D780C3EF8BF0A4ACB6
:100E9200F0EE8BF0A42CFCE435F0F8EF8AF0A42CF1
:100EA200E5F038FCE433CB8DF0A42CFCE5F03BF804
:100EB200EE8AF0A42CFCE5F038F8E433CF89F0A4F4
:100EC2002CFCE5F038CF3400CE89F0A42FFFE5F0FA
:100ED2003EFEE433C98DF0A42EFEE5F039CD8AF052
:100EE200A42FFFE5F03EFEE43DFD33D0E0FB5007CA
:100EF2000BBB000F020FBCEC2CFCEF33FFEE33FEFA
:060F0200ED33FD020F9427
:100F080075F020800E75F010800575F0087D007E64
:100F1800007F003392D530D503121490EC33401083
:100F2800EF33FFEE33FEED33FDEC33FCD5F0ED226D
:0E0F3800E5F0247EA2D513CC92E7CDCEFF22A9
:100F4600EDD2E7CD33EC3392D524814006E4FFFEA3
:100F5600FDFC22FCE4CFCECDCC24E0501174FF8002
:100F6600EDC3CC13CCCD13CDCE13CECF13CF04709F
:070F7600F030D5DE021490FB
:10184800E50D24A5F582E43400F583E0050D22902A
:1018580000A23007039000A5E475F00112150702F5
:1018680014002000E97F2ED2008018EF540F249036
:10187800D43440D4FF30040BEF24BFB41A00500313
:101888002461FFE50E6002150E0511E511700205D1
:101898001030070E9000A2E475F001121507EF0250
:1018A80014460262D27403D2078003E4C207F50D1E
:1018B8009000A212151EE4F50EF510F511E50E6064
:1018C800077F2012188B80F5750FFFC201C200C276
:1018D80002C203C205C206C208121857FF700D30B3
:1018E80007057F0012189CAF11AE1022B4255FC205
:1018F800D5C204121857FF24D0B40A00501A75F044
:101908000A780E30D50508B6FF0106C6A426F620CB
:10191800D5047002D20380D924CFB41A00EF500442
:10192800C2E5D204021B8ED20180C6D20080C0D28A
:101938000280BCD2D580BAD20580B47F2012188B21
:101948002002077401B50E0040F1121848FF121862
:101958008B0218C5D208D2068095121848FB1218B7
:1019680048FA121848F94A4B7006798C7A1C7BFFA2
:1019780020022EE50E602A7E008E827583001214E6
:101988001960060EEE650F70F0C2D5EBC0E0EAC034
:10199800E0E9C0E0EE121BEFD0E0F9D0E0FAD0E0C9
:1019A800FB121400FF60AAEBC0E0EAC0E0E9C0E067
:1019B80012188BD0E02401F9D0E03400FAD0E0FB13
:1019C800E50F0460DCD50FD98087D20280A2121BF4
:1019D800D160F7E50F70010412106BA90F600DE5D7
:1019E8000F600914F50F121C79EF60F3EA30E70273
:1019F800F404C3995079EAF4250F0430E701E404AC
:101A0800F50F800D121BD160C1EA050F250F1210CA
:101A18006BEA9000D1F030E701E4250F04D50F04FC
:101A280020050114121BEFE4C0E0121C799000D1CC
:101A3800E0601320E70714F0121873802204F0D036
:101A4800E014C0E07F00121873E50F600712186AEF
:101A5800150F800B30050312186AD0E00218C5D0A4
:101A6800E00480C4121BD1609EE50F0412106B9035
:101A780000D1EAF0E50F2005026001042404121BDE
:011A8800EF6E
:101A890074FF04C0E0121C79121873E50F200502D7
:101A9900600312186AD0E0B50FE87F4512187D90EF
:101AA90000D1E07F2B30E7047F2DF404C0E0121849
:101AB9008BD0E075F00A84C0F0121874D0E01218C7
:101AC900740218C5791080027908C206C208800814
:101AD900D2D5790A8004790AC2D5E50F047002F5D6
:101AE9000FE4FAFDFEFF121848FC7B0820011312CF
:101AF9001848FD7B1030000A121848FE121848FFDA
:101B09007B20EC3382D592D55013C3E43000069F75
:101B1900FFE49EFEE42001039DFDE49CFCE4CBF878
:101B2900C201EC700CCFCECDCCE824F8F870F3806C
:101B390017C3EF33FFEE33FEED33FDEC33FCEB332C
:101B4900FB994002FB0FD8E9EB300105F8D0E0C45E
:101B590048B201C0E00AEC4D4E4F78207B0070C2BC
:101B6900EAB50F0040BCC0E0121BF1D0F0D0E02074
:101B79000104C4C0E0C4B201C0F0121874D0F0D599
:101B8900F0EB0218C51215271962531ACD581933EB
:101B99004C192F421AD14F1AD9441AD94919484315
:101BA9001ADF551A0C461A6C4519D6471CAC501940
:101BB900372D193B2E195E2B193F23195C201C95D3
:101BC9002A18F74800001956E50FB4FF03750F06E8
:101BD900121848FC121848FD121848FE121848FF3E
