:1065EC00526563696265207472616D612070746FAD
:1065FC00200D0A006C6F6E676974756420646520E9
:0D660C006C61207472616D613A200D0A000E
:104D87004101660A41016700410173004101680062
:104D97004101710041016F0041017C0049015D0043
:104DA7000000000000000000410172064101790384
:064DB700410178F2C10980
:03000B0002692B5C
:10692B00C0E0C083C082900166E014F0A3E004F0E5
:09693B00C28DD082D083D0E0327D
:106B0400E58954F04401F589E4F58CF58AD28C22A8
:056C0700C28DD2A9229C
:036C1500C2A922EF
:0B6B8D001267B5EFF47002EEF460F543
:016B980022DA
:056412009000D2EFF044
:106417009000D2E0FF126543EF3395E04F6024E42C
:106427009000D3F0A3F0C39000D4E094E89000D399
:10643700E0940350DBA3E004F070EB9000D3E0049A
:08644700F080E39000D2E0FFB9
:01644F00222A
:106B1400126C0C126BC9126B99C283D287C2972272
:10563D00E4FDFC7FA812657E90017AE4F0A3EFF003
:10564D007D027C007FA812657E900176E4F0A3EFC9
:10565D00F07D047C007FA812657E900174E4F0A3B8
:10566D00EFF07D067C007FA812657E90016DE4F061
:10567D00A3EFF07D087C007FA812657E90016AEF94
:10568D00F07D0A7C007FA812657E900169EFF07DA8
:10569D000C7C007FA812657E900170EFF07D0E7C72
:1056AD00007FA812657E90016CEFF07D0F7C007F6E
:0A56BD00A812657E90016BEFF02249
:104CCC00126B04126C071266721266EE126B14D21F
:104CDC00AF126BD0209103122A7112563D900166CF
:104CEC007405F020803F7B017A00790012536D909F
:104CFC00000DEFF0126BC07B017A00790090000D73
:104D0C00E0FD1250FA7B017A00790090000DE0FD75
:104D1C0090003C7401F0125AD17B017A01795D123A
:104D2C006450126BC012282520B34A7B017A01799A
:104D3C00351252D590000DEFF07BFF7A6579EC12AD
:104D4C0064507B017A01793590000DE0FD90003CB8
:104D5C007401F0125AD17BFF7A667900126450907C
:104D6C00000DE0FF1261C17B017A01793590000DD5
:0B4D7C00E0FD121CCB125A5E024CEF4F
:106944004C4956450A00477261626163696F6E2063
:0869540053657269653A2000E9
:0E1CCB0090000EEBF0A3EAF0A3E9F0A3EDF019
:101CD9006419704490000EE0FBA3E0FAA3E0F91246
:101CE90014006402703290000212141964487028BA
:101CF900900011E07E0024FFF582EE34FFF5831297
:101D090014196403701290000EA3A3E02403F9E4EC
:101D19003AFA1255220265B790000EE0FBA3E0FAE9
:101D2900A3E0F9121400640570057F05021F0B90EA
:101D3900000EE0FBA3E0FAA3E0F912140064B1700D
:101D4900057F60021F0B90000EE0FBA3E0FAA3E001
:101D5900F912140064B270057F5D021F0B90000E2A
:101D6900E0FBA3E0FAA3E0F912140064B370057F65
:101D790063021F0B900011E06401701790000EE0E0
:101D8900FBA3E0FAA3E0F912140064B470057F5EC6
:101D9900021F0B900011E06401701790000EE0FB28
:101DA900A3E0FAA3E0F912140064B570057F62029A
:101DB9001F0B90000EE0FBA3E0FAA3E0F912140058
:101DC90064B67039900167E0C394147480948040BC
:101DD900167FB61225A8C282E4900167F0C297C2A5
:101DE90083900166740AF090016AE0600302200B97
:101DF900900169E06401600302200B804490000EA9
:101E0900E0FBA3E0FAA3E0F912140064AA7046907B
:101E19000167E0C3941474809480500302200BE49A
:101E2900F0C297D282C283900166740AF090016A67
:101E3900E0600302200B900169E064016003022065
:101E49000B90016A04F07BFF7A697944126450E4CB
:101E590090016AF022900011E0FF6413703C900039
:101E69000EE0FBA3E0FAA3E0F99000011214196453
:101E7900567027EF24FFFFE434FFFE8F82F58312AB
:101E89001419640370148F828E83E4121458E924A0
:101E990002F9E43AFA7F5B021FAC900011E0FF649B
:101EA90013704390000EE0FBA3E0FAA3E0F91214CB
:101EB9000064027031900001121419644F7027EF09
:101EC90024FFFFE434FFFE8F82F5831214196403A3
:101ED90070148F828E83E4121458E92402F9E43ACB
:101EE900FA7F9B021FAC900011E06401701790000B
:101EF9000EE0FBA3E0FAA3E0F912140064A1700557
:101F09007FE70225A8900011E0FF64066003021F25
:101F1900AF90000EE0FBA3E0FAA3E0F9121400640D
:101F2900026003021FAF9000011214196457707602
:101F3900FE74FF2FF582EE34FFF583121419640342
:101F4900706490000EA3A3900002121419FD7B0186
:101F59007A007912125D2F9000157420F090000E0E
:101F6900E0FBA3E0FAA3E0F9900003121419FD9035
:101F7900000EA3A3900004121419900021F07B0114
:101F89007A00791612200C900169E064017B017ACC
:101F99000079127F5C700C1232587B017A00791239
:101FA900024760023258900011E0FF640C705390B0
:101FB900000EE0FBA3E0FAA3E0F91214006402703A
:101FC90041FE74FF2FF582EE34FFF5831214196474
:101FD90003702F90000EA3A3E02401F9E43AFA124A
:101FE9006B247BFF7A69794A12645090000EE0FBFA
:101FF900A3E0FAA3E0F9A3E0FD90003C7401F0121C
:022009005AD1AA
:01200B0022B2
:08000300D294126C1BC294227E
:056355009000A5EFF02F
:10635A00E4A3F0A3F09000A5E0FFA2E713F030D782
:10636A0004D2958002C2951200039000A7E004F0BF
:10637A0070069000A6E004F0C39000A7E09408908D
:09638A0000A6E06480948040CC80
:0163930022E7
:0A540200EBF0A3EAF0A3E9F07F8DC0
:05540C009000A2EFF08A
:10541100D2967F037E00126A989000A2E0FF126389
:1054210055E49000A3F0A3F09000A3E0FCA3E0FDFD
:10543100C39408EC64809480504F3095169001A37A
:10544100E04480F0ED9406EC648094805005E0FF28
:10545100C313F02095209001A3E0547FF0D3900076
:10546100A4E094069000A3E0648094805008900129
:10547100A3E0FFC313F01200039000A4E004F07056
:10548100A79000A3E004F0809FC2969001A3E0FFE3
:0154910022F8
:1066C600900020EFF0A3EDF0D2967F037E00126AD1
:1066D60098900020E0FF126355900021E0FF9000A3
:0866E60020F0126355C2962258
:1062930090001EE475F00112147A90001EE475F06C
:1062A3000112147A90001EE475F00112147A900022
:1062B3001DE0FBA3E0FAA3E0F9121400FF90000134
:0462C300121419FD9B
:0C62C700EF540FC454F0FFED540F4FFFD4
:0162D30022A8
:1055220090001DEBF0A3EAF0A3E9F01262B1AD071F
:105532007F861266C6126293AD077F881266C69096
:10554200001EE475F00112147A90001EE475F00159
:1055520012147A126293AD077F8C1266C61262939E
:10556200AD077F841266C6126293AD077F82126610
:10557200C6126293AD077F801266C690001EE47564
:10558200F00112147A90001EE475F00112147A9060
:10559200001EE475F00112147A90001DE0FBA3E0F6
:0F55A200FAA3E0F9121400540FFD7F8A0266C6C7
:10689E00AE07EEC4540F540FFE6012EF540FFFE418
:0D68AE00FDEDC39E5007740A2FFF0D80F40E
:0168BB0022BA
:105D2F00E4FFFE90001DEDF090001DE0C39464743D
:105D3F008094804007E0249CF00F80ECEF443012F9
:105D4F001446740129F9E43AFA90001DE0C3940A4D
:105D5F00748094804007E024F6F00E80ECEE44301F
:105D6F00121446740129F9E43AFA90001DE0443008
:035D7F00021446C5
:0E200C0090001DEBF0A3EAF0A3E9F0A3EDF0C5
:10201A00E4900022F0A3F0900025F0A3F0A3F0A32F
:10202A00F0900024EDF054F0F0E0FFC4540FF0906B
:10203A00002D1214D6404000007F007E007D807C77
:10204A00411235B0C004C005C006C007900024E0A4
:10205A00FCE4120F12D003D002D001D000120E02FB
:10206A00C004C005C006C007900022E0FCA3E0FD42
:10207A00E4120F0DD003D002D001D000120D1112BC
:10208A000F46900022EEF0A3EFF0900020E09000BF
:10209A0024F0540FF090002D1214D6400000007F57
:1020AA00007E007D807C411235B0C004C005C006A8
:1020BA00C007900024E0FCE4120F12D003D002D033
:1020CA0001D000120E02C004C005C006C00790006D
:1020DA0022E0FCA3E0FDE4120F0DD003D002D001F0
:1020EA00D000120D11120F46900022EEF0A3EFF06D
:1020FA00900021E0900024F054F0F0E0FFC4540F67
:10210A00F090002D1214D63F8000007F007E007DE3
:10211A00807C411235B0C004C005C006C0079000DB
:10212A0024E0FCE4120F12D003D002D001D0001236
:10213A000E02C004C005C006C007900022E0FCA33E
:10214A00E0FDE4120F0DD003D002D001D000120D31
:10215A0011120F46900022EEF0A3EFF0900021E05A
:10216A00900024F0540FF090002D1214D6000000B5
:10217A00007F007E007D807C411235B0C004C0051E
:10218A00C006C007900024E0FCE4120F12D003D06E
:10219A0002D001D000120E02C004C005C006C0075A
:1021AA00900022E0FCA3E0FDE4120F0DD003D00260
:1021BA00D001D000120D11120F46900022EEF0A3AA
:1021CA00EFF0C3EF9410EE9427401074F02FFF74D1
:1021DA00D83EFE900025E004F080E7900025E04418
:1021EA0030FD90001DE0FBA3E0FAA3E0F9ED121424
:1021FA004690001EE475F00112147AC3EF94E8EEDB
:10220A009403401074182FFF74FC3EFE900026E0E1
:10221A0004F080E7900026E04430FD90001DE0FBCA
:10222A00A3E0FAA3E0F9ED12144690001EE475F05B
:10223A000112147AC3EF9464EE94004010749C2F38
:10224A00FF74FF3EFE900027E004F080E79000272D
:10225A00E04430FD90001DE0FBA3E0FAA3E0F9EDB5
:10226A0012144690001EE475F00112147AC3EF941A
:10227A000AEE9400401074F62FFF74FF3EFE9000A1
:10228A0028E004F080E7900028E04430FD90001D2B
:10229A00E0FBA3E0FAA3E0F9ED12144690001EE475
:1022AA0075F00112147AEF4430FF90001DE0FBA391
:1022BA00E0FAA3E0F9EF12144690001EE475F0016B
:1022CA0012147A90001DE0FBA3E0FAA3E0F9E402FD
:0222DA001446A8
:032EB40090009FEC
:102EB700125402EF54F0C4540F4430FE90009FE0C8
:102EC700FBA3E0FAA3E0F9EE1214469000A0E47524
:102ED700F00112147AEF540F4430FF90009FE0FB8B
:102EE700A3E0FAA3E0F9EF1214469000A0E475F00E
:102EF7000112147A7F8912540CEF54F0C4540F4412
:102F070030FE90009FE0FBA3E0FAA3E0F9EE121475
:102F1700469000A0E475F00112147AEF540F443084
:102F2700FF90009FE0FBA3E0FAA3E0F9EF1214463D
:102F37009000A0E475F00112147A7F8712540CEF09
:102F470054F0C4540F4430FE90009FE0FBA3E0FA16
:102F5700A3E0F9EE1214469000A0E475F0011214F4
:102F67007AEF540F4430FF90009FE0FBA3E0FAA3F1
:102F7700E0F9EF1214469000A0E475F00112147AFC
:102F87007F8512540CEF54F0C4540F4430FE900068
:102F97009FE0FBA3E0FAA3E0F9EE1214469000A02D
:102FA700E475F00112147AEF540F4430FF90009F3C
:102FB700E0FBA3E0FAA3E0F9EF1214469000A0E4C7
:102FC70075F00112147A7F8312540CEF54F0C45435
:102FD7000F4430FE90009FE0FBA3E0FAA3E0F9EE78
:102FE7001214469000A0E475F00112147AEF540F02
:102FF7004430FF90009FE0FBA3E0FAA3E0F9EF1253
:1030070014469000A0E475F00112147A7F811254DF
:103017000CEF54F0C4540F4430FE90009FE0FBA324
:10302700E0FAA3E0F9EE1214469000A0E475F0016F
:1030370012147AEF540F4430FF90009FE0FBA3E097
:10304700FAA3E0F9EF1214469000A0E475F001121C
:10305700147A7F8B12540CEF540F4430FF90009F6B
:10306700E0FBA3E0FAA3E0F9EF1214469000A0E416
:1030770075F00112147A90009FE0FBA3E0FAA3E039
:05308700F9E40214460B
:1050540090003812540212689E900038E0FBA3E0DE
:10506400FAA3E0F9EF121446900039E475F0011246
:10507400147A7F8912540C12689E900038E0FBA3C6
:10508400E0FAA3E0F9EF121446900039E475F00158
:1050940012147A7F8712540C12689E900038E0FB39
:1050A400A3E0FAA3E0F9EF121446900039E475F096
:1050B4000112147A7F8512540C12689E900038E015
:1050C400FBA3E0FAA3E0F9EF121446900039E4756B
:1050D400F00112147A7F8312540C12689E900038E7
:1050E400E0FBA3E0FAA3E0F9EF121446900039E4E0
:0650F40075F00102147AC0
:104A8E0090002A12540290002AE0FBA3E0FAA3E061
:104A9E00F9EF12144690002BE475F00112147A7F90
:104AAE008912540C90002AE0FBA3E0FAA3E0F9EF80
:104ABE0012144690002BE475F00112147A7F8712BF
:104ACE00540C90002AE0FBA3E0FAA3E0F9EF1214D5
:104ADE004690002BE475F00112147A7F8512540C67
:104AEE0090002AE0FBA3E0FAA3E0F9EF121446903F
:104AFE00002BE475F00112147A7F8312540C90008F
:104B0E002AE0FBA3E0FAA3E0F9EF12144690002B83
:104B1E00E475F00112147A7F8112540C90002AE091
:104B2E00FBA3E0FAA3E0F9EF12144690002BE47514
:104B3E00F00112147A90002AE0FBA3E0FAA3E0F948
:044B4E00E402144623
:076BC900C294C296D295228E
:106A9800E4FDFCC3ED9FEC9E50070DBD00010C808A
:016AA800F2FB
:016AA90022CA
:0468F600AB07AA063C
:1068FA00900000C3E5829BE5839A500A7F967E004A
:06690A00126A98A380ED63
:016910002264
:016C1B002256
:03681F001267DB22
:10682200D20AD293D292E4FFFE209205C20AC29308
:0C683200220FBF00010EBE04F0BF4CEDB1
:01683E002237
:03683F001267DB02
:10684200D293D292D20AE4FFFE209205C20AC293E8
:0C685200220FBF00010EBE02F0BF8AED55
:01685E002217
:066C0100D29300C29322B1
:1067DB00E4FEEEC39408748094805015EF25E0FF1F
:1067EB0030D704D2928002C292D293126C010E80E7
:0167FB00E1BC
:0167FC00227A
:086AAA00ECFD7C00C293C292D6
:0A6AB200D292D29300C292C2932246
:096BB700C293C292D293D2922241
:105DD200E4FBEBFDC39408748094805038C2933086
:105DE200921690019CE04401F0ED94067480948038
:105DF2005006E025E0F0D29320921790019CE054E7
:105E0200FEF0EBD39406748094805006E025E0F017
:0C5E1200D2930B80BDC29390019CE0FF76
:015E1E002261
:02639400AA0756
:10639600AF05A907126AAAAF0212681FAF051268F5
:1063A6001FAF011267DB126822AF031267DB1268A8
:1063B60022126BB77F0D7E001268F6D293D2927FBF
:0D63C600627E00126A987F627E00026A9873
:02657E00AB0769
:10658000AF05AA07126AAAAF0312683FAF051268E7
:106590003FAF021267DB126842126AB2EB04FF12CD
:1065A00067DB126822C293125DD2126BB7D293D20C
:0665B0009290019CE0FF47
:0165B60022C2
:105C80009000B0EEF0A3EFF0A3EBF0A3EAF0A3E9ED
:015C9000F023
:105C91009000B0E0FCA3E0FD7FA812657E9000B209
:105CA100E0FBA3E0FAA3E0F9EF1214469000B2E0A2
:105CB100FBA3E0FAA3E0F9121400FF9000B1E004A5
:105CC100F070069000B0E004F09000B3E475F001CC
:065CD10012147AEF70BA14
:015CD70022AA
:1056C70090007DEFF0A3ECF0A3EDF0A3EBF0A3EADD
:1056D700F0A3E9F0900080E0FBA3E0FAA3E0F91261
:1056E7001400603CB40D04E412144690007DE0FF02
:1056F700A3E0FCA3E0FDA3E0FBA3E0FAA3E0F9121B
:105707001400FB12639490007FE004F07006900091
:105717007EE004F0900081E475F00112147A80B401
:10572700900080E0FBA3E0FAA3E0F9E412144690AE
:10573700007DE0FFA3E0FCA3E0FDA3E0FBA3E0FA0C
:0A574700A3E0F9121400FB026394C2
:10519B0053656E736F726573204175746F20792040
:1051AB0073656E736F72312061637469766F732EE2
:1051BB000053656E736F722061637469766F207331
:1051CB00656E736F7231202E004465746563746174
:1051DB00646F2E2053656E736F72204175746F2E42
:1051EB000053656E736F726573206E6F2064657408
:1051FB0065637461646F73005665686963756C6F82
:10520B00204573706572616E646F2053616C6972B7
:10521B002E005665686963756C6F2053616C696508
:10522B006E646F2E20556E206D6F6D656E746F0002
:076BD000C2B5C2B6C2B72234
:076BD700C2B5D2B6C2B7221D
:076BDE00D2B5D2B6C2B72206
:076BE500C2B5C2B6D2B7220F
:076BEC00D2B5C2B6D2B722F8
:076BF300C2B5D2B6D2B722F1
:076BFA00D2B5D2B6D2B722DA
:10687F00E4FF7D2C7C01309115EFFB3395E04B70DD
:0E688F000DED1D70011CED4C70EC7F0180E8DA
:01689D0022D8
:106ABC007F31126BF33091010F126BFA3091020F90
:016ACC000FBA
:016ACD0022A6
:105B4400126BE530915D12687FEF3395E0FEEF64F0
:105B5400014E7047126BEC209123126BD77BFF2010
:105B6400910D7A51799B126450E490016F80227AEE
:105B74005179BC12645090016F74018014126BD778
:105B84007BFF2091107A5179D412645090016F7484
:105B940001F07FFF227A5179EC800E7BFF7A5279F3
:0F5BA4000380067BFF7A52791D1264507F002226
:105A5E00126BD020916190000EE07014A3E07010D4
:105A6E0030B35404F012664690000E7401F0804775
:105A7E0090000EE064017014A3E0701030B338048F
:105A8E00F0123BC390000E7402F0802B90000EE0DB
:105A9E0064027023A3E0701F30B31C04F07D667C9B
:105AAE00007FA812657EBF53047F5380027F4E1283
:105ABE005751E490000EF0126BD0309105E4900037
:025ACE000FF0D7
:015AD00022B3
:1022DC004552524F523A2056414C4944414E444F7C
:1022EC0020504C4143412E2E2E20004552524F522D
:1022FC003A204C4F4F50312053494E2050524553A9
:10230C00454E434941205645484943554C4152207E
:10231C00004552524F523A205441524A45544120A2
:10232C00494E56414C49444120005441524A45546F
:10233C0041204E4F2045532044454C205041525192
:10234C002E20005441524A4554412053494E2046B8
:10235C004F524D41544F20005441524A4554412054
:10236C004E4F205245474953545241205041474FFC
:10237C002000455843454445205449454D504F2075
:10238C00444520475241434941200046554552415E
:10239C00204445204C494E454120004249454E566B
:1023AC00454E49444F2050554C534520454C2042F6
:1023BC004F544F4E20004552524F523A2053494EE3
:1023CC0020494E475245534F20005449434B4554E6
:1023DC00204E6F2E00613B30333B4249454E5645F3
:1023EC004E49444F0A0D0000613B30373BA1204D54
:1023FC00454E5355414C494441442056454E434962
:10240C00444120210A0D0000613B39343B4D454EBF
:10241C005355414C494441442045585049524F0A68
:10242C000D0000613B39353B4D454E5355414C49F0
:10243C004441442045584345444520484F5241525D
:10244C00494F204143455251554553452041204366
:10245C00414A410A0D0000613B39373B4D454E5313
:10246C0055414C204E4F205041474F204C4F43413B
:10247C0043494F4E20484F590A0D0000613B3933F8
:10248C003B4D454E5355414C2059412045535441E9
:10249C0020454E20504152515545414445524F0A1A
:1024AC000D0000613B30363B4D454E5355414C20A1
:1024BC00465545524120444520484F524152494FC0
:1024CC000A0D0000613B39363B4E4F204553204DE1
:1024DC00454E5355414C49444144204E492050529D
:1024EC00455041474F0A0D0000613B39323B4C4F80
:1024FC00544520415349474E41444F204553544184
:10250C00204C4C454E4F0A0D000057494547414E53
:10251C00442000613B39323B57494547414E4420EA
:10252C00000A004441544F2057494547414E44004E
:10253C000D0A00613B39313B47524143494153201D
:10254C00000A0000613B30333B4249454E56454E34
:10255C0049444F2000AA80280720000000000014E6
:10256C000000AA8018010200AA8018020200AA80AA
:10257C001801020000000000000000000000000034
:10258C00000000000000000000000000000000003F
:0C259C0000000000000000000000000033
:09678E00900052E025E0FFE4FD5B
:05679700900059EDF037
:10679C0012641290005AEFF0900059E0600AE4FF86
:0867AC0012641290005AEFF094
:0167B40022C2
:0E64CB00900053EBF0A3EAF0A3E9F0A3EDF08C
:1064D900E4A3F0900053E0FBA3E0FAA3E0F99000F5
:1064E90057E0F582758300121419FF601090005669
:0D64F900E0FD126797900057E004F080D698
:016506002272
:0E620800900053EBF0A3EAF0A3E9F0A3EDF051
:10621600E4900058F0900056E0FF900058E0FEC36E
:106226009F5024900053E0FBA3E0FAA3E0F98E828E
:10623600758300121419FF900057E0FD12679790BE
:076246000058E004F080CED7
:01624D00222E
:1065B700781D7C007D017BFF7A2579617E007F0D48
:1065C7001213DAC2877B017A007922124A8EC29CA3
:1065D7007B017A00791DE4900057F07D0D12620867
:0465E700D29CD287E9
:0165EB00228D
:065966007B017A007927A5
:0B596C00900053EBF0A3EAF0A3E9F079
:1059770012000E900057EFF0E4900056F090005799
:10598700E0FF900056E0C39F503DE4900058F09030
:105997000058E0C39464748094805005E004F0805C
:1059A700EE900053E0FBA3E0FAA3E0F9A3E0F58251
:1059B700758300121419FF126412900058EFF090CB
:1059C7000056E004F080B6E4900058F0900058E0EC
:0E59D700C39464748094805005E004F080EE68
:0159E500229F
:0525A80090001DEFF0A2
:1025AD0078467C007D017BFF7A25796E7E007F0663
:1025BD001213DA784C7C007D017BFF7A2579747ECD
:1025CD00007F061213DAC28790016BE060030227C9
:1025DD00B37B017A007946FD1264CB90001DE012A9
:1025ED00152726145026F3B62694DF2634E02654FC
:1025FD00E12674E52731E626B4E726D4E82755FA17
:10260D002712FE000027B07BFF7A2279DC12000E24
:10261D00900052EFF0E4FDFF12679712678E7BFF7B
:10262D007A2279DC02274E7BFF7A2279F712000E8F
:10263D00900052EFF0E4FDFF12679712678E7BFF5B
:10264D007A2279F702274E7BFF7A23791D12000E2D
:10265D00900052EFF0E4FDFF12679712678E7BFF3B
:10266D007A23791D02274E7BFF7A23793612000ECD
:10267D00900052EFF0E4FDFF12679712678E7BFF1B
:10268D007A23793602274E7BFF7A23794F12000E7B
:10269D00900052EFF0E4FDFF12679712678E7BFFFB
:1026AD007A23794F02274E7BFF7A23796412000E2D
:1026BD00900052EFF0E4FDFF12679712678E7BFFDB
:1026CD007A23796402274E7BFF7A23797E12000EDE
:1026DD00900052EFF0E4FDFF12679712678E7BFFBB
:1026ED007A23797E805B7BFF7A23799712000E9097
:1026FD000052EFF0E4FDFF12679712678E7BFF7AB1
:10270D00237997803C7BFF7A2379A712000E9000E6
:10271D0052EFF0E4FDFF12679712678E7BFF7A236D
:10272D0079A7801D7BFF7A2379C212000E9000528B
:10273D00EFF0E4FDFF12679712678E7BFF7A237926
:10274D00C27D011264CB805B7B017A00791E12651C
:10275D0007782D7C007D017BFF7A2379D61217B483
:10276D009000A27401F0A37400F0A3741EF07B011D
:10277D007A00792D125BB37B017A00792D12000E50
:10278D00EF04900052F0E4FDFF12679712678E7B05
:10279D00017A00792D900052E0FD9000577401F000
:1027AD00126208D28722C28790001DE012152728D9
:1027BD001B0527EB5E27F35F28136027FB61280BB2
:1027CD006228036327E3B427DBFE000028247BFF88
:1027DD007A2379E1803E7BFF7A2379F480367BFF83
:1027ED007A247914802E7BFF7A24792F80267BFF23
:1027FD007A247963801E7BFF7A24798880167BFF8B
:10280D007A2479AF800E7BFF7A2479D080067BFF06
:07281D007A2479F512596CD1
:012824002291
:0E32580090001DEFF0A3EBF0A3EAF0A3E9F065
:1032660078217C007D017BFF7A25797A7E007F06B6
:103276001213DA78277C007D017BFF7A2579807E20
:10328600007F281213DAC28790016BE0706090000D
:103296001DE0245070557B017A007921E4FD12640B
:1032A600CB7BFF7A25791612000E90004FEFF09037
:1032B600001EE0FBA3E0FAA3E0F912000E90004F17
:1032C600E02F04F0E4FDFF12679790004F1267911C
:1032D6007BFF7A2579167D011264CB90001EE0FBF8
:1032E600A3E0FAA3E0F97D011264CBD28722C2875C
:1032F60090001DE0246570030233CA249C60692493
:10330600A3600302340A78277C007D017BFF7A25BF
:10331600791F1217B490001EE0F9A3E0FAA3E0901B
:1033260000A2C9F0A3EAF0A3E9F07B017A007927AD
:10333600125BB39000A274FFF0A37425F0A3742D62
:10334600F07B017A007927125BB31259667BFF7A0C
:1033560025792F1264507B017A0079271264507BFD
:10336600FF7A25793C02645078277C007D017BFF3B
:103376007A25793F1217B490001EE0FBA3E0FAA36A
:10338600E0F912000E90004FEFF024FFFFE434FF47
:10339600FE90001EE0FBA3E0FAA3E0F98F828E8385
:1033A600E412145890001EE0F9A3E0FAA3E090009E
:1033B600A2C9F0A3EAF0A3E9F07B017A007927120B
:1033C6005BB3802678277C007D017BFF7A257950C8
:1033D6001217B412596678277C007D0190001EE012
:1033E600FBA3E0FAA3E0F91217B49000A274FFF071
:1033F600A37425F0A3744DF07B017A007927125B44
:04340600B31259663E
:01340A00229F
:100026000D0A0A25733E20002563002564000D0A8B
:100036000A2041435455414C2049445F434C4945AD
:100046004E54453D25730D0A0A000D0A0A204449FF
:1000560047495445205355204E5545564F2049444F
:100066005F434C49454E54453D000D0A0A20444124
:10007600544F204D4F444946494341444F2049443B
:100086005F434C49454E54453D25730D0A0A000D04
:100096000A0A2041435455414C20434F445F504186
:1000A600524B3D25730D0A0A000D0A0A20444947A2
:1000B600495445205355204E5545564F20434F44ED
:1000C6005F5041524B3D000D0A0A204441544F20D7
:1000D6004D4F444946494341444F20434F445F50A6
:1000E60041524B3D25730D0A0A000D0A0A20414371
:1000F6005455414C205449454D504F5F475241435A
:1001060049413D25730D0A0A000D0A0A2044494754
:10011600495445205355204E5545564F2054494580
:100126004D504F5F4752414349413D000D0A0A2059
:100136004441544F204D4F444946494341444F2082
:100146005449454D504F5F4752414349413D257300
:100156000D0A0A000D0A0A2041435455414C20530A
:10016600494E5F434F42524F20494E484142494C07
:10017600495441444F3D25730D0A0A000D0A0A20D1
:1001860041435455414C2053494E5F434F42524FD1
:10019600204752415449533D25730D0A0A000D0A62
:1001A6000A2041435455414C2053494E5F434F4228
:1001B600524F2047524154495320592053414C49EC
:1001C600444120454C204D49534D4F204449413D23
:1001D60025730D0A0A000D0A0A2044494749544569
:1001E600205355204E5545564F2053494E5F434F99
:1001F60042524F3D000D0A0A2041435455414C20BE
:10020600444542554720494E484142494C4954418C
:10021600444F3D25730D0A0A000D0A0A2041435436
:1002260055414C20444542554720484142494C4996
:100236005441444F3D25730D0A0A000D0A0A204415
:10024600494749544520454C204E5545564F204573
:10025600535441444F2044452044454255473D00B0
:100266000D0A0A2041435455414C205553455F4CD5
:10027600505220494E484142494C495441444F3D11
:1002860025730D0A0A000D0A0A2041435455414CB4
:10029600205553455F4C505220484142494C4954E1
:1002A60041444F3D25730D0A0A000D0A0A204449B0
:1002B6004749544520454C204E5545564F204553F9
:1002C6005441444F204445205553455F4C50523DC0
:1002D600000D0A0A2041435455414C20434F4D50CE
:1002E60041524143494F4E204143544956412049CA
:1002F6004E484142494C495441444F3D25730D0AED
:100306000A000D0A0A2041435455414C20434F4DE3
:100316005041524143494F4E204143544956412092
:1003260020484142494C495441444F3D25730D0AEA
:100336000A000D0A0A2044494749544520454C20E5
:100346004E5545564F2045535441444F2044452071
:10035600434F4D5041524143494F4E20414354492A
:100366005641203D000D0A0A2041435455414C2078
:10037600434F4D5041524143494F4E20414354490A
:1003860056412020494E484142494C495441444F28
:100396003D25730D0A0A000D0A0A204143545541B2
:1003A6004C20434F4449474F204445204241525236
:1003B6004153204143544956303D25730D0A0A00E6
:1003C6000D0A0A2041435455414C20434F444947A6
:1003D6004F2051522041435449564F3D25730D0A33
:1003E6000A000D0A0A2044494749544520454C2035
:1003F6004E5545564F2045535441444F20444520C1
:10040600434F4449474F205152204F20434F4449C0
:10041600474F204445204241525241533D000D0A68
:100426000A2050414E54414C4C41204C43442048F4
:100436004142494C49544144413D25730D0A0A0045
:100446000D0A0A2050414E54414C4C412052415312
:100456005042455252592020484142494C49544144
:1004660044413D25730D0A0A000D0A0A20444947F6
:1004760049544520454C204E5545564F204553542A
:1004860041444F204445204C412050414E54414C5C
:100496004C41203D000D0A0A2050414E54414C4C1F
:1004A60041204C4344204143544956413D25730D58
:1004B6000A0A000D0A0A2050414E54414C4C412074
:1004C6005241535042455252592041435449564194
:1004D600203D25730D0A0A000D0A0A204469676942
:1004E600746520656C206E6F6D6272652064656C44
:1004F60020636C69656E746520000D0A0A207465B8
:1005060078746F206772616261646F3D25730D0AAE
:100516000A000D0A0A2044696769746520656C2023
:100526006E756D65726F206465204E697420000DCE
:100536000A0A204E49543A2025730D0A0A000D0A6C
:100546000A2044696769746520656C204E6F6D6288
:1005560072652064656C20506172717565616465B1
:10056600726F20000D0A0A204E6F6D6272653A2086
:1005760025730D0A0A000D0A0A2044696769746525
:10058600206C6120646972656363696F6E206465BF
:100596006C2065737461626C6563696D69656E7400
:1005A6006F20000D0A0A20446972656363696F6EE5
:1005B6003A2025730D0A0A000D0A0A204469676964
:1005C600746520656C206D736A312064656C2065E6
:1005D600737461626C6563696D69656E746F200022
:1005E6000D0A0A206D736A313A2025730D0A0A0036
:1005F6000D0A0A2044696769746520656C206D736D
:100606006A322064656C2065737461626C65636927
:100616006D69656E746F20000D0A0A20446967696A
:10062600746520656C206D736A332064656C206583
:10063600737461626C6563696D69656E746F2000C1
:100646000D0A0A206D736A333A2025730D0A0A00D3
:100656000D0A0A2044696769746520656C206D730C
:100666006A342064656C2065737461626C656369C5
:100676006D69656E746F20000D0A0A206D736A3409
:100686003A2025730D0A0A000D0A0A204469676993
:10069600746520656C206D736A352064656C206511
:1006A600737461626C6563696D69656E746F200051
:1006B6000D0A0A206D736A353A2025730D0A0A0061
:1006C6000D0A0A2044696769746520656C206D739C
:1006D6006A362064656C2065737461626C65636953
:1006E6006D69656E746F20000D0A0A206D736A3697
:1006F6003A2025730D0A0A000D0A0A204469676923
:10070600746520656C206D736A372064656C20659E
:10071600737461626C6563696D69656E746F2000E0
:100726000D0A0A206D736A373A2025730D0A0A00EE
:100736000D0A2049445F434C49454E54452020202C
:10074600202D2D2D20636D642030204964656E7444
:100756006966696361646F722064656C20636C69A5
:10076600656E7465206D6178696D6F203235350070
:100776000D0A20434F445F5041524B202020202039
:10078600202D2D2D20636D64203120456C206E7543
:100796006D65726F2064656C20706172717565613C
:1007A6006465726F206D6178696D6F203235350032
:1007B6000D0A20545F475241434941202020202002
:1007C600202D2D2D20636D642032205469656D70B7
:1007D6006F2073696E20636F62726F2030302C2039
:1007E600206D6178696D6F20323535000D0A205312
:1007F600494E5F434F42524F20202020202D2D2D61
:1008060020636D64203320496E686162696C697487
:1008160061646F3D20302C204772617469733D20FE
:1008260031202C2047726174697320792073616CC2
:1008360069646120656C206D69736D6F2064696100
:100846003D2032000D0A20444542554720202020F5
:1008560020202020202D2D2D20636D64203420485B
:100866006162696C69746172203D20312C20496E89
:10087600686162696C69746172203D2030000D0AFE
:10088600205553455F4C5052202020202020202DFB
:100896002D2D20636D642035486162696C69746131
:1008A60072203D20312C20496E686162696C697442
:1008B6006172203D2030000D0A20434F4D504152B9
:1008C6004143494F4E5F414354495641202D2D2DFA
:1008D600636D64203620486162696C6974617220B8
:1008E6003D20312C20496E686162696C69746172C1
:1008F600203D2030000D0A2051525F434F445F4295
:100906004152524153202D2D2D636D6420372048CE
:100916006162696C69746172205152203D20312CEC
:1009260020486162696C6974617220434F445F427A
:100936004152524153203D2030000D0A2054495067
:100946004F5F50414E54414C4C41202D2D2D20439C
:100956004D4420382050414E54414C4C41204C438C
:1009660044203D302050414E54414C4C4120524190
:10097600535042455252493D31000D0A20434C49DD
:10098600454E5445202020202020202D2D2D636DFE
:10099600642039204E6F6D6272652064656C206339
:1009A6006C69656E7465000D0A204E49542020203E
:1009B60020202020202020202D2D2D20636D642036
:1009C6003130204E756D65726F2064656C206E69DE
:1009D60074000D0A204E4F4D5F5041525120202089
:1009E6002020202D2D2D20636D64203131204E6F67
:1009F6006D6272652064656C2070617271756561E7
:100A06006465726F000D0A20444952454343494FBD
:100A16004E20202020202D2D2D20636D6420313284
:100A2600204E6F6D6272652064656C207061727114
:100A36007565616465726F000D0A204D534A5F311A
:100A46002020202020202020202D2D2D20636D64A5
:100A5600203133206D736A20646520696E666F727B
:100A66006D6163696F6E2064656C2070617271756B
:100A760065616465726F000D0A204D534A5F32202E
:100A860020202020202020202D2D2D20636D642065
:100A96003134206D736A20646520696E666F726DED
:100AA6006163696F6E2064656C2070617271756533
:100AB600616465726F000D0A204D534A5F33202032
:100AC600202020202020202D2D2D20636D64203114
:100AD60035206D736A20646520696E666F726D617C
:100AE60063696F6E2064656C2070617271756561F3
:100AF6006465726F000D0A204D534A5F3420202032
:100B06002020202020202D2D2D20636D64203136BD
:100B1600206D736A20646520696E666F726D61630D
:100B2600696F6E2064656C207061727175656164B1
:100B360065726F000D0A204D534A5F352020202034
:100B460020202020202D2D2D20636D64203137207C
:100B56006D736A20646520696E666F726D61636984
:100B66006F6E2064656C2070617271756561646575
:100B7600726F000D0A204D534A5F36202020202038
:100B8600202020202D2D2D20636D64203138206DEE
:100B9600736A20646520696E666F726D6163696F42
:100BA6006E2064656C207061727175656164657232
:100BB6006F000D0A204D534A5F3720202020202049
:100BC6002020202D2D2D20636D64203139206D735A
:100BD6006A20646520696E666F726D6163696F6E07
:100BE6002064656C20706172717565616465726FF1
:100BF600000D0A2041595544412020202020202064
:100C060020202D2D2D20636D64203230204D7565FA
:100C160073747261206C6F7320636F6D616E646FA5
:100C260073000D0A2053414C4952202020202020D9
:100C36002020202D2D2D20636D642032312053611C
:100C46006C69722064652070726F6772616D616392
:100C5600696F6E000D0A0A53697374656D612064CD
:100C6600652050726F6772616D6163696F6E2056A1
:100C760065726966696361646F720D0A0D0A000D1B
:100C86000A0A2F3E5573756172696F3A000D0A0A9A
:100C9600206461746F732064656C20627566666596
:100CA600722072782025730D0A0A000D0A0A206444
:100CB60061746F732064656C206275666665722068
:100CC60074782025730D0A0A000D0A0A2F3E50611A
:100CD6007373776F72643A00313233343536000DF0
:100CE6000A436F6D616E646F206E6F20657869735D
:100CF6007465202725732700200D0A00200D0A00A1
:040D0600220D0A00B0
:104DBD005400DF2F00000000000000000000000084
:104DCD00000000000000004900D661646D696E00AE
:104DDD00000000604200F33000003100003200009E
:104DED003300003400003500003600003700003875
:104DFD0000003900003130003131003132003133E3
:104E0D000031340031350031360031370031380092
:094E1D003139003230003231005D
:0B5C1E0090003FEBF0A3EAF0A3E9F0D8
:105C2900E4900045F0900045E0FFC3941674809419
:105C3900805041EF75F003A424F3F9740035F0FAAC
:105C49007B0178427C007D011217B478427C007D8B
:105C59000190003FE0FBA3E0FAA3E0F91216CBEFB5
:105C69003395E04F7006900045E0FF22900045E033
:065C790004F080B17FFF82
:015C7F002202
:0B624E0090000EE0FBA3E0FAA3E0F9D3
:0B62590090003FEBF0A3EAF0A3E9F097
:1062640078427C007D017B017A0079D61217B478DC
:10627400427C007D0190003FE0FBA3E0FAA3E0F93B
:0E6284001216CBEF3395E04F7002FF227FFF22
:0162920022E9
:066315007B017A00792BE8
:0B631B0090003FEBF0A3EAF0A3E9F0D4
:1063260078427C007D017BFF7A0C79FE7E007F043B
:106336001213DA90004D7401F0A37400F0A37442B6
:0F634600F090003FE0FBA3E0FAA3E0F90245A1CD
:10549200E0FBA3E0FAA3E02FF9EA3EFAE92401F9DE
:0354A200E43AFAEF
:0B54A50090003FEBF0A3EAF0A3E9F059
:1054B00078427C007D017BFF7A0D79027E007F04BB
:1054C0001213DA78467C007D017BFF7A0D79067E27
:1054D000007F041213DA90003FE0FBA3E0FAA3E0A0
:1054E000F9121400FFB4200C900040E475F0011292
:1054F000147A80E2EF90004DB4220D7401F0A37491
:1055000000F0A37446F080167401F0A37400F0A3B9
:105510007442F090003FE0FBA3E0FAA3E0F91245EB
:01552000A1E9
:015521002267
:10695C009000A57401F0A37400F0A374DFF07BFF2A
:07696C007A0079260218B33E
:084FA7007A00792B7B01E4FD87
:0E4FAF0090007DEBF0A3EAF0A3E9F0A3EDF093
:104FBD00126B8D90007DE0FBA3E0FAA3E0F9EF12F8
:104FCD001446900080E0701D90007DE0FBA3E0FA98
:104FDD00A3E0F91214009000A5F07BFF7A00792E62
:104FED001218B380057F2A12641290007DE0FBA396
:104FFD00E0FAA3E0F9121400FF7E00900081EEF0BC
:10500D00A3EFF090007EE475F00112147A90007D0C
:10501D00E0FBA3E0FAA3E0F9E4121446EF640D609F
:10502D000C900081E07004A3E0640A708390007E10
:10503D0074FFF5F012147A90007DE0FBA3E0FAA363
:07504D00E0F9740A021446A9
:104E3D00E4FDFC7FA812657E7E00900049EEF0A394
:104E4D00EFF09000A574FFF0A37400F0A37431F09F
:104E5D00A3EEF0A3EFF07B017A00793F1218AD902D
:104E6D0000A57401F0A37400F0A3743FF07BFF7AEA
:104E7D000079341218B37BFF7A0079501218B37A87
:104E8D0000793F124FAB7B017A00793F1246859036
:104E9D000049EEF0A3EFF0FBE4FDFC7FA812639454
:104EAD00E4FDFC7FA812657E7E00900049EEF0A324
:104EBD00EFF09000A574FFF0A37400F0A37431F02F
:104ECD00A3EEF0A3EFF07B017A00793F1218AD90BD
:104EDD0000A57401F0A37400F0A3743FF07BFF7A7A
:064EED000079700218B309
:104B52007D027C007FA812657E7E00900049EEF007
:104B6200A3EFF09000A574FFF0A37400F0A37431DA
:104B7200F0A3EEF0A3EFF07B017A00793F1218ADBB
:104B82009000A57401F0A37400F0A3743FF07BFFC2
:104B92007A0079951218B37BFF7A0079AF1218B3B5
:104BA2007B017A00793FE4FD124FAF7B017A0079F5
:104BB2003F124685900049EEF0A3EFF0FB7D027CA8
:104BC200007FA81263947D027C007FA812657E7E1E
:104BD20000900049EEF0A3EFF09000A574FFF0A35F
:104BE2007400F0A37431F0A3EEF0A3EFF07B017A2E
:104BF20000793F1218AD9000A57401F0A37400F083
:0D4C0200A3743FF07BFF7A0079CD0218B358
:104C0F007D047C007FA812657E7E00900049EEF047
:104C1F00A3EFF09000A574FFF0A37400F0A374311C
:104C2F00F0A3EEF0A3EFF07B017A00793F1218ADFD
:104C3F009000A57401F0A37400F0A3743FF07BFF04
:104C4F007A0079F01218B37BFF7A01790F1218B33B
:104C5F007B017A00793FE4FD124FAF7B017A007937
:104C6F003F124685900049EEF0A3EFF0FB7D047CE8
:104C7F00007FA81263947D047C007FA812657E7E5E
:104C8F0000900049EEF0A3EFF09000A574FFF0A3A1
:104C9F007400F0A37431F0A3EEF0A3EFF07B017A70
:104CAF0000793F1218AD9000A57401F0A37400F0C5
:0D4CBF00A3743FF07BFF7A0179320218B335
:103716007D067C007FA812657E7E00900049EEF053
:10372600A3EFF09000A574FFF0A37400F0A374312A
:10373600F0A3EEF0A3EFF07B017A00793F1218AD0B
:10374600900049E07002A3E070159000A504F0A374
:103756007400F0A3743FF07BFF7A01795A803590AC
:103766000049E07004A3E0640170159000A504F020
:10377600A37400F0A3743FF07BFF7A017982801472
:103786009000A57401F0A37400F0A3743FF07BFFD2
:103796007A0179A41218B37BFF7A0179DC1218B387
:1037A6007B017A00793FE4FD124FAF7B017A007905
:1037B6003F124685900049EEF0A3EFF0FB7D067CB4
:1037C600007FA81263947D067C007FA812657E7E2A
:1037D60000900049EEF0A3EFF09000A574FFF0A36F
:1037E6007400F0A37431F0A3EEF0A3EFF07B017A3E
:1037F60000793F1218AD900049E07002A3E0701501
:103806009000A504F0A37400F0A3743FF07BFF7A48
:1038160001795A8035900049E07004A3E064017094
:10382600159000A504F0A37400F0A3743FF07BFF8D
:103836007A01798280149000A57401F0A37400F0D7
:0D384600A3743FF07BFF7A0179A41218B340
:013853002252
:103DDF007D087C007FA812657E7E00900049EEF082
:103DEF00A3EFF09000A574FFF0A37400F0A374315B
:103DFF00F0A3EEF0A3EFF07B017A00793F1218AD3C
:103E0F00900049E07002A3E070159000A504F0A3A4
:103E1F007400F0A3743FF07BFF7A0179FB8014905C
:103E2F0000A57401F0A37400F0A3743FF07BFF7A38
:103E3F0002791F1218B37BFF7A0279411218B37BF4
:103E4F00017A00793FE4FD124FAF7B017A00793F91
:103E5F00124685900049EEF0A3EFF0FB7D087C0041
:103E6F007FA81263947D087C007FA812657E7E0078
:103E7F00900049EEF0A3EFF09000A574FFF0A3744B
:103E8F0000F0A37431F0A3EEF0A3EFF07B017A0002
:103E9F00793F1218AD900049E07002A3E0701590C1
:103EAF0000A504F0A37400F0A3743FF07BFF7A0128
:103EBF0079FB80149000A57401F0A37400F0A37433
:0B3ECF003FF07BFF7A02791F1218B34E
:013EDA0022C5
:103EDB007D0A7C007FA812657E7E00900049EEF083
:103EEB00A3EFF09000A574FFF0A37400F0A374315E
:103EFB00F0A3EEF0A3EFF07B017A00793F1218AD3F
:103F0B00900049E07002A3E070159000A504F0A3A7
:103F1B007400F0A3743FF07BFF7A027966801490F3
:103F2B0000A57401F0A37400F0A3743FF07BFF7A3B
:103F3B0002798C1218B37BFF7A0279B01218B37B1B
:103F4B00017A00793FE4FD124FAF7B017A00793F94
:103F5B00124685900049EEF0A3EFF0FB7D0A7C0042
:103F6B007FA81263947D0A7C007FA812657E7E0079
:103F7B00900049EEF0A3EFF09000A574FFF0A3744E
:103F8B0000F0A37431F0A3EEF0A3EFF07B017A0005
:103F9B00793F1218AD900049E07002A3E0701590C4
:103FAB0000A504F0A37400F0A3743FF07BFF7A022A
:103FBB00796680149000A57401F0A37400F0A374CB
:0B3FCB003FF07BFF7A02798C1218B3E4
:013FD60022C8
:103FD7007D0C7C007FA812657E7E00900049EEF084
:103FE700A3EFF09000A574FFF0A37400F0A3743161
:103FF700F0A3EEF0A3EFF07B017A00793F1218AD42
:10400700900049E07002A3E070159000A504F0A3AA
:104017007400F0A3743FF07BFF7A0279D780149085
:1040270000A57401F0A37400F0A3743FF07BFF7A3E
:104037000379081218B37BFF7A0379381218B37B18
:10404700017A00793FE4FD124FAF7B017A00793F97
:10405700124685900049EEF0A3EFF0FB7D0C7C0043
:104067007FA81263947D0C7C007FA812657E7E007A
:10407700900049EEF0A3EFF09000A574FFF0A37451
:1040870000F0A37431F0A3EEF0A3EFF07B017A0008
:10409700793F1218AD900049E07002A3E0701590C7
:1040A70000A504F0A37400F0A3743FF07BFF7A032C
:1040B700796B80149000A57401F0A37400F0A374C9
:0B40C7003FF07BFF7A0379081218B36A
:0140D20022CB
:1040D3007D0E7C007FA812657E7E00900049EEF085
:1040E300A3EFF09000A574FFF0A37400F0A3743164
:1040F300F0A3EEF0A3EFF07B017A00793F1218AD45
:10410300900049E07002A3E070159000A504F0A3AD
:104113007400F0A3743FF07BFF7A03799D801490C1
:1041230000A57401F0A37400F0A3743FF07BFF7A41
:104133000379C61218B37BFF7A0379E81218B37BAD
:10414300017A00793FE4FD124FAF7B017A00793F9A
:10415300124685900049EEF0A3EFF0FB7D0E7C0044
:104163007FA81263947D0E7C007FA812657E7E007B
:10417300900049EEF0A3EFF09000A574FFF0A37454
:1041830000F0A37431F0A3EEF0A3EFF07B017A000B
:10419300793F1218AD900049E07002A3E0701590CA
:1041A30000A504F0A37400F0A3743FF07BFF7A032F
:1041B300799D80149000A57401F0A37400F0A3749A
:0B41C3003FF07BFF7A0379C61218B3AF
:0141CE0022CE
:1041CF007D0F7C007FA812657E7E00900049EEF087
:1041DF00A3EFF09000A574FFF0A37400F0A3743167
:1041EF00F0A3EEF0A3EFF07B017A00793F1218AD48
:1041FF00900049E07002A3E070159000A504F0A3B1
:10420F007400F0A3743FF07BFF7A0479248014903C
:10421F0000A57401F0A37400F0A3743FF07BFF7A44
:10422F000479461218B37BFF7A04796F1218B37BA7
:10423F00017A00793FE4FD124FAF7B017A00793F9D
:10424F00124685900049EEF0A3EFF0FB7D0F7C0046
:10425F007FA81263947D0F7C007FA812657E7E007D
:10426F00900049EEF0A3EFF09000A574FFF0A37457
:10427F0000F0A37431F0A3EEF0A3EFF07B017A000E
:10428F00793F1218AD900049E07002A3E0701590CD
:10429F0000A504F0A37400F0A3743FF07BFF7A0431
:1042AF00799B80149000A57401F0A37400F0A3749F
:0B42BF003FF07BFF7A0479B91218B3BE
:0142CA0022D1
:105EB4007BFF7A0479DE1218B37B017A00793FE420
:105EC400FD124FAF7B017A00793F7D107C007FA8E3
:105ED4001256C77B017A00793F7F107E00125C80E6
:105EE4009000A57401F0A37400F0A3743FF07BFF4D
:075EF4007A0579000218B3E2
:105EFB007BFF7A0579181218B37B017A00793FE49E
:105F0B00FD124FAF7B017A00793F7D407C007FA86B
:105F1B001256C77B017A00793F7F407E00125C806E
:105F2B009000A57401F0A37400F0A3743FF07BFF05
:075F3B007A0579350218B365
:105F42007BFF7A0579441218B37B017A00793FE42A
:105F5200FD124FAF7B017A00793F7D507C007FA814
:105F62001256C77B017A00793F7F507E00125C8017
:105F72009000A57401F0A37400F0A3743FF07BFFBE
:075F82007A05796A0218B3E9
:105F89007BFF7A05797C1218B37B017A00793FE4AB
:105F9900FD124FAF7B017A00793F7D807C007FA89D
:105FA9001256C77B017A00793F7F807E00125C80A0
:105FB9009000A57401F0A37400F0A3743FF07BFF77
:075FC9007A0579A90218B363
:105FD0007BFF7A0579BE1218B37B017A00793FE422
:105FE000FD124FAF7B017A00793F7DB07C007FA826
:105FF0001256C77B017A00793F7FB07E00125C8029
:106000009000A57401F0A37400F0A3743FF07BFF2F
:076010007A0579E60218B3DE
:106017007BFF7A0579F61218B37B017A00793FE4A2
:10602700FD124FAF7B017A00793F7DF17C007FA89D
:106037001256C77B017A00793F7FF17E00125C80A0
:106047009000A57401F0A37400F0A3743FF07BFFE8
:076057007A0579E60218B397
:10605E007BFF7A06791E1218B37B017A00793FE432
:10606E00FD124FAF7B017A00793F7D327C017FA814
:10607E001256C77B017A00793F7F327E01125C8017
:10608E009000A57401F0A37400F0A3743FF07BFFA1
:07609E007A0679460218B3EF
:1060A5007BFF7A0679561218B37B017A00793FE4B3
:1060B500FD124FAF7B017A00793F7D737C017FA88C
:1060C5001256C77B017A00793F7F737E01125C808F
:1060D5009000A57401F0A37400F0A3743FF07BFF5A
:0760E5007A06797E0218B370
:1060EC007BFF7A06798E1218B37B017A00793FE434
:1060FC00FD124FAF7B017A00793F7DB47C017FA804
:10610C001256C77B017A00793F7FB47E01125C8006
:10611C009000A57401F0A37400F0A3743FF07BFF12
:07612C007A0679B60218B3F0
:106133007BFF7A0679C61218B37B017A00793FE4B4
:10614300FD124FAF7B017A00793F7DF57C017FA87B
:106153001256C77B017A00793F7FF57E01125C807E
:106163009000A57401F0A37400F0A3743FF07BFFCB
:076173007A0679EE0218B371
:10617A007BFF7A0679FE1218B37B017A00793FE435
:10618A00FD124FAF7B017A00793F7D367C027FA8F2
:10619A001256C77B017A00793F7F367E02125C80F5
:1061AA009000A57401F0A37400F0A3743FF07BFF84
:0761BA007A0779260218B3F1
:104903007BFF7A0779361218B37BFF7A0779761221
:1049130018B37BFF7A0779B61218B37BFF7A07794E
:10492300F21218B37BFF7A08794A1218B37BFF7A25
:104933000879841218B37BFF7A0879BD1218B37B08
:10494300FF7A0879FB1218B37BFF7A0979401218B2
:10495300B37BFF7A0979801218B37BFF7A0979ADAB
:104963001218B37BFF7A0979D81218B37BFF7A0A3E
:10497300790B1218B37BFF7A0A793E1218B37BFFC7
:104983007A0A797D1218B37BFF7A0A79BC1218B3BD
:104993007BFF7A0A79FB1218B37BFF7A0B793A1201
:1049A30018B37BFF7A0B79791218B37BFF7A0B79F3
:1049B300B81218B37BFF7A0B79F71218B37BFF7A1F
:0649C3000C79280218B374
:102A71007BFF7A0C795A1218B37BFF7A0C79851295
:102A810018B3126B7F124FA712631590000EEBF073
:102A9100A3EAF0A3E9F09000A5E4F0A37400F0A389
:102AA100742CF07BFF7A0C79931218B39000A5E493
:102AB100F0A37400F0A3745EF07BFF7A0C79B1127D
:102AC10018B312624EEF70B17BFF7A0C79CF1218F6
:102AD100B37B017A00792B7D01124FAF1263159000
:102AE100000EEBF0A3EAF0A3E9F078D67C007D01BB
:102AF1007BFF7A0C79DE1217B412624EEF70C902B5
:102B01002C8312695C124FA712631590000EEBF033
:102B1100A3EAF0A3E9F012000E90000E1254929075
:102B21000011EBF0A3EAF0A3E9F012000E900011FE
:102B3100125492900014EBF0A3EAF0A3E9F0900094
:102B410011E0FBA3E0FAA3E0F9EA494B6017121484
:102B510000B42F1178177C007D01900011A3A3E030
:102B61001217B4803D900011E0FBA3E0FAA3E0F955
:102B7100EA494B602D78177C007D017B017A007951
:102B8100DF1217B4900011E0F9A3E0FAA3E090007E
:102B9100A2C9F0A3EAF0A3E9F07B017A0079171248
:102BA1005BB390000EE0FBA3E0FAA3E0F9EA494B26
:102BB1007003022B03125C1EEFB416004003022CBB
:102BC10089902BC9F8282873022C0B022C11022C96
:102BD10017022C1D022C23022C29022C2F022C352A
:102BE100022C3B022C41022C47022C4D022C530299
:102BF1002C59022C5F022C65022C6B022C71022CC9
:102C010077022C7D022C83022CAA124E3D022B034B
:102C1100124B52022B03124C0F022B0312371602D6
:102C21002B03123DDF022B03123EDB022B03123F6B
:102C3100D7022B031240D3022B031241CF022B03E5
:102C4100125EB4022B03125EFB022B03125F4202DF
:102C51002B03125F89022B03125FD0022B03126038
:102C610017022B0312605E022B031260A5022B03D5
:102C71001260EC022B03126133022B0312617A0200
:102C81002B03124903022B0390000EE0F9A3E0FA93
:102C9100A3E09000A5C9F0A3EAF0A3E9F07BFF7AD5
:092CA1000C79E51218B3022B03B3
:012CAA002207
:036C1800256400F0
:0B52D50090000EEBF0A3EAF0A3E9F05C
:1052E0009000137401F0A374F4F0126C15E49000B4
:1052F00012F0C286900011F0C2B2900013E0FEA33B
:10530000E0FF20B35B900011E07055900013E0FEC9
:10531000A3E0FFEF1F70011EEF4E70059000110417
:10532000F030B406900011E060E920B43390001131
:10533000E0702D90000EE0FBA3E0FAA3E0F9E5A0F9
:10534000121446900012E004F090000FE475F00192
:1053500012147A900013E0FEA3E0FF30B4FD80A2A7
:0C536000D2B2D286126C07900012E0FF5F
:01536C00221E
:0E4EF300900038EBF0A3EAF0A3E9F0A3EDF095
:104F0100900041F0D2B2D2B4C286E4900040F0C227
:104F1100B290003C1214D600004E2030B3499000EC
:104F210040E07043C2B2D2B490003CE0FCA3E0FD8B
:104F3100A3E0FEA3E0FFEF24FFFFEE34FFFEED341C
:104F4100FFFDEC34FFFC90003C1214CA90003CE0E1
:104F5100FCA3E0FDA3E0FEA3E0FFEC4D4E4F70BBD0
:104F6100A304F0C28280B4900040E0702920B326EF
:104F7100900038E0FBA3E0FAA3E0F9121400F5A0D9
:104F8100126ACE900039E475F00112147A90003B58
:104F9100E014F0E070DA75A0FFD2B2D2B4D2867F0D
:064FA100627E00026A9826
:10308C009000367402F0E4A3F090000E7402F0A3EA
:10309C00EFF07B017A00792C1265077B017A0079BD
:1030AC002C12000EE4FE9000367402F0742C2EF5F7
:1030BC0082E43400F583E0FD900036E0FC04F0740B
:1030CC000E2CF582E43400F583EDF01F0EEF70DC6E
:1030DC00900036E0FF04F0740E2FF582E43400F516
:1030EC0083742DF0900036E0A3F0240EF9E4340044
:1030FC00FA7B01125054900037E0900036F0E02437
:10310C000EF582E43400F583E02430FF900036E0C5
:10311C00FE04F0740E2EF582E43400F583EFF0908B
:10312C000036E0240EF582E43400F583E02430FF11
:10313C00900036E0FE04F0740E2EF582E43400F5B7
:10314C0083EFF0900036E0240EF582E43400F58332
:10315C00E02430FF900036E0FE04F0740E2EF58271
:10316C00E43400F583EFF0900036E0240EF582E4B1
:10317C003400F583E02430FF900036E0FE04F07458
:10318C000E2EF582E43400F583EFF0900036E02447
:10319C000EF582E43400F583E02430FF900036E035
:1031AC00FE04F0740E2EF582E43400F583EFF090FB
:1031BC000036E0FF04F0740E2FF582E43400F58342
:1031CC00742DF07B017A01795D12000EE4FEEF6044
:1031DC0026745D2EF582E43401F583E0FD90003613
:1031EC00E0FC04F0740E2CF582E43400F583EDF071
:1031FC001F0EEF70DC8014900036E0FF04F0740EAC
:10320C002FF582E43400F5837420F0900036E0FF53
:10321C0004F0740E2FF582E43400F5837403F0C2CD
:10322C00B230B3FD7B017A00790E900036E0FD12CE
:10323C004EF3126BC07B017A00790E900036E0FDE4
:0C324C0090003C7401F0125AD1026BC0DB
:106ACE00C2B47F287E00126A98D2B47F287E00025C
:026ADE006A98B4
:06575100900010EFF0FBD8
:10575700D2B4C286E4A3F0A31214D600003A988B01
:10576700A0C2B230B343900011E0703DA3E0FCA3A8
:10577700E0FDA3E0FEA3E0FFEF24FFFFEE34FFFE12
:10578700ED34FFFDEC34FFFC9000121214CA9000B8
:1057970012E0FCA3E0FDA3E0FEA3E0FFEC4D4E4FBB
:1057A70070C190001104F080BA900011E0700C20D5
:1057B700B309900010E0F5A0126ACED2B2D2B4D2EB
:1057C7008675A0FF7F627E00126A987F627E000264
:0257D7006A98CE
:0A6B9900D2B4D2B2D28675A0FF225A
:106646009000107402F0A37469F07B017A0079124D
:10665600124A8E7F8B12540C900018EFF0A374032D
:0C666600F07B017A0079107D0A024EF3EF
:103BC300E4900020F09000107402F0A37444F0908D
:103BD30000A574FFF0A3746CF0A37418F090017A3D
:103BE300E0FFA3E09000A8CFF0A3EFF07B017A0001
:103BF300791B1218AD90001F7402F0900020E0248E
:103C03001BF582E43400F583E0FF601790001FE0AA
:103C13002410F582E43400F583EFF0900020E004F3
:103C2300F0801890001FE02410F582E43400F5833F
:103C3300743BF090001FE004F0800890001FE00444
:103C4300F080B89000A574FFF0A3746CF0A374180F
:103C5300F0900176E0FFA3E09000A8CFF0A3EFF08F
:103C63007B017A00791B1218ADE4900020F09000DC
:103C730020E0241BF582E43400F583E0FF60179015
:103C8300001FE02410F582E43400F583EFF0900088
:103C930020E004F0801890001FE02410F582E43443
:103CA30000F583743BF090001FE004F0800890005F
:103CB3001FE004F080B890001FE0FD2410F582E4BB
:103CC3003400F5837403F07B017A007910024EF31C
:105CD8004461746F73204D462072657370756573E7
:105CE80074613A20004461746F73204D4620456EFC
:105CF800766961646F733A20002F2A2D2D2D2D2D82
:105D08002D2D2D2D2D2D2D2D2D2D2D2D2D2D2D2DBB
:105D18002D2D2D2D2D2D2D2D2D2D2D2D2D2D2D2DAB
:075D28002D2D2A2F0D0A00AA
:06685F00AE07EEC313FEBC
:10686500E4FFEFD3940774809480500D000000007E
:096875000000000000000F80E9A2
:01687E0022F7
:10691100E4FFEFD3940474809480500D00000000D4
:096921000000000000000F80E9F5
:01692A00224A
:025E6C00AE077F
:105E6E00C2AFC2901268650000AD06EE5401FE701E
:105E7E0004C2908002D2901268657C01ECD3940724
:105E8E00748094805015EDC313FD5401FE7004C24E
:105E9E00908002D2901268650C80E1D290126865F3
:055EAE00126865D2AF8F
:015EB30022CC
:0261C100AB072A
:1061C30090016AE06401703CEB54F0C4540FFFD3B8
:1061D300940974809480400674372FFF80047430D0
:1061E3002FFF125E6CEB540FFFD3940974809480DD
:1061F300400674372FFF800474302FFF125E6C7FCC
:0462030020125E6C9B
:016207002274
:0E5AD100900038EBF0A3EAF0A3E9F0A3EDF0AB
:105ADF0090016AE06401705C90003CE0FF3395E058
:105AEF00FEEF4E7BFF60067A5C79D880047A5C7992
:105AFF00ED126450E490003DF090003BE0FF900009
:105B0F003DE0C39F5024900038E0FBA3E0FAA3E0F0
:105B1F00F9121400FF1261C1900039E475F00112FF
:105B2F00147A90003DE004F080CF7F0D125E6C7F01
:045B3F000A125E6C7C
:015B4300223F
:0B645000900050EBF0A3EAF0A3E9F08D
:10645B00E4A3F090016AE064017027900053F09080
:10646B000050E0FBA3E0FAA3E0F9A3E0F58275830B
:10647B0000121419FF600B125E6C900053E004F0D5
:02648B0080DDB2
:01648D0022EC
:096BC0007BFF7A5D79010264504B
:1057D9007EFF126911126865208005747FFF8004BD
:1057E900EE4480FF12685FEE208005547FFF80033E
:1057F9004480FF12685FEE208005547FFF800344D8
:1058090080FF12685FEE208005547FFF800344808B
:10581900FF12685FEE208005547FFF80034480FFFC
:1058290012685FEE208005547FFF80034480FF12D9
:10583900685FEE208005547FFF80034480FF126873
:105849005FEE208005547FFF80034480FFAE07127E
:0758590068653080FDAF0619
:015860002225
:056C0C00D290D28022AD
:0E4E2600010B00010C00010900010A00C10B84
:030023000248365A
:10483600C0E0C083C082C0D075D000C000C004C034
:0548460005C006C007DB
:10484B002098030248D3C298859908C3E509950AB5
:10485B00FFE49400FEEF54F84E700BE50954072467
:10486B002CF8A6080509900168E0FFD3940A748020
:10487B0094804005900173E4F0900173E014600F95
:10488B00047040900168E4F090017304F080397477
:10489B00222FF8A6087822E6FFFD7C006412700632
:1048AB0090017C04801AEFB4720790017C74028033
:1048BB000FED641E4C90017C700474038002740431
:1048CB00F08000900173E4F030991AC299E50B6502
:1048DB000C6010E50C5401245EF8E6F599050CC24A
:0548EB000B8002D20B5E
:1048F000D007D006D005D004D000D0D0D082D0834D
:03490000D0E032D2
:10667200D310AF01C3C0D01266EEE4F50BF50CF5F2
:1066820009F50AC29FD29EC29DD29CC298C299D2DB
:0A6692000BD2ACD2BCD0D092AF22E4
:1066EE00D310AF01C3C0D0C299E4F50BF50CC28E26
:1066FE00C2AB43878053890F438920758DF4758B08
:08670E00F4D28ED0D092AF222C
:10654300D310AF01C3C0D09000D5EFF0126AF2C3ED
:10655300EF94027480948040047FFF80199000D5EB
:10656300E0FFE50B5401245EF8A607050B300B048E
:0B657300C20BD2997F00D0D092AF2263
:1067B500D310AF01C3C0D0126AE0EF70067EFF7F31
:1067C500FF800EAF0A050AEF5407242CF8E6FF7E7A
:0667D50000D0D092AF22BB
:106AE000D310AF01C3C0D0C3E509950AFFD0D0923F
:026AF000AF22D3
:106AF200D310AF01C3C0D0C3E50B950CFFD0D09229
:026B0200AF22C0
:0E6B7F00E4F50BF50CF509F50AC298C299224F
:10340B0054697175657465204E6F3A20003E00203B
:10341B0046656368613A203230002D0020003A0087
:10342B00205665686963756C6F3A20436172726FE1
:10343B0000205665686963756C6F3A204D6F746F29
:10344B0000506C6163613A20003E3C0A002573001A
:10345B004E49543A202573000A0A0A0A0A0A000A3E
:10346B000A0A0A002025730070797000202020546E
:10347B00697175657465204E6F3A200025730A00DB
:10348B0020202046656368613A2020202020200000
:10349B003230002020205665686963756C6F3A20C6
:1034AB002020436172726F0A0020202056656869E4
:1034BB0063756C6F3A2020204D6F746F0A002020CB
:1034CB0020506C6163613A202020202000566568F3
:1034DB006963756C6F20656E20656C206C6F6F7007
:1034EB000D0A0D0A0050756C7361646F7220416395
:1034FB007469766F0D0A0050756C7361646F72207E
:10350B004E6F2041637469766F0D0A0056656869CA
:10351B0063756C6F206E6F20656E20656C206C6F11
:10352B006F700D0A0D0A005345515F504150454CC9
:10353B000D0A00496D707265736F726120636F6E57
:10354B0020706170656C200D0A00496D7072657397
:10355B006F7261206E6F207469656E65207061708B
:10356B00656C200D0A004E6976656C2062616A6F8E
:10357B0020646520706170656C200D0A00496D70C8
:10358B007265736F7261206E6F20726573706F6EF0
:10359B006465200D0A00496D7072696D69656E6412
:0535AB006F200D0A0075
:084E34004101A1004101A200AF
:0A6BA3007F1B1264127F400264128F
:1067FD00900040EFF0A3EDF07F1B1264127F441266
:10680D006412900040E0FF126412900041E0FF021C
:02681D00641203
:106A70007F1D1264127F501264127FB41264127F61
:046A8000B4026412E6
:10697300EF24BD600B24F1600A24067009026B3416
:07698300026B43126B52226C
:0F6B34007F1B1264127F611264127F30026412A1
:0F6B43007F1B1264127F611264127F3102641291
:0F6B52007F1B1264127F611264127F3202641281
:10698A0090007EEFF07F1B1264127F4D126412900A
:07699A00007EE0FF02641221
:1069A10090007EEFF07F1B1264127F33126412900D
:0769B100007EE0FF0264120A
:1069B80090007EEFF07F1B1264127F4512641290E4
:0769C800007EE0FF026412F3
:1069CF0090004FEFF07F1D1264127F21126412901E
:0769DF00004FE0FF0264120B
:1069E60090004FEFF07F1B1264127F6412641290C6
:0769F600004FE0FF026412F4
:1069FD00900040EFF07F1B1264127F4A12641290D8
:076A0D000040E0FF026412EB
:106A140090004FEFF07F1B1264127F2012641290DB
:076A2400004FE0FF026412C5
:106A2B0090004AEFF07F1D1264127F68126412907F
:076A3B00004AE0FF026412B3
:106A420090004AEFF07F1D1264127F481264129088
:076A5200004AE0FF0264129C
:0F6B61007F1D1264127F661264127F300264126D
:0E5E1F0090004AEFF0A3EBF0A3EAF0A3E9F045
:105E2D007F1D1264127F6B12641290004AE0FF1204
:105E3D006412E490004EF090004BE0FBA3E0FAA357
:105E4D00E0F9A3E0F582758300121419FF600B12BF
:0F5E5D00641290004EE004F080DDE4FF02641256
:106619007F1D1264127F281264127F6B1264127F2D
:1066290004126412E4FF1264127F311264127F4172
:0D6639001264127F32126412E4FF02641238
:106716007F1D1264127F281264127F6B1264127F2F
:1067260003126412E4FF1264127F311264127F4571
:086736001264127F31026412AB
:10673E007F1D1264127F281264127F6B1264127F07
:10674E0003126412E4FF1264127F311264127F434B
:08675E001264127F07026412AD
:0B59E60090009FEBF0A3EAF0A3E9F0B3
:1059F1007F1D1264127F281264127F6B1264129051
:105A0100009FE0FBA3E0FAA3E0F912000E9000A2D0
:105A1100EFF02403FF126412E4FF1264127F3112CB
:105A210064127F501264127F30126412E49000A35A
:105A3100F09000A2E0FFA3E0FEC39F501F90009FE3
:105A4100E0FBA3E0FAA3E0F98E827583001214193A
:0C5A5100FF1264129000A3E004F080D566
:015A5D002226
:106766007F1D1264127F281264127F6B1264127FDF
:1067760003126412E4FF1264127F311264127F5115
:086786001264127F300264125C
:0A6BAD007F1B1264127F690264125C
:106A59009001A4EFF07F101264127F041264129067
:076A690001A4E0FF0264122A
:102CAB0012661912671612673E78407C007D017B15
:102CBB00FF7A34790B1217B47B017A007990126585
:102CCB00079000A27401F0A37400F0A37490F07B42
:102CDB00017A007940125BB39000A274FFF0A374E9
:102CEB0034F0A37418F07B017A007940125BB39037
:102CFB0000A274FFF0A37434F0A3741AF07B017A72
:102D0B00007940125BB37B017A007990122EB4905C
:102D1B0000A27401F0A37400F0A37490F0A3E4F08C
:102D2B00A37402F07B017A0079401249C99000A28A
:102D3B0074FFF0A37434F0A37425F07B017A00794F
:102D4B0040125BB39000A27401F0A37400F0A37463
:102D5B0092F0A3E4F0A37402F07B017A00794012A5
:102D6B0049C99000A274FFF0A37434F0A37425F04A
:102D7B007B017A007940125BB39000A27401F0A33F
:102D8B007400F0A37494F0A3E4F0A37402F07B013D
:102D9B007A0079401249C99000A274FFF0A37434F1
:102DAB00F0A37427F07B017A007940125BB390009B
:102DBB00A27401F0A37400F0A37496F0A3E4F0A343
:102DCB007402F07B017A0079401249C99000A27419
:102DDB00FFF0A37434F0A37429F07B017A007940DF
:102DEB00125BB39000A27401F0A37400F0A374986B
:102DFB00F0A3E4F0A37402F07B017A00794012494E
:102E0B00C99000A274FFF0A37434F0A37418F07B84
:102E1B00017A007940125BB390016FE09000A270D1
:102E2B000C74FFF0A37434F0A3742B800A74FFF0BE
:102E3B00A37434F0A3743CF07B017A007940125BED
:102E4B00B39000A274FFF0A37434F0A37418F07B5A
:102E5B00017A007940125BB39000A274FFF0A37467
:102E6B0034F0A3744CF07B017A007940125BB39081
:102E7B0000A27401F0A37401F0A3745DF07B017ADE
:102E8B00007940125BB39000A274FFF0A37434F08E
:102E9B00A37454F07B017A007940125BB37B017A07
:092EAB000079401259E602676645
:1044B300126BA3E4FD7F351267FD126A707F43120E
:1044C30069737F011269B87F011269CF7F01126A94
:1044D300147F061269FD7B017A00790E7F107E003E
:1044E300125C809000A57401F0A37400F0A3740E15
:1044F300F07BFF7A3479581218B37B017A00790E76
:104503007F407E00125C80E4FF1269B8E4FF126909
:10451300CFE4FF126A149000A57401F0A37400F0B5
:10452300A3740EF07BFF7A34795B1218B37F4312C6
:1045330069737B017A00790E7F507E00125C809054
:1045430000A57401F0A37400F0A3740EF07BFF7A4E
:104553003479581218B37F431269737B017A007957
:104563000E7F807E00125C809000A57401F0A3741E
:1045730000F0A3740EF07BFF7A3479581218B37FDE
:104583000A1269A17F43126973122CAB12385412B9
:0E4593003AAA7BFF7A3479631218B3026BAD3B
:1042CB007F021269A17F011269E6125D82126BA354
:1042DB00E4FD7F351267FD126A707F431269737FAD
:1042EB00011269B87F011269CF7F01126A147F0630
:1042FB001269FD7B017A00790E7F107E00125C80C3
:10430B009000A57401F0A37400F0A3740EF07BFF72
:10431B007A3479581218B37B017A00790E7F407E7C
:10432B0000125C80E4FF1269B8E4FF1269CFE4FF6E
:10433B00126A149000A57401F0A37400F0A3740E1C
:10434B00F07BFF7A34795B1218B37F431269737B6E
:10435B00017A00790E7F507E00125C809000A5746C
:10436B0001F0A37400F0A3740EF07BFF7A3479583C
:10437B001218B37F431269737B017A00790E7F8029
:10438B007E00125C809000A57401F0A37400F0A372
:10439B00740EF07BFF7A3479581218B37F0A1269C6
:1043AB00A1123854123AAA125D827BFF7A34796AD1
:0643BB001218B3026BAD05
:105D8200126BA37F431269737F65126A2B7F3112F4
:105D92006A42126B617F3112698A7B017A00794013
:105DA2001265077B017A00794012000E74402FF5CC
:105DB20082E43400F5837424F074412FF582E434D4
:105DC20000F583E4F07B017A0079407F04025E1FD4
:103AAA007F3112698A7F0A1269A17F4C126973E415
:103ABA00FF1269B87B017A0079407FB07E00125C00
:103ACA00809000A57401F0A37400F0A37440F07B09
:103ADA00FF7A34796F1218B37B017A0079407FF14B
:103AEA007E00125C809000A57401F0A37400F0A31C
:103AFA007440F07BFF7A34796F1218B37B017A0035
:103B0A0079407F327E01125C809000A57401F0A397
:103B1A007400F0A37440F07BFF7A34796F1218B303
:103B2A007B017A0079407F737E01125C809000A548
:103B3A007401F0A37400F0A37440F07BFF7A347927
:103B4A006F1218B37B017A0079407FB47E01125C50
:103B5A00809000A57401F0A37400F0A37440F07B78
:103B6A00FF7A34796F1218B37B017A0079407FF5B6
:103B7A007E01125C809000A57401F0A37400F0A38A
:103B8A007440F07BFF7A34796F1218B37B017A00A4
:103B9A0079407F367E02125C809000A57401F0A302
:103BAA007400F0A37440F07BFF7A34796F1218B373
:093BBA007BFF7A3479730218B321
:103854007F0A1269A17F011269B87F011269E67FAC
:103864004C1269737BFF7A3479771218B3E4FF1230
:1038740069B87B017A0079401265079000A574014C
:10388400F0A37400F0A37440F07BFF7A34798712BC
:1038940018B37B017A007940122EB47F4C126973FD
:1038A4007F011269B87BFF7A34798B1218B3E4FF75
:1038B4001269B87BFF7A34799B1218B3900040E008
:1038C400FF126412900041E0FF1264127F2D126413
:1038D40012900042E0FF126412900043E0FF126471
:1038E400127F2D126412900044E0FF1264129000C3
:1038F40045E0FF1264127F20126412900046E0FF3C
:10390400126412900047E0FF1264127F3A126412AC
:10391400900048E0FF126412900049E0FF12641224
:103924007F0A1264127F011269B890016FE07BFF75
:1039340070067A34799E80047A3479B41218B37F8D
:10394400011269CF7F01126A147F011269B87BFFEB
:103954007A3479C91218B39000A57401F0A37401E4
:10396400F0A3745DF07BFF7A3479871218B3E4FF17
:0D3974001269CFE4FF126A14E4FF0269B883
:10282500900171E01470030228AC14700302290AA8
:1028350014700302299C1470030229F21470030218
:1028450028CF24056003022A6B900166E0640160CD
:1028550003022A70125B44EF603C7BFF7A3479D81F
:102865001264509001A1E070107FFE1225A87FA090
:102875001257519001A17401F0126BDE7BFF20917C
:102885000E7A3479F01264509001717401F0227A55
:102895003579020229527BFF7A357917126450E4A3
:1028A5009001A1F0022A5A7F451243C1126B7F7F26
:1028B500FE1257519001717405F09001667446F04F
:1028C500E490017CF0900173F022900166E06401D0
:1028D5006003022A707BFF7A357932126450126BDD
:1028E5007F9001717402F09001667446F0E49001E6
:1028F5007CF0900173F07F101264127F0412641251
:102905007F04026412900166E06401600990017C15
:10291500E07003022A707B007A00792290003C74F3
:1029250001F0FD125AD190017CE064017011F07B39
:10293500FF7A35793E126450900166743780339082
:10294500017CE06402700C7BFF7A35795512645086
:10295500022A5A90017CE064037BFF701D7A357969
:10296500711264509001667437F0E490017CF09028
:102975000173F09001717403F0227A35798812643D
:10298500509001667405F0E490017CF0900173F0BD
:102995009001717405F022900166E06401600620E3
:1029A5000903022A707F6112308C7FA11257517F73
:1029B500FA1225A87BFF7A3579A112645090016C33
:1029C500E060051244B380031242CB9001667405A2
:1029D500F0E490017CF0900173F09001717404F0C3
:1029E500D297E4900167F01263D30268BC90016648
:1029F500E0640170769001A2E004F0E0D3941274D3
:102A05008094805045126BDE309129126BE5309130
:102A15000D9001A2E0C3941274809480400DE4905F
:102A250001A2F09001A1F0C297802A7FFA1225A891
:102A3500C29780009001667405F0E490017CF090E7
:102A45000173F09001717404F022E49001A2F090FA
:102A550001A1F0C2979001667405F0E490017CF045
:0B2A6500900173F08001E4900171F01B
:012A70002243
:046C1100256C750079
:106B240090000AE41214587D007C057FA80256C721
:10669C009000A574FFF0A3746CF0A37411F0A31216
:1066AC0014CA7B017A0079121218AD7B017A007939
:0A66BC00127D007C057FA80256C77E
:1068DA007B017A0079A67F007E05125C807B017AB3
:0C68EA000079A6123CD39000A20214CA50
:1063D3001268DA90000E1214CA90000EE0FCA3E0DB
:1063E300FDA3E0FEA3E0FFE4FAF9F8EF2401FFEADE
:1063F3003EFEE93DFDE83CFC90000E1214CA9000FD
:0F6403000EE0FCA3E0FDA3E0FEA3E0FF02669C19
:10648E009000A27409F0E4A3F09000A3E0FFC3947F
:10649E000A7480948050259000A2E0C39FFFE4947C
:1064AE0000FE8F82F5831214196430700F8F828E66
:0C64BE00831214589000A3E004F080CD7D
:0164CA0022AF
:0B65070090009FEBF0A3EAF0A3E9F086
:106512001268DA9000A574FFF0A3746CF0A37411F2
:10652200F0A31214CA90009FE0FBA3E0FAA3E0F9E3
:106532001218AD90009FE0FBA3E0FAA3E0F9026419
:016542008ECA
:0B536D0090000EEBF0A3EAF0A3E9F0C3
:10537800E4900012F0A3740CF0900169E0640170ED
:1053880073900011F0900013E0FF900011E0C39FAC
:105398005053E4FFFEFD30801DED701A0FBF000171
:1053A8000ED3EF9430EE947540EC7D01900013E03D
:1053B800900011F080E0ED6401602A1257D9900046
:1053C8000EE0FBA3E0FAA3E0F9EF12144690000FF9
:1053D800E475F00112147A900012E004F0900011C4
:1053E800E004F080A090000EE0FBA3E0FAA3E0F94F
:0953F800E4121446900012E0FFDB
:015401002288
:0B50FA0090000EEBF0A3EAF0A3E9F039
:10510500E4FF7E029000021214196403701C9000E3
:105115000EE0FBA3E0FAA3E0F9900001121419B424
:105125005008D297E4900167F02290000EE0FBA3AF
:10513500E0FAA3E0F9900001121419643C7056904E
:10514500000EE0FBA3E0FAA3E0F98E82758300125E
:105155001419FD745D2FF582E43401F583EDF00E2D
:105165000F8E82758300121419640370D290000E9D
:10517500E0FBA3E0FAA3E0F98E82758300E4121444
:1051850058745C2FF582E43401F583E4F0D209907C
:055195000166740AF040
:01519A0022F2
:0543C10090000EEFF07A
:1043C600E4A3F090001A7403F090017D14F0126AD1
:1043D600BC90017EEFF090000EE090017FF090011E
:1043E6006FE090001A6013E0FF04F0747D2FF582F1
:1043F600E43401F583744DF08011E0FF04F0747D20
:104406002FF582E43401F5837443F07B017A007959
:10441600101265077B017A00791012000E90000FCA
:10442600E02410F582E43400F583E0FE90001AE003
:10443600FD04F0747D2DF582E43401F583EEF01F62
:1044460090000FE004F0EF70D490001AE0FF04F043
:10445600747D2FF582E43401F583743AF090001AE6
:10446600E0247DF9E43401FA7B01122EB490001A9F
:10447600E0FF2487F582E43401F583743AF074880A
:104486002FF582E43401F5837403F07B017A017918
:104496007DEF240CFDE490003CF0125AD17B017AAA
:0D44A60001797D90001AE0240CFD0262D423
:0E62D40090003FEBF0A3EAF0A3E9F0A3EDF099
:1062E200E4A3F0900042E0FFA3E0C39F502490009B
:1062F2003FE0FBA3E0FAA3E0F9121400FF125E6C88
:10630200900040E475F00112147A900043E004F02A
:0263120080D138
:016314002266
:0B47600090001DEBF0A3EAF0A3E9F0CD
:10476B0090003E7403F090002014F0126ABC90008D
:10477B0021EFF0A37453F090016FE090003E6013B3
:10478B00E0FF04F074202FF582E43400F583744DC0
:10479B00F08011E0FF04F074202FF582E43400F573
:1047AB00837443F090003E7404F090001DE0FBA373
:1047BB00E0FAA3E0F9121400FF602190003EE02420
:1047CB0020F582E43400F583EFF090001EE475F0E1
:1047DB000112147A90003EE004F080CE90003EE08F
:1047EB00FF04F074202FF582E43400F583743AF063
:1047FB0090003EE02420F9E43400FA7B01122EB441
:10480B0090003EE0FF242AF582E43400F583743AED
:10481B00F0742B2FF582E43400F5837403F07B01E5
:0B482B007A007920EF240CFD0262D41B
:1068BC00E4FFEFC3940974809480500F745D2FF53E
:0D68CC0082E43401F583E4F00F80E7C20997
:0168D900229C
:100D0A00020FB2E86480F8E933E83360110460F056
:100D1A00ED33EC337009E8FCE9FDEAFEEBFF22044F
:100D2A0060DED3EB9FEA9EE99DE8C2E78CF0C2F74A
:100D3A0095F0400CE8CCF8E9CDF9EACEFAEBCFFB16
:100D4A00120F7D85D0F05804700320D5B3E80470E3
:100D5A00075002B2D5020FBC92D5EC0460F7E4CC7E
:100D6A00C0E0C398F8603B94186008400DD0E0FBDF
:100D7A00020F94E4FBFAC9FC8028E830E406E4C9CF
:100D8A00FBE4CAFCE830E305E4C9CACBFCE8540733
:100D9A006010F8C3E913F9EA13FAEB13FBEC13FC3E
:100DAA00D8F130F52FC3E49CFCEF9BFFEE9AFEEDE1
:100DBA0099FDD0E0FBEF4E4D4C701222DB03020F7F
:100DCA00B9EC2CFCEF33FFEE33FEED33FDED30E7EB
:100DDA00EB020F94EF2BFFEE3AFEED39FDD0E0FB6C
:100DEA0050130BBB0003020FBCED13FDEE13FEEF15
:080DFA0013FFEC13FC020F943F
:100E0200EC4D6011E8497017ED33EC3304600DE4EA
:100E1200FCFFFEFD22E933E8330470F8020FB21240
:100E22000F7D58046009E4CC248150062850090241
:100E32000FBC284003020FB9C0E0EB4A7044B980EE
:100E420006D0E0FB020FA8EF4E701CBD8008EBFF3E
:100E5200EAFEE9FD80EBE98DF0A4FEE5F0020EEB7F
:100E6200E9CDF9EAFEEBFFEF89F0A4FCE5F0CE89CB
:100E7200F0A42EFFE435F0CD89F0A42DFEE435F088
:100E82008067EF4E7005BD80D780C3EF8BF0A4ACB6
:100E9200F0EE8BF0A42CFCE435F0F8EF8AF0A42CF1
:100EA200E5F038FCE433CB8DF0A42CFCE5F03BF804
:100EB200EE8AF0A42CFCE5F038F8E433CF89F0A4F4
:100EC2002CFCE5F038CF3400CE89F0A42FFFE5F0FA
:100ED2003EFEE433C98DF0A42EFEE5F039CD8AF052
:100EE200A42FFFE5F03EFEE43DFD33D0E0FB5007CA
:100EF2000BBB000F020FBCEC2CFCEF33FFEE33FEFA
:060F0200ED33FD020F9427
:100F080075F020800E75F010800575F0087D007E64
:100F1800007F003392D530D503121490EC33401083
:100F2800EF33FFEE33FEED33FDEC33FCD5F0ED226D
:0E0F3800E5F0247EA2D513CC92E7CDCEFF22A9
:100F4600EDD2E7CD33EC3392D524814006E4FFFEA3
:100F5600FDFC22FCE4CFCECDCC24E0501174FF8002
:100F6600EDC3CC13CCCD13CDCE13CECF13CF04709F
:070F7600F030D5DE021490FB
:10184800E50D24A5F582E43400F583E0050D22902A
:1018580000A23007039000A5E475F00112150702F5
:1018680014002000E97F2ED2008018EF540F249036
:10187800D43440D4FF30040BEF24BFB41A00500313
:101888002461FFE50E6002150E0511E511700205D1
:101898001030070E9000A2E475F001121507EF0250
:1018A80014460264127403D2078003E4C207F50DDC
:1018B8009000A212151EE4F50EF510F511E50E6064
:1018C800077F2012188B80F5750FFFC201C200C276
:1018D80002C203C205C206C208121857FF700D30B3
:1018E80007057F0012189CAF11AE1022B4255FC205
:1018F800D5C204121857FF24D0B40A00501A75F044
:101908000A780E30D50508B6FF0106C6A426F620CB
:10191800D5047002D20380D924CFB41A00EF500442
:10192800C2E5D204021B8ED20180C6D20080C0D28A
:101938000280BCD2D580BAD20580B47F2012188B21
:101948002002077401B50E0040F1121848FF121862
:101958008B0218C5D208D2068095121848FB1218B7
:1019680048FA121848F94A4B7006798C7A1C7BFFA2
:1019780020022EE50E602A7E008E827583001214E6
:101988001960060EEE650F70F0C2D5EBC0E0EAC034
:10199800E0E9C0E0EE121BEFD0E0F9D0E0FAD0E0C9
:1019A800FB121400FF60AAEBC0E0EAC0E0E9C0E067
:1019B80012188BD0E02401F9D0E03400FAD0E0FB13
:1019C800E50F0460DCD50FD98087D20280A2121BF4
:1019D800D160F7E50F70010412106BA90F600DE5D7
:1019E8000F600914F50F121C79EF60F3EA30E70273
:1019F800F404C3995079EAF4250F0430E701E404AC
:101A0800F50F800D121BD160C1EA050F250F1210CA
:101A18006BEA9000D1F030E701E4250F04D50F04FC
:101A280020050114121BEFE4C0E0121C799000D1CC
:101A3800E0601320E70714F0121873802204F0D036
:101A4800E014C0E07F00121873E50F600712186AEF
:101A5800150F800B30050312186AD0E00218C5D0A4
:101A6800E00480C4121BD1609EE50F0412106B9035
:101A780000D1EAF0E50F2005026001042404121BDE
:011A8800EF6E
:101A890074FF04C0E0121C79121873E50F200502D7
:101A9900600312186AD0E0B50FE87F4512187D90EF
