:105F1A00526563696265207472616D612070746F85
:105F2A00200D0A006C6F6E676974756420646520C1
:0D5F3A006C61207472616D613A200D0A00E7
:10482D004101630A4101640041016F0041016500CE
:10483D0041016D0041016B004101780049015A00B1
:10484D00000000000000000041016E0641017503EB
:06485D00410174F2C109E3
:03000B0002625935
:10625900C0E0C083C082900163E014F0A3E004F0C1
:09626900C28DD082D083D0E03256
:10643200E58954F04401F589E4F58CF58AD28C2281
:05653500C28DD2A92275
:03654300C2A922C8
:0B64BB001260E3EFF47002EEF460F5F5
:0164C60022B3
:055D40009000D2EFF01D
:105D45009000D2E0FF125E71EF3395E04F6024E4DE
:105D55009000D3F0A3F0C39000D4E094E89000D372
:105D6500E0940350DBA3E004F070EB9000D3E00473
:085D7500F080E39000D2E0FF92
:015D7D002203
:1064420012653A1264F71264C7C283D287C29722D6
:10529800E4FDFC7FA8125EAC900176E4F0A3EFF089
:1052A8007D027C007FA8125EAC900172E4F0A3EF4F
:1052B800F07D047C007FA8125EAC900170E4F0A33E
:1052C800EFF07D067C007FA8125EAC900169E4F0E7
:1052D800A3EFF07D087C007FA8125EAC900167EF19
:1052E800F07D0A7C007FA8125EAC900166EFF07D2D
:1052F8000C7C007FA8125EAC90016CEFF07D0E7CF8
:0C530800007FA8125EAC900168EFF0225C
:10460800126432126535125FA012601C126442D225
:10461800AF1264FE20910312215012529890016348
:104628007405F020803F7B017A007900124CA69037
:10463800000DEFF01264EE7B017A00790090000D16
:10464800E0FD124A337B017A00790090000DE0FD0D
:1046580090003C7401F01253FF7B017A01795A12E1
:104668005D7E1264EE12278D20B34A7B017A0179B0
:1046780032124C0E90000DEFF07BFF7A5F791A1220
:104688005D7E7B017A01793290000DE0FD90003C5F
:104698007401F01253FF7BFF7A5F792E125D7E90D2
:1046A800000DE0FF125AEF7B017A01793290000D7C
:0B46B800E0FD121EA012538C02462BE6
:106272004C4956450A00477261626163696F6E203C
:0862820053657269653A2000C2
:0E1EA00090000EEBF0A3EAF0A3E9F0A3EDF042
:101EAE006419704490000EE0FBA3E0FAA3E0F9126F
:101EBE0013056402703290000212131E64487028DB
:101ECE00900011E07E0024FFF582EE34FFF58312C0
:101EDE00131E6403701290000EA3A3E02403F9E412
:101EEE003AFA124E5B025EE590000EE0FBA3E0FABA
:101EFE00A3E0F912130564B67039900164E0C3943F
:101F0E00147480948040167FB612258AC282E490A3
:101F1E000164F0C297C283900163740AF090016766
:101F2E00E0600302214F900166E06401600302212C
:101F3E004F804490000EE0FBA3E0FAA3E0F91213E9
:101F4E000564AA7046900164E0C394147480948072
:101F5E00500302214FE4F0C297D282C283900163F4
:101F6E00740AF0900167E0600302214F900166E071
:101F7E006401600302214F90016704F07BFF7A62D7
:101F8E007972125D7EE4900167F022900011E0FFFD
:101F9E006413703290000EE0FBA3E0FAA3E0F91296
:101FAE0013056402702090000112131EB44F177EA9
:101FBE000074FF2FF582EE34FFF58312131E6403B7
:101FCE0070047FFE801C900011E064017017900079
:101FDE000EE0FBA3E0FAA3E0F912130564A170056D
:101FEE007FE702258A900011E0FF6406600302205D
:101FFE00F390000EE0FBA3E0FAA3E0F912130564E0
:10200E000260030220F390000112131E6457600356
:10201E000220F3FE74FF2FF582EE34FFF5831213C8
:10202E001E640360030220F3900166E06401705F9A
:10203E0090000EA3A390000212131EFD7B017A00E6
:10204E00791212565D9000157420F090000EE0FB90
:10205E00A3E0FAA3E0F990000312131EFD90000E08
:10206E00A3A390000412131E900021F07B017A00AE
:10207E007916121BD07B017A0079127FB01251941F
:10208E00125472EF60FA7B017A0079120240A59029
:10209E00000EE0FBA3E0FAA3E0F990000212131E7B
:1020AE00FD7B017A00791212565D9000157420F0B6
:1020BE0090000EE0FBA3E0FAA3E0F99000031213E8
:1020CE001EFD90000EA3A390000412131E9000217B
:1020DE00F07B017A007916121BD07B017A007912FF
:1020EE007FB0025194900011E0FF640C7053900089
:1020FE000EE0FBA3E0FAA3E0F912130564027041AF
:10210E00FE74FF2FF582EE34FFF58312131E640367
:10211E00702F90000EA3A3E02401F9E43AFA1264A2
:10212E00527BFF7A627978125D7E90000EE0FBA3FF
:10213E00E0FAA3E0F9A3E0FD90003C7401F0125325
:01214E00FF91
:01214F00226D
:08000300D294126549C2942257
:055C83009000A5EFF008
:105C8800E4A3F0A3F09000A5E0FFA2E713F030D75B
:105C980004D2958002C2951200039000A7E004F098
:105CA80070069000A6E004F0C39000A7E094089066
:095CB80000A6E06480948040CC59
:015CC10022C0
:0A4D3B00EBF0A3EAF0A3E9F07F8D8E
:054D45009000A2EFF058
:104D4A00D2967F037E001263C69000A2E0FF125C37
:104D5A0083E49000A3F0A3F09000A3E0FCA3E0FD9D
:104D6A00C39408EC64809480504F30951690019F4C
:104D7A00E04480F0ED9406EC648094805005E0FFF6
:104D8A00C313F020952090019FE0547FF0D3900048
:104D9A00A4E094069000A3E06480948050089001F7
:104DAA009FE0FFC313F01200039000A4E004F07028
:104DBA00A79000A3E004F0809FC29690019FE0FFB5
:014DCA0022C6
:105FF400900020EFF0A3EDF0D2967F037E001263B1
:10600400C6900020E0FF125C83900021E0FF900026
:0860140020F0125C83C2962209
:105BC10090001EE475F00112137F90001EE475F041
:105BD1000112137F90001EE475F00112137F9000F3
:105BE1001DE0FBA3E0FAA3E0F9121305FF90000109
:045BF10012131EFD70
:0C5BF500EF540FC454F0FFED540F4FFFAD
:015C01002280
:104E5B0090001DEBF0A3EAF0A3E9F0125BDFAD07C6
:104E6B007F86125FF4125BC1AD077F88125FF490EF
:104E7B00001EE475F00112137F90001EE475F00123
:104E8B0012137F125BC1AD077F8C125FF4125BC1F3
:104E9B00AD077F84125FF4125BC1AD077F82125F97
:104EAB00F4125BC1AD077F80125FF490001EE475B6
:104EBB00F00112137F90001EE475F00112137F9026
:104ECB00001EE475F00112137F90001DE0FBA3E0C0
:0F4EDB00FAA3E0F9121305540FFD7F8A025FF46A
:1061CC00AE07EEC4540F540FFE6012EF540FFFE4F1
:0D61DC00FDEDC39E5007740A2FFF0D80F4E7
:0161E9002293
:10565D00E4FFFE90001DEDF090001DE0C394647416
:10566D008094804007E0249CF00F80ECEF443012D2
:10567D00134B740129F9E43AFA90001DE0C3940A22
:10568D00748094804007E024F6F00E80ECEE4430F8
:10569D0012134B740129F9E43AFA90001DE04430DD
:0356AD0002134B9A
:0E1BD00090001DEBF0A3EAF0A3E9F0A3EDF006
:101BDE00E4900022F0A3F0900025F0A3F0A3F0A370
:101BEE00F0900024EDF054F0F0E0FFC4540FF090AC
:101BFE00002D1213DB404000007F007E007D807CB4
:101C0E0041122EC4C004C005C006C007900024E0D7
:101C1E00FCE4120E17D003D002D001D000120D0733
:101C2E00C004C005C006C007900022E0FCA3E0FD82
:101C3E00E4120E12D003D002D001D000120C1612F4
:101C4E000E4B900022EEF0A3EFF0900020E09000FB
:101C5E0024F0540FF090002D1213DB400000007F93
:101C6E00007E007D807C41122EC4C004C005C006DB
:101C7E00C007900024E0FCE4120E17D003D002D06F
:101C8E0001D000120D07C004C005C006C0079000A9
:101C9E0022E0FCA3E0FDE4120E12D003D002D0012C
:101CAE00D000120C16120E4B900022EEF0A3EFF0A5
:101CBE00900021E0900024F054F0F0E0FFC4540FA7
:101CCE00F090002D1213DB3F8000007F007E007D20
:101CDE00807C41122EC4C004C005C006C00790000F
:101CEE0024E0FCE4120E17D003D002D001D0001273
:101CFE000D07C004C005C006C007900022E0FCA37B
:101D0E00E0FDE4120E12D003D002D001D000120C6E
:101D1E0016120E4B900022EEF0A3EFF0900021E091
:101D2E00900024F0540FF090002D1213DB000000F1
:101D3E00007F007E007D807C41122EC4C004C00551
:101D4E00C006C007900024E0FCE4120E17D003D0AA
:101D5E0002D001D000120D07C004C005C006C00796
:101D6E00900022E0FCA3E0FDE4120E12D003D0029C
:101D7E00D001D000120C16120E4B900022EEF0A3E2
:101D8E00EFF0C3EF9410EE9427401074F02FFF7411
:101D9E00D83EFE900025E004F080E7900025E04458
:101DAE0030FD90001DE0FBA3E0FAA3E0F9ED121365
:101DBE004B90001EE475F00112137FC3EF94E8EE12
:101DCE009403401074182FFF74FC3EFE900026E022
:101DDE0004F080E7900026E04430FD90001DE0FB0B
:101DEE00A3E0FAA3E0F9ED12134B90001EE475F098
:101DFE000112137FC3EF9464EE94004010749C2F75
:101E0E00FF74FF3EFE900027E004F080E79000276D
:101E1E00E04430FD90001DE0FBA3E0FAA3E0F9EDF5
:101E2E0012134B90001EE475F00112137FC3EF9452
:101E3E000AEE9400401074F62FFF74FF3EFE9000E1
:101E4E0028E004F080E7900028E04430FD90001D6B
:101E5E00E0FBA3E0FAA3E0F9ED12134B90001EE4B1
:101E6E0075F00112137FEF4430FF90001DE0FBA3CD
:101E7E00E0FAA3E0F9EF12134B90001EE475F001A7
:101E8E0012137F90001DE0FBA3E0FAA3E0F9E40239
:021E9E00134BE4
:0329870090009F1E
:10298A00124D3BEF54F0C4540F4430FE90009FE0C8
:10299A00FBA3E0FAA3E0F9EE12134B9000A0E47552
:1029AA00F00112137FEF540F4430FF90009FE0FBB9
:1029BA00A3E0FAA3E0F9EF12134B9000A0E475F03C
:1029CA000112137F7F89124D45EF54F0C4540F440E
:1029DA0030FE90009FE0FBA3E0FAA3E0F9EE1213A9
:1029EA004B9000A0E475F00112137FEF540F4430AE
:1029FA00FF90009FE0FBA3E0FAA3E0F9EF12134B6C
:102A0A009000A0E475F00112137F7F87124D45EF05
:102A1A0054F0C4540F4430FE90009FE0FBA3E0FA48
:102A2A00A3E0F9EE12134B9000A0E475F001121323
:102A3A007FEF540F4430FF90009FE0FBA3E0FAA31E
:102A4A00E0F9EF12134B9000A0E475F00112137F26
:102A5A007F85124D45EF54F0C4540F4430FE900068
:102A6A009FE0FBA3E0FAA3E0F9EE12134B9000A05B
:102A7A00E475F00112137FEF540F4430FF90009F6A
:102A8A00E0FBA3E0FAA3E0F9EF12134B9000A0E4F5
:102A9A0075F00112137F7F83124D45EF54F0C45431
:102AAA000F4430FE90009FE0FBA3E0FAA3E0F9EEAA
:102ABA0012134B9000A0E475F00112137FEF540F2C
:102ACA004430FF90009FE0FBA3E0FAA3E0F9EF1285
:102ADA00134B9000A0E475F00112137F7F81124D11
:102AEA0045EF54F0C4540F4430FE90009FE0FBA31E
:102AFA00E0FAA3E0F9EE12134B9000A0E475F0019E
:102B0A0012137FEF540F4430FF90009FE0FBA3E0C5
:102B1A00FAA3E0F9EF12134B9000A0E475F001124A
:102B2A00137F7F8B124D45EF540F4430FF90009F67
:102B3A00E0FBA3E0FAA3E0F9EF12134B9000A0E444
:102B4A0075F00112137F90009FE0FBA3E0FAA3E067
:052B5A00F9E402134B39
:10498D00900038124D3B1261CC900038E0FBA3E053
:10499D00FAA3E0F9EF12134B900039E475F0011210
:1049AD00137F7F89124D451261CC900038E0FBA337
:1049BD00E0FAA3E0F9EF12134B900039E475F00122
:1049CD0012137F7F87124D451261CC900038E0FBAA
:1049DD00A3E0FAA3E0F9EF12134B900039E475F060
:1049ED000112137F7F85124D451261CC900038E086
:1049FD00FBA3E0FAA3E0F9EF12134B900039E47535
:104A0D00F00112137F7F83124D451261CC90003857
:104A1D00E0FBA3E0FAA3E0F9EF12134B900039E4A9
:064A2D0075F00102137F89
:10430D0090002A124D3B90002AE0FBA3E0FAA3E0B7
:10431D00F9EF12134B90002BE475F00112137F7F10
:10432D0089124D4590002AE0FBA3E0FAA3E0F9EFD6
:10433D0012134B90002BE475F00112137F7F87123F
:10434D004D4590002AE0FBA3E0FAA3E0F9EF12132C
:10435D004B90002BE475F00112137F7F85124D45B4
:10436D0090002AE0FBA3E0FAA3E0F9EF12134B90C3
:10437D00002BE475F00112137F7F83124D459000E1
:10438D002AE0FBA3E0FAA3E0F9EF12134B90002B08
:10439D00E475F00112137F7F81124D4590002AE0E4
:1043AD00FBA3E0FAA3E0F9EF12134B90002BE47599
:1043BD00F00112137F90002AE0FBA3E0FAA3E0F9CD
:0443CD00E402134BA8
:0764F700C294C296D2952267
:1063C600E4FDFCC3ED9FEC9E50070DBD00010C8063
:0163D600F2D4
:0163D70022A3
:04622400AB07AA0614
:10622800900000C3E5829BE5839A500A7F967E0022
:066238001263C6A380ED15
:01623E00223D
:01654900222F
:03614D00126109D3
:10615000D20AD293D292E4FFFE209205C20AC293E1
:0C616000220FBF00010EBE04F0BF4CED8A
:01616C002210
:03616D00126109B3
:10617000D293D292D20AE4FFFE209205C20AC293C1
:0C618000220FBF00010EBE02F0BF8AED2E
:01618C0022F0
:06652F00D29300C293228A
:10610900E4FEEEC39408748094805015EF25E0FFF7
:1061190030D704D2928002C292D29312652F0E8098
:01612900E194
:01612A002252
:0863D800ECFD7C00C293C292AF
:0A63E000D292D29300C292C293221F
:0964E500C293C292D293D292221A
:10570000E4FBEBFDC39408748094805038C293305E
:105710009216900198E04401F0ED94067480948014
:105720005006E025E0F0D293209217900198E054C3
:10573000FEF0EBD39406748094805006E025E0F0F0
:0C574000D2930B80BDC293900198E0FF53
:01574C00223A
:025CC200AA072F
:105CC400AF05A9071263D8AF0212614DAF05126187
:105CD4004DAF01126109126150AF031261091261E3
:105CE400501264E57F0D7E00126224D293D2927F1B
:0D5CF400627E001263C67F627E000263C6FE
:025EAC00AB0742
:105EAE00AF05AA071263D8AF0312616DAF05126179
:105EBE006DAF021261091261701263E0EB04FF1202
:105ECE006109126150C2931257001264E5D293D247
:065EDE0092900198E0FF24
:015EE400229B
:1055AE009000B0EEF0A3EFF0A3EBF0A3EAF0A3E9C6
:0155BE00F0FC
:1055BF009000B0E0FCA3E0FD7FA8125EAC9000B2BB
:1055CF00E0FBA3E0FAA3E0F9EF12134B9000B2E077
:1055DF00FBA3E0FAA3E0F9121305FF9000B1E0047A
:1055EF00F070069000B0E004F09000B3E475F001A5
:0655FF0012137FEF70BAE9
:015605002282
:104F760090007DEFF0A3ECF0A3EDF0A3EBF0A3EA35
:104F8600F0A3E9F0900080E0FBA3E0FAA3E0F912B9
:104F96001305603CB40D04E412134B90007DE0FF52
:104FA600A3E0FCA3E0FDA3E0FBA3E0FAA3E0F91273
:104FB6001305FB125CC290007FE004F070069000BF
:104FC6007EE004F0900081E475F00112137F80B456
:104FD600900080E0FBA3E0FAA3E0F9E412134B9003
:104FE600007DE0FFA3E0FCA3E0FDA3E0FBA3E0FA65
:0A4FF600A3E0F9121305FB025CC2F0
:104AD40053656E736F726573204175746F2079200E
:104AE40073656E736F72312061637469766F732EB0
:104AF4000053656E736F722061637469766F2073FF
:104B0400656E736F7231202E004465746563746141
:104B1400646F2E2053656E736F72204175746F2E0F
:104B24000053656E736F726573206E6F20646574D5
:104B340065637461646F73005665686963756C6F4F
:104B4400204573706572616E646F2053616C697285
:104B54002E005665686963756C6F2053616C6965D6
:104B64006E646F2E20556E206D6F6D656E746F00D0
:0764FE00C2B5C2B6C2B7220D
:07650500C2B5D2B6C2B722F5
:07650C00D2B5D2B6C2B722DE
:07651300C2B5C2B6D2B722E7
:07651A00D2B5C2B6D2B722D0
:07652100C2B5D2B6D2B722C9
:07652800D2B5D2B6D2B722B2
:1061AD00E4FF7D2C7C01309115EFFB3395E04B70B6
:0E61BD000DED1D70011CED4C70EC7F0180E8B3
:0161CB0022B1
:1063EA007F311265213091010F1265283091020F19
:0163FA000F93
:0163FB00227F
:1054720012651330915D1261ADEF3395E0FEEF647A
:10548200014E704712651A2091231265057BFF2099
:10549200910D7A4A79D4125D7EE490016B80227A72
:1054A2004A79F5125D7E90016B74018014126505D4
:1054B2007BFF2091107A4B790D125D7E90016B7407
:1054C20001F07FFF227A4B7925800E7BFF7A4B79A0
:0F54D2003C80067BFF7A4B7956125D7E7F00226D
:10538C001264FE20916190000EE07014A3E0701086
:10539C0030B35404F0125F7490000E7401F0804727
:1053AC0090000EE064017014A3E0701030B3380468
:1053BC00F012360490000E7402F0802B90000EE078
:1053CC0064027023A3E0701F30B31C04F07D667C74
:1053DC00007FA8125EACBF53047F5380027F4E1235
:1053EC005000E490000EF01264FE309105E4900041
:0253FC000FF0B0
:0153FE00228C
:103168004552524F523A2056414C4944414E444FE1
:1031780020504C4143412E2E2E20004552524F5292
:103188003A204C4F4F50312053494E20505245530E
:10319800454E434941205645484943554C415220E4
:1031A800004552524F523A205441524A4554412008
:1031B800494E56414C49444120005441524A4554D5
:1031C80041204E4F2045532044454C2050415251F8
:1031D8002E20005441524A4554412053494E20461E
:1031E8004F524D41544F20005441524A45544120BA
:1031F8004E4F205245474953545241205041474F62
:103208002000455843454445205449454D504F20DA
:1032180044452047524143494120004655455241C3
:10322800204445204C494E454120004249454E56D0
:10323800454E49444F2050554C534520454C20425B
:103248004F544F4E20004552524F523A2053494E48
:1032580020494E475245534F20005449434B45544B
:10326800204E6F2E0057494547414E442000AA8002
:103278002807200000000000140000AA801801029E
:0D32880000AA8018020200AA8018010200AE
:0960BC00900052E025E0FFE4FD34
:0560C500900059EDF010
:1060CA00125D4090005AEFF0900059E0600AE4FF38
:0860DA00125D4090005AEFF046
:0160E200229B
:0E5DF900900053EBF0A3EAF0A3E9F0A3EDF065
:105E0700E4A3F0900053E0FBA3E0FAA3E0F99000CD
:105E170057E0F58275830012131EFF60109000563D
:0D5E2700E0FD1260C5900057E004F080D649
:015E3400224B
:0E5B3600900053EBF0A3EAF0A3E9F0A3EDF02A
:105B4400E4900058F0900056E0FF900058E0FEC347
:105B54009F5024900053E0FBA3E0FAA3E0F98E8267
:105B640075830012131EFF900057E0FD1260C5906C
:075B74000058E004F080CEB0
:015B7B002207
:105EE500781D7C007D017BFF7A3279767E007F0DFF
:105EF5001212DFC2877B017A00792212430DC29C00
:105F05007B017A00791DE4900057F07D0D125B3618
:045F1500D29CD287C1
:015F19002265
:05258A0090001DEFF0C0
:10258F0078467C007D017BFF7A3279837E007F065F
:10259F001212DF784C7C007D017BFF7A3279897EC5
:1025AF00007F061212DFC2877B017A007946E4FDB5
:1025BF00125DF990001DE012142C25EE5026CDB6B9
:1025CF00266EDF260EE0262EE1264EE5270BE626A9
:1025DF008EE726AEE8272FFA26ECFE0000278A7B2F
:1025EF00FF7A31796812000E900052EFF0E4FDFF90
:1025FF001260C51260BC7BFF7A3179680227287B95
:10260F00FF7A31798312000E900052EFF0E4FDFF54
:10261F001260C51260BC7BFF7A3179830227287B59
:10262F00FF7A3179A912000E900052EFF0E4FDFF0E
:10263F001260C51260BC7BFF7A3179A90227287B13
:10264F00FF7A3179C212000E900052EFF0E4FDFFD5
:10265F001260C51260BC7BFF7A3179C20227287BDA
:10266F00FF7A3179DB12000E900052EFF0E4FDFF9C
:10267F001260C51260BC7BFF7A3179DB0227287BA1
:10268F00FF7A3179F012000E900052EFF0E4FDFF67
:10269F001260C51260BC7BFF7A3179F00227287B6C
:1026AF00FF7A32790A12000E900052EFF0E4FDFF2C
:1026BF001260C51260BC7BFF7A32790A805B7BFFA8
:1026CF007A32792312000E900052EFF0E4FDFF12E0
:1026DF0060C51260BC7BFF7A327923803C7BFF7A26
:1026EF0032793312000E900052EFF0E4FDFF1260CA
:1026FF00C51260BC7BFF7A327933801D7BFF7A3243
:10270F00794E12000E900052EFF0E4FDFF1260C5FB
:10271F001260BC7BFF7A32794E7D01125DF9805BCE
:10272F007B017A00791E125E35782D7C007D017B4E
:10273F00FF7A3279621216B99000A27401F0A37475
:10274F0000F0A3741EF07B017A00792D1254E17B07
:10275F00017A00792D12000EEF04900052F0E4FD83
:10276F00FF1260C51260BC7B017A00792D90005278
:0D277F00E0FD9000577401F0125B36D28728
:01278C00222A
:0E51940090001DEFF0A3EBF0A3EAF0A3E9F00A
:1051A20078217C007D017BFF7A32798F7E007F0639
:1051B2001212DFC28790001DE0245070557B017AE5
:1051C200007921E4FD125DF97BFF7A32796D1200DC
:1051D2000E900027EFF090001EE0FBA3E0FAA3E0A0
:1051E200F912000E900027E02F04F0E4FDFF126098
:1051F200C59000271260BF7BFF7A32796D7D011264
:105202005DF990001EE0FBA3E0FAA3E0F97D011234
:045212005DF9D287E9
:015216002275
:100026000D0A0A25733E20002563002564000D0A8B
:100036000A2041435455414C2049445F434C4945AD
:100046004E54453D25730D0A0A000D0A0A204449FF
:1000560047495445205355204E5545564F2049444F
:100066005F434C49454E54453D000D0A0A20444124
:10007600544F204D4F444946494341444F2049443B
:100086005F434C49454E54453D25730D0A0A000D04
:100096000A0A2041435455414C20434F445F504186
:1000A600524B3D25730D0A0A000D0A0A20444947A2
:1000B600495445205355204E5545564F20434F44ED
:1000C6005F5041524B3D000D0A0A204441544F20D7
:1000D6004D4F444946494341444F20434F445F50A6
:1000E60041524B3D25730D0A0A000D0A0A20414371
:1000F6005455414C205449454D504F5F475241435A
:1001060049413D25730D0A0A000D0A0A2044494754
:10011600495445205355204E5545564F2054494580
:100126004D504F5F4752414349413D000D0A0A2059
:100136004441544F204D4F444946494341444F2082
:100146005449454D504F5F4752414349413D257300
:100156000D0A0A000D0A0A2041435455414C20530A
:10016600494E5F434F42524F20494E484142494C07
:10017600495441444F3D25730D0A0A000D0A0A20D1
:1001860041435455414C2053494E5F434F42524FD1
:10019600204752415449533D25730D0A0A000D0A62
:1001A6000A2041435455414C2053494E5F434F4228
:1001B600524F2047524154495320592053414C49EC
:1001C600444120454C204D49534D4F204449413D23
:1001D60025730D0A0A000D0A0A2044494749544569
:1001E600205355204E5545564F2053494E5F434F99
:1001F60042524F3D000D0A0A2041435455414C20BE
:10020600444542554720494E484142494C4954418C
:10021600444F3D25730D0A0A000D0A0A2041435436
:1002260055414C20444542554720484142494C4996
:100236005441444F3D25730D0A0A000D0A0A204415
:10024600494749544520454C204E5545564F204573
:10025600535441444F2044452044454255473D00B0
:100266000D0A0A2041435455414C205553455F4CD5
:10027600505220494E484142494C495441444F3D11
:1002860025730D0A0A000D0A0A2041435455414CB4
:10029600205553455F4C505220484142494C4954E1
:1002A60041444F3D25730D0A0A000D0A0A204449B0
:1002B6004749544520454C204E5545564F204553F9
:1002C6005441444F204445205553455F4C50523DC0
:1002D600000D0A0A2041435455414C20434F4D50CE
:1002E60041524143494F4E204143544956412049CA
:1002F6004E484142494C495441444F3D25730D0AED
:100306000A000D0A0A2041435455414C20434F4DE3
:100316005041524143494F4E204143544956412092
:1003260020484142494C495441444F3D25730D0AEA
:100336000A000D0A0A2044494749544520454C20E5
:100346004E5545564F2045535441444F2044452071
:10035600434F4D5041524143494F4E20414354492A
:100366005641203D000D0A0A2041435455414C2078
:10037600434F4D5041524143494F4E20414354490A
:1003860056412020494E484142494C495441444F28
:100396003D25730D0A0A000D0A0A204143545541B2
:1003A6004C20434F4449474F204445204241525236
:1003B6004153204143544956303D25730D0A0A00E6
:1003C6000D0A0A2041435455414C20434F444947A6
:1003D6004F2051522041435449564F3D25730D0A33
:1003E6000A000D0A0A2044494749544520454C2035
:1003F6004E5545564F2045535441444F20444520C1
:10040600434F4449474F205152204F20434F4449C0
:10041600474F204445204241525241533D000D0A68
:100426000A2044696769746520656C206E6F6D6289
:1004360072652064656C20636C69656E7465200066
:100446000D0A0A20746578746F20677261626164B0
:100456006F3D25730D0A0A000D0A0A204469676973
:10046600746520656C206E756D65726F20646520FD
:100476004E697420000D0A0A204E49543A2025730D
:100486000D0A0A000D0A0A20446967697465206529
:100496006C204E6F6D6272652064656C20506172CF
:1004A600717565616465726F20000D0A0A204E6FD2
:1004B6006D6272653A2025730D0A0A000D0A0A203C
:1004C600446967697465206C612064697265636359
:1004D600696F6E2064656C2065737461626C656318
:1004E600696D69656E746F20000D0A0A2044697291
:1004F600656363696F6E3A2025730D0A0A000D0A5B
:100506000A2044696769746520656C206D736A31D9
:100516002064656C2065737461626C6563696D69DE
:10052600656E746F20000D0A0A206D736A313A20D9
:1005360025730D0A0A000D0A0A2044696769746565
:1005460020656C206D736A322064656C2065737457
:1005560061626C6563696D69656E746F20000D0A72
:100566000A2044696769746520656C206D736A3377
:100576002064656C2065737461626C6563696D697E
:10058600656E746F20000D0A0A206D736A333A2077
:1005960025730D0A0A000D0A0A2044696769746505
:1005A60020656C206D736A342064656C20657374F5
:1005B60061626C6563696D69656E746F20000D0A12
:1005C6000A206D736A343A2025730D0A0A000D0A53
:1005D6000A2044696769746520656C206D736A3505
:1005E6002064656C2065737461626C6563696D690E
:1005F600656E746F20000D0A0A206D736A353A2005
:1006060025730D0A0A000D0A0A2044696769746594
:1006160020656C206D736A362064656C2065737482
:1006260061626C6563696D69656E746F20000D0AA1
:100636000A206D736A363A2025730D0A0A000D0AE0
:100646000A2044696769746520656C206D736A3792
:100656002064656C2065737461626C6563696D699D
:10066600656E746F20000D0A0A206D736A373A2092
:1006760025730D0A0A000D0A2049445F434C49457B
:100686004E5445202020202D2D2D20636D642030D2
:10069600204964656E746966696361646F7220647B
:1006A600656C20636C69656E7465206D6178696D33
:1006B6006F20323535000D0A20434F445F504152BA
:1006C6004B2020202020202D2D2D20636D642031ED
:1006D60020456C206E756D65726F2064656C2070A8
:1006E6006172717565616465726F206D6178696D9F
:1006F6006F20323535000D0A20545F475241434979
:10070600412020202020202D2D2D20636D642032B5
:10071600205469656D706F2073696E20636F627215
:100726006F2030302C20206D6178696D6F20323556
:1007360035000D0A2053494E5F434F42524F202049
:100746002020202D2D2D20636D64203320496E68D6
:100756006162696C697461646F3D20302C20477258
:10076600617469733D2031202C204772617469736E
:1007760020792073616C69646120656C206D6973F2
:100786006D6F206469613D2032000D0A20444542A8
:1007960055472020202020202020202D2D2D20638D
:1007A6006D64203420486162696C69746172203D11
:1007B60020312C20496E686162696C69746172200F
:1007C6003D2030000D0A205553455F4C50522020E5
:1007D60020202020202D2D2D20636D64203548619A
:1007E60062696C69746172203D20312C20496E6803
:1007F6006162696C69746172203D2030000D0A20C7
:10080600434F4D5041524143494F4E5F4143544936
:100816005641202D2D2D636D642036204861626976
:100826006C69746172203D20312C20496E686162CA
:10083600696C69746172203D2030000D0A205152A6
:100846005F434F445F424152524153202D2D2D6349
:100856006D64203720486162696C69746172205149
:1008660052203D20312C20486162696C69746172A6
:1008760020434F445F424152524153203D203000B5
:100886000D0A20434C49454E544520202020202067
:10089600202D2D2D636D642038204E6F6D6272659C
:1008A6002064656C20636C69656E7465000D0A20B2
:1008B6004E495420202020202020202020202D2D8D
:1008C6002D20636D642039204E756D65726F20642E
:1008D600656C206E6974000D0A204E4F4D5F5041C5
:1008E60052512020202020202D2D2D20636D6420A4
:1008F6003130204E6F6D6272652064656C207061C8
:1009060072717565616465726F000D0A2044495203
:10091600454343494F4E20202020202D2D2D206376
:100926006D64203131204E6F6D6272652064656C96
:1009360020706172717565616465726F000D0A20C1
:100946004D534A5F312020202020202020202D2DAD
:100956002D20636D64203132206D736A206465201A
:10096600696E666F726D6163696F6E2064656C2077
:10097600706172717565616465726F000D0A204D54
:10098600534A5F322020202020202020202D2D2D8C
:1009960020636D64203133206D736A20646520699D
:1009A6006E666F726D6163696F6E2064656C207030
:1009B6006172717565616465726F000D0A204D5331
:1009C6004A5F332020202020202020202D2D2D207E
:1009D600636D64203134206D736A20646520696E0E
:1009E600666F726D6163696F6E2064656C207061FD
:1009F60072717565616465726F000D0A204D534A08
:100A06005F342020202020202020202D2D2D206323
:100A16006D64203135206D736A20646520696E66C9
:100A26006F726D6163696F6E2064656C20706172B0
:100A3600717565616465726F000D0A204D534A5FDA
:100A4600352020202020202020202D2D2D20636DD4
:100A560064203136206D736A20646520696E666F86
:100A6600726D6163696F6E2064656C20706172716E
:100A76007565616465726F000D0A204D534A5F36D5
:100A86002020202020202020202D2D2D20636D6465
:100A9600203137206D736A20646520696E666F7237
:100AA6006D6163696F6E2064656C2070617271752B
:100AB60065616465726F000D0A204D534A5F3720E9
:100AC60020202020202020202D2D2D20636D642025
:100AD6003138206D736A20646520696E666F726DA9
:100AE6006163696F6E2064656C20706172717565F3
:100AF600616465726F000D0A2041595544412020FA
:100B0600202020202020202D2D2D20636D642031D3
:100B160039204D756573747261206C6F7320636F35
:100B26006D616E646F73000D0A2053414C4952206B
:100B360020202020202020202D2D2D20636D6420B4
:100B460032302053616C69722064652070726F6761
:100B560072616D6163696F6E000D0A0A5369737481
:100B6600656D612064652050726F6772616D6163A7
:100B7600696F6E205665726966696361646F720D8E
:100B86000A0D0A000D0A0A2F3E5573756172696FC8
:100B96003A000D0A0A206461746F732064656C2044
:100BA6006275666665722072782025730D0A0A00E2
:100BB6000D0A0A206461746F732064656C20627587
:100BC600666665722074782025730D0A0A000D0A80
:100BD6000A2F3E50617373776F72643A0031323375
:100BE600343536000D0A436F6D616E646F206E6F8B
:100BF60020657869737465202725732700200D0A00
:090C060000200D0A00220D0A0075
:104863005400DF2F000000000000000000000000E3
:10487300000000000000004900D661646D696E000D
:10488300000000603F00F330000031000032000000
:1048930033000034000035000036000037000038D4
:1048A3000000390000313000313100313200313342
:1048B30000313400313500313600313700313800F2
:0648C30031390032300023
:0B554C0090003FEBF0A3EAF0A3E9F0B1
:10555700E4900045F0900045E0FFC39415748094F3
:10556700805041EF75F003A424F3F9740035F0FA85
:105577007B0178427C007D011216B978427C007D60
:105587000190003FE0FBA3E0FAA3E0F91215D0EF8A
:105597003395E04F7006900045E0FF22900045E00C
:0655A70004F080B17FFF5B
:0155AD0022DB
:0B5B7C0090000EE0FBA3E0FAA3E0F9AC
:0B5B870090003FEBF0A3EAF0A3E9F070
:105B920078427C007D017B017A0079D61216B978B1
:105BA200427C007D0190003FE0FBA3E0FAA3E0F914
:0E5BB2001215D0EF3395E04F7002FF227FFFF7
:015BC00022C2
:065C43007B017A00792BC1
:0B5C490090003FEBF0A3EAF0A3E9F0AD
:105C540078427C007D017BFF7A0C79037E007F040F
:105C64001212DF90004D7401F0A37400F0A374428B
:0F5C7400F090003FE0FBA3E0FAA3E0F9023EE668
:104DCB00E0FBA3E0FAA3E02FF9EA3EFAE92401F9AC
:034DDB00E43AFABD
:0B4DDE0090003FEBF0A3EAF0A3E9F027
:104DE90078427C007D017BFF7A0C79077E007F0485
:104DF9001212DF78467C007D017BFF7A0C790B7EED
:104E0900007F041212DF90003FE0FBA3E0FAA3E069
:104E1900F9121305FFB4200C900040E475F001125B
:104E2900137F80E2EF90004DB4220D7401F0A3745A
:104E390000F0A37446F080167401F0A37400F0A387
:104E49007442F090003FE0FBA3E0FAA3E0F9123EC0
:014E5900E672
:014E5A002235
:10628A009000A57401F0A37400F0A374DFF07BFF03
:07629A007A0079260217B813
:0848E0007A00792B7B01E4FD55
:0E48E80090007DEBF0A3EAF0A3E9F0A3EDF061
:1048F6001264BB90007DE0FBA3E0FAA3E0F9EF129F
:10490600134B900080E0701D90007DE0FBA3E0FA61
:10491600A3E0F91213059000A5F07BFF7A00792E2B
:104926001217B880057F2A125D4090007DE0FBA338
:10493600E0FAA3E0F9121305FF7E00900081EEF085
:10494600A3EFF090007EE475F00112137F90007DD6
:10495600E0FBA3E0FAA3E0F9E412134BEF640D6069
:104966000C900081E07004A3E0640A708390007EDE
:1049760074FFF5F012137F90007DE0FBA3E0FAA32D
:07498600E0F9740A02134B73
:1046C300E4FDFC7FA8125EAC7E00900049EEF0A3EF
:1046D300EFF09000A574FFF0A37400F0A37431F021
:1046E300A3EEF0A3EFF07B017A00793F1217B290AB
:1046F30000A57401F0A37400F0A3743FF07BFF7A6C
:104703000079341217B87BFF7A0079501217B87A00
:1047130000793F1248E47B017A00793F123FCA9047
:104723000049EEF0A3EFF0FBE4FDFC7FA8125CC2AE
:10473300E4FDFC7FA8125EAC7E00900049EEF0A37E
:10474300EFF09000A574FFF0A37400F0A37431F0B0
:10475300A3EEF0A3EFF07B017A00793F1217B2903A
:1047630000A57401F0A37400F0A3743FF07BFF7AFB
:064773000079700217B886
:1043D1007D027C007FA8125EAC7E00900049EEF069
:1043E100A3EFF09000A574FFF0A37400F0A3743163
:1043F100F0A3EEF0A3EFF07B017A00793F1217B240
:104401009000A57401F0A37400F0A3743FF07BFF4A
:104411007A0079951217B87BFF7A0079AF1217B835
:104421007B017A00793FE4FD1248E87B017A00794B
:104431003F123FCA900049EEF0A3EFF0FB7D027CF2
:10444100007FA8125CC27D027C007FA8125EAC7E58
:1044510000900049EEF0A3EFF09000A574FFF0A3E7
:104461007400F0A37431F0A3EEF0A3EFF07B017AB6
:1044710000793F1217B29000A57401F0A37400F007
:0D448100A3743FF07BFF7A0079CD0217B8DD
:10448E007D047C007FA8125EAC7E00900049EEF0A9
:10449E00A3EFF09000A574FFF0A37400F0A37431A5
:1044AE00F0A3EEF0A3EFF07B017A00793F1217B282
:1044BE009000A57401F0A37400F0A3743FF07BFF8D
:1044CE007A0079F01217B87BFF7A01790F1217B8BC
:1044DE007B017A00793FE4FD1248E87B017A00798E
:1044EE003F123FCA900049EEF0A3EFF0FB7D047C33
:1044FE00007FA8125CC27D047C007FA8125EAC7E99
:10450E0000900049EEF0A3EFF09000A574FFF0A329
:10451E007400F0A37431F0A3EEF0A3EFF07B017AF8
:10452E0000793F1217B29000A57401F0A37400F049
:0D453E00A3743FF07BFF7A0179320217B8B9
:10302A007D067C007FA8125EAC7E00900049EEF01F
:10303A00A3EFF09000A574FFF0A37400F0A374311D
:10304A00F0A3EEF0A3EFF07B017A00793F1217B2FA
:10305A00900049E07002A3E070159000A504F0A367
:10306A007400F0A3743FF07BFF7A01795A8035909F
:10307A000049E07004A3E0640170159000A504F013
:10308A00A37400F0A3743FF07BFF7A017982801465
:10309A009000A57401F0A37400F0A3743FF07BFFC5
:1030AA007A0179A41217B87BFF7A0179DC1217B872
:1030BA007B017A00793FE4FD1248E87B017A0079C6
:1030CA003F123FCA900049EEF0A3EFF0FB7D067C69
:1030DA00007FA8125CC27D067C007FA8125EAC7ECF
:1030EA0000900049EEF0A3EFF09000A574FFF0A362
:1030FA007400F0A37431F0A3EEF0A3EFF07B017A31
:10310A0000793F1217B2900049E07002A3E07015EF
:10311A009000A504F0A37400F0A3743FF07BFF7A3B
:10312A0001795A8035900049E07004A3E064017087
:10313A00159000A504F0A37400F0A3743FF07BFF80
:10314A007A01798280149000A57401F0A37400F0CA
:0D315A00A3743FF07BFF7A0179A41217B82F
:013167002245
:103820007D087C007FA8125EAC7E00900049EEF01F
:10383000A3EFF09000A574FFF0A37400F0A374311F
:10384000F0A3EEF0A3EFF07B017A00793F1217B2FC
:10385000900049E07002A3E070159000A504F0A369
:103860007400F0A3743FF07BFF7A0179FB80149021
:1038700000A57401F0A37400F0A3743FF07BFF7AFD
:1038800002791F1217B87BFF7A0279411217B87BB1
:10389000017A00793FE4FD1248E87B017A00793F24
:1038A000123FCA900049EEF0A3EFF0FB7D087C00C8
:1038B0007FA8125CC27D087C007FA8125EAC7E00EF
:1038C000900049EEF0A3EFF09000A574FFF0A37410
:1038D00000F0A37431F0A3EEF0A3EFF07B017A00C7
:1038E000793F1217B2900049E07002A3E070159082
:1038F00000A504F0A37400F0A3743FF07BFF7A01ED
:1039000079FB80149000A57401F0A37400F0A374F7
:0B3910003FF07BFF7A02791F1217B80E
:01391B002289
:10391C007D0A7C007FA8125EAC7E00900049EEF020
:10392C00A3EFF09000A574FFF0A37400F0A3743122
:10393C00F0A3EEF0A3EFF07B017A00793F1217B2FF
:10394C00900049E07002A3E070159000A504F0A36C
:10395C007400F0A3743FF07BFF7A027966801490B8
:10396C0000A57401F0A37400F0A3743FF07BFF7A00
:10397C0002798C1217B87BFF7A0279B01217B87BD8
:10398C00017A00793FE4FD1248E87B017A00793F27
:10399C00123FCA900049EEF0A3EFF0FB7D0A7C00C9
:1039AC007FA8125CC27D0A7C007FA8125EAC7E00F0
:1039BC00900049EEF0A3EFF09000A574FFF0A37413
:1039CC0000F0A37431F0A3EEF0A3EFF07B017A00CA
:1039DC00793F1217B2900049E07002A3E070159085
:1039EC0000A504F0A37400F0A3743FF07BFF7A02EF
:1039FC00796680149000A57401F0A37400F0A37490
:0B3A0C003FF07BFF7A02798C1217B8A4
:013A1700228C
:103A18007D0C7C007FA8125EAC7E00900049EEF021
:103A2800A3EFF09000A574FFF0A37400F0A3743125
:103A3800F0A3EEF0A3EFF07B017A00793F1217B202
:103A4800900049E07002A3E070159000A504F0A36F
:103A58007400F0A3743FF07BFF7A0279D78014904A
:103A680000A57401F0A37400F0A3743FF07BFF7A03
:103A78000379081217B87BFF7A0379381217B87BD5
:103A8800017A00793FE4FD1248E87B017A00793F2A
:103A9800123FCA900049EEF0A3EFF0FB7D0C7C00CA
:103AA8007FA8125CC27D0C7C007FA8125EAC7E00F1
:103AB800900049EEF0A3EFF09000A574FFF0A37416
:103AC80000F0A37431F0A3EEF0A3EFF07B017A00CD
:103AD800793F1217B2900049E07002A3E070159088
:103AE80000A504F0A37400F0A3743FF07BFF7A03F1
:103AF800796B80149000A57401F0A37400F0A3748E
:0B3B08003FF07BFF7A0379081217B82A
:013B1300228F
:103B14007D0E7C007FA8125EAC7E00900049EEF022
:103B2400A3EFF09000A574FFF0A37400F0A3743128
:103B3400F0A3EEF0A3EFF07B017A00793F1217B205
:103B4400900049E07002A3E070159000A504F0A372
:103B54007400F0A3743FF07BFF7A03799D80149086
:103B640000A57401F0A37400F0A3743FF07BFF7A06
:103B74000379C61217B87BFF7A0379E81217B87B6A
:103B8400017A00793FE4FD1248E87B017A00793F2D
:103B9400123FCA900049EEF0A3EFF0FB7D0E7C00CB
:103BA4007FA8125CC27D0E7C007FA8125EAC7E00F2
:103BB400900049EEF0A3EFF09000A574FFF0A37419
:103BC40000F0A37431F0A3EEF0A3EFF07B017A00D0
:103BD400793F1217B2900049E07002A3E07015908B
:103BE40000A504F0A37400F0A3743FF07BFF7A03F4
:103BF400799D80149000A57401F0A37400F0A3745F
:0B3C04003FF07BFF7A0379C61217B86F
:013C0F002292
:1057E2007BFF7A0479241217B87B017A00793FE4AF
:1057F200FD1248E87B017A00793F7D107C007FA88A
:10580200124F767B017A00793F7F107E001255AEEF
:105812009000A57401F0A37400F0A3743FF07BFF25
:075822007A0479460217B871
:105829007BFF7A04795E1217B87B017A00793FE42D
:10583900FD1248E87B017A00793F7D407C007FA812
:10584900124F767B017A00793F7F407E001255AE78
:105859009000A57401F0A37400F0A3743FF07BFFDE
:075869007A04797B0217B8F5
:105870007BFF7A04798A1217B87B017A00793FE4BA
:10588000FD1248E87B017A00793F7D507C007FA8BB
:10589000124F767B017A00793F7F507E001255AE21
:1058A0009000A57401F0A37400F0A3743FF07BFF97
:0758B0007A0479B00217B879
:1058B7007BFF7A0479C21217B87B017A00793FE43B
:1058C700FD1248E87B017A00793F7D807C007FA844
:1058D700124F767B017A00793F7F807E001255AEAA
:1058E7009000A57401F0A37400F0A3743FF07BFF50
:0758F7007A0479EF0217B8F3
:1058FE007BFF7A0579041217B87B017A00793FE4B1
:10590E00FD1248E87B017A00793F7DB07C007FA8CC
:10591E00124F767B017A00793F7FB07E001255AE32
:10592E009000A57401F0A37400F0A3743FF07BFF08
:07593E007A05792C0217B86D
:105945007BFF7A05793C1217B87B017A00793FE431
:10595500FD1248E87B017A00793F7DF17C007FA844
:10596500124F767B017A00793F7FF17E001255AEAA
:105975009000A57401F0A37400F0A3743FF07BFFC1
:075985007A05792C0217B826
:10598C007BFF7A0579641217B87B017A00793FE4C2
:10599C00FD1248E87B017A00793F7D327C017FA8BB
:1059AC00124F767B017A00793F7F327E011255AE21
:1059BC009000A57401F0A37400F0A3743FF07BFF7A
:0759CC007A05798C0217B87F
:1059D3007BFF7A05799C1217B87B017A00793FE443
:1059E300FD1248E87B017A00793F7D737C017FA833
:1059F300124F767B017A00793F7F737E011255AE99
:105A03009000A57401F0A37400F0A3743FF07BFF32
:075A13007A0579C40217B8FF
:105A1A007BFF7A0579D41217B87B017A00793FE4C3
:105A2A00FD1248E87B017A00793F7DB47C017FA8AA
:105A3A00124F767B017A00793F7FB47E011255AE10
:105A4A009000A57401F0A37400F0A3743FF07BFFEB
:075A5A007A0579FC0217B880
:105A61007BFF7A06790C1217B87B017A00793FE443
:105A7100FD1248E87B017A00793F7DF57C017FA822
:105A8100124F767B017A00793F7FF57E011255AE88
:105A91009000A57401F0A37400F0A3743FF07BFFA4
:075AA1007A0679340217B800
:105AA8007BFF7A0679441217B87B017A00793FE4C4
:105AB800FD1248E87B017A00793F7D367C027FA899
:105AC800124F767B017A00793F7F367E021255AEFF
:105AD8009000A57401F0A37400F0A3743FF07BFF5D
:075AE8007A06796C0217B881
:10454B007BFF7A06797C1217B87BFF7A0679BC124F
:10455B0017B87BFF7A0679FC1217B87BFF7A0779BD
:10456B00381217B87BFF7A0779901217B87BFF7A4E
:10457B000779CA1217B87BFF7A0879031217B87B31
:10458B00FF7A0879411217B87BFF7A0879861217E0
:10459B00B87BFF7A0879B31217B87BFF7A0879DDFD
:1045AB001217B87BFF7A0979101217B87BFF7A09BB
:1045BB0079431217B87BFF7A0979821217B87BFF00
:1045CB007A0979C11217B87BFF7A0A79001217B8EA
:1045DB007BFF7A0A793F1217B87BFF7A0A797E1232
:1045EB0017B87BFF7A0A79BD1217B87BFF7A0A7965
:0D45FB00FC1217B87BFF7A0B792D0217B860
:102150007BFF7A0B795F1217B87BFF7A0B798A12B3
:1021600017B81264AD1248E0125C4390000EEBF019
:10217000A3EAF0A3E9F09000A5E4F0A37400F0A3B3
:10218000742CF07BFF7A0B79981217B89000A5E4B5
:10219000F0A37400F0A3745EF07BFF7A0B79B612A3
:1021A00017B8125B7CEF70B17BFF7A0B79D41217F2
:1021B000B87B017A00792B7D011248E8125C4390CC
:1021C000000EEBF0A3EAF0A3E9F078D67C007D01E5
:1021D0007BFF7A0B79E31216B9125B7CEF70C902B0
:1021E000235912628A1248E0125C4390000EEBF011
:1021F000A3EAF0A3E9F012000E90000E124DCB906E
:102200000011EBF0A3EAF0A3E9F012000E90001128
:10221000124DCB900014EBF0A3EAF0A3E9F090008C
:1022200011E0FBA3E0FAA3E0F9EA494B60171213AF
:1022300005B42F1178177C007D01900011A3A3E055
:102240001216B9803D900011E0FBA3E0FAA3E0F97B
:10225000EA494B602D78177C007D017B017A00797B
:10226000DF1216B9900011E0F9A3E0FAA3E09000A4
:10227000A2C9F0A3EAF0A3E9F07B017A0079171272
:1022800054E190000EE0FBA3E0FAA3E0F9EA494B29
:1022900070030221E212554CEFB4150040030223F3
:1022A0005F9022A8F82828730222E70222ED02227A
:1022B000F30222F90222FF02230502230B0223115B
:1022C00002231702231D02232302232902232F02A4
:1022D000233502233B02234102234702234D0223DD
:1022E000530223590223801246C30221E21243D132
:1022F0000221E212448E0221E212302A0221E2126D
:1023000038200221E212391C0221E2123A1802217D
:10231000E2123B140221E21257E20221E212582992
:102320000221E21258700221E21258B70221E21291
:1023300058FE0221E21259450221E212598C022173
:10234000E21259D30221E2125A1A0221E2125A6110
:102350000221E2125AA80221E212454B0221E29028
:10236000000EE0F9A3E0FAA3E09000A5C9F0A3EA0B
:10237000F0A3E9F07BFF7A0B79EA1217B80221E2A9
:01238000223A
:03654600256400C9
:0B4C0E0090000EEBF0A3EAF0A3E9F029
:104C19009000137401F0A374F4F0126543E490005A
:104C290012F0C286900011F0C2B2900013E0FEA308
:104C3900E0FF20B35B900011E07055900013E0FE97
:104C4900A3E0FFEF1F70011EEF4E700590001104E5
:104C5900F030B406900011E060E920B433900011FF
:104C6900E0702D90000EE0FBA3E0FAA3E0F9E5A0C7
:104C790012134B900012E004F090000FE475F0015C
:104C890012137F900013E0FEA3E0FF30B4FD80A271
:0C4C9900D2B2D286126535900012E0FF06
:014CA50022EC
:0E477900900038EBF0A3EAF0A3E9F0A3EDF016
:10478700900041F0D2B2D2B4C286E4900040F0C2A9
:10479700B290003C1213DB00004E2030B34990006A
:1047A70040E07043C2B2D2B490003CE0FCA3E0FD0D
:1047B700A3E0FEA3E0FFEF24FFFFEE34FFFEED349E
:1047C700FFFDEC34FFFC90003C1213CF90003CE05F
:1047D700FCA3E0FDA3E0FEA3E0FFEC4D4E4F70BB52
:1047E700A304F0C28280B4900040E0702920B32671
:1047F700900038E0FBA3E0FAA3E0F9121305F5A057
:104807001263FC900039E475F00112137F90003BAE
:10481700E014F0E070DA75A0FFD2B2D2B4D2867F8E
:06482700627E000263C680
:102B5F009000367402F0E4A3F090000E7402F0A31C
:102B6F00EFF07B017A00792C125E357B017A0079C8
:102B7F002C12000EE4FE9000367402F0742C2EF529
:102B8F0082E43400F583E0FD900036E0FC04F0743D
:102B9F000E2CF582E43400F583EDF01F0EEF70DCA0
:102BAF00900036E0FF04F0740E2FF582E43400F548
:102BBF0083742DF0900036E0A3F0240EF9E4340076
:102BCF00FA7B0112498D900037E0900036F0E02437
:102BDF000EF582E43400F583E02430FF900036E0F8
:102BEF00FE04F0740E2EF582E43400F583EFF090BE
:102BFF000036E0240EF582E43400F583E02430FF44
:102C0F00900036E0FE04F0740E2EF582E43400F5E9
:102C1F0083EFF0900036E0240EF582E43400F58364
:102C2F00E02430FF900036E0FE04F0740E2EF582A3
:102C3F00E43400F583EFF0900036E0240EF582E4E3
:102C4F003400F583E02430FF900036E0FE04F0748A
:102C5F000E2EF582E43400F583EFF0900036E02479
:102C6F000EF582E43400F583E02430FF900036E067
:102C7F00FE04F0740E2EF582E43400F583EFF0902D
:102C8F000036E0FF04F0740E2FF582E43400F58374
:102C9F00742DF07B017A01795A12000EE4FEEF6079
:102CAF0026745A2EF582E43401F583E0FD90003648
:102CBF00E0FC04F0740E2CF582E43400F583EDF0A3
:102CCF001F0EEF70DC8014900036E0FF04F0740EDE
:102CDF002FF582E43400F5837420F0900036E0FF86
:102CEF0004F0740E2FF582E43400F5837403F0C200
:102CFF00B230B3FD7B017A00790E900036E0FD1201
:102D0F0047791264EE7B017A00790E900036E0FD70
:0C2D1F0090003C7401F01253FF0264EEBF
:1063FC00C2B47F287E001263C6D2B47F287E00020E
:02640C0063C665
:06500000900010EFF0FB30
:10500600D2B4C286E4A3F0A31213DB00003A988B55
:10501600A0C2B230B343900011E0703DA3E0FCA300
:10502600E0FDA3E0FEA3E0FFEF24FFFFEE34FFFE6A
:10503600ED34FFFDEC34FFFC9000121213CF90000C
:1050460012E0FCA3E0FDA3E0FEA3E0FFEC4D4E4F13
:1050560070C190001104F080BA900011E0700C202D
:10506600B309900010E0F5A01263FCD2B2D2B4D21C
:105076008675A0FF7F627E001263C67F627E000295
:0250860063C6FF
:0A64C700D2B4D2B2D28675A0FF2233
:105F74009000107402F0A37469F07B017A00791226
:105F840012430D7F8B124D45900018EFF0A374035C
:0C5F9400F07B017A0079107D0A02477949
:10360400E4900020F09000107402F0A37444F09051
:1036140000A574FFF0A37465F0A37446F0900176DE
:10362400E0FFA3E09000A8CFF0A3EFF07B017A00C5
:10363400791B1217B290001F7402F0900020E0244E
:103644001BF582E43400F583E0FF601790001FE06F
:103654002410F582E43400F583EFF0900020E004B8
:10366400F0801890001FE02410F582E43400F58304
:10367400743BF090001FE004F0800890001FE00409
:10368400F080B89000A574FFF0A37465F0A37446AD
:10369400F0900172E0FFA3E09000A8CFF0A3EFF058
:1036A4007B017A00791B1217B2E4900020F090009D
:1036B40020E0241BF582E43400F583E0FF601790DA
:1036C400001FE02410F582E43400F583EFF090004D
:1036D40020E004F0801890001FE02410F582E43408
:1036E40000F583743BF090001FE004F08008900024
:1036F4001FE004F080B890001FE0FD2410F582E480
:103704003400F5837403F07B017A00791002477961
:105606004461746F73204D462072657370756573BF
:1056160074613A20004461746F73204D4620456ED4
:10562600766961646F733A20002F2A2D2D2D2D2D5A
:105636002D2D2D2D2D2D2D2D2D2D2D2D2D2D2D2D94
:105646002D2D2D2D2D2D2D2D2D2D2D2D2D2D2D2D84
:075656002D2D2A2F0D0A0083
:06618D00AE07EEC313FE95
:10619300E4FFEFD3940774809480500D0000000057
:0961A3000000000000000F80E97B
:0161AC0022D0
:10623F00E4FFEFD3940474809480500D00000000AD
:09624F000000000000000F80E9CE
:016258002223
:02579A00AE0758
:10579C00C2AFC2901261930000AD06EE5401FE70D0
:1057AC0004C2908002D2901261937C01ECD39407D6
:1057BC00748094805015EDC313FD5401FE7004C227
:1057CC00908002D2901261930C80E1D2901261937E
:0557DC00126193D2AF41
:0157E10022A5
:025AEF00AB0703
:105AF100900167E06401703CEB54F0C4540FFFD394
:105B0100940974809480400674372FFF80047430A8
:105B11002FFF12579AEB540FFFD39409748094808E
:105B2100400674372FFF800474302FFF12579A7F7D
:045B31002012579A4D
:015B3500224D
:0E53FF00900038EBF0A3EAF0A3E9F0A3EDF084
:10540D00900167E06401705C90003CE0FF3395E033
:10541D00FEEF4E7BFF60067A56790680047A567948
:10542D001B125D7EE490003DF090003BE0FF90008C
:10543D003DE0C39F5024900038E0FBA3E0FAA3E0C9
:10544D00F9121305FF125AEF900039E475F00112AD
:10545D00137F90003DE004F080CF7F0D12579A7FAF
:04546D000A12579A2E
:015471002218
:0B5D7E0090003EEBF0A3EAF0A3E9F078
:105D8900E4A3F0900167E064017027900041F0906E
:105D9900003EE0FBA3E0FAA3E0F9A3E0F5827583F6
:105DA9000012131EFF600B12579A900041E004F095
:025DB90080DD8B
:015DBB0022C5
:0964EE007BFF7A56792F025D7ED6
:105088007EFF12623F126193208005747FFF8004C7
:10509800EE4480FF12618DEE208005547FFF80036F
:1050A8004480FF12618DEE208005547FFF80034409
:1050B80080FF12618DEE208005547FFF80034480BD
:1050C800FF12618DEE208005547FFF80034480FF2E
:1050D80012618DEE208005547FFF80034480FF120B
:1050E800618DEE208005547FFF80034480FF1261AC
:1050F8008DEE208005547FFF80034480FFAE0712A9
:0751080061933080FDAF064A
:01510F00227D
:05653A00D290D2802286
:0E48C900010B00010C00010900010A00C10BE7
:0300230002417B1C
:10417B00C0E0C083C082C0D075D000C000C004C0F6
:05418B0005C006C0079D
:10419000209803024218C298859908C3E509950A38
:1041A000FFE49400FEEF54F84E700BE50954072429
:1041B0002CF8A6080509900165E0FFD3940A7480E5
:1041C0009480400590016FE4F090016FE014600F5F
:1041D000047040900165E4F090016F04F080397440
:1041E000222FF8A6087822E6FFFD7C0064127006F4
:1041F00090017804801AEFB47207900178740280FD
:104200000FED641E4C9001787004740380027404F6
:10421000F0800090016FE4F030991AC299E50B65C7
:104220000C6010E50C5401245EF8E6F599050CC20B
:054230000B8002D20B1F
:10423500D007D006D005D004D000D0D0D082D0830E
:03424500D0E03294
:105FA000D310AF01C3C0D012601CE4F50BF50CF5A3
:105FB00009F50AC29FD29EC29DD29CC298C299D2B4
:0A5FC0000BD2ACD2BCD0D092AF22BD
:10601C00D310AF01C3C0D0C299E4F50BF50CC28EFE
:10602C00C2AB43878053890F438920758DF4758BE0
:08603C00F4D28ED0D092AF2205
:105E7100D310AF01C3C0D09000D5EFF0126420C39E
:105E8100EF94027480948040047FFF80199000D5C4
:105E9100E0FFE50B5401245EF8A607050B300B0467
:0B5EA100C20BD2997F00D0D092AF223C
:1060E300D310AF01C3C0D012640EEF70067EFF7FE2
:1060F300FF800EAF0A050AEF5407242CF8E6FF7E53
:0661030000D0D092AF2293
:10640E00D310AF01C3C0D0C3E509950AFFD0D09217
:02641E00AF22AB
:10642000D310AF01C3C0D0C3E50B950CFFD0D09201
:02643000AF2299
:0E64AD00E4F50BF50CF509F50AC298C2992228
:102D2B0054697175657465204E6F3A20003E002022
:102D3B0046656368613A203230002D0020003A006E
:102D4B00205665686963756C6F3A20436172726FC8
:102D5B0000205665686963756C6F3A204D6F746F10
:102D6B0000506C6163613A20003E3C0A0025730001
:102D7B004E49543A202573000A0A0A0A0A0A000A25
:102D8B000A0A0A0020257300707970002020205455
:102D9B00697175657465204E6F3A200025730A00C2
:102DAB0020202046656368613A20202020202000E7
:102DBB003230002020205665686963756C6F3A20AD
:102DCB002020436172726F0A0020202056656869CB
:102DDB0063756C6F3A2020204D6F746F0A002020B2
:102DEB0020506C6163613A202020202000566568DA
:102DFB006963756C6F20656E20656C206C6F6F70EE
:102E0B000D0A0D0A0050756C7361646F722041637B
:102E1B007469766F0D0A0050756C7361646F722064
:102E2B004E6F2041637469766F0D0A0056656869B1
:102E3B0063756C6F206E6F20656E20656C206C6FF8
:102E4B006F700D0A0D0A00496D707265736F7261B8
:102E5B0020636F6E20706170656C200D0A00496DE8
:102E6B00707265736F7261206E6F207469656E6529
:102E7B0020706170656C200D0A004E6976656C20C0
:102E8B0062616A6F20646520706170656C200D0A49
:102E9B0000496D707265736F7261206E6F20726581
:102EAB0073706F6E6465200D0A00496D7072696DE9
:092EBB0069656E646F200D0A00C8
:0848D70041019D0041019E001A
:0A64D1007F1B125D407F40025D401A
:10612B00900040EFF0A3EDF07F1B125D407F441217
:10613B005D40900040E0FF125D40900041E0FF02A7
:02614B005D40B5
:10639E007F1D125D407F50125D407FB4125D407FC5
:0463AE00B4025D4098
:1062A100EF24BD600B24F1600A24067009026462C8
:0762B10002647112648022F7
:0F6462007F1B125D407F61125D407F30025D4005
:0F6471007F1B125D407F61125D407F31025D40F5
:0F6480007F1B125D407F61125D407F32025D40E5
:1062B80090007EEFF07F1B125D407F4D125D409095
:0762C800007EE0FF025D40D3
:1062CF0090007EEFF07F1B125D407F33125D409098
:0762DF00007EE0FF025D40BC
:1062E60090007EEFF07F1B125D407F45125D40906F
:0762F600007EE0FF025D40A5
:1062FD0090004FEFF07F1D125D407F21125D4090A9
:07630D00004FE0FF025D40BC
:1063140090004FEFF07F1B125D407F64125D409050
:07632400004FE0FF025D40A5
:10632B00900040EFF07F1B125D407F4A125D409062
:07633B000040E0FF025D409D
:1063420090004FEFF07F1B125D407F20125D409066
:07635200004FE0FF025D4077
:1063590090004AEFF07F1D125D407F68125D40900A
:07636900004AE0FF025D4065
:1063700090004AEFF07F1D125D407F48125D409013
:07638000004AE0FF025D404E
:0F648F007F1D125D407F66125D407F30025D40D1
:0E574D0090004AEFF0A3EBF0A3EAF0A3E9F01E
:10575B007F1D125D407F6B125D4090004AE0FF128F
:10576B005D40E490004EF090004BE0FBA3E0FAA309
:10577B00E0F9A3E0F58275830012131EFF600B1294
:0F578B005D4090004EE004F080DDE4FF025D40E1
:105F47007F1D125D407F28125D407F6B125D407F91
:105F570004125D40E4FF125D407F31125D407F41D6
:0D5F6700125D407F32125D40E4FF025D409C
:106044007F1D125D407F28125D407F6B125D407F93
:1060540003125D40E4FF125D407F31125D407F45D5
:08606400125D407F31025D4036
:10606C007F1D125D407F28125D407F6B125D407F6B
:10607C0003125D40E4FF125D407F31125D407F43AF
:08608C00125D407F07025D4038
:0B53140090009FEBF0A3EAF0A3E9F08B
:10531F007F1D125D407F28125D407F6B125D4090B4
:10532F00009FE0FBA3E0FAA3E0F912000E9000A2A9
:10533F00EFF02403FF125D40E4FF125D407F311256
:10534F005D407F50125D407F30125D40E49000A3BE
:10535F00F09000A2E0FFA3E0FEC39F501F90009FBC
:10536F00E0FBA3E0FAA3E0F98E8275830012131E0F
:0C537F00FF125D409000A3E004F080D518
:01538B0022FF
:106094007F1D125D407F28125D407F6B125D407F43
:1060A40003125D40E4FF125D407F31125D407F5179
:0860B400125D407F30025D40E7
:0A64DB007F1B125D407F69025D40E7
:1063870090000EEFF07F10125D407F04125D409089
:07639700000EE0FF025D4073
:10238100125F4712604412606C78407C007D017BD3
:10239100FF7A2D792B1216B97B017A007990125EA2
:1023A100359000A27401F0A37400F0A37490F07B47
:1023B100017A0079401254E19000A274FFF0A374F5
:1023C1002DF0A37438F07B017A0079401254E1902A
:1023D10000A274FFF0A3742DF0A3743AF07B017A8C
:1023E1000079401254E17B017A007990122987909B
:1023F10000A27401F0A37400F0A37490F0A3E4F0C0
:10240100A37402F07B017A0079401242489000A245
:1024110074FFF0A3742DF0A37445F07B017A007969
:10242100401254E19000A27401F0A37400F0A3746F
:1024310092F0A3E4F0A37402F07B017A00794012D8
:1024410042489000A274FFF0A3742DF0A37445F0EC
:102451007B017A0079401254E19000A27401F0A34B
:102461007400F0A37494F0A3E4F0A37402F07B0170
:102471007A0079401242489000A274FFF0A3742DB3
:10248100F0A37447F07B017A0079401254E1900087
:10249100A27401F0A37400F0A37496F0A3E4F0A376
:1024A1007402F07B017A0079401242489000A274D4
:1024B100FFF0A3742DF0A37449F07B017A007940F9
:1024C1001254E19000A27401F0A37400F0A3749877
:1024D100F0A3E4F0A37402F07B017A007940124288
:1024E100489000A274FFF0A3742DF0A37438F07B20
:1024F100017A0079401254E190016BE09000A270E2
:102501000C74FFF0A3742DF0A3744B800A74FFF0D8
:10251100A3742DF0A3745CF07B017A00794012540E
:10252100E19000A274FFF0A3742DF0A37438F07B46
:10253100017A0079401254E19000A274FFF0A37473
:102541002DF0A3746CF07B017A0079401254E19074
:1025510000A27401F0A37401F0A3745AF07B017A14
:102561000079401254E19000A274FFF0A3742DF0A1
:10257100A37474F07B017A0079401254E17B017AF3
:0925810000794012531402609429
:103DF8001264D1E4FD7F3512612B12639E7F43125A
:103E080062A17F011262E67F011262FD7F011263E7
:103E1800427F0612632B7B017A00790E7F107E00A9
:103E28001255AE9000A57401F0A37400F0A3740EAF
:103E3800F07BFF7A2D79781217B87B017A00790E1A
:103E48007F407E001255AEE4FF1262E6E4FF126284
:103E5800FDE4FF1263429000A57401F0A37400F022
:103E6800A3740EF07BFF7A2D797B1217B87F43126B
:103E780062A17B017A00790E7F507E001255AE90C8
:103E880000A57401F0A37400F0A3740EF07BFF7A10
:103E98002D79781217B87F431262A17B017A0079D5
:103EA8000E7F807E001255AE9000A57401F0A374B9
:103EB80000F0A3740EF07BFF7A2D79781217B87F83
:103EC8000A1262CF7F431262A11223811232951225
:0E3ED80034EB7BFF7A2D79831217B80264DB7E
:103C10007F021262CF7F011263141256B01264D178
:103C2000E4FD7F3512612B12639E7F431262A17FF8
:103C3000011262E67F011262FD7F011263427F067C
:103C400012632B7B017A00790E7F107E001255AE35
:103C50009000A57401F0A37400F0A3740EF07BFF34
:103C60007A2D79781217B87B017A00790E7F407E21
:103C7000001255AEE4FF1262E6E4FF1262FDE4FFBB
:103C80001263429000A57401F0A37400F0A3740EB7
:103C9000F07BFF7A2D797B1217B87F431262A17BEC
:103CA000017A00790E7F507E001255AE9000A57407
:103CB00001F0A37400F0A3740EF07BFF7A2D7978E5
:103CC0001217B87F431262A17B017A00790E7F80C0
:103CD0007E001255AE9000A57401F0A37400F0A30D
:103CE000740EF07BFF7A2D79781217B87F0A126272
:103CF000CF1232951234EB1256B07BFF7A2D798AAF
:063D00001217B80264DB9B
:1056B0001264D17F431262A17F651263597F311258
:1056C000637012648F7F311262B87B017A00794077
:1056D000125E357B017A00794012000E74402FF57E
:1056E00082E43400F5837424F074412FF582E434AD
:1056F00000F583E4F07B017A0079407F0402574D86
:1034EB007F311262B87F0A1262CF7F4C1262A1E465
:1034FB00FF1262E67B017A0079407FB07E001255A5
:10350B00AE9000A57401F0A37400F0A37440F07B9F
:10351B00FF7A2D798F1217B87B017A0079407FF1F2
:10352B007E001255AE9000A57401F0A37400F0A3B9
:10353B007440F07BFF7A2D798F1217B87B017A00DC
:10354B0079407F327E011255AE9000A57401F0A335
:10355B007400F0A37440F07BFF7A2D798F1217B8AB
:10356B007B017A0079407F737E011255AE9000A5E6
:10357B007401F0A37400F0A37440F07BFF7A2D79F3
:10358B008F1217B87B017A0079407FB47E011255F8
:10359B00AE9000A57401F0A37400F0A37440F07B0F
:1035AB00FF7A2D798F1217B87B017A0079407FF55E
:1035BB007E011255AE9000A57401F0A37400F0A328
:1035CB007440F07BFF7A2D798F1217B87B017A004C
:1035DB0079407F367E021255AE9000A57401F0A3A0
:1035EB007400F0A37440F07BFF7A2D798F1217B81B
:0935FB007BFF7A2D79930217B8C9
:103295007F0A1262CF7F011262E67F011263147FFB
:1032A5004C1262A17BFF7A2D79971217B8E4FF12B1
:1032B50062E67B017A007940125E359000A57401C3
:1032C500F0A37400F0A37440F07BFF7A2D79A71268
:1032D50017B87B017A0079401229877F4C1262A1C9
:1032E5007F011262E67BFF7A2D79AB1217B8E4FFF6
:1032F5001262E67BFF7A2D79BB1217B8900040E089
:10330500FF125D40900041E0FF125D407F2D125D90
:1033150040900042E0FF125D40900043E0FF125DE7
:10332500407F2D125D40900044E0FF125D4090000B
:1033350045E0FF125D407F20125D40900046E0FFB2
:10334500125D40900047E0FF125D407F3A125D40FC
:10335500900048E0FF125D40900049E0FF125D409B
:103365007F0A125D407F011262E690016BE07BFFF0
:1033750070067A2D79BE80047A2D79D41217B87F1C
:10338500011262FD7F011263427F011262E67BFF3B
:103395007A2D79E91217B89000A57401F0A374018C
:1033A500F0A3745AF07BFF7A2D79A71217B8E4FFC2
:0D33B5001262FDE4FF126342E4FF0262E6D3
:10278D0090016DE014607714700302283314700308
:10279D000228B2147003022908240460030229815F
:1027AD00900163E064016003022986125472EF60A8
:1027BD003C7BFF7A2D79F8125D7E7FFE12258A9083
:1027CD00019DE0700B7FA012500090019D7401F0EF
:1027DD0012650C7BFF20910E7A2E7910125D7E9082
:1027ED00016D7401F0227A2E792202287B7BFF7A0B
:1027FD002E7937125D7EE490019DF00229707F45A0
:10280D00123D061264AD7F041263877FFE125000E5
:10281D0090016D7402F09001637446F0E4900178BC
:10282D00F090016FF022900163E064016009900166
:10283D0078E070030229867B007A00792290003CB3
:10284D007401F0FD1253FF900178E064017011F0F6
:10285D007BFF7A2E7952125D7E900163743780333F
:10286D00900178E06402700C7BFF7A2E7969125D1D
:10287D007E022970900178E064037BFF701D7A2E33
:10288D007985125D7E9001637437F0E4900178F0E4
:10289D0090016FF090016D7403F0227A2E799C12E5
:1028AD005D7E022970900163E064016006200903DA
:1028BD000229867F61122B5F7FA11250007FFA12D1
:1028CD00258A7BFF7A2E79B5125D7E900168E060D6
:1028DD0005123DF88003123C109001637405F0E47D
:1028ED00900178F090016FF090016D7404F0D29723
:1028FD00E4900164F0125D010261EA900163E0640D
:10290D0001707690019EE004F0E0D39412748094EF
:10291D0080504512650C30912912651330910D9040
:10292D00019EE0C3941274809480400DE490019E4A
:10293D00F090019DF0C297802A7FFA12258AC297E6
:10294D0080009001637405F0E4900178F090016FC0
:10295D00F090016D7404F022E490019EF090019DC1
:10296D00F0C2979001637405F0E4900178F0900146
:09297D006FF08001E490016DF09F
:01298600222E
:04653F00256C750052
:1064520090000AE412135D7D007C057FA8024F764E
:105FCA009000A574FFF0A37465F0A3743FF0A312C8
:105FDA0013CF7B017A0079121217B27B017A00790A
:0A5FEA00127D007C057FA8024F76AF
:106208007B017A0079A67F007E051255AE7B017A64
:0C6218000079A61237149000A20213CFE8
:105D010012620890000E1213CF90000EE0FCA3E087
:105D1100FDA3E0FEA3E0FFE4FAF9F8EF2401FFEAB6
:105D21003EFEE93DFDE83CFC90000E1213CF9000D1
:0F5D31000EE0FCA3E0FDA3E0FEA3E0FF025FCACB
:105DBC009000A27409F0E4A3F09000A3E0FFC39458
:105DCC000A7480948050259000A2E0C39FFFE49455
:105DDC0000FE8F82F58312131E6430700F8F828E3B
:0C5DEC008312135D9000A3E004F080CD52
:015DF8002288
:0B5E350090009FEBF0A3EAF0A3E9F05F
:105E40001262089000A574FFF0A37465F0A3743F7C
:105E5000F0A31213CF90009FE0FBA3E0FAA3E0F9B8
:105E60001217B290009FE0FBA3E0FAA3E0F9025DF5
:015E7000BC75
:0B4CA60090000EEBF0A3EAF0A3E9F091
:104CB100E4900012F0A3740CF0900166E0640170BE
:104CC10073900011F0900013E0FF900011E0C39F7A
:104CD1005053E4FFFEFD30801DED701A0FBF00013F
:104CE1000ED3EF9430EE947540EC7D01900013E00B
:104CF100900011F080E0ED6401602A12508890006C
:104D01000EE0FBA3E0FAA3E0F9EF12134B90000FC2
:104D1100E475F00112137F900012E004F09000118D
:104D2100E004F080A090000EE0FBA3E0FAA3E0F91C
:094D3100E412134B900012E0FFA4
:014D3A002256
:0B4A330090000EEBF0A3EAF0A3E9F006
:104A3E00E4FF7E0290000212131E6403701C9000AD
:104A4E000EE0FBA3E0FAA3E0F990000112131EB4EE
:104A5E005008D297E4900164F02290000EE0FBA380
:104A6E00E0FAA3E0F990000112131E643C70569018
:104A7E00000EE0FBA3E0FAA3E0F98E82758300122C
:104A8E00131EFD745A2FF582E43401F583EDF00EFA
:104A9E000F8E8275830012131E640370D290000E67
:104AAE00E0FBA3E0FAA3E0F98E82758300E4121313
:104ABE005D74592FF582E43401F583E4F0D2099048
:054ACE000163740AF011
:014AD30022C0
:053D060090000EEFF03B
:103D0B00E4A3F090001A7403F090017914F012639D
:103D1B00EA90017AEFF090000EE090017BF09001B9
:103D2B006BE090001A6013E0FF04F074792FF582BA
:103D3B00E43401F583744DF08011E0FF04F07479E5
:103D4B002FF582E43401F5837443F07B017A00791B
:103D5B0010125E357B017A00791012000E90000F65
:103D6B00E02410F582E43400F583E0FE90001AE0C5
:103D7B00FD04F074792DF582E43401F583EEF01F28
:103D8B0090000FE004F0EF70D490001AE0FF04F005
:103D9B0074792FF582E43401F583743AF090001AAC
:103DAB00E02479F9E43401FA7B0112298790001A97
:103DBB00E0FF2483F582E43401F583743AF07484D4
:103DCB002FF582E43401F5837403F07B017A0179DA
:103DDB0079EF240CFDE490003CF01253FF7B017A49
:0D3DEB0001797990001AE0240CFD025C02C1
:0E5C020090003FEBF0A3EAF0A3E9F0A3EDF071
:105C1000E4A3F0900042E0FFA3E0C39F5024900073
:105C20003FE0FBA3E0FAA3E0F9121305FF12579A35
:105C3000900040E475F00112137F900043E004F0FF
:025C400080D111
:015C4200223F
:0B40A50090001DEBF0A3EAF0A3E9F08F
:1040B00090003E7403F090002014F01263EA900028
:1040C00021EFF0A37453F090016BE090003E601379
:1040D000E0FF04F074202FF582E43400F583744D82
:1040E000F08011E0FF04F074202FF582E43400F535
:1040F000837443F090003E7404F090001DE0FBA335
:10410000E0FAA3E0F9121305FF602190003EE024DD
:1041100020F582E43400F583EFF090001EE475F0A2
:104120000112137F90003EE004F080CE90003EE04C
:10413000FF04F074202FF582E43400F583743AF024
:1041400090003EE02420F9E43400FA7B0112298734
:1041500090003EE0FF242AF582E43400F583743AAF
:10416000F0742B2FF582E43400F5837403F07B01A7
:0B4170007A007920EF240CFD025C02B5
:1061EA00E4FFEFC3940974809480500F745A2FF51A
:0D61FA0082E43401F583E4F00F80E7C20970
:016207002274
:100C0F00020EB7E86480F8E933E83360110460F04E
:100C1F00ED33EC337009E8FCE9FDEAFEEBFF22044B
:100C2F0060DED3EB9FEA9EE99DE8C2E78CF0C2F746
:100C3F0095F0400CE8CCF8E9CDF9EACEFAEBCFFB12
:100C4F00120E8285D0F05804700320D5B3E80470DB
:100C5F00075002B2D5020EC192D5EC0460F7E4CC76
:100C6F00C0E0C398F8603B94186008400DD0E0FBDB
:100C7F00020E99E4FBFAC9FC8028E830E406E4C9C7
:100C8F00FBE4CAFCE830E305E4C9CACBFCE854072F
:100C9F006010F8C3E913F9EA13FAEB13FBEC13FC3A
:100CAF00D8F130F52FC3E49CFCEF9BFFEE9AFEEDDD
:100CBF0099FDD0E0FBEF4E4D4C701222DB03020E7C
:100CCF00BEEC2CFCEF33FFEE33FEED33FDED30E7E2
:100CDF00EB020E99EF2BFFEE3AFEED39FDD0E0FB64
:100CEF0050130BBB0003020EC1ED13FDEE13FEEF0D
:080CFF0013FFEC13FC020E9937
:100D0700EC4D6011E8497017ED33EC3304600DE4E6
:100D1700FCFFFEFD22E933E8330470F8020EB71238
:100D27000E8258046009E4CC248150062850090239
:100D37000EC1284003020EBEC0E0EB4A7044B980E2
:100D470006D0E0FB020EADEF4E701CBD8008EBFF36
:100D5700EAFEE9FD80EBE98DF0A4FEE5F0020DF077
:100D6700E9CDF9EAFEEBFFEF89F0A4FCE5F0CE89C7
:100D7700F0A42EFFE435F0CD89F0A42DFEE435F084
:100D87008067EF4E7005BD80D780C3EF8BF0A4ACB2
:100D9700F0EE8BF0A42CFCE435F0F8EF8AF0A42CED
:100DA700E5F038FCE433CB8DF0A42CFCE5F03BF800
:100DB700EE8AF0A42CFCE5F038F8E433CF89F0A4F0
:100DC7002CFCE5F038CF3400CE89F0A42FFFE5F0F6
:100DD7003EFEE433C98DF0A42EFEE5F039CD8AF04E
:100DE700A42FFFE5F03EFEE43DFD33D0E0FB5007C6
:100DF7000BBB000F020EC1EC2CFCEF33FFEE33FEF2
:060E0700ED33FD020E991F
:100E0D0075F020800E75F010800575F0087D007E60
:100E1D00007F003392D530D503121395EC3340107B
:100E2D00EF33FFEE33FEED33FDEC33FCD5F0ED2269
:0E0E3D00E5F0247EA2D513CC92E7CDCEFF22A5
:100E4B00EDD2E7CD33EC3392D524814006E4FFFE9F
:100E5B00FDFC22FCE4CFCECDCC24E0501174FF80FE
:100E6B00EDC3CC13CCCD13CDCE13CECF13CF04709B
:070E7B00F030D5DE021395F3
:10174D00E50D24A5F582E43400F583E0050D229026
:10175D0000A23007039000A5E475F00112140C02ED
:10176D0013052000E97F2ED2008018EF540F24902E
:10177D00D43440D4FF30040BEF24BFB41A0050030F
:10178D002461FFE50E6002150E0511E511700205CD
:10179D001030070E9000A2E475F00112140CEF0248
:1017AD00134B025D407403D2078003E4C207F50DAD
:1017BD009000A2121423E4F50EF510F511E50E605C
:1017CD00077F2012179080F5750FFFC201C200C26E
:1017DD0002C203C205C206C20812175CFF700D30AB
:1017ED0007057F001217A1AF11AE1022B4255FC2FD
:1017FD00D5C20412175CFF24D0B40A00501A75F03C
:10180D000A780E30D50508B6FF0106C6A426F620C7
:10181D00D5047002D20380D924CFB41A00EF50043E
:10182D00C2E5D204021A93D20180C6D20080C0D282
:10183D000280BCD2D580BAD20580B47F2012179019
:10184D002002077401B50E0040F112174DFF12175B
:10185D00900217CAD208D206809512174DFB1217A7
:10186D004DFA12174DF94A4B700679917A1B7BFF91
:10187D0020022EE50E602A7E008E827583001213E3
:10188D001E60060EEE650F70F0C2D5EBC0E0EAC02B
:10189D00E0E9C0E0EE121AF4D0E0F9D0E0FAD0E0C1
:1018AD00FB121305FF60AAEBC0E0EAC0E0E9C0E05F
:1018BD00121790D0E02401F9D0E03400FAD0E0FB0B
:1018CD00E50F0460DCD50FD98087D20280A2121AF1
:1018DD00D660F7E50F700104120F70A90F600DE5CA
:1018ED000F600914F50F121B7EEF60F3EA30E7026B
:1018FD00F404C3995079EAF4250F0430E701E404A8
:10190D00F50F800D121AD660C1EA050F250F120FC3
:10191D0070EA9000D1F030E701E4250F04D50F04F3
:10192D0020050114121AF4E4C0E0121B7E9000D1C0
:10193D00E0601320E70714F0121778802204F0D02E
:10194D00E014C0E07F00121778E50F600712176FE3
:10195D00150F800B30050312176FD0E00217CAD098
:10196D00E00480C4121AD6609EE50F04120F709029
:10197D0000D1EAF0E50F2005026001042404121ADB
:01198D00F465
:10198E0074FF04C0E0121B7E121778E50F200502CB
:10199E00600312176FD0E0B50FE87F4512178290E3
:1019AE0000D1E07F2B30E7047F2DF404C0E0121746
:1019BE0090D0E075F00A84C0F0121779D0E01217BB
:1019CE00790217CA791080027908C206C208800807
:1019DE00D2D5790A8004790AC2D5E50F047002F5D2
:1019EE000FE4FAFDFEFF12174DFC7B0820011312C7
:1019FE00174DFD7B1030000A12174DFE12174DFFCA
:101A0E007B20EC3382D592D55013C3E43000069F71
:101A1E00FFE49EFEE42001039DFDE49CFCE4CBF874
:101A2E00C201EC700CCFCECDCCE824F8F870F38068
:101A3E0017C3EF33FFEE33FEED33FDEC33FCEB3328
:101A4E00FB994002FB0FD8E9EB300105F8D0E0C45A
:101A5E0048B201C0E00AEC4D4E4F78207B0070C2B8
:101A6E00EAB50F0040BCC0E0121AF6D0F0D0E0206C
:101A7E000104C4C0E0C4B201C0F0121779D0F0D591
:101A8E00F0EB0217CA12142C18675319D2581838D3
:101A9E004C18344219D64F19DE4419DE49184D43FD
:101AAE0019E45519114619714518DB471BB1501829
:101ABE003C2D18402E18632B1844231861201B9AB6
:101ACE002A17FC480000185BE50FB4FF03750F06DC
:101ADE0012174DFC12174DFD12174DFE12174DFF2A
:101AEE009000CA020FAD790AA2D520031430050961
:101AFE00B910020404B9080104A2D520060250014F
:101B0E00042002689202B50E005034C0E07F2030EF
:101B1E0003197F30A20272067205500F121B4DC2BE
:101B2E0002C206C205C2087F30800F300503E9C02D
:101B3E00E0121790300503D0E0F9D0E0B50ECC30AE
:101B4E0005177F30B9100C1217907F583004077F9D
:101B5E00788003B908031217903002057F2D021703
:101B6E00907F202008F87F2B2006F322920280CF50
:101B7E007F00B40700500B24CAF582E43400F583CD
:101B8E00E0FF22286E756C6C2900D20112174D30C1
:101B9E0001F8C201780E30D50108F60217FC2D505F
:101BAE0043495812174D2403B405004001E4901B1D
:101BBE00AC93121781743A121781D203750E040278
:021BCE0019D22A
:102EC4009000291213CFE4FFFE7D807C3F900029FF
:102ED400E0F8A3E0F9A3E0FAA3E0FB120EE6700623
:102EE40090002902301E900029E0FCA3E0FDA3E03D
:102EF400FEA3E0FF120ECCFBA3E0FCA3E0FDA3E0E5
:102F0400FEA3E0FF120ECCFFB40108E4FFFE7D80B7
:102F14007C3F22EF64046029EB64046024EBB40179
:102F240030E4FFFEFDFC90002DE0F8A3E0F9A3E0FF
:102F3400FAA3E0FB120EE660084006E4FFFEFDFC87
:102F44002290002D1213DBFFFFFFFF90002D0230B3
:102F54001EE4900031F0A3F0FFFEFDFC900029E098
:102F6400F8A3E0F9A3E0FAA3E0FB120EE6505F90A9
:102F7400002DE0FCA3E0FDA3E0FEA3E0FF120E4B56
:102F8400900031EEF0A3EFF0FDCCEECCEC120E127B
:102F9400C8ECC8C9EDC9CAEECACBEFCB90002DE08E
:102FA400FCA3E0FDA3E0FEA3E0FF120C12E4FBFA95
:102FB400F9F8120EE6708A900029E0FCA3E0FDA364
:102FC400E0FEA3E0FF120F5F9000291213CF9000E0
:102FD40029E0FCA3E0FDA3E0FEA3E0FF1233F6909A
:102FE400002DE0F8A3E0F9A3E0FAA3E0FB120D073B
:102FF400124BAC90002D1213CF900032E030E0174A
:1030040090002DE0FCA3E0FDA3E0FEA3E0FF120F7F
:103014005F90002D1213CF90002DE0FCA3E0FDA3E0
:06302400E0FEA3E0FF2224
:100E8200E9D2E7C933E833F892D5EDD2E7CD33ECB6
:070E920033FC5002B2D5222F
:100E9900EC30E7100FBF000C0EBE00080DBD0004BA
:100EA9000BEB6014A2D5EB13FCED92E7FD2274FF66
:100EB900FCFDFEFF22E480F8A2D574FF13FC7D80BF
:030EC900E480EFD3
:100ECC00ED33EC33601004700FED547F7005740239
:0A0EDC0092E0227404220422E422B2
:100EE60074F8CC6480CCC86480C8F58204604FC3B3
:100EF600EB9FF5F0EA9E42F0E99D42F0E89C45F052
:100F0600603C501DE5825FFFE582D313CB5BCBF4DB
:100F16002B5582FB50280ABA002409B90020088004
:100F26001DE5825BFBE582D313CF5FCFF4C3132F9E
:100F36005582FF50090EBE00050DBD00010CC3EB26
:100F46009FF5F0EA9E42F0E99D42F0E89C45F0608C
:090F560007CC4820E701B3EC22AE
:100F5F00ED33EC33600A047003BD8004ECB2E7FCA0
:010F6F00225F
:100F7000F920E73624F950037907E4F42402FBE56D
:100F800082158270021583DBF6E024FB501BE960BA
:100F900014E4F0E582158270021583E004F0B40ACF
:0D0FA00008E4F0D9EE7401F00A22C2D52257
:100FAD00ED33EC3392D5FA602AB4FF33EDC2E77B13
:100FBD00FF60067A0F79D2E4227A0F79DB20D5040F
:100FCD007A0F79D6224E614E002B494E46002D499F
:100FDD004E4600E47A08F0A3DAFC7B00740722C0C9
:100FED0083C082ECC0E0EDC0E0EEC0E0EFC0E0EA0F
:100FFD0075F010A4CAABF075F04DA42BFBE435F0E1
:10100D00FCEA2410FAEB34C5FBEC34D9FCEDC2E755
:10101D00FF75F056A4F42411C5F0F434C58FF0A477
:10102D002AE5F03BE43CF020E714121182D0E0FFFA
:10103D00D0E0FED0E0FDD0E0FC1210B58014F40439
:10104D00121182D0E0FFD0E0FED0E0FDD0E0FC1226
:10105D000D07D082D083E0FAEDD2E7CD33EC332407
:10106D0082FBE4C3CF33CFCE33CECD33CD33DBF3E1
:10107D007B0775F00A846004F0A31B0AE5F0F0A36A
:10108D008FF0740AA4FFACF08EF0740AA42CFEACA1
:10109D00F050010C8DF0740AA42CFDE435F0F0A392
:0510AD00DBDE740722E8
:104B740033DA929E35B16011377FE5FE392184899D
:104B84003AAEC3FF3C1D955B3D6358473E75FDF04F
:104B94003F3172183F800000C2D5020EC1020EB729
:104BA400BD80FA50F3020EBEED33EC330460F17BAA
:104BB4003B7AAA79B8783F120D07ED33EC3392D5DE
:104BC400247B5011A2D570DB500BED44802404509B
:104BD40004A2D580CEEFFBEEFAEDF9ECF8120E4B01
:104BE400EFF582F404FC120E17120C16C082904BDF
:104BF4007474091211D1ED33CC33D0F092D525F071
:0A4C0400A2D57001C313CC13FD22EA
:1033C2003E9248DA3ECCCCCD3F2AAAAB4000000068
:1033D2003F8000003F9837F03FB504F33FD744FCED
:1033E2003E3172173EB172173F0515913EDE5BD931
:1033F200D2008002C200EDD2E7F8CD33EC33047084
:103402000BBD800592D5020EC1020EB740FBD3144C
:1034120060F2F5F07C3FEE7A00C39496C8948B403C
:10342200230AC89469C8941A401A0AC89468C894AE
:103432001F40110AC8945AC89425400805F07A0022
