:10664800526563696265207472616D612070746F50
:10665800200D0A006C6F6E6769747564206465208C
:0D6668006C61207472616D613A200D0A00B2
:104DAD004101660A4101670041017300410168003C
:104DBD004101710041016F0041017C0049015D001D
:104DCD00000000000000000041017206410179035E
:064DDD00410178F2C1095A
:03000B0002698700
:10698700C0E0C083C082900166E014F0A3E004F089
:09699700C28DD082D083D0E03221
:106B6000E58954F04401F589E4F58CF58AD28C224C
:056C6300C28DD2A92240
:036C7100C2A92293
:0B6BE900126811EFF47002EEF460F58A
:016BF400227E
:056438009000D2EFF01E
:10643D009000D2E0FF126569EF3395E04F6024E4E0
:10644D009000D3F0A3F0C39000D4E094E89000D373
:10645D00E0940350DBA3E004F070EB9000D3E00474
:08646D00F080E39000D2E0FF93
:016475002204
:106B7000126C68126C25126BF5C283D287C2972201
:10566300E4FDFC7FA81265A490017AE4F0A3EFF0B7
:105673007D027C007FA81265A4900176E4F0A3EF7D
:10568300F07D047C007FA81265A4900174E4F0A36C
:10569300EFF07D067C007FA81265A490016DE4F015
:1056A300A3EFF07D087C007FA81265A490016AEF48
:1056B300F07D0A7C007FA81265A4900169EFF07D5C
:1056C3000C7C007FA81265A4900170EFF07D0E7C26
:1056D300007FA81265A490016CEFF07D0F7C007F22
:0A56E300A81265A490016BEFF022FD
:104CF200126B60126C631266CE12674A126B70D22C
:104D0200AF126C2C20910312285B1256639001663D
:104D12007405F020803F7B017A0079001253939052
:104D2200000DEFF0126C1C7B017A00790090000DEF
:104D3200E0FD1251207B017A00790090000DE0FD28
:104D420090003C7401F0125AF77B017A01795D12EE
:104D52006476126C1C122A9520B34A7B017A01797F
:104D6200351252FB90000DEFF07BFF7A6679481204
:104D720064767B017A01793590000DE0FD90003C6C
:104D82007401F0125AF77BFF7A66795C12647690AE
:104D9200000DE0FF1261E77B017A01793590000D89
:0B4DA200E0FD121CCB125A84024D15DC
:1069A0004C4956450A00477261626163696F6E2007
:0869B00053657269653A20008D
:0E1CCB0090000EEBF0A3EAF0A3E9F0A3EDF019
:101CD9006419704490000EE0FBA3E0FAA3E0F91246
:101CE90014006402703290000212141964487028BA
:101CF900900011E07E0024FFF582EE34FFF5831297
:101D090014196403701290000EA3A3E02403F9E4EC
:101D19003AFA12554802661390000EE0FBA3E0FA66
:101D2900A3E0F9121400640570057F05021F3E90B7
:101D3900000EE0FBA3E0FAA3E0F912140064B1700D
:101D4900057F60021F3E90000EE0FBA3E0FAA3E0CE
:101D5900F912140064B270057F5D021F3E90000EF7
:101D6900E0FBA3E0FAA3E0F912140064B370057F65
:101D790063021F3E900011E06401701790000EE0AD
:101D8900FBA3E0FAA3E0F912140064B470057F5EC6
:101D9900021F3E900011E06401701790000EE0FBF5
:101DA900A3E0FAA3E0F912140064B570057F62029A
:101DB9001F3E90000EE0FBA3E0FAA3E0F912140025
:101DC90064B67039900167E0C394147480948040BC
:101DD900167FB61225DBC282E4900167F0C297C272
:101DE90083900166740AF090016AE0600302203E64
:101DF900900169E06401600302203E807790001140
:101E0900E0FF6403702A90000EE0FBA3E0FAA3E070
:101E1900F990000112141964557015FE74FF2FF51D
:101E290082EE34FFF583121419640370030265DD31
:101E390090000EE0FBA3E0FAA3E0F912140064AAF3
:101E49007046900167E0C394147480948050030233
:101E5900203EE4F0C297D282C283900166740AF0F0
:101E690090016AE0600302203E900169E06401602C
:101E79000302203E90016A04F07BFF7A6979A0127F
:101E89006476E490016AF022900011E0FF64137017
:101E99003C90000EE0FBA3E0FAA3E0F990000112E8
:101EA900141964567027EF24FFFFE434FFFE8F8274
:101EB900F583121419640370148F828E83E412144B
:101EC90058E92402F9E43AFA7F5B021FDF90001116
:101ED900E0FF6413704390000EE0FBA3E0FAA3E077
:101EE900F912140064027031900001121419644F40
:101EF9007027EF24FFFFE434FFFE8F82F58312146D
:101F090019640370148F828E83E4121458E9240231
:101F1900F9E43AFA7F9B021FDF900011E064017037
:101F29001790000EE0FBA3E0FAA3E0F91214006495
:101F3900A170057FE70225DB900011E0FF640660D0
:101F490003021FE290000EE0FBA3E0FAA3E0F912FE
:101F5900140064026003021FE29000011214196464
:101F6900577076FE74FF2FF582EE34FFF583121455
:101F7900196403706490000EA3A39000021214194F
:101F8900FD7B017A007912125D559000157420F0DD
:101F990090000EE0FBA3E0FAA3E0F990000312140D
:101FA90019FD90000EA3A3900004121419900021AA
:101FB900F07B017A00791612203F900169E06401F3
:101FC9007B017A0079127F5C700C1232777B017A7F
:101FD900007912024786023277900011E0FF640C03
:101FE900705390000EE0FBA3E0FAA3E0F91214008D
:101FF90064027041FE74FF2FF582EE34FFF58312FF
:1020090014196403702F90000EA3A3E02401F9E4CE
:102019003AFA126B807BFF7A6979A612647690008E
:102029000EE0FBA3E0FAA3E0F9A3E0FD90003C7405
:0520390001F0125AF74E
:01203E00227F
:08000300D294126C77C2942222
:05637B009000A5EFF009
:10638000E4A3F0A3F09000A5E0FFA2E713F030D75C
:1063900004D2958002C2951200039000A7E004F099
:1063A00070069000A6E004F0C39000A7E094089067
:0963B00000A6E06480948040CC5A
:0163B90022C1
:0A542800EBF0A3EAF0A3E9F07F8D9A
:055432009000A2EFF064
:10543700D2967F037E00126AF49000A2E0FF126307
:105447007BE49000A3F0A3F09000A3E0FCA3E0FDB1
:10545700C39408EC64809480504F3095169001A354
:10546700E04480F0ED9406EC648094805005E0FF02
:10547700C313F02095209001A3E0547FF0D3900050
:10548700A4E094069000A3E0648094805008900103
:10549700A3E0FFC313F01200039000A4E004F07030
:1054A700A79000A3E004F0809FC2969001A3E0FFBD
:0154B70022D2
:10672200900020EFF0A3EDF0D2967F037E00126A74
:10673200F4900020E0FF12637B900021E0FF9000C4
:0867420020F012637BC29622D5
:1062B90090001EE475F00112147A90001EE475F046
:1062C9000112147A90001EE475F00112147A9000FC
:1062D9001DE0FBA3E0FAA3E0F9121400FF9000010E
:0462E900121419FD75
:0C62ED00EF540FC454F0FFED540F4FFFAE
:0162F9002282
:1055480090001DEBF0A3EAF0A3E9F01262D7AD07D3
:105558007F861267221262B9AD077F881267229090
:10556800001EE475F00112147A90001EE475F00133
:1055780012147A1262B9AD077F8C1267221262B9CF
:10558800AD077F841267221262B9AD077F82126766
:10559800221262B9AD077F8012672290001EE4755F
:1055A800F00112147A90001EE475F00112147A903A
:1055B800001EE475F00112147A90001DE0FBA3E0D0
:0F55C800FAA3E0F9121400540FFD7F8A02672244
:1068FA00AE07EEC4540F540FFE6012EF540FFFE4BC
:0D690A00FDEDC39E5007740A2FFF0D80F4B1
:01691700225D
:105D5500E4FFFE90001DEDF090001DE0C394647417
:105D65008094804007E0249CF00F80ECEF443012D3
:105D75001446740129F9E43AFA90001DE0C3940A27
:105D8500748094804007E024F6F00E80ECEE4430F9
:105D9500121446740129F9E43AFA90001DE04430E2
:035DA5000214469F
:0E203F0090001DEBF0A3EAF0A3E9F0A3EDF092
:10204D00E4900022F0A3F0900025F0A3F0A3F0A3FC
:10205D00F0900024EDF054F0F0E0FFC4540FF09038
:10206D00002D1214D6404000007F007E007D807C44
:10207D00411235D6C004C005C006C007900024E04B
:10208D00FCE4120F12D003D002D001D000120E02C8
:10209D00C004C005C006C007900022E0FCA3E0FD0F
:1020AD00E4120F0DD003D002D001D000120D111289
:1020BD000F46900022EEF0A3EFF0900020E090008C
:1020CD0024F0540FF090002D1214D6400000007F24
:1020DD00007E007D807C411235D6C004C005C0064F
:1020ED00C007900024E0FCE4120F12D003D002D000
:1020FD0001D000120E02C004C005C006C00790003A
:10210D0022E0FCA3E0FDE4120F0DD003D002D001BC
:10211D00D000120D11120F46900022EEF0A3EFF039
:10212D00900021E0900024F054F0F0E0FFC4540F33
:10213D00F090002D1214D63F8000007F007E007DB0
:10214D00807C411235D6C004C005C006C007900082
:10215D0024E0FCE4120F12D003D002D001D0001203
:10216D000E02C004C005C006C007900022E0FCA30B
:10217D00E0FDE4120F0DD003D002D001D000120DFE
:10218D0011120F46900022EEF0A3EFF0900021E027
:10219D00900024F0540FF090002D1214D600000082
:1021AD00007F007E007D807C411235D6C004C005C5
:1021BD00C006C007900024E0FCE4120F12D003D03B
:1021CD0002D001D000120E02C004C005C006C00727
:1021DD00900022E0FCA3E0FDE4120F0DD003D0022D
:1021ED00D001D000120D11120F46900022EEF0A377
:1021FD00EFF0C3EF9410EE9427401074F02FFF749E
:10220D00D83EFE900025E004F080E7900025E044E4
:10221D0030FD90001DE0FBA3E0FAA3E0F9ED1214F0
:10222D004690001EE475F00112147AC3EF94E8EEA7
:10223D009403401074182FFF74FC3EFE900026E0AE
:10224D0004F080E7900026E04430FD90001DE0FB97
:10225D00A3E0FAA3E0F9ED12144690001EE475F028
:10226D000112147AC3EF9464EE94004010749C2F05
:10227D00FF74FF3EFE900027E004F080E7900027FA
:10228D00E04430FD90001DE0FBA3E0FAA3E0F9ED82
:10229D0012144690001EE475F00112147AC3EF94E7
:1022AD000AEE9400401074F62FFF74FF3EFE90006E
:1022BD0028E004F080E7900028E04430FD90001DF8
:1022CD00E0FBA3E0FAA3E0F9ED12144690001EE442
:1022DD0075F00112147AEF4430FF90001DE0FBA35E
:1022ED00E0FAA3E0F9EF12144690001EE475F00138
:1022FD0012147A90001DE0FBA3E0FAA3E0F9E402CA
:02230D00144674
:032ED30090009FCD
:102ED600125428EF54F0C4540F4430FE90009FE083
:102EE600FBA3E0FAA3E0F9EE1214469000A0E47505
:102EF600F00112147AEF540F4430FF90009FE0FB6C
:102F0600A3E0FAA3E0F9EF1214469000A0E475F0EE
:102F16000112147A7F89125432EF54F0C4540F44CC
:102F260030FE90009FE0FBA3E0FAA3E0F9EE121456
:102F3600469000A0E475F00112147AEF540F443065
:102F4600FF90009FE0FBA3E0FAA3E0F9EF1214461E
:102F56009000A0E475F00112147A7F87125432EFC4
:102F660054F0C4540F4430FE90009FE0FBA3E0FAF7
:102F7600A3E0F9EE1214469000A0E475F0011214D5
:102F86007AEF540F4430FF90009FE0FBA3E0FAA3D2
:102F9600E0F9EF1214469000A0E475F00112147ADD
:102FA6007F85125432EF54F0C4540F4430FE900023
:102FB6009FE0FBA3E0FAA3E0F9EE1214469000A00E
:102FC600E475F00112147AEF540F4430FF90009F1D
:102FD600E0FBA3E0FAA3E0F9EF1214469000A0E4A8
:102FE60075F00112147A7F83125432EF54F0C454F0
:102FF6000F4430FE90009FE0FBA3E0FAA3E0F9EE59
:103006001214469000A0E475F00112147AEF540FE2
:103016004430FF90009FE0FBA3E0FAA3E0F9EF1233
:1030260014469000A0E475F00112147A7F811254C0
:1030360032EF54F0C4540F4430FE90009FE0FBA3DF
:10304600E0FAA3E0F9EE1214469000A0E475F00150
:1030560012147AEF540F4430FF90009FE0FBA3E078
:10306600FAA3E0F9EF1214469000A0E475F00112FD
:10307600147A7F8B125432EF540F4430FF90009F26
:10308600E0FBA3E0FAA3E0F9EF1214469000A0E4F7
:1030960075F00112147A90009FE0FBA3E0FAA3E01A
:0530A600F9E4021446EC
:10507A009000381254281268FA900038E0FBA3E036
:10508A00FAA3E0F9EF121446900039E475F0011220
:10509A00147A7F891254321268FA900038E0FBA31E
:1050AA00E0FAA3E0F9EF121446900039E475F00132
:1050BA0012147A7F871254321268FA900038E0FB91
:1050CA00A3E0FAA3E0F9EF121446900039E475F070
:1050DA000112147A7F851254321268FA900038E06D
:1050EA00FBA3E0FAA3E0F9EF121446900039E47545
:1050FA00F00112147A7F831254321268FA9000383F
:10510A00E0FBA3E0FAA3E0F9EF121446900039E4B9
:06511A0075F00102147A99
:104AB40090002A12542890002AE0FBA3E0FAA3E015
:104AC400F9EF12144690002BE475F00112147A7F6A
:104AD4008912543290002AE0FBA3E0FAA3E0F9EF34
:104AE40012144690002BE475F00112147A7F871299
:104AF400543290002AE0FBA3E0FAA3E0F9EF121489
:104B04004690002BE475F00112147A7F851254321A
:104B140090002AE0FBA3E0FAA3E0F9EF1214469018
:104B2400002BE475F00112147A7F83125432900042
:104B34002AE0FBA3E0FAA3E0F9EF12144690002B5D
:104B4400E475F00112147A7F8112543290002AE045
:104B5400FBA3E0FAA3E0F9EF12144690002BE475EE
:104B6400F00112147A90002AE0FBA3E0FAA3E0F922
:044B7400E4021446FD
:076C2500C294C296D2952231
:106AF400E4FDFCC3ED9FEC9E50070DBD00010C802E
:016B0400F29E
:016B0500226D
:04695200AB07AA06DF
:10695600900000C3E5829BE5839A500A7F967E00ED
:06696600126AF4A380EDAB
:01696C002208
:016C770022FA
:03687B0012683769
:10687E00D20AD293D292E4FFFE209205C20AC293AC
:0C688E00220FBF00010EBE04F0BF4CED55
:01689A0022DB
:03689B0012683749
:10689E00D293D292D20AE4FFFE209205C20AC2938C
:0C68AE00220FBF00010EBE02F0BF8AEDF9
:0168BA0022BB
:066C5D00D29300C2932255
:10683700E4FEEEC39408748094805015EF25E0FFC2
:1068470030D704D2928002C292D293126C5D0E802E
:01685700E15F
:01685800221D
:086B0600ECFD7C00C293C29279
:0A6B0E00D292D29300C292C29322E9
:096C1300C293C292D293D29222E4
:105DF800E4FBEBFDC39408748094805038C2933060
:105E0800921690019CE04401F0ED94067480948011
:105E18005006E025E0F0D29320921790019CE054C0
:105E2800FEF0EBD39406748094805006E025E0F0F1
:0C5E3800D2930B80BDC29390019CE0FF50
:015E4400223B
:0263BA00AA0730
:1063BC00AF05A907126B06AF0212687BAF05126816
:1063CC007BAF0112683712687EAF03126837126810
:1063DC007E126C137F0D7E00126952D293D2927F83
:0D63EC00627E00126AF47F627E00026AF495
:0265A400AB0743
:1065A600AF05AA07126B06AF0312689BAF05126808
:1065B6009BAF0212683712689E126B0EEB04FF1235
:1065C600683712687EC293125DF8126C13D293D2AA
:0665D6009290019CE0FF21
:0165DC00229C
:105CA6009000B0EEF0A3EFF0A3EBF0A3EAF0A3E9C7
:015CB600F0FD
:105CB7009000B0E0FCA3E0FD7FA81265A49000B2BD
:105CC700E0FBA3E0FAA3E0F9EF1214469000B2E07C
:105CD700FBA3E0FAA3E0F9121400FF9000B1E0047F
:105CE700F070069000B0E004F09000B3E475F001A6
:065CF70012147AEF70BAEE
:015CFD002284
:1056ED0090007DEFF0A3ECF0A3EDF0A3EBF0A3EAB7
:1056FD00F0A3E9F0900080E0FBA3E0FAA3E0F9123B
:10570D001400603CB40D04E412144690007DE0FFDB
:10571D00A3E0FCA3E0FDA3E0FBA3E0FAA3E0F912F4
:10572D001400FB1263BA90007FE004F07006900045
:10573D007EE004F0900081E475F00112147A80B4DB
:10574D00900080E0FBA3E0FAA3E0F9E41214469088
:10575D00007DE0FFA3E0FCA3E0FDA3E0FBA3E0FAE6
:0A576D00A3E0F9121400FB0263BA76
:1065DD0090001D74FFF0E4A3F0A3F090001EE0FC0A
:1065ED00A3E0FDC39450EC9403501A90001DE0FB02
:1065FD007FA81263BA90001FE004F070DE90001EB9
:05660D00E004F080D65E
:016612002265
:1051C10053656E736F726573204175746F2079201A
:1051D10073656E736F72312061637469766F732EBC
:1051E1000053656E736F722061637469766F20730B
:1051F100656E736F7231202E00446574656374614E
:10520100646F2E2053656E736F72204175746F2E1B
:105211000053656E736F726573206E6F20646574E1
:1052210065637461646F73005665686963756C6F5B
:10523100204573706572616E646F2053616C697291
:105241002E005665686963756C6F2053616C6965E2
:105251006E646F2E20556E206D6F6D656E746F00DC
:076C2C00C2B5C2B6C2B722D7
:076C3300C2B5D2B6C2B722C0
:076C3A00D2B5D2B6C2B722A9
:076C4100C2B5C2B6D2B722B2
:076C4800D2B5C2B6D2B7229B
:076C4F00C2B5D2B6D2B72294
:076C5600D2B5D2B6D2B7227D
:1068DB00E4FF7D2C7C01309115EFFB3395E04B7081
:0E68EB000DED1D70011CED4C70EC7F0180E87E
:0168F900227C
:106B18007F31126C4F3091010F126C563091020F79
:016B28000F5D
:016B29002249
:105B6A00126C4130915D1268DBEF3395E0FEEF6411
:105B7A00014E7047126C48209123126C337BFF2030
:105B8A00910D7A5179C1126476E490016F80227A7C
:105B9A005179E212647690016F74018014126C33A9
:105BAA007BFF2091107A5179FA12647690016F7412
:105BBA0001F07FFF227A527912800E7BFF7A5279A6
:0F5BCA002980067BFF7A5279431264767F00228E
:105A8400126C2C20916190000EE07014A3E0701051
:105A940030B35404F01266A290000E7401F08047F3
:105AA40090000EE064017014A3E0701030B3380469
:105AB400F0123BE990000E7402F0802B90000EE08F
:105AC40064027023A3E0701F30B31C04F07D667C75
:105AD400007FA81265A4BF53047F5380027F4E1237
:105AE4005777E490000EF0126C2C309105E490008E
:025AF4000FF0B1
:015AF600228D
:10230F004552524F523A2056414C4944414E444F48
:10231F0020504C4143412E2E2E20004552524F52F9
:10232F003A204C4F4F50312053494E205052455375
:10233F00454E434941205645484943554C4152204B
:10234F00004552524F523A205441524A455441206F
:10235F00494E56414C49444120005441524A45543C
:10236F0041204E4F2045532044454C20504152515F
:10237F002E20005441524A4554412053494E204685
:10238F004F524D41544F20005441524A4554412021
:10239F004E4F205245474953545241205041474FC9
:1023AF002000455843454445205449454D504F2042
:1023BF00444520475241434941200046554552412B
:1023CF00204445204C494E454120004249454E5638
:1023DF00454E49444F2050554C534520454C2042C3
:1023EF004F544F4E20004552524F523A2053494EB0
:1023FF0020494E475245534F20005449434B4554B3
:10240F00204E6F2E00613B30333B4249454E5645BF
:10241F004E49444F0A0D0000613B30373BA1204D20
:10242F00454E5355414C494441442056454E43492E
:10243F00444120210A0D0000613B39343B4D454E8C
:10244F005355414C494441442045585049524F0A35
:10245F000D0000613B39353B4D454E5355414C49BD
:10246F004441442045584345444520484F5241522A
:10247F00494F204143455251554553452041204333
:10248F00414A410A0D0000613B39373B4D454E53E0
:10249F0055414C204E4F205041474F204C4F434108
:1024AF0043494F4E20484F590A0D0000613B3933C5
:1024BF003B4D454E5355414C2059412045535441B6
:1024CF0020454E20504152515545414445524F0AE7
:1024DF000D0000613B30363B4D454E5355414C206E
:1024EF00465545524120444520484F524152494F8D
:1024FF000A0D0000613B39363B4E4F204553204DAE
:10250F00454E5355414C49444144204E4920505269
:10251F00455041474F0A0D0000613B39323B4C4F4C
:10252F00544520415349474E41444F204553544150
:10253F00204C4C454E4F0A0D000057494547414E20
:10254F00442000613B39323B57494547414E4420B7
:10255F00000A004441544F2057494547414E44001B
:10256F000D0A00613B39313B4752414349415320EA
:10257F00000A0000613B30333B4249454E56454E01
:10258F0049444F2000AA80280720000000000014B3
:10259F000000AA8018010200AA8018020200AA8077
:1025AF001801020000000000000000000000000001
:1025BF00000000000000000000000000000000000C
:0C25CF0000000000000000000000000000
:0967EA00900052E025E0FFE4FDFF
:0567F300900059EDF0DB
:1067F80012643890005AEFF0900059E0600AE4FF04
:0868080012643890005AEFF011
:016810002265
:0E64F100900053EBF0A3EAF0A3E9F0A3EDF066
:1064FF00E4A3F0900053E0FBA3E0FAA3E0F99000CF
:10650F0057E0F582758300121419FF601090005642
:0D651F00E0FD1267F3900057E004F080D615
:01652C00224C
:0E622E00900053EBF0A3EAF0A3E9F0A3EDF02B
:10623C00E4900058F0900056E0FF900058E0FEC348
:10624C009F5024900053E0FBA3E0FAA3E0F98E8268
:10625C00758300121419FF900057E0FD1267F3903C
:07626C000058E004F080CEB1
:016273002208
:10661300781D7C007D017BFF7A2579947E007F0DB8
:106623001213DAC2877B017A007922124AB4C29C20
:106633007B017A00791DE4900057F07D0D12622EE4
:04664300D29CD2878C
:016647002230
:06598C007B017A0079277F
:0B599200900053EBF0A3EAF0A3E9F053
:10599D0012000E900057EFF0E4900056F090005773
:1059AD00E0FF900056E0C39F503DE4900058F0900A
:1059BD000058E0C39464748094805005E004F08036
:1059CD00EE900053E0FBA3E0FAA3E0F9A3E0F5822B
:1059DD00758300121419FF126438900058EFF0907F
:1059ED000056E004F080B6E4900058F0900058E0C6
:0E59FD00C39464748094805005E004F080EE42
:015A0B002278
:0525DB0090001DEFF06F
:1025E00078467C007D017BFF7A2579A17E007F06FD
:1025F0001213DA784C7C007D017BFF7A2579A77E67
:10260000007F061213DAC28790016BE06003022795
:10261000E77B017A007946FD1264F190001DE0121B
:1026200015272647502726B626C7DF2667E02687C8
:10263000E126A7E52764E626E7E72707E82788FAE3
:102640002745FE000027E37BFF7A23790F12000E57
:10265000900052EFF0E4FDFF1267F31267EA7BFF90
:102660007A23790F0227817BFF7A23792A12000EC1
:10267000900052EFF0E4FDFF1267F31267EA7BFF70
:102680007A23792A0227817BFF7A23795012000E60
:10269000900052EFF0E4FDFF1267F31267EA7BFF50
:1026A0007A2379500227817BFF7A23796912000E01
:1026B000900052EFF0E4FDFF1267F31267EA7BFF30
:1026C0007A2379690227817BFF7A23798212000EAF
:1026D000900052EFF0E4FDFF1267F31267EA7BFF10
:1026E0007A2379820227817BFF7A23799712000E61
:1026F000900052EFF0E4FDFF1267F31267EA7BFFF0
:102700007A2379970227817BFF7A2379B112000E11
:10271000900052EFF0E4FDFF1267F31267EA7BFFCF
:102720007A2379B1805B7BFF7A2379CA12000E90FD
:102730000052EFF0E4FDFF1267F31267EA7BFF7AC5
:102740002379CA803C7BFF7A2379DA12000E90004D
:1027500052EFF0E4FDFF1267F31267EA7BFF7A2382
:1027600079DA801D7BFF7A2379F512000E900052F2
:10277000EFF0E4FDFF1267F31267EA7BFF7A23793B
:10278000F57D011264F1805B7B017A00791E126590
:102790002D782D7C007D017BFF7A2479091217B4F6
:1027A0009000A27401F0A37400F0A3741EF07B01EA
:1027B0007A00792D125BD97B017A00792D12000EF7
:1027C000EF04900052F0E4FDFF1267F31267EA7B1A
:1027D000017A00792D900052E0FD9000577401F0CD
:1027E00012622ED2878071C28790001DE0121527D9
:1027F000284F05281F5E28275F284760282F61285B
:102800003F622837632817B4280FFE000028587B42
:10281000FF7A247914803E7BFF7A24792780367BE7
:10282000FF7A247947802E7BFF7A24796280267B89
:10283000FF7A247996801E7BFF7A2479BB80167BF1
:10284000FF7A2479E2800E7BFF7A25790380067B6C
:0A285000FF7A257928125992D287E9
:01285A00225B
:0E32770090001DEFF0A3EBF0A3EAF0A3E9F046
:1032850078217C007D017BFF7A2579AD7E007F0664
:103295001213DA78277C007D017BFF7A2579B37ECE
:1032A500007F281213DAC28790016BE070629000EC
:1032B5001DE0245070557B017A007921E4FD1264EC
:1032C500F17BFF7A25794912000E90004FEFF090BF
:1032D500001EE0FBA3E0FAA3E0F912000E90004FF8
:1032E500E02F04F0E4FDFF1267F390004F1267ED45
:1032F5007BFF7A2579497D011264F190001EE0FB80
:10330500A3E0FAA3E0F97D011264F1D28702342E1D
:10331500C28790001DE0246570030233EE249C6093
:103325006C24A3600302342E78277C007D017BFF8B
:103335007A2579521217B490001EE0F9A3E0FAA39A
:10334500E09000A2C9F0A3EAF0A3E9F07B017A00BE
:103355007927125BD99000A274FFF0A37425F0A31E
:103365007460F07B017A007927125BD912598C7B46
:10337500FF7A2579621264767B017A0079271264D7
:10338500767BFF7A25796F12647602342E78277C56
:10339500007D017BFF7A2579721217B490001EE03B
:1033A500FBA3E0FAA3E0F912000E90004FEFF02422
:1033B500FFFFE434FFFE90001EE0FBA3E0FAA3E06C
:1033C500F98F828E83E412145890001EE0F9A3E071
:1033D500FAA3E09000A2C9F0A3EAF0A3E9F07B010B
:1033E5007A007927125BD9802678277C007D017BBE
:1033F500FF7A2579831217B412598C78277C007DC2
:103405000190001EE0FBA3E0FAA3E0F91217B490C7
:1034150000A274FFF0A37425F0A37480F07B017AF9
:0B342500007927125BD912598CD28766
:013430002279
:100026000D0A0A25733E20002563002564000D0A8B
:100036000A2041435455414C2049445F434C4945AD
:100046004E54453D25730D0A0A000D0A0A204449FF
:1000560047495445205355204E5545564F2049444F
:100066005F434C49454E54453D000D0A0A20444124
:10007600544F204D4F444946494341444F2049443B
:100086005F434C49454E54453D25730D0A0A000D04
:100096000A0A2041435455414C20434F445F504186
:1000A600524B3D25730D0A0A000D0A0A20444947A2
:1000B600495445205355204E5545564F20434F44ED
:1000C6005F5041524B3D000D0A0A204441544F20D7
:1000D6004D4F444946494341444F20434F445F50A6
:1000E60041524B3D25730D0A0A000D0A0A20414371
:1000F6005455414C205449454D504F5F475241435A
:1001060049413D25730D0A0A000D0A0A2044494754
:10011600495445205355204E5545564F2054494580
:100126004D504F5F4752414349413D000D0A0A2059
:100136004441544F204D4F444946494341444F2082
:100146005449454D504F5F4752414349413D257300
:100156000D0A0A000D0A0A2041435455414C20530A
:10016600494E5F434F42524F20494E484142494C07
:10017600495441444F3D25730D0A0A000D0A0A20D1
:1001860041435455414C2053494E5F434F42524FD1
:10019600204752415449533D25730D0A0A000D0A62
:1001A6000A2041435455414C2053494E5F434F4228
:1001B600524F2047524154495320592053414C49EC
:1001C600444120454C204D49534D4F204449413D23
:1001D60025730D0A0A000D0A0A2044494749544569
:1001E600205355204E5545564F2053494E5F434F99
:1001F60042524F3D000D0A0A2041435455414C20BE
:10020600444542554720494E484142494C4954418C
:10021600444F3D25730D0A0A000D0A0A2041435436
:1002260055414C20444542554720484142494C4996
:100236005441444F3D25730D0A0A000D0A0A204415
:10024600494749544520454C204E5545564F204573
:10025600535441444F2044452044454255473D00B0
:100266000D0A0A2041435455414C205553455F4CD5
:10027600505220494E484142494C495441444F3D11
:1002860025730D0A0A000D0A0A2041435455414CB4
:10029600205553455F4C505220484142494C4954E1
:1002A60041444F3D25730D0A0A000D0A0A204449B0
:1002B6004749544520454C204E5545564F204553F9
:1002C6005441444F204445205553455F4C50523DC0
:1002D600000D0A0A2041435455414C20434F4D50CE
:1002E60041524143494F4E204143544956412049CA
:1002F6004E484142494C495441444F3D25730D0AED
:100306000A000D0A0A2041435455414C20434F4DE3
:100316005041524143494F4E204143544956412092
:1003260020484142494C495441444F3D25730D0AEA
:100336000A000D0A0A2044494749544520454C20E5
:100346004E5545564F2045535441444F2044452071
:10035600434F4D5041524143494F4E20414354492A
:100366005641203D000D0A0A2041435455414C2078
:10037600434F4D5041524143494F4E20414354490A
:1003860056412020494E484142494C495441444F28
:100396003D25730D0A0A000D0A0A204143545541B2
:1003A6004C20434F4449474F204445204241525236
:1003B6004153204143544956303D25730D0A0A00E6
:1003C6000D0A0A2041435455414C20434F444947A6
:1003D6004F2051522041435449564F3D25730D0A33
:1003E6000A000D0A0A2044494749544520454C2035
:1003F6004E5545564F2045535441444F20444520C1
:10040600434F4449474F205152204F20434F4449C0
:10041600474F204445204241525241533D000D0A68
:100426000A2050414E54414C4C41204C43442048F4
:100436004142494C49544144413D25730D0A0A0045
:100446000D0A0A2050414E54414C4C412052415312
:100456005042455252592020484142494C49544144
:1004660044413D25730D0A0A000D0A0A20444947F6
:1004760049544520454C204E5545564F204553542A
:1004860041444F204445204C412050414E54414C5C
:100496004C41203D000D0A0A2050414E54414C4C1F
:1004A60041204C4344204143544956413D25730D58
:1004B6000A0A000D0A0A2050414E54414C4C412074
:1004C6005241535042455252592041435449564194
:1004D600203D25730D0A0A000D0A0A204469676942
:1004E600746520656C206E6F6D6272652064656C44
:1004F60020636C69656E746520000D0A0A207465B8
:1005060078746F206772616261646F3D25730D0AAE
:100516000A000D0A0A2044696769746520656C2023
:100526006E756D65726F206465204E697420000DCE
:100536000A0A204E49543A2025730D0A0A000D0A6C
:100546000A2044696769746520656C204E6F6D6288
:1005560072652064656C20506172717565616465B1
:10056600726F20000D0A0A204E6F6D6272653A2086
:1005760025730D0A0A000D0A0A2044696769746525
:10058600206C6120646972656363696F6E206465BF
:100596006C2065737461626C6563696D69656E7400
:1005A6006F20000D0A0A20446972656363696F6EE5
:1005B6003A2025730D0A0A000D0A0A204469676964
:1005C600746520656C206D736A312064656C2065E6
:1005D600737461626C6563696D69656E746F200022
:1005E6000D0A0A206D736A313A2025730D0A0A0036
:1005F6000D0A0A2044696769746520656C206D736D
:100606006A322064656C2065737461626C65636927
:100616006D69656E746F20000D0A0A20446967696A
:10062600746520656C206D736A332064656C206583
:10063600737461626C6563696D69656E746F2000C1
:100646000D0A0A206D736A333A2025730D0A0A00D3
:100656000D0A0A2044696769746520656C206D730C
:100666006A342064656C2065737461626C656369C5
:100676006D69656E746F20000D0A0A206D736A3409
:100686003A2025730D0A0A000D0A0A204469676993
:10069600746520656C206D736A352064656C206511
:1006A600737461626C6563696D69656E746F200051
:1006B6000D0A0A206D736A353A2025730D0A0A0061
:1006C6000D0A0A2044696769746520656C206D739C
:1006D6006A362064656C2065737461626C65636953
:1006E6006D69656E746F20000D0A0A206D736A3697
:1006F6003A2025730D0A0A000D0A0A204469676923
:10070600746520656C206D736A372064656C20659E
:10071600737461626C6563696D69656E746F2000E0
:100726000D0A0A206D736A373A2025730D0A0A00EE
:100736000D0A2049445F434C49454E54452020202C
:10074600202D2D2D20636D642030204964656E7444
:100756006966696361646F722064656C20636C69A5
:10076600656E7465206D6178696D6F203235350070
:100776000D0A20434F445F5041524B202020202039
:10078600202D2D2D20636D64203120456C206E7543
:100796006D65726F2064656C20706172717565613C
:1007A6006465726F206D6178696D6F203235350032
:1007B6000D0A20545F475241434941202020202002
:1007C600202D2D2D20636D642032205469656D70B7
:1007D6006F2073696E20636F62726F2030302C2039
:1007E600206D6178696D6F20323535000D0A205312
:1007F600494E5F434F42524F20202020202D2D2D61
:1008060020636D64203320496E686162696C697487
:1008160061646F3D20302C204772617469733D20FE
:1008260031202C2047726174697320792073616CC2
:1008360069646120656C206D69736D6F2064696100
:100846003D2032000D0A20444542554720202020F5
:1008560020202020202D2D2D20636D64203420485B
:100866006162696C69746172203D20312C20496E89
:10087600686162696C69746172203D2030000D0AFE
:10088600205553455F4C5052202020202020202DFB
:100896002D2D20636D642035486162696C69746131
:1008A60072203D20312C20496E686162696C697442
:1008B6006172203D2030000D0A20434F4D504152B9
:1008C6004143494F4E5F414354495641202D2D2DFA
:1008D600636D64203620486162696C6974617220B8
:1008E6003D20312C20496E686162696C69746172C1
:1008F600203D2030000D0A2051525F434F445F4295
:100906004152524153202D2D2D636D6420372048CE
:100916006162696C69746172205152203D20312CEC
:1009260020486162696C6974617220434F445F427A
:100936004152524153203D2030000D0A2054495067
:100946004F5F50414E54414C4C41202D2D2D20439C
:100956004D4420382050414E54414C4C41204C438C
:1009660044203D302050414E54414C4C4120524190
:10097600535042455252493D31000D0A20434C49DD
:10098600454E5445202020202020202D2D2D636DFE
:10099600642039204E6F6D6272652064656C206339
:1009A6006C69656E7465000D0A204E49542020203E
:1009B60020202020202020202D2D2D20636D642036
:1009C6003130204E756D65726F2064656C206E69DE
:1009D60074000D0A204E4F4D5F5041525120202089
:1009E6002020202D2D2D20636D64203131204E6F67
:1009F6006D6272652064656C2070617271756561E7
:100A06006465726F000D0A20444952454343494FBD
:100A16004E20202020202D2D2D20636D6420313284
:100A2600204E6F6D6272652064656C207061727114
:100A36007565616465726F000D0A204D534A5F311A
:100A46002020202020202020202D2D2D20636D64A5
:100A5600203133206D736A20646520696E666F727B
:100A66006D6163696F6E2064656C2070617271756B
:100A760065616465726F000D0A204D534A5F32202E
:100A860020202020202020202D2D2D20636D642065
:100A96003134206D736A20646520696E666F726DED
:100AA6006163696F6E2064656C2070617271756533
:100AB600616465726F000D0A204D534A5F33202032
:100AC600202020202020202D2D2D20636D64203114
:100AD60035206D736A20646520696E666F726D617C
:100AE60063696F6E2064656C2070617271756561F3
:100AF6006465726F000D0A204D534A5F3420202032
:100B06002020202020202D2D2D20636D64203136BD
:100B1600206D736A20646520696E666F726D61630D
:100B2600696F6E2064656C207061727175656164B1
:100B360065726F000D0A204D534A5F352020202034
:100B460020202020202D2D2D20636D64203137207C
:100B56006D736A20646520696E666F726D61636984
:100B66006F6E2064656C2070617271756561646575
:100B7600726F000D0A204D534A5F36202020202038
:100B8600202020202D2D2D20636D64203138206DEE
:100B9600736A20646520696E666F726D6163696F42
:100BA6006E2064656C207061727175656164657232
:100BB6006F000D0A204D534A5F3720202020202049
:100BC6002020202D2D2D20636D64203139206D735A
:100BD6006A20646520696E666F726D6163696F6E07
:100BE6002064656C20706172717565616465726FF1
:100BF600000D0A2041595544412020202020202064
:100C060020202D2D2D20636D64203230204D7565FA
:100C160073747261206C6F7320636F6D616E646FA5
:100C260073000D0A2053414C4952202020202020D9
:100C36002020202D2D2D20636D642032312053611C
:100C46006C69722064652070726F6772616D616392
:100C5600696F6E000D0A0A53697374656D612064CD
:100C6600652050726F6772616D6163696F6E2056A1
:100C760065726966696361646F720D0A0D0A000D1B
:100C86000A0A2F3E5573756172696F3A000D0A0A9A
:100C9600206461746F732064656C20627566666596
:100CA600722072782025730D0A0A000D0A0A206444
:100CB60061746F732064656C206275666665722068
:100CC60074782025730D0A0A000D0A0A2F3E50611A
:100CD6007373776F72643A00313233343536000DF0
:100CE6000A436F6D616E646F206E6F20657869735D
:100CF6007465202725732700200D0A00200D0A00A1
:040D0600220D0A00B0
:104DE3005400DF2F0000000000000000000000005E
:104DF300000000000000004900D661646D696E0088
:104E0300000000604200F330000031000032000077
:104E1300330000340000350000360000370000384E
:104E230000003900003130003131003132003133BC
:104E3300003134003135003136003137003138006C
:094E430031390032300032310037
:0B5C440090003FEBF0A3EAF0A3E9F0B2
:105C4F00E4900045F0900045E0FFC39416748094F3
:105C5F00805041EF75F003A424F3F9740035F0FA86
:105C6F007B0178427C007D011217B478427C007D65
:105C7F000190003FE0FBA3E0FAA3E0F91216CBEF8F
:105C8F003395E04F7006900045E0FF22900045E00D
:065C9F0004F080B17FFF5C
:015CA50022DC
:0B62740090000EE0FBA3E0FAA3E0F9AD
:0B627F0090003FEBF0A3EAF0A3E9F071
:10628A0078427C007D017B017A0079D61217B478B6
:10629A00427C007D0190003FE0FBA3E0FAA3E0F915
:0E62AA001216CBEF3395E04F7002FF227FFFFC
:0162B80022C3
:06633B007B017A00792BC2
:0B63410090003FEBF0A3EAF0A3E9F0AE
:10634C0078427C007D017BFF7A0C79FE7E007F0415
:10635C001213DA90004D7401F0A37400F0A3744290
:0F636C00F090003FE0FBA3E0FAA3E0F90245C781
:1054B800E0FBA3E0FAA3E02FF9EA3EFAE92401F9B8
:0354C800E43AFAC9
:0B54CB0090003FEBF0A3EAF0A3E9F033
:1054D60078427C007D017BFF7A0D79027E007F0495
:1054E6001213DA78467C007D017BFF7A0D79067E01
:1054F600007F041213DA90003FE0FBA3E0FAA3E07A
:10550600F9121400FFB4200C900040E475F001126B
:10551600147A80E2EF90004DB4220D7401F0A3746A
:1055260000F0A37446F080167401F0A37400F0A393
:105536007442F090003FE0FBA3E0FAA3E0F91245C5
:01554600C79D
:015547002241
:1069B8009000A57401F0A37400F0A374DFF07BFFCE
:0769C8007A0079260218B3E2
:084FCD007A00792B7B01E4FD61
:0E4FD50090007DEBF0A3EAF0A3E9F0A3EDF06D
:104FE300126BE990007DE0FBA3E0FAA3E0F9EF1276
:104FF3001446900080E0701D90007DE0FBA3E0FA72
:10500300A3E0F91214009000A5F07BFF7A00792E3B
:105013001218B380057F2A12643890007DE0FBA349
:10502300E0FAA3E0F9121400FF7E00900081EEF095
:10503300A3EFF090007EE475F00112147A90007DE6
:10504300E0FBA3E0FAA3E0F9E4121446EF640D6079
:105053000C900081E07004A3E0640A708390007EEA
:1050630074FFF5F012147A90007DE0FBA3E0FAA33D
:07507300E0F9740A02144683
:104E6300E4FDFC7FA81265A47E00900049EEF0A348
:104E7300EFF09000A574FFF0A37400F0A37431F079
:104E8300A3EEF0A3EFF07B017A00793F1218AD9007
:104E930000A57401F0A37400F0A3743FF07BFF7AC4
:104EA3000079341218B37BFF7A0079501218B37A61
:104EB30000793F124FD17B017A00793F1246AB90C4
:104EC3000049EEF0A3EFF0FBE4FDFC7FA81263BA08
:104ED300E4FDFC7FA81265A47E00900049EEF0A3D8
:104EE300EFF09000A574FFF0A37400F0A37431F009
:104EF300A3EEF0A3EFF07B017A00793F1218AD9097
:104F030000A57401F0A37400F0A3743FF07BFF7A53
:064F13000079700218B3E2
:104B78007D027C007FA81265A47E00900049EEF0BB
:104B8800A3EFF09000A574FFF0A37400F0A37431B4
:104B9800F0A3EEF0A3EFF07B017A00793F1218AD95
:104BA8009000A57401F0A37400F0A3743FF07BFF9C
:104BB8007A0079951218B37BFF7A0079AF1218B38F
:104BC8007B017A00793FE4FD124FD57B017A0079A9
:104BD8003F1246AB900049EEF0A3EFF0FB7D027C5C
:104BE800007FA81263BA7D027C007FA81265A47EAC
:104BF80000900049EEF0A3EFF09000A574FFF0A339
:104C08007400F0A37431F0A3EEF0A3EFF07B017A07
:104C180000793F1218AD9000A57401F0A37400F05C
:0D4C2800A3743FF07BFF7A0079CD0218B332
:104C35007D047C007FA81265A47E00900049EEF0FB
:104C4500A3EFF09000A574FFF0A37400F0A37431F6
:104C5500F0A3EEF0A3EFF07B017A00793F1218ADD7
:104C65009000A57401F0A37400F0A3743FF07BFFDE
:104C75007A0079F01218B37BFF7A01790F1218B315
:104C85007B017A00793FE4FD124FD57B017A0079EB
:104C95003F1246AB900049EEF0A3EFF0FB7D047C9C
:104CA500007FA81263BA7D047C007FA81265A47EEC
:104CB50000900049EEF0A3EFF09000A574FFF0A37B
:104CC5007400F0A37431F0A3EEF0A3EFF07B017A4A
:104CD50000793F1218AD9000A57401F0A37400F09F
:0D4CE500A3743FF07BFF7A0179320218B30F
:10373C007D067C007FA81265A47E00900049EEF007
:10374C00A3EFF09000A574FFF0A37400F0A3743104
:10375C00F0A3EEF0A3EFF07B017A00793F1218ADE5
:10376C00900049E07002A3E070159000A504F0A34E
:10377C007400F0A3743FF07BFF7A01795A80359086
:10378C000049E07004A3E0640170159000A504F0FA
:10379C00A37400F0A3743FF07BFF7A01798280144C
:1037AC009000A57401F0A37400F0A3743FF07BFFAC
:1037BC007A0179A41218B37BFF7A0179DC1218B361
:1037CC007B017A00793FE4FD124FD57B017A0079B9
:1037DC003F1246AB900049EEF0A3EFF0FB7D067C68
:1037EC00007FA81263BA7D067C007FA81265A47EB8
:1037FC0000900049EEF0A3EFF09000A574FFF0A349
:10380C007400F0A37431F0A3EEF0A3EFF07B017A17
:10381C0000793F1218AD900049E07002A3E07015DA
:10382C009000A504F0A37400F0A3743FF07BFF7A22
:10383C0001795A8035900049E07004A3E06401706E
:10384C00159000A504F0A37400F0A3743FF07BFF67
:10385C007A01798280149000A57401F0A37400F0B1
:0D386C00A3743FF07BFF7A0179A41218B31A
:01387900222C
:103E05007D087C007FA81265A47E00900049EEF035
:103E1500A3EFF09000A574FFF0A37400F0A3743134
:103E2500F0A3EEF0A3EFF07B017A00793F1218AD15
:103E3500900049E07002A3E070159000A504F0A37E
:103E45007400F0A3743FF07BFF7A0179FB80149036
:103E550000A57401F0A37400F0A3743FF07BFF7A12
:103E650002791F1218B37BFF7A0279411218B37BCE
:103E7500017A00793FE4FD124FD57B017A00793F45
:103E85001246AB900049EEF0A3EFF0FB7D087C00F5
:103E95007FA81263BA7D087C007FA81265A47E0006
:103EA500900049EEF0A3EFF09000A574FFF0A37425
:103EB50000F0A37431F0A3EEF0A3EFF07B017A00DC
:103EC500793F1218AD900049E07002A3E07015909B
:103ED50000A504F0A37400F0A3743FF07BFF7A0102
:103EE50079FB80149000A57401F0A37400F0A3740D
:0B3EF5003FF07BFF7A02791F1218B328
:013F0000229E
:103F01007D0A7C007FA81265A47E00900049EEF036
:103F1100A3EFF09000A574FFF0A37400F0A3743137
:103F2100F0A3EEF0A3EFF07B017A00793F1218AD18
:103F3100900049E07002A3E070159000A504F0A381
:103F41007400F0A3743FF07BFF7A027966801490CD
:103F510000A57401F0A37400F0A3743FF07BFF7A15
:103F610002798C1218B37BFF7A0279B01218B37BF5
:103F7100017A00793FE4FD124FD57B017A00793F48
:103F81001246AB900049EEF0A3EFF0FB7D0A7C00F6
:103F91007FA81263BA7D0A7C007FA81265A47E0007
:103FA100900049EEF0A3EFF09000A574FFF0A37428
:103FB10000F0A37431F0A3EEF0A3EFF07B017A00DF
:103FC100793F1218AD900049E07002A3E07015909E
:103FD10000A504F0A37400F0A3743FF07BFF7A0204
:103FE100796680149000A57401F0A37400F0A374A5
:0B3FF1003FF07BFF7A02798C1218B3BE
:013FFC0022A2
:103FFD007D0C7C007FA81265A47E00900049EEF038
:10400D00A3EFF09000A574FFF0A37400F0A374313A
:10401D00F0A3EEF0A3EFF07B017A00793F1218AD1B
:10402D00900049E07002A3E070159000A504F0A384
:10403D007400F0A3743FF07BFF7A0279D78014905F
:10404D0000A57401F0A37400F0A3743FF07BFF7A18
:10405D000379081218B37BFF7A0379381218B37BF2
:10406D00017A00793FE4FD124FD57B017A00793F4B
:10407D001246AB900049EEF0A3EFF0FB7D0C7C00F7
:10408D007FA81263BA7D0C7C007FA81265A47E0008
:10409D00900049EEF0A3EFF09000A574FFF0A3742B
:1040AD0000F0A37431F0A3EEF0A3EFF07B017A00E2
:1040BD00793F1218AD900049E07002A3E0701590A1
:1040CD0000A504F0A37400F0A3743FF07BFF7A0306
:1040DD00796B80149000A57401F0A37400F0A374A3
:0B40ED003FF07BFF7A0379081218B344
:0140F80022A5
:1040F9007D0E7C007FA81265A47E00900049EEF039
:10410900A3EFF09000A574FFF0A37400F0A374313D
:10411900F0A3EEF0A3EFF07B017A00793F1218AD1E
:10412900900049E07002A3E070159000A504F0A387
:104139007400F0A3743FF07BFF7A03799D8014909B
:1041490000A57401F0A37400F0A3743FF07BFF7A1B
:104159000379C61218B37BFF7A0379E81218B37B87
:10416900017A00793FE4FD124FD57B017A00793F4E
:104179001246AB900049EEF0A3EFF0FB7D0E7C00F8
:104189007FA81263BA7D0E7C007FA81265A47E0009
:10419900900049EEF0A3EFF09000A574FFF0A3742E
:1041A90000F0A37431F0A3EEF0A3EFF07B017A00E5
:1041B900793F1218AD900049E07002A3E0701590A4
:1041C90000A504F0A37400F0A3743FF07BFF7A0309
:1041D900799D80149000A57401F0A37400F0A37474
:0B41E9003FF07BFF7A0379C61218B389
:0141F40022A8
:1041F5007D0F7C007FA81265A47E00900049EEF03B
:10420500A3EFF09000A574FFF0A37400F0A3743140
:10421500F0A3EEF0A3EFF07B017A00793F1218AD21
:10422500900049E07002A3E070159000A504F0A38A
:104235007400F0A3743FF07BFF7A04792480149016
:1042450000A57401F0A37400F0A3743FF07BFF7A1E
:104255000479461218B37BFF7A04796F1218B37B81
:10426500017A00793FE4FD124FD57B017A00793F51
:104275001246AB900049EEF0A3EFF0FB7D0F7C00FA
:104285007FA81263BA7D0F7C007FA81265A47E000B
:10429500900049EEF0A3EFF09000A574FFF0A37431
:1042A50000F0A37431F0A3EEF0A3EFF07B017A00E8
:1042B500793F1218AD900049E07002A3E0701590A7
:1042C50000A504F0A37400F0A3743FF07BFF7A040B
:1042D500799B80149000A57401F0A37400F0A37479
:0B42E5003FF07BFF7A0479B91218B398
:0142F00022AB
:105EDA007BFF7A0479DE1218B37B017A00793FE4FA
:105EEA00FD124FD57B017A00793F7D107C007FA897
:105EFA001256ED7B017A00793F7F107E00125CA674
:105F0A009000A57401F0A37400F0A3743FF07BFF26
:075F1A007A0579000218B3BB
:105F21007BFF7A0579181218B37B017A00793FE477
:105F3100FD124FD57B017A00793F7D407C007FA81F
:105F41001256ED7B017A00793F7F407E00125CA6FC
:105F51009000A57401F0A37400F0A3743FF07BFFDF
:075F61007A0579350218B33F
:105F68007BFF7A0579441218B37B017A00793FE404
:105F7800FD124FD57B017A00793F7D507C007FA8C8
:105F88001256ED7B017A00793F7F507E00125CA6A5
:105F98009000A57401F0A37400F0A3743FF07BFF98
:075FA8007A05796A0218B3C3
:105FAF007BFF7A05797C1218B37B017A00793FE485
:105FBF00FD124FD57B017A00793F7D807C007FA851
:105FCF001256ED7B017A00793F7F807E00125CA62E
:105FDF009000A57401F0A37400F0A3743FF07BFF51
:075FEF007A0579A90218B33D
:105FF6007BFF7A0579BE1218B37B017A00793FE4FC
:10600600FD124FD57B017A00793F7DB07C007FA8D9
:106016001256ED7B017A00793F7FB07E00125CA6B6
:106026009000A57401F0A37400F0A3743FF07BFF09
:076036007A0579E60218B3B8
:10603D007BFF7A0579F61218B37B017A00793FE47C
:10604D00FD124FD57B017A00793F7DF17C007FA851
:10605D001256ED7B017A00793F7FF17E00125CA62E
:10606D009000A57401F0A37400F0A3743FF07BFFC2
:07607D007A0579E60218B371
:106084007BFF7A06791E1218B37B017A00793FE40C
:10609400FD124FD57B017A00793F7D327C017FA8C8
:1060A4001256ED7B017A00793F7F327E01125CA6A5
:1060B4009000A57401F0A37400F0A3743FF07BFF7B
:0760C4007A0679460218B3C9
:1060CB007BFF7A0679561218B37B017A00793FE48D
:1060DB00FD124FD57B017A00793F7D737C017FA840
:1060EB001256ED7B017A00793F7F737E01125CA61D
:1060FB009000A57401F0A37400F0A3743FF07BFF34
:07610B007A06797E0218B349
:106112007BFF7A06798E1218B37B017A00793FE40D
:10612200FD124FD57B017A00793F7DB47C017FA8B7
:106132001256ED7B017A00793F7FB47E01125CA694
:106142009000A57401F0A37400F0A3743FF07BFFEC
:076152007A0679B60218B3CA
:106159007BFF7A0679C61218B37B017A00793FE48E
:10616900FD124FD57B017A00793F7DF57C017FA82F
:106179001256ED7B017A00793F7FF57E01125CA60C
:106189009000A57401F0A37400F0A3743FF07BFFA5
:076199007A0679EE0218B34B
:1061A0007BFF7A0679FE1218B37B017A00793FE40F
:1061B000FD124FD57B017A00793F7D367C027FA8A6
:1061C0001256ED7B017A00793F7F367E02125CA683
:1061D0009000A57401F0A37400F0A3743FF07BFF5E
:0761E0007A0779260218B3CB
:104929007BFF7A0779361218B37BFF7A07797612FB
:1049390018B37BFF7A0779B61218B37BFF7A077928
:10494900F21218B37BFF7A08794A1218B37BFF7AFF
:104959000879841218B37BFF7A0879BD1218B37BE2
:10496900FF7A0879FB1218B37BFF7A09794012188C
:10497900B37BFF7A0979801218B37BFF7A0979AD85
:104989001218B37BFF7A0979D81218B37BFF7A0A18
:10499900790B1218B37BFF7A0A793E1218B37BFFA1
:1049A9007A0A797D1218B37BFF7A0A79BC1218B397
:1049B9007BFF7A0A79FB1218B37BFF7A0B793A12DB
:1049C90018B37BFF7A0B79791218B37BFF7A0B79CD
:1049D900B81218B37BFF7A0B79F71218B37BFF7AF9
:0649E9000C79280218B34E
:10285B007BFF7A0C795A1218B37BFF7A0C798512AD
:10286B0018B3126BDB124FCD12633B90000EEBF0E3
:10287B00A3EAF0A3E9F09000A5E4F0A37400F0A3A1
:10288B00742CF07BFF7A0C79931218B39000A5E4AB
:10289B00F0A37400F0A3745EF07BFF7A0C79B11295
:1028AB0018B3126274EF70B17BFF7A0C79CF1218E8
:1028BB00B37B017A00792B7D01124FD512633B90CC
:1028CB00000EEBF0A3EAF0A3E9F078D67C007D01D3
:1028DB007BFF7A0C79DE1217B4126274EF70C902A7
:1028EB002A6D1269B8124FCD12633B90000EEBF0BC
:1028FB00A3EAF0A3E9F012000E90000E1254B89068
:10290B000011EBF0A3EAF0A3E9F012000E90001116
:10291B001254B8900014EBF0A3EAF0A3E9F0900086
:10292B0011E0FBA3E0FAA3E0F9EA494B601712149C
:10293B0000B42F1178177C007D01900011A3A3E048
:10294B001217B4803D900011E0FBA3E0FAA3E0F96D
:10295B00EA494B602D78177C007D017B017A007969
:10296B00DF1217B4900011E0F9A3E0FAA3E0900096
:10297B00A2C9F0A3EAF0A3E9F07B017A0079171260
:10298B005BD990000EE0FBA3E0FAA3E0F9EA494B18
:10299B0070030228ED125C44EFB416004003022AC8
:1029AB00739029B3F82828730229F50229FB022A10
:1029BB0001022A07022A0D022A13022A19022A1FD0
:1029CB00022A25022A2B022A31022A37022A3D0229
:1029DB002A43022A49022A4F022A55022A5B022A5B
:1029EB0061022A67022A6D022A94124E630228EDB5
:1029FB00124B780228ED124C350228ED12373C02AF
:102A0B0028ED123E050228ED123F010228ED123F80
:102A1B00FD0228ED1240F90228ED1241F50228EDD6
:102A2B00125EDA0228ED125F210228ED125F6802B6
:102A3B0028ED125FAF0228ED125FF60228ED12604F
:102A4B003D0228ED1260840228ED1260CB0228EDC6
:102A5B001261120228ED1261590228ED1261A002D7
:102A6B0028ED1249290228ED90000EE0F9A3E0FAB7
:102A7B00A3E09000A5C9F0A3EAF0A3E9F07BFF7AED
:092A8B000C79E51218B30228EDE4
:012A9400221F
:036C740025640094
:0B52FB0090000EEBF0A3EAF0A3E9F036
:105306009000137401F0A374F4F0126C71E4900031
:1053160012F0C286900011F0C2B2900013E0FEA314
:10532600E0FF20B35B900011E07055900013E0FEA3
:10533600A3E0FFEF1F70011EEF4E700590001104F1
:10534600F030B406900011E060E920B4339000110B
:10535600E0702D90000EE0FBA3E0FAA3E0F9E5A0D3
:10536600121446900012E004F090000FE475F0016C
:1053760012147A900013E0FEA3E0FF30B4FD80A281
:0C538600D2B2D286126C63900012E0FFDD
:0153920022F8
:0E4F1900900038EBF0A3EAF0A3E9F0A3EDF06E
:104F2700900041F0D2B2D2B4C286E4900040F0C201
:104F3700B290003C1214D600004E2030B3499000C6
:104F470040E07043C2B2D2B490003CE0FCA3E0FD65
:104F5700A3E0FEA3E0FFEF24FFFFEE34FFFEED34F6
:104F6700FFFDEC34FFFC90003C1214CA90003CE0BB
:104F7700FCA3E0FDA3E0FEA3E0FFEC4D4E4F70BBAA
:104F8700A304F0C28280B4900040E0702920B326C9
:104F9700900038E0FBA3E0FAA3E0F9121400F5A0B3
:104FA700126B2A900039E475F00112147A90003BD5
:104FB700E014F0E070DA75A0FFD2B2D2B4D2867FE7
:064FC700627E00026AF4A4
:1030AB009000367402F0E4A3F090000E7402F0A3CB
:1030BB00EFF07B017A00792C12652D7B017A007978
:1030CB002C12000EE4FE9000367402F0742C2EF5D8
:1030DB0082E43400F583E0FD900036E0FC04F074EC
:1030EB000E2CF582E43400F583EDF01F0EEF70DC4F
:1030FB00900036E0FF04F0740E2FF582E43400F5F7
:10310B0083742DF0900036E0A3F0240EF9E4340024
:10311B00FA7B0112507A900037E0900036F0E024F1
:10312B000EF582E43400F583E02430FF900036E0A6
:10313B00FE04F0740E2EF582E43400F583EFF0906C
:10314B000036E0240EF582E43400F583E02430FFF2
:10315B00900036E0FE04F0740E2EF582E43400F598
:10316B0083EFF0900036E0240EF582E43400F58313
:10317B00E02430FF900036E0FE04F0740E2EF58252
:10318B00E43400F583EFF0900036E0240EF582E492
:10319B003400F583E02430FF900036E0FE04F07439
:1031AB000E2EF582E43400F583EFF0900036E02428
:1031BB000EF582E43400F583E02430FF900036E016
:1031CB00FE04F0740E2EF582E43400F583EFF090DC
:1031DB000036E0FF04F0740E2FF582E43400F58323
:1031EB00742DF07B017A01795D12000EE4FEEF6025
:1031FB0026745D2EF582E43401F583E0FD900036F4
:10320B00E0FC04F0740E2CF582E43400F583EDF051
:10321B001F0EEF70DC8014900036E0FF04F0740E8C
:10322B002FF582E43400F5837420F0900036E0FF34
:10323B0004F0740E2FF582E43400F5837403F0C2AE
:10324B00B230B3FD7B017A00790E900036E0FD12AF
:10325B004F19126C1C7B017A00790E900036E0FD41
:0C326B0090003C7401F0125AF7026C1C39
:106B2A00C2B47F287E00126AF4D2B47F287E0002A3
:026B3A006AF4FB
:06577700900010EFF0FBB2
:10577D00D2B4C286E4A3F0A31214D600003A988BDB
:10578D00A0C2B230B343900011E0703DA3E0FCA382
:10579D00E0FDA3E0FEA3E0FFEF24FFFFEE34FFFEEC
:1057AD00ED34FFFDEC34FFFC9000121214CA900092
:1057BD0012E0FCA3E0FDA3E0FEA3E0FFEC4D4E4F95
:1057CD0070C190001104F080BA900011E0700C20AF
:1057DD00B309900010E0F5A0126B2AD2B2D2B4D268
:1057ED008675A0FF7F627E00126AF47F627E0002E2
:0257FD006AF44C
:0A6BF500D2B4D2B2D28675A0FF22FE
:1066A2009000107402F0A37469F07B017A007912F1
:1066B200124AB47F8B125432900018EFF0A3740385
:0C66C200F07B017A0079107D0A024F196C
:103BE900E4900020F09000107402F0A37444F09067
:103BF90000A574FFF0A3746CF0A37474F090017ABB
:103C0900E0FFA3E09000A8CFF0A3EFF07B017A00DA
:103C1900791B1218AD90001F7402F0900020E02467
:103C29001BF582E43400F583E0FF601790001FE084
:103C39002410F582E43400F583EFF0900020E004CD
:103C4900F0801890001FE02410F582E43400F58319
:103C5900743BF090001FE004F0800890001FE0041E
:103C6900F080B89000A574FFF0A3746CF0A374748D
:103C7900F0900176E0FFA3E09000A8CFF0A3EFF069
:103C89007B017A00791B1218ADE4900020F09000B6
:103C990020E0241BF582E43400F583E0FF601790EF
:103CA900001FE02410F582E43400F583EFF0900062
:103CB90020E004F0801890001FE02410F582E4341D
:103CC90000F583743BF090001FE004F08008900039
:103CD9001FE004F080B890001FE0FD2410F582E495
:103CE9003400F5837403F07B017A007910024F19CF
:105CFE004461746F73204D462072657370756573C1
:105D0E0074613A20004461746F73204D4620456ED5
:105D1E00766961646F733A20002F2A2D2D2D2D2D5B
:105D2E002D2D2D2D2D2D2D2D2D2D2D2D2D2D2D2D95
:105D3E002D2D2D2D2D2D2D2D2D2D2D2D2D2D2D2D85
:075D4E002D2D2A2F0D0A0084
:0668BB00AE07EEC313FE60
:1068C100E4FFEFD3940774809480500D0000000022
:0968D1000000000000000F80E946
:0168DA00229B
:10696D00E4FFEFD3940474809480500D0000000078
:09697D000000000000000F80E999
:0169860022EE
:025E9200AE0759
:105E9400C2AFC2901268C10000AD06EE5401FE709C
:105EA40004C2908002D2901268C17C01ECD39407A2
:105EB400748094805015EDC313FD5401FE7004C228
:105EC400908002D2901268C10C80E1D2901268C115
:055ED4001268C1D2AF0D
:015ED90022A6
:0261E700AB0704
:1061E90090016AE06401703CEB54F0C4540FFFD392
:1061F900940974809480400674372FFF80047430AA
:106209002FFF125E92EB540FFFD394097480948090
:10621900400674372FFF800474302FFF125E927F7F
:0462290020125E924F
:01622D00224E
:0E5AF700900038EBF0A3EAF0A3E9F0A3EDF085
:105B050090016AE06401705C90003CE0FF3395E031
:105B1500FEEF4E7BFF60067A5C79FE80047A5D7944
:105B250013126476E490003DF090003BE0FF900096
:105B35003DE0C39F5024900038E0FBA3E0FAA3E0CA
:105B4500F9121400FF1261E7900039E475F00112B3
:105B5500147A90003DE004F080CF7F0D125E927FB5
:045B65000A125E9230
:015B69002219
:0B647600900050EBF0A3EAF0A3E9F067
:10648100E4A3F090016AE064017027900053F0905A
:106491000050E0FBA3E0FAA3E0F9A3E0F5827583E5
:1064A10000121419FF600B125E92900053E004F089
:0264B10080DD8C
:0164B30022C6
:096C1C007BFF7A5D7927026476A2
:1057FF007EFF12696D1268C1208005747FFF8004DF
:10580F00EE4480FF1268BBEE208005547FFF8003BB
:10581F004480FF1268BBEE208005547FFF80034455
:10582F0080FF1268BBEE208005547FFF8003448009
:10583F00FF1268BBEE208005547FFF80034480FF7A
:10584F001268BBEE208005547FFF80034480FF1257
:10585F0068BBEE208005547FFF80034480FF1268F1
:10586F00BBEE208005547FFF80034480FFAE0712FC
:07587F0068C13080FDAF0697
:0158860022FF
:056C6800D290D2802251
:0E4E4C00010B00010C00010900010A00C10B5E
:0300230002485C34
:10485C00C0E0C083C082C0D075D000C000C004C00E
:05486C0005C006C007B5
:104871002098030248F9C298859908C3E509950A69
:10488100FFE49400FEEF54F84E700BE50954072441
:104891002CF8A6080509900168E0FFD3940A7480FA
:1048A10094804005900173E4F0900173E014600F6F
:1048B100047040900168E4F090017304F080397451
:1048C100222FF8A6087822E6FFFD7C00641270060C
:1048D10090017C04801AEFB4720790017C7402800D
:1048E1000FED641E4C90017C70047403800274040B
:1048F100F08000900173E4F030991AC299E50B65DC
:104901000C6010E50C5401245EF8E6F599050CC223
:054911000B8002D20B37
:10491600D007D006D005D004D000D0D0D082D08326
:03492600D0E032AC
:1066CE00D310AF01C3C0D012674AE4F50BF50CF539
:1066DE0009F50AC29FD29EC29DD29CC298C299D27F
:0A66EE000BD2ACD2BCD0D092AF2288
:10674A00D310AF01C3C0D0C299E4F50BF50CC28EC9
:10675A00C2AB43878053890F438920758DF4758BAB
:08676A00F4D28ED0D092AF22D0
:10656900D310AF01C3C0D09000D5EFF0126B4EC36A
:10657900EF94027480948040047FFF80199000D5C5
:10658900E0FFE50B5401245EF8A607050B300B0468
:0B659900C20BD2997F00D0D092AF223D
:10681100D310AF01C3C0D0126B3CEF70067EFF7F77
:10682100FF800EAF0A050AEF5407242CF8E6FF7E1D
:0668310000D0D092AF225E
:106B3C00D310AF01C3C0D0C3E509950AFFD0D092E2
:026B4C00AF2276
:106B4E00D310AF01C3C0D0C3E50B950CFFD0D092CC
:026B5E00AF2264
:0E6BDB00E4F50BF50CF509F50AC298C29922F3
:1034310054697175657465204E6F3A20003E002015
:1034410046656368613A203230002D0020003A0061
:10345100205665686963756C6F3A20436172726FBB
:1034610000205665686963756C6F3A204D6F746F03
:1034710000506C6163613A20003E3C0A00257300F4
:103481004E49543A202573000A0A0A0A0A0A000A18
:103491000A0A0A0020257300707970002020205448
:1034A100697175657465204E6F3A200025730A00B5
:1034B10020202046656368613A20202020202000DA
:1034C1003230002020205665686963756C6F3A20A0
:1034D1002020436172726F0A0020202056656869BE
:1034E10063756C6F3A2020204D6F746F0A002020A5
:1034F10020506C6163613A202020202000566568CD
:103501006963756C6F20656E20656C206C6F6F70E0
:103511000D0A0D0A0050756C7361646F722041636E
:103521007469766F0D0A0050756C7361646F722057
:103531004E6F2041637469766F0D0A0056656869A4
:1035410063756C6F206E6F20656E20656C206C6FEB
:103551006F700D0A0D0A005345515F504150454CA3
:103561000D0A00496D707265736F726120636F6E31
:1035710020706170656C200D0A00496D7072657371
:103581006F7261206E6F207469656E652070617065
:10359100656C200D0A004E6976656C2062616A6F68
:1035A10020646520706170656C200D0A00496D70A2
:1035B1007265736F7261206E6F20726573706F6ECA
:1035C1006465200D0A00496D7072696D69656E64EC
:0535D1006F200D0A004F
:084E5A004101A1004101A20089
:0A6BFF007F1B1264387F40026438E7
:10685900900040EFF0A3EDF07F1B1264387F4412E3
:106869006438900040E0FF126438900041E0FF0274
:02687900643881
:106ACC007F1D1264387F501264387FB41264387F93
:046ADC00B402643864
:1069CF00EF24BD600B24F1600A24067009026B905E
:0769DF00026B9F126BAE2258
:0F6B90007F1B1264387F611264387F30026438D3
:0F6B9F007F1B1264387F611264387F31026438C3
:0F6BAE007F1B1264387F611264387F32026438B3
:1069E60090007EEFF07F1B1264387F4D1264389062
:0769F600007EE0FF0264389F
:1069FD0090007EEFF07F1B1264387F331264389065
:076A0D00007EE0FF02643887
:106A140090007EEFF07F1B1264387F45126438903B
:076A2400007EE0FF02643870
:106A2B0090004FEFF07F1D1264387F211264389075
:076A3B00004FE0FF02643888
:106A420090004FEFF07F1B1264387F64126438901D
:076A5200004FE0FF02643871
:106A5900900040EFF07F1B1264387F4A126438902F
:076A69000040E0FF02643869
:106A700090004FEFF07F1B1264387F201264389033
:076A8000004FE0FF02643843
:106A870090004AEFF07F1D1264387F6812643890D7
:076A9700004AE0FF02643831
:106A9E0090004AEFF07F1D1264387F4812643890E0
:076AAE00004AE0FF0264381A
:0F6BBD007F1D1264387F661264387F300264389F
:0E5E450090004AEFF0A3EBF0A3EAF0A3E9F01F
:105E53007F1D1264387F6B12643890004AE0FF1292
:105E63006438E490004EF090004BE0FBA3E0FAA30B
:105E7300E0F9A3E0F582758300121419FF600B1299
:0F5E8300643890004EE004F080DDE4FF026438E4
:106675007F1D1264387F281264387F6B1264387F5F
:1066850004126438E4FF1264387F311264387F41A4
:0D6695001264387F32126438E4FF0264386A
:106772007F1D1264387F281264387F6B1264387F61
:1067820003126438E4FF1264387F311264387F45A3
:086792001264387F3102643803
:10679A007F1D1264387F281264387F6B1264387F39
:1067AA0003126438E4FF1264387F311264387F437D
:0867BA001264387F0702643805
:0B5A0C0090009FEBF0A3EAF0A3E9F08C
:105A17007F1D1264387F281264387F6B12643890B8
:105A2700009FE0FBA3E0FAA3E0F912000E9000A2AA
:105A3700EFF02403FF126438E4FF1264387F311259
:105A470064387F501264387F30126438E49000A3C2
:105A5700F09000A2E0FFA3E0FEC39F501F90009FBD
:105A6700E0FBA3E0FAA3E0F98E8275830012141914
:0C5A7700FF1264389000A3E004F080D51A
:015A83002200
:1067C2007F1D1264387F281264387F6B1264387F11
:1067D20003126438E4FF1264387F311264387F5147
:0867E2001264387F30026438B4
:0A6C09007F1B1264387F69026438B3
:106AB50090000EEFF07F101264387F041264389056
:076AC500000EE0FF0264383F
:102CCA0012667512677212679A78407C007D017BE2
:102CDA00FF7A3479311217B47B017A007990126540
:102CEA002D9000A27401F0A37400F0A37490F07BFD
:102CFA00017A007940125BD99000A274FFF0A374A4
:102D0A0034F0A3743EF07B017A007940125BD990CB
:102D1A0000A274FFF0A37434F0A37440F07B017A2C
:102D2A00007940125BD97B017A007990122ED390F8
:102D3A0000A27401F0A37400F0A37490F0A3E4F06D
:102D4A00A37402F07B017A0079401249EF9000A245
:102D5A0074FFF0A37434F0A3744BF07B017A00790A
:102D6A0040125BD99000A27401F0A37400F0A3741E
:102D7A0092F0A3E4F0A37402F07B017A0079401286
:102D8A0049EF9000A274FFF0A37434F0A3744BF0DF
:102D9A007B017A007940125BD99000A27401F0A3FA
:102DAA007400F0A37494F0A3E4F0A37402F07B011E
:102DBA007A0079401249EF9000A274FFF0A37434AC
:102DCA00F0A3744DF07B017A007940125BD9900030
:102DDA00A27401F0A37400F0A37496F0A3E4F0A324
:102DEA007402F07B017A0079401249EF9000A274D4
:102DFA00FFF0A37434F0A3744FF07B017A0079409A
:102E0A00125BD99000A27401F0A37400F0A3749825
:102E1A00F0A3E4F0A37402F07B017A00794012492E
:102E2A00EF9000A274FFF0A37434F0A3743EF07B19
:102E3A00017A007940125BD990016FE09000A2708C
:102E4A000C74FFF0A37434F0A37451800A74FFF079
:102E5A00A37434F0A37462F07B017A007940125BA8
:102E6A00D99000A274FFF0A37434F0A3743EF07BEF
:102E7A00017A007940125BD99000A274FFF0A37422
:102E8A0034F0A37472F07B017A007940125BD99016
:102E9A0000A27401F0A37401F0A3745DF07B017ABF
:102EAA00007940125BD99000A274FFF0A37434F049
:102EBA00A3747AF07B017A007940125BD97B017A9C
:092ECA00007940125A0C0267C2A3
:1044D900126BFFE4FD7F35126859126ACC7F4312D3
:1044E90069CF7F01126A147F01126A2B7F01126A58
:1044F900707F06126A597B017A00790E7F107E005F
:10450900125CA69000A57401F0A37400F0A3740EC8
:10451900F07BFF7A34797E1218B37B017A00790E29
:104529007F407E00125CA6E4FF126A14E4FF126A5F
:104539002BE4FF126A709000A57401F0A37400F0D7
:10454900A3740EF07BFF7A3479811218B37F43127A
:1045590069CF7B017A00790E7F507E00125CA690AC
:1045690000A57401F0A37400F0A3740EF07BFF7A28
:1045790034797E1218B37F431269CF7B017A0079AF
:104589000E7F807E00125CA69000A57401F0A374D2
:1045990000F0A3740EF07BFF7A34797E1218B37F92
:1045A9000A1269FD7F431269CF122CCA12387A1296
:0E45B9003AD07BFF7A3479891218B3026C096C
:1042F1007F021269FD7F01126A42125DA8126BFFF3
:10430100E4FD7F35126859126ACC7F431269CF7F71
:1043110001126A147F01126A2B7F01126A707F06F3
:10432100126A597B017A00790E7F107E00125CA619
:104331009000A57401F0A37400F0A3740EF07BFF4C
:104341007A34797E1218B37B017A00790E7F407E30
:1043510000125CA6E4FF126A14E4FF126A2BE4FF68
:10436100126A709000A57401F0A37400F0A3740E9A
:10437100F07BFF7A3479811218B37F431269CF7BC6
:10438100017A00790E7F507E00125CA69000A57420
:1043910001F0A37400F0A3740EF07BFF7A34797EF0
:1043A1001218B37F431269CF7B017A00790E7F80A7
:1043B1007E00125CA69000A57401F0A37400F0A326
:1043C100740EF07BFF7A34797E1218B37F0A12697A
:1043D100FD12387A123AD0125DA87BFF7A347990B7
:0643E1001218B3026C0982
:105DA800126BFF7F431269CF7F65126A877F3112BA
:105DB8006A9E126BBD7F311269E67B017A007940D9
:105DC80012652D7B017A00794012000E74402FF580
:105DD80082E43400F5837424F074412FF582E434AE
:105DE80000F583E4F07B017A0079407F04025E4588
:103AD0007F311269E67F0A1269FD7F4C1269CFE4DB
:103AE000FF126A147B017A0079407FB07E00125C7D
:103AF000A69000A57401F0A37400F0A37440F07BBD
:103B0000FF7A3479951218B37B017A0079407FF1FE
:103B10007E00125CA69000A57401F0A37400F0A3CF
:103B20007440F07BFF7A3479951218B37B017A00E8
:103B300079407F327E01125CA69000A57401F0A34B
:103B40007400F0A37440F07BFF7A3479951218B3B7
:103B50007B017A0079407F737E01125CA69000A5FC
:103B60007401F0A37400F0A37440F07BFF7A347901
:103B7000951218B37B017A0079407FB47E01125C04
:103B8000A69000A57401F0A37400F0A37440F07B2C
:103B9000FF7A3479951218B37B017A0079407FF56A
:103BA0007E01125CA69000A57401F0A37400F0A33E
:103BB0007440F07BFF7A3479951218B37B017A0058
:103BC00079407F367E02125CA69000A57401F0A3B6
:103BD0007400F0A37440F07BFF7A3479951218B327
:093BE0007BFF7A3479990218B3D5
:10387A007F0A1269FD7F01126A147F01126A427F70
:10388A004C1269CF7BFF7A34799D1218B3E4FF1288
:10389A006A147B017A00794012652D9000A57401A3
:1038AA00F0A37400F0A37440F07BFF7A3479AD1270
:1038BA0018B37B017A007940122ED37F4C1269CF5C
:1038CA007F01126A147BFF7A3479B11218B3E4FFCC
:1038DA00126A147BFF7A3479C11218B3900040E05F
:1038EA00FF126438900041E0FF1264387F2D1264A1
:1038FA0038900042E0FF126438900043E0FF1264FF
:10390A00387F2D126438900044E0FF12643890002A
:10391A0045E0FF1264387F20126438900046E0FFC9
:10392A00126438900047E0FF1264387F3A12643814
:10393A00900048E0FF126438900049E0FF126438B2
:10394A007F0A1264387F01126A1490016FE07BFFCC
:10395A0070067A3479C480047A3479DA1218B37F1B
:10396A0001126A2B7F01126A707F01126A147BFFAF
:10397A007A3479EF1218B39000A57401F0A3740198
:10398A00F0A3745DF07BFF7A3479AD1218B3E4FFCB
:0D399A00126A2BE4FF126A70E4FF026A1447
:102A9500900171E0147003022B1C147003022B6368
:102AA500147003022BF5147003022C4B14700302EF
:102AB5002B3424056003022CC4900166E064016098
:102AC50003022CC9125B6AEF603C7BFF7A3479FE06
:102AD5001264769001A1E070107FFE1225DB7FA0C5
:102AE5001257779001A17401F0126C3A7BFF209187
:102AF5000E7A3579161264769001717401F0227A96
:102B0500357928022BAB7BFF7A35793D126476E463
:102B15009001A1F0022CB37F451243E7126BDB7FD6
:102B2500FE1257779001717405F09001668024902C
:102B35000166E064016003022CC97BFF7A35795890
:102B45001264767F04126AB59001717402F09001E7
:102B5500667405F0E490017CF0900173F022900119
:102B650066E06401600990017CE07003022CC97B7A
:102B7500007A00792290003C7401F0FD125AF7901A
:102B8500017CE064017011F07BFF7A357964126491
:102B9500769001667405803390017CE06402700CC8
:102BA5007BFF7A35797B126476022CB390017CE049
:102BB50064037BFF701D7A35799712647690016600
:102BC5007405F0E490017CF0900173F0900171744C
:102BD50003F0227A3579AE1264769001667405F0B9
:102BE500E490017CF0900173F09001717405F0227E
:102BF500900166E064016006200903022CC97F612B
:102C05001230AB7FA11257777FFA1225DB7BFF7A53
:102C15003579C712647690016CE060051244D9805D
:102C2500031242F19001667405F0E490017CF09086
:102C35000173F09001717404F0D297E4900167F08C
:102C45001263F9026918900166E0640170769001DB
:102C5500A2E004F0E0D39412748094805045126C85
:102C65003A309129126C4130910D9001A2E0C39444
:102C75001274809480400DE49001A2F09001A1F0BF
:102C8500C297802A7FFA1225DBC2978000900166E1
:102C95007405F0E490017CF0900173F0900171747B
:102CA50004F022E49001A2F09001A1F0C2979001F6
:102CB500667405F0E490017CF0900173F08001E406
:042CC500900171F019
:012CC90022E8
:046C6D00256C75001D
:106B800090000AE41214587D007C057FA80256ED9F
:1066F8009000A574FFF0A3746CF0A3746DF0A3125E
:1067080014CA7B017A0079121218AD7B017A0079DC
:0A671800127D007C057FA80256EDFB
:106936007B017A0079A67F007E05125CA67B017A30
:0C6946000079A6123CF99000A20214CACD
:1063F90012693690000E1214CA90000EE0FCA3E058
:10640900FDA3E0FEA3E0FFE4FAF9F8EF2401FFEAB7
:106419003EFEE93DFDE83CFC90000E1214CA9000D6
:0F6429000EE0FCA3E0FDA3E0FEA3E0FF0266F897
:1064B4009000A27409F0E4A3F09000A3E0FFC39459
:1064C4000A7480948050259000A2E0C39FFFE49456
:1064D40000FE8F82F5831214196430700F8F828E40
:0C64E400831214589000A3E004F080CD57
:0164F0002289
:0B652D0090009FEBF0A3EAF0A3E9F060
:106538001269369000A574FFF0A3746CF0A3746D13
:10654800F0A31214CA90009FE0FBA3E0FAA3E0F9BD
:106558001218AD90009FE0FBA3E0FAA3E0F90264F3
:01656800B47E
:0B53930090000EEBF0A3EAF0A3E9F09D
:10539E00E4900012F0A3740CF0900169E0640170C7
:1053AE0073900011F0900013E0FF900011E0C39F86
:1053BE005053E4FFFEFD30801DED701A0FBF00014B
:1053CE000ED3EF9430EE947540EC7D01900013E017
:1053DE00900011F080E0ED6401602A1257FF9000FA
:1053EE000EE0FBA3E0FAA3E0F9EF12144690000FD3
:1053FE00E475F00112147A900012E004F09000119E
:10540E00E004F080A090000EE0FBA3E0FAA3E0F928
:09541E00E4121446900012E0FFB4
:015427002262
:0B51200090000EEBF0A3EAF0A3E9F012
:10512B00E4FF7E029000021214196403701C9000BD
:10513B000EE0FBA3E0FAA3E0F9900001121419B4FE
:10514B005008D297E4900167F02290000EE0FBA389
:10515B00E0FAA3E0F9900001121419643C70569028
:10516B00000EE0FBA3E0FAA3E0F98E827583001238
:10517B001419FD745D2FF582E43401F583EDF00E07
:10518B000F8E82758300121419640370D290000E77
:10519B00E0FBA3E0FAA3E0F98E82758300E412141E
:1051AB0058745C2FF582E43401F583E4F0D2099056
:0551BB000166740AF01A
:0151C00022CC
:0543E70090000EEFF054
:1043EC00E4A3F090001A7403F090017D14F0126BAA
:1043FC001890017EEFF090000EE090017FF090019C
:10440C006FE090001A6013E0FF04F0747D2FF582CA
:10441C00E43401F583744DF08011E0FF04F0747DF9
:10442C002FF582E43401F5837443F07B017A007933
:10443C001012652D7B017A00791012000E90000F7E
:10444C00E02410F582E43400F583E0FE90001AE0DD
:10445C00FD04F0747D2DF582E43401F583EEF01F3C
:10446C0090000FE004F0EF70D490001AE0FF04F01D
:10447C00747D2FF582E43401F583743AF090001AC0
:10448C00E0247DF9E43401FA7B01122ED390001A5A
:10449C00E0FF2487F582E43401F583743AF07488E4
:1044AC002FF582E43401F5837403F07B017A0179F2
:1044BC007DEF240CFDE490003CF0125AF77B017A5E
:0D44CC0001797D90001AE0240CFD0262FAD7
:0E62FA0090003FEBF0A3EAF0A3E9F0A3EDF073
:10630800E4A3F0900042E0FFA3E0C39F5024900074
:106318003FE0FBA3E0FAA3E0F9121400FF125E923B
:10632800900040E475F00112147A900043E004F004
:0263380080D112
:01633A002240
:0B47860090001DEBF0A3EAF0A3E9F0A7
:1047910090003E7403F090002014F0126B1890000A
:1047A10021EFF0A37453F090016FE090003E60138D
:1047B100E0FF04F074202FF582E43400F583744D9A
:1047C100F08011E0FF04F074202FF582E43400F54D
:1047D100837443F090003E7404F090001DE0FBA34D
:1047E100E0FAA3E0F9121400FF602190003EE024FA
:1047F10020F582E43400F583EFF090001EE475F0BB
:104801000112147A90003EE004F080CE90003EE068
:10481100FF04F074202FF582E43400F583743AF03C
:1048210090003EE02420F9E43400FA7B01122ED3FB
:1048310090003EE0FF242AF582E43400F583743AC7
:10484100F0742B2FF582E43400F5837403F07B01BF
:0B4851007A007920EF240CFD0262FACF
:10691800E4FFEFC3940974809480500F745D2FF5E1
:0D69280082E43401F583E4F00F80E7C2093A
:01693500223F
:100D0A00020FB2E86480F8E933E83360110460F056
:100D1A00ED33EC337009E8FCE9FDEAFEEBFF22044F
:100D2A0060DED3EB9FEA9EE99DE8C2E78CF0C2F74A
:100D3A0095F0400CE8CCF8E9CDF9EACEFAEBCFFB16
:100D4A00120F7D85D0F05804700320D5B3E80470E3
:100D5A00075002B2D5020FBC92D5EC0460F7E4CC7E
:100D6A00C0E0C398F8603B94186008400DD0E0FBDF
:100D7A00020F94E4FBFAC9FC8028E830E406E4C9CF
:100D8A00FBE4CAFCE830E305E4C9CACBFCE8540733
:100D9A006010F8C3E913F9EA13FAEB13FBEC13FC3E
:100DAA00D8F130F52FC3E49CFCEF9BFFEE9AFEEDE1
:100DBA0099FDD0E0FBEF4E4D4C701222DB03020F7F
:100DCA00B9EC2CFCEF33FFEE33FEED33FDED30E7EB
:100DDA00EB020F94EF2BFFEE3AFEED39FDD0E0FB6C
:100DEA0050130BBB0003020FBCED13FDEE13FEEF15
:080DFA0013FFEC13FC020F943F
:100E0200EC4D6011E8497017ED33EC3304600DE4EA
:100E1200FCFFFEFD22E933E8330470F8020FB21240
:100E22000F7D58046009E4CC248150062850090241
:100E32000FBC284003020FB9C0E0EB4A7044B980EE
:100E420006D0E0FB020FA8EF4E701CBD8008EBFF3E
:100E5200EAFEE9FD80EBE98DF0A4FEE5F0020EEB7F
:100E6200E9CDF9EAFEEBFFEF89F0A4FCE5F0CE89CB
:100E7200F0A42EFFE435F0CD89F0A42DFEE435F088
:100E82008067EF4E7005BD80D780C3EF8BF0A4ACB6
:100E9200F0EE8BF0A42CFCE435F0F8EF8AF0A42CF1
:100EA200E5F038FCE433CB8DF0A42CFCE5F03BF804
:100EB200EE8AF0A42CFCE5F038F8E433CF89F0A4F4
:100EC2002CFCE5F038CF3400CE89F0A42FFFE5F0FA
:100ED2003EFEE433C98DF0A42EFEE5F039CD8AF052
:100EE200A42FFFE5F03EFEE43DFD33D0E0FB5007CA
:100EF2000BBB000F020FBCEC2CFCEF33FFEE33FEFA
:060F0200ED33FD020F9427
:100F080075F020800E75F010800575F0087D007E64
:100F1800007F003392D530D503121490EC33401083
:100F2800EF33FFEE33FEED33FDEC33FCD5F0ED226D
:0E0F3800E5F0247EA2D513CC92E7CDCEFF22A9
:100F4600EDD2E7CD33EC3392D524814006E4FFFEA3
:100F5600FDFC22FCE4CFCECDCC24E0501174FF8002
:100F6600EDC3CC13CCCD13CDCE13CECF13CF04709F
:070F7600F030D5DE021490FB
:10184800E50D24A5F582E43400F583E0050D22902A
:1018580000A23007039000A5E475F00112150702F5
:1018680014002000E97F2ED2008018EF540F249036
:10187800D43440D4FF30040BEF24BFB41A00500313
:101888002461FFE50E6002150E0511E511700205D1
:101898001030070E9000A2E475F001121507EF0250
:1018A80014460264387403D2078003E4C207F50DB6
:1018B8009000A212151EE4F50EF510F511E50E6064
:1018C800077F2012188B80F5750FFFC201C200C276
:1018D80002C203C205C206C208121857FF700D30B3
:1018E80007057F0012189CAF11AE1022B4255FC205
:1018F800D5C204121857FF24D0B40A00501A75F044
:101908000A780E30D50508B6FF0106C6A426F620CB
:10191800D5047002D20380D924CFB41A00EF500442
:10192800C2E5D204021B8ED20180C6D20080C0D28A
:101938000280BCD2D580BAD20580B47F2012188B21
:101948002002077401B50E0040F1121848FF121862
:101958008B0218C5D208D2068095121848FB1218B7
:1019680048FA121848F94A4B7006798C7A1C7BFFA2
:1019780020022EE50E602A7E008E827583001214E6
:101988001960060EEE650F70F0C2D5EBC0E0EAC034
:10199800E0E9C0E0EE121BEFD0E0F9D0E0FAD0E0C9
:1019A800FB121400FF60AAEBC0E0EAC0E0E9C0E067
:1019B80012188BD0E02401F9D0E03400FAD0E0FB13
:1019C800E50F0460DCD50FD98087D20280A2121BF4
:1019D800D160F7E50F70010412106BA90F600DE5D7
:1019E8000F600914F50F121C79EF60F3EA30E70273
:1019F800F404C3995079EAF4250F0430E701E404AC
:101A0800F50F800D121BD160C1EA050F250F1210CA
:101A18006BEA9000D1F030E701E4250F04D50F04FC
:101A280020050114121BEFE4C0E0121C799000D1CC
:101A3800E0601320E70714F0121873802204F0D036
:101A4800E014C0E07F00121873E50F600712186AEF
