:1065DF00526563696265207472616D612070746FBA
:1065EF00200D0A006C6F6E676974756420646520F6
:0D65FF006C61207472616D613A200D0A001C
:104D7A004101660A4101670041017300410168006F
:104D8A004101710041016F0041017C0049015D0050
:104D9A000000000000000000410172064101790391
:064DAA00410178F2C1098D
:03000B0002691E69
:10691E00C0E0C083C082900166E014F0A3E004F0F2
:09692E00C28DD082D083D0E0328A
:106AF700E58954F04401F589E4F58CF58AD28C22B6
:056BFA00C28DD2A922AA
:036C0800C2A922FC
:0B6B80001267A8EFF47002EEF460F55D
:016B8B0022E7
:056405009000D2EFF051
:10640A009000D2E0FF126536EF3395E04F6024E446
:10641A009000D3F0A3F0C39000D4E094E89000D3A6
:10642A00E0940350DBA3E004F070EB9000D3E004A7
:08643A00F080E39000D2E0FFC6
:016442002237
:106B0700126BFF126BBC126B8CC283D287C29722A7
:10563000E4FDFC7FA812657190017AE4F0A3EFF01D
:105640007D027C007FA8126571900176E4F0A3EFE3
:10565000F07D047C007FA8126571900174E4F0A3D2
:10566000EFF07D067C007FA812657190016DE4F07B
:10567000A3EFF07D087C007FA812657190016AEFAE
:10568000F07D0A7C007FA8126571900169EFF07DC2
:105690000C7C007FA8126571900170EFF07D0E7C8C
:1056A000007FA812657190016CEFF07D0F7C007F88
:0A56B000A812657190016BEFF02263
:104CBF00126AF7126BFA1266651266E1126B07D26F
:104CCF00AF126BC320910312282812563090016641
:104CDF007405F020803F7B017A00790012536090B9
:104CEF00000DEFF0126BB37B017A00790090000D8D
:104CFF00E0FD1250ED7B017A00790090000DE0FD90
:104D0F0090003C7401F0125AC47B017A01795D1254
:104D1F006443126BB3122A6220B34A7B017A017982
:104D2F00351252C890000DEFF07BFF7A6579DF12D4
:104D3F0064437B017A01793590000DE0FD90003CD2
:104D4F007401F0125AC47BFF7A6579F312644390B1
:104D5F00000DE0FF1261B47B017A01793590000DEF
:0B4D6F00E0FD121CCB125A51024CE276
:106937004C4956450A00477261626163696F6E2070
:0869470053657269653A2000F6
:0E1CCB0090000EEBF0A3EAF0A3E9F0A3EDF019
:101CD9006419704490000EE0FBA3E0FAA3E0F91246
:101CE90014006402703290000212141964487028BA
:101CF900900011E07E0024FFF582EE34FFF5831297
:101D090014196403701290000EA3A3E02403F9E4EC
:101D19003AFA1255150265AA90000EE0FBA3E0FA03
:101D2900A3E0F9121400640570057F05021F0B90EA
:101D3900000EE0FBA3E0FAA3E0F912140064B1700D
:101D4900057F60021F0B90000EE0FBA3E0FAA3E001
:101D5900F912140064B270057F5D021F0B90000E2A
:101D6900E0FBA3E0FAA3E0F912140064B370057F65
:101D790063021F0B900011E06401701790000EE0E0
:101D8900FBA3E0FAA3E0F912140064B470057F5EC6
:101D9900021F0B900011E06401701790000EE0FB28
:101DA900A3E0FAA3E0F912140064B570057F62029A
:101DB9001F0B90000EE0FBA3E0FAA3E0F912140058
:101DC90064B67039900167E0C394147480948040BC
:101DD900167FB61225A8C282E4900167F0C297C2A5
:101DE90083900166740AF090016AE0600302200B97
:101DF900900169E06401600302200B804490000EA9
:101E0900E0FBA3E0FAA3E0F912140064AA7046907B
:101E19000167E0C3941474809480500302200BE49A
:101E2900F0C297D282C283900166740AF090016A67
:101E3900E0600302200B900169E064016003022065
:101E49000B90016A04F07BFF7A697937126443E4E5
:101E590090016AF022900011E0FF6413703C900039
:101E69000EE0FBA3E0FAA3E0F99000011214196453
:101E7900567027EF24FFFFE434FFFE8F82F58312AB
:101E89001419640370148F828E83E4121458E924A0
:101E990002F9E43AFA7F5B021FAC900011E0FF649B
:101EA90013704390000EE0FBA3E0FAA3E0F91214CB
:101EB9000064027031900001121419644F7027EF09
:101EC90024FFFFE434FFFE8F82F5831214196403A3
:101ED90070148F828E83E4121458E92402F9E43ACB
:101EE900FA7F9B021FAC900011E06401701790000B
:101EF9000EE0FBA3E0FAA3E0F912140064A1700557
:101F09007FE70225A8900011E0FF64066003021F25
:101F1900AF90000EE0FBA3E0FAA3E0F9121400640D
:101F2900026003021FAF9000011214196457707602
:101F3900FE74FF2FF582EE34FFF583121419640342
:101F4900706490000EA3A3900002121419FD7B0186
:101F59007A007912125D229000157420F090000E1B
:101F6900E0FBA3E0FAA3E0F9900003121419FD9035
:101F7900000EA3A3900004121419900021F07B0114
:101F89007A00791612200C900169E064017B017ACC
:101F99000079127F5C700C1232447B017A0079124D
:101FA900024753023244900011E0FF640C705390D1
:101FB900000EE0FBA3E0FAA3E0F91214006402703A
:101FC90041FE74FF2FF582EE34FFF5831214196474
:101FD90003702F90000EA3A3E02401F9E43AFA124A
:101FE9006B177BFF7A69793D12644390000EE0FB21
:101FF900A3E0FAA3E0F9A3E0FD90003C7401F0121C
:022009005AC4B7
:01200B0022B2
:08000300D294126C0EC294228B
:056348009000A5EFF03C
:10634D00E4A3F0A3F09000A5E0FFA2E713F030D78F
:10635D0004D2958002C2951200039000A7E004F0CC
:10636D0070069000A6E004F0C39000A7E09408909A
:09637D0000A6E06480948040CC8D
:0163860022F4
:0A53F500EBF0A3EAF0A3E9F07F8DCE
:0553FF009000A2EFF098
:10540400D2967F037E00126A8B9000A2E0FF1263A3
:1054140048E49000A3F0A3F09000A3E0FCA3E0FD17
:10542400C39408EC64809480504F3095169001A387
:10543400E04480F0ED9406EC648094805005E0FF35
:10544400C313F02095209001A3E0547FF0D3900083
:10545400A4E094069000A3E0648094805008900136
:10546400A3E0FFC313F01200039000A4E004F07063
:10547400A79000A3E004F0809FC2969001A3E0FFF0
:015484002205
:1066B900900020EFF0A3EDF0D2967F037E00126ADE
:1066C9008B900020E0FF126348900021E0FF9000CA
:0866D90020F0126348C2962272
:1062860090001EE475F00112147A90001EE475F079
:106296000112147A90001EE475F00112147A90002F
:1062A6001DE0FBA3E0FAA3E0F9121400FF90000141
:0462B600121419FDA8
:0C62BA00EF540FC454F0FFED540F4FFFE1
:0162C60022B5
:1055150090001DEBF0A3EAF0A3E9F01262A4AD0739
:105525007F861266B9126286AD077F881266B990CA
:10553500001EE475F00112147A90001EE475F00166
:1055450012147A126286AD077F8C1266B9126286D2
:10555500AD077F841266B9126286AD077F82126637
:10556500B9126286AD077F801266B990001EE47598
:10557500F00112147A90001EE475F00112147A906D
:10558500001EE475F00112147A90001DE0FBA3E003
:0F559500FAA3E0F9121400540FFD7F8A0266B9E1
:10689100AE07EEC4540F540FFE6012EF540FFFE425
:0D68A100FDEDC39E5007740A2FFF0D80F41B
:0168AE0022C7
:105D2200E4FFFE90001DEDF090001DE0C39464744A
:105D32008094804007E0249CF00F80ECEF44301206
:105D42001446740129F9E43AFA90001DE0C3940A5A
:105D5200748094804007E024F6F00E80ECEE44302C
:105D6200121446740129F9E43AFA90001DE0443015
:035D7200021446D2
:0E200C0090001DEBF0A3EAF0A3E9F0A3EDF0C5
:10201A00E4900022F0A3F0900025F0A3F0A3F0A32F
:10202A00F0900024EDF054F0F0E0FFC4540FF0906B
:10203A00002D1214D6404000007F007E007D807C77
:10204A00411235A3C004C005C006C007900024E0B1
:10205A00FCE4120F12D003D002D001D000120E02FB
:10206A00C004C005C006C007900022E0FCA3E0FD42
:10207A00E4120F0DD003D002D001D000120D1112BC
:10208A000F46900022EEF0A3EFF0900020E09000BF
:10209A0024F0540FF090002D1214D6400000007F57
:1020AA00007E007D807C411235A3C004C005C006B5
:1020BA00C007900024E0FCE4120F12D003D002D033
:1020CA0001D000120E02C004C005C006C00790006D
:1020DA0022E0FCA3E0FDE4120F0DD003D002D001F0
:1020EA00D000120D11120F46900022EEF0A3EFF06D
:1020FA00900021E0900024F054F0F0E0FFC4540F67
:10210A00F090002D1214D63F8000007F007E007DE3
:10211A00807C411235A3C004C005C006C0079000E8
:10212A0024E0FCE4120F12D003D002D001D0001236
:10213A000E02C004C005C006C007900022E0FCA33E
:10214A00E0FDE4120F0DD003D002D001D000120D31
:10215A0011120F46900022EEF0A3EFF0900021E05A
:10216A00900024F0540FF090002D1214D6000000B5
:10217A00007F007E007D807C411235A3C004C0052B
:10218A00C006C007900024E0FCE4120F12D003D06E
:10219A0002D001D000120E02C004C005C006C0075A
:1021AA00900022E0FCA3E0FDE4120F0DD003D00260
:1021BA00D001D000120D11120F46900022EEF0A3AA
:1021CA00EFF0C3EF9410EE9427401074F02FFF74D1
:1021DA00D83EFE900025E004F080E7900025E04418
:1021EA0030FD90001DE0FBA3E0FAA3E0F9ED121424
:1021FA004690001EE475F00112147AC3EF94E8EEDB
:10220A009403401074182FFF74FC3EFE900026E0E1
:10221A0004F080E7900026E04430FD90001DE0FBCA
:10222A00A3E0FAA3E0F9ED12144690001EE475F05B
:10223A000112147AC3EF9464EE94004010749C2F38
:10224A00FF74FF3EFE900027E004F080E79000272D
:10225A00E04430FD90001DE0FBA3E0FAA3E0F9EDB5
:10226A0012144690001EE475F00112147AC3EF941A
:10227A000AEE9400401074F62FFF74FF3EFE9000A1
:10228A0028E004F080E7900028E04430FD90001D2B
:10229A00E0FBA3E0FAA3E0F9ED12144690001EE475
:1022AA0075F00112147AEF4430FF90001DE0FBA391
:1022BA00E0FAA3E0F9EF12144690001EE475F0016B
:1022CA0012147A90001DE0FBA3E0FAA3E0F9E402FD
:0222DA001446A8
:032EA00090009F00
:102EA3001253F5EF54F0C4540F4430FE90009FE0EA
:102EB300FBA3E0FAA3E0F9EE1214469000A0E47538
:102EC300F00112147AEF540F4430FF90009FE0FB9F
:102ED300A3E0FAA3E0F9EF1214469000A0E475F022
:102EE3000112147A7F891253FFEF54F0C4540F4434
:102EF30030FE90009FE0FBA3E0FAA3E0F9EE12148A
:102F0300469000A0E475F00112147AEF540F443098
:102F1300FF90009FE0FBA3E0FAA3E0F9EF12144651
:102F23009000A0E475F00112147A7F871253FFEF2B
:102F330054F0C4540F4430FE90009FE0FBA3E0FA2A
:102F4300A3E0F9EE1214469000A0E475F001121408
:102F53007AEF540F4430FF90009FE0FBA3E0FAA305
:102F6300E0F9EF1214469000A0E475F00112147A10
:102F73007F851253FFEF54F0C4540F4430FE90008A
:102F83009FE0FBA3E0FAA3E0F9EE1214469000A041
:102F9300E475F00112147AEF540F4430FF90009F50
:102FA300E0FBA3E0FAA3E0F9EF1214469000A0E4DB
:102FB30075F00112147A7F831253FFEF54F0C45457
:102FC3000F4430FE90009FE0FBA3E0FAA3E0F9EE8C
:102FD3001214469000A0E475F00112147AEF540F16
:102FE3004430FF90009FE0FBA3E0FAA3E0F9EF1267
:102FF30014469000A0E475F00112147A7F811253F5
:10300300FFEF54F0C4540F4430FE90009FE0FBA345
:10301300E0FAA3E0F9EE1214469000A0E475F00183
:1030230012147AEF540F4430FF90009FE0FBA3E0AB
:10303300FAA3E0F9EF1214469000A0E475F0011230
:10304300147A7F8B1253FFEF540F4430FF90009F8D
:10305300E0FBA3E0FAA3E0F9EF1214469000A0E42A
:1030630075F00112147A90009FE0FBA3E0FAA3E04D
:05307300F9E40214461F
:105047009000381253F5126891900038E0FBA3E006
:10505700FAA3E0F9EF121446900039E475F0011253
:10506700147A7F891253FF126891900038E0FBA3EE
:10507700E0FAA3E0F9EF121446900039E475F00165
:1050870012147A7F871253FF126891900038E0FB61
:10509700A3E0FAA3E0F9EF121446900039E475F0A3
:1050A7000112147A7F851253FF126891900038E03D
:1050B700FBA3E0FAA3E0F9EF121446900039E47578
:1050C700F00112147A7F831253FF1268919000380F
:1050D700E0FBA3E0FAA3E0F9EF121446900039E4ED
:0650E70075F00102147ACD
:104A810090002A1253F590002AE0FBA3E0FAA3E07C
:104A9100F9EF12144690002BE475F00112147A7F9D
:104AA100891253FF90002AE0FBA3E0FAA3E0F9EF9B
:104AB10012144690002BE475F00112147A7F8712CC
:104AC10053FF90002AE0FBA3E0FAA3E0F9EF1214F0
:104AD1004690002BE475F00112147A7F851253FF82
:104AE10090002AE0FBA3E0FAA3E0F9EF121446904C
:104AF100002BE475F00112147A7F831253FF9000AA
:104B01002AE0FBA3E0FAA3E0F9EF12144690002B90
:104B1100E475F00112147A7F811253FF90002AE0AC
:104B2100FBA3E0FAA3E0F9EF12144690002BE47521
:104B3100F00112147A90002AE0FBA3E0FAA3E0F955
:044B4100E402144630
:076BBC00C294C296D295229B
:106A8B00E4FDFCC3ED9FEC9E50070DBD00010C8097
:016A9B00F208
:016A9C0022D7
:0468E900AB07AA0649
:1068ED00900000C3E5829BE5839A500A7F967E0057
:0668FD00126A8BA380ED7E
:016903002271
:016C0E002263
:036812001267CE3C
:10681500D20AD293D292E4FFFE209205C20AC29315
:0C682500220FBF00010EBE04F0BF4CEDBE
:016831002244
:036832001267CE1C
:10683500D293D292D20AE4FFFE209205C20AC293F5
:0C684500220FBF00010EBE02F0BF8AED62
:016851002224
:066BF400D29300C29322BF
:1067CE00E4FEEEC39408748094805015EF25E0FF2C
:1067DE0030D704D2928002C292D293126BF40E8002
:0167EE00E1C9
:0167EF002287
:086A9D00ECFD7C00C293C292E3
:0A6AA500D292D29300C292C2932253
:096BAA00C293C292D293D292224E
:105DC500E4FBEBFDC39408748094805038C2933093
:105DD500921690019CE04401F0ED94067480948045
:105DE5005006E025E0F0D29320921790019CE054F4
:105DF500FEF0EBD39406748094805006E025E0F025
:0C5E0500D2930B80BDC29390019CE0FF83
:015E1100226E
:02638700AA0763
:10638900AF05A907126A9DAF02126812AF0512681C
:1063990012AF011267CE126815AF031267CE1268E9
:1063A90015126BAA7F0D7E001268E9D293D2927FF3
:0D63B900627E00126A8B7F627E00026A8B9A
:02657100AB0776
:10657300AF05AA07126A9DAF03126832AF0512680E
:1065830032AF021267CE126835126AA5EB04FF120E
:1065930067CE126815C293125DC5126BAAD293D24D
:0665A3009290019CE0FF54
:0165A90022CF
:105C73009000B0EEF0A3EFF0A3EBF0A3EAF0A3E9FA
:015C8300F030
:105C84009000B0E0FCA3E0FD7FA81265719000B223
:105C9400E0FBA3E0FAA3E0F9EF1214469000B2E0AF
:105CA400FBA3E0FAA3E0F9121400FF9000B1E004B2
:105CB400F070069000B0E004F09000B3E475F001D9
:065CC40012147AEF70BA21
:015CCA0022B7
:1056BA0090007DEFF0A3ECF0A3EDF0A3EBF0A3EAEA
:1056CA00F0A3E9F0900080E0FBA3E0FAA3E0F9126E
:1056DA001400603CB40D04E412144690007DE0FF0F
:1056EA00A3E0FCA3E0FDA3E0FBA3E0FAA3E0F91228
:1056FA001400FB12638790007FE004F070069000AC
:10570A007EE004F0900081E475F00112147A80B40E
:10571A00900080E0FBA3E0FAA3E0F9E412144690BB
:10572A00007DE0FFA3E0FCA3E0FDA3E0FBA3E0FA19
:0A573A00A3E0F9121400FB026387DC
:10518E0053656E736F726573204175746F2079204D
:10519E0073656E736F72312061637469766F732EEF
:1051AE000053656E736F722061637469766F20733E
:1051BE00656E736F7231202E004465746563746181
:1051CE00646F2E2053656E736F72204175746F2E4F
:1051DE000053656E736F726573206E6F2064657415
:1051EE0065637461646F73005665686963756C6F8F
:1051FE00204573706572616E646F2053616C6972C5
:10520E002E005665686963756C6F2053616C696515
:10521E006E646F2E20556E206D6F6D656E746F000F
:076BC300C2B5C2B6C2B72241
:076BCA00C2B5D2B6C2B7222A
:076BD100D2B5D2B6C2B72213
:076BD800C2B5C2B6D2B7221C
:076BDF00D2B5C2B6D2B72205
:076BE600C2B5D2B6D2B722FE
:076BED00D2B5D2B6D2B722E7
:10687200E4FF7D2C7C01309115EFFB3395E04B70EA
:0E6882000DED1D70011CED4C70EC7F0180E8E7
:0168900022E5
:106AAF007F31126BE63091010F126BED3091020FB7
:016ABF000FC7
:016AC00022B3
:105B3700126BD830915D126872EF3395E0FEEF6417
:105B4700014E7047126BDF209123126BCA7BFF2037
:105B5700910D7A51798E126443E490016F80227A15
:105B67005179AF12644390016F74018014126BCAAC
:105B77007BFF2091107A5179C712644390016F74AB
:105B870001F07FFF227A5179DF800E7BFF7A51790E
:0F5B9700F680067BFF7A5279101264437F00225A
:105A5100126BC320916190000EE07014A3E07010EE
:105A610030B35404F012663990000E7401F080478F
:105A710090000EE064017014A3E0701030B338049C
:105A8100F0123BB690000E7402F0802B90000EE0F5
:105A910064027023A3E0701F30B31C04F07D667CA8
:105AA100007FA8126571BF53047F5380027F4E129D
:105AB1005744E490000EF0126BC3309105E490005E
:025AC1000FF0E4
:015AC30022C0
:1022DC004552524F523A2056414C4944414E444F7C
:1022EC0020504C4143412E2E2E20004552524F522D
:1022FC003A204C4F4F50312053494E2050524553A9
:10230C00454E434941205645484943554C4152207E
:10231C00004552524F523A205441524A45544120A2
:10232C00494E56414C49444120005441524A45546F
:10233C0041204E4F2045532044454C205041525192
:10234C002E20005441524A4554412053494E2046B8
:10235C004F524D41544F20005441524A4554412054
:10236C004E4F205245474953545241205041474FFC
:10237C002000455843454445205449454D504F2075
:10238C00444520475241434941200046554552415E
:10239C00204445204C494E454120004249454E566B
:1023AC00454E49444F2050554C534520454C2042F6
:1023BC004F544F4E20004552524F523A2053494EE3
:1023CC0020494E475245534F20005449434B4554E6
:1023DC00204E6F2E00613B30333B4249454E5645F3
:1023EC004E49444F0A0D0000613B30373BA1204D54
:1023FC00454E5355414C494441442056454E434962
:10240C00444120210A0D0000613B39343B4D454EBF
:10241C005355414C494441442045585049524F0A68
:10242C000D0000613B39353B4D454E5355414C49F0
:10243C004441442045584345444520484F5241525D
:10244C00494F204143455251554553452041204366
:10245C00414A410A0D0000613B39373B4D454E5313
:10246C0055414C204E4F205041474F204C4F43413B
:10247C0043494F4E20484F590A0D0000613B3933F8
:10248C003B4D454E5355414C2059412045535441E9
:10249C0020454E20504152515545414445524F0A1A
:1024AC000D0000613B30363B4D454E5355414C20A1
:1024BC00465545524120444520484F524152494FC0
:1024CC000A0D0000613B39363B4E4F204553204DE1
:1024DC00454E5355414C49444144204E492050529D
:1024EC00455041474F0A0D0000613B39323B4C4F80
:1024FC00544520415349474E41444F204553544184
:10250C00204C4C454E4F0A0D000057494547414E53
:10251C00442000613B39323B57494547414E4420EA
:10252C00000A004441544F2057494547414E44004E
:10253C000D0A00613B39313B47524143494153201D
:10254C00000A0000613B30333B4249454E56454E34
:10255C0049444F2000AA80280720000000000014E6
:10256C000000AA8018010200AA8018020200AA80AA
:10257C001801020000000000000000000000000034
:10258C00000000000000000000000000000000003F
:0C259C0000000000000000000000000033
:09678100900052E025E0FFE4FD68
:05678A00900059EDF044
:10678F0012640590005AEFF0900059E0600AE4FFA0
:08679F0012640590005AEFF0AE
:0167A70022CF
:0E64BE00900053EBF0A3EAF0A3E9F0A3EDF099
:1064CC00E4A3F0900053E0FBA3E0FAA3E0F9900002
:1064DC0057E0F582758300121419FF601090005676
:0D64EC00E0FD12678A900057E004F080D6B2
:0164F9002280
:0E61FB00900053EBF0A3EAF0A3E9F0A3EDF05F
:10620900E4900058F0900056E0FF900058E0FEC37B
:106219009F5024900053E0FBA3E0FAA3E0F98E829B
:10622900758300121419FF900057E0FD12678A90D8
:076239000058E004F080CEE4
:01624000223B
:1065AA00781D7C007D017BFF7A2579617E007F0D55
:1065BA001213DAC2877B017A007922124A81C29CBD
:1065CA007B017A00791DE4900057F07D0D1261FB82
:0465DA00D29CD287F6
:0165DE00229A
:065959007B017A007927B2
:0B595F00900053EBF0A3EAF0A3E9F086
:10596A0012000E900057EFF0E4900056F0900057A6
:10597A00E0FF900056E0C39F503DE4900058F0903D
:10598A000058E0C39464748094805005E004F08069
:10599A00EE900053E0FBA3E0FAA3E0F9A3E0F5825E
:1059AA00758300121419FF126405900058EFF090E5
:1059BA000056E004F080B6E4900058F0900058E0F9
:0E59CA00C39464748094805005E004F080EE75
:0159D80022AC
:0525A80090001DEFF0A2
:1025AD0078467C007D017BFF7A25796E7E007F0663
:1025BD001213DA784C7C007D017BFF7A2579747ECD
:1025CD00007F061213DAC28790016BE060030227C9
:1025DD00B47B017A007946FD1264BE90001DE012B5
:1025ED00152726145026F3B62694DF2634E02654FC
:1025FD00E12674E52731E626B4E726D4E82755FA17
:10260D002712FE000027B07BFF7A2279DC12000E24
:10261D00900052EFF0E4FDFF12678A1267817BFF95
:10262D007A2279DC02274E7BFF7A2279F712000E8F
:10263D00900052EFF0E4FDFF12678A1267817BFF75
:10264D007A2279F702274E7BFF7A23791D12000E2D
:10265D00900052EFF0E4FDFF12678A1267817BFF55
:10266D007A23791D02274E7BFF7A23793612000ECD
:10267D00900052EFF0E4FDFF12678A1267817BFF35
:10268D007A23793602274E7BFF7A23794F12000E7B
:10269D00900052EFF0E4FDFF12678A1267817BFF15
:1026AD007A23794F02274E7BFF7A23796412000E2D
:1026BD00900052EFF0E4FDFF12678A1267817BFFF5
:1026CD007A23796402274E7BFF7A23797E12000EDE
:1026DD00900052EFF0E4FDFF12678A1267817BFFD5
:1026ED007A23797E805B7BFF7A23799712000E9097
:1026FD000052EFF0E4FDFF12678A1267817BFF7ACB
:10270D00237997803C7BFF7A2379A712000E9000E6
:10271D0052EFF0E4FDFF12678A1267817BFF7A2387
:10272D0079A7801D7BFF7A2379C212000E9000528B
:10273D00EFF0E4FDFF12678A1267817BFF7A237940
:10274D00C27D011264BE805B7B017A00791E12642A
:10275D00FA782D7C007D017BFF7A2379D61217B490
:10276D009000A27401F0A37400F0A3741EF07B011D
:10277D007A00792D125BA67B017A00792D12000E5D
:10278D00EF04900052F0E4FDFF12678A1267817B1F
:10279D00017A00792D900052E0FD9000577401F000
:1027AD001261FBD2878071C28790001DE012152740
:1027BD00281C0527EC5E27F45F28146027FC612890
:1027CD000C6228046327E4B427DCFE000028257B77
:1027DD00FF7A2379E1803E7BFF7A2379F480367B83
:1027ED00FF7A247914802E7BFF7A24792F80267B23
:1027FD00FF7A247963801E7BFF7A24798880167B8B
:10280D00FF7A2479AF800E7BFF7A2479D080067B06
:0A281D00FF7A2479F512595FD28783
:01282700228E
:0E32440090001DEFF0A3EBF0A3EAF0A3E9F079
:1032520078217C007D017BFF7A25797A7E007F06CA
:103262001213DA78277C007D017BFF7A2579807E34
:10327200007F281213DAC28790016BE0706290001F
:103282001DE0245070557B017A007921E4FD12641F
:10329200BE7BFF7A25791612000E90004FEFF09058
:1032A200001EE0FBA3E0FAA3E0F912000E90004F2B
:1032B200E02F04F0E4FDFF12678A90004F1267844A
:1032C2007BFF7A2579167D011264BE90001EE0FB19
:1032D200A3E0FAA3E0F97D011264BED2870233FBB8
:1032E200C28790001DE0246570030233BB249C60FA
:1032F2006C24A360030233FB78277C007D017BFFF3
:103302007A25791F1217B490001EE0F9A3E0FAA300
:10331200E09000A2C9F0A3EAF0A3E9F07B017A00F1
:103322007927125BA69000A274FFF0A37425F0A384
:10333200742DF07B017A007927125BA61259597B12
:10334200FF7A25792F1264437B017A007927126470
:10335200437BFF7A25793C1264430233FB78277C56
:10336200007D017BFF7A25793F1217B490001EE0A1
:10337200FBA3E0FAA3E0F912000E90004FEFF02455
:10338200FFFFE434FFFE90001EE0FBA3E0FAA3E09F
:10339200F98F828E83E412145890001EE0F9A3E0A4
:1033A200FAA3E09000A2C9F0A3EAF0A3E9F07B013E
:1033B2007A007927125BA6802678277C007D017B24
:1033C200FF7A2579501217B412595978277C007D5B
:1033D2000190001EE0FBA3E0FAA3E0F91217B490FB
:1033E20000A274FFF0A37425F0A3744DF07B017A60
:0B33F200007927125BA6125959D28700
:0133FD0022AD
:100026000D0A0A25733E20002563002564000D0A8B
:100036000A2041435455414C2049445F434C4945AD
:100046004E54453D25730D0A0A000D0A0A204449FF
:1000560047495445205355204E5545564F2049444F
:100066005F434C49454E54453D000D0A0A20444124
:10007600544F204D4F444946494341444F2049443B
:100086005F434C49454E54453D25730D0A0A000D04
:100096000A0A2041435455414C20434F445F504186
:1000A600524B3D25730D0A0A000D0A0A20444947A2
:1000B600495445205355204E5545564F20434F44ED
:1000C6005F5041524B3D000D0A0A204441544F20D7
:1000D6004D4F444946494341444F20434F445F50A6
:1000E60041524B3D25730D0A0A000D0A0A20414371
:1000F6005455414C205449454D504F5F475241435A
:1001060049413D25730D0A0A000D0A0A2044494754
:10011600495445205355204E5545564F2054494580
:100126004D504F5F4752414349413D000D0A0A2059
:100136004441544F204D4F444946494341444F2082
:100146005449454D504F5F4752414349413D257300
:100156000D0A0A000D0A0A2041435455414C20530A
:10016600494E5F434F42524F20494E484142494C07
:10017600495441444F3D25730D0A0A000D0A0A20D1
:1001860041435455414C2053494E5F434F42524FD1
:10019600204752415449533D25730D0A0A000D0A62
:1001A6000A2041435455414C2053494E5F434F4228
:1001B600524F2047524154495320592053414C49EC
:1001C600444120454C204D49534D4F204449413D23
:1001D60025730D0A0A000D0A0A2044494749544569
:1001E600205355204E5545564F2053494E5F434F99
:1001F60042524F3D000D0A0A2041435455414C20BE
:10020600444542554720494E484142494C4954418C
:10021600444F3D25730D0A0A000D0A0A2041435436
:1002260055414C20444542554720484142494C4996
:100236005441444F3D25730D0A0A000D0A0A204415
:10024600494749544520454C204E5545564F204573
:10025600535441444F2044452044454255473D00B0
:100266000D0A0A2041435455414C205553455F4CD5
:10027600505220494E484142494C495441444F3D11
:1002860025730D0A0A000D0A0A2041435455414CB4
:10029600205553455F4C505220484142494C4954E1
:1002A60041444F3D25730D0A0A000D0A0A204449B0
:1002B6004749544520454C204E5545564F204553F9
:1002C6005441444F204445205553455F4C50523DC0
:1002D600000D0A0A2041435455414C20434F4D50CE
:1002E60041524143494F4E204143544956412049CA
:1002F6004E484142494C495441444F3D25730D0AED
:100306000A000D0A0A2041435455414C20434F4DE3
:100316005041524143494F4E204143544956412092
:1003260020484142494C495441444F3D25730D0AEA
:100336000A000D0A0A2044494749544520454C20E5
:100346004E5545564F2045535441444F2044452071
:10035600434F4D5041524143494F4E20414354492A
:100366005641203D000D0A0A2041435455414C2078
:10037600434F4D5041524143494F4E20414354490A
:1003860056412020494E484142494C495441444F28
:100396003D25730D0A0A000D0A0A204143545541B2
:1003A6004C20434F4449474F204445204241525236
:1003B6004153204143544956303D25730D0A0A00E6
:1003C6000D0A0A2041435455414C20434F444947A6
:1003D6004F2051522041435449564F3D25730D0A33
:1003E6000A000D0A0A2044494749544520454C2035
:1003F6004E5545564F2045535441444F20444520C1
:10040600434F4449474F205152204F20434F4449C0
:10041600474F204445204241525241533D000D0A68
:100426000A2050414E54414C4C41204C43442048F4
:100436004142494C49544144413D25730D0A0A0045
:100446000D0A0A2050414E54414C4C412052415312
:100456005042455252592020484142494C49544144
:1004660044413D25730D0A0A000D0A0A20444947F6
:1004760049544520454C204E5545564F204553542A
:1004860041444F204445204C412050414E54414C5C
:100496004C41203D000D0A0A2050414E54414C4C1F
:1004A60041204C4344204143544956413D25730D58
:1004B6000A0A000D0A0A2050414E54414C4C412074
:1004C6005241535042455252592041435449564194
:1004D600203D25730D0A0A000D0A0A204469676942
:1004E600746520656C206E6F6D6272652064656C44
:1004F60020636C69656E746520000D0A0A207465B8
:1005060078746F206772616261646F3D25730D0AAE
:100516000A000D0A0A2044696769746520656C2023
:100526006E756D65726F206465204E697420000DCE
:100536000A0A204E49543A2025730D0A0A000D0A6C
:100546000A2044696769746520656C204E6F6D6288
:1005560072652064656C20506172717565616465B1
:10056600726F20000D0A0A204E6F6D6272653A2086
:1005760025730D0A0A000D0A0A2044696769746525
:10058600206C6120646972656363696F6E206465BF
:100596006C2065737461626C6563696D69656E7400
:1005A6006F20000D0A0A20446972656363696F6EE5
:1005B6003A2025730D0A0A000D0A0A204469676964
:1005C600746520656C206D736A312064656C2065E6
:1005D600737461626C6563696D69656E746F200022
:1005E6000D0A0A206D736A313A2025730D0A0A0036
:1005F6000D0A0A2044696769746520656C206D736D
:100606006A322064656C2065737461626C65636927
:100616006D69656E746F20000D0A0A20446967696A
:10062600746520656C206D736A332064656C206583
:10063600737461626C6563696D69656E746F2000C1
:100646000D0A0A206D736A333A2025730D0A0A00D3
:100656000D0A0A2044696769746520656C206D730C
:100666006A342064656C2065737461626C656369C5
:100676006D69656E746F20000D0A0A206D736A3409
:100686003A2025730D0A0A000D0A0A204469676993
:10069600746520656C206D736A352064656C206511
:1006A600737461626C6563696D69656E746F200051
:1006B6000D0A0A206D736A353A2025730D0A0A0061
:1006C6000D0A0A2044696769746520656C206D739C
:1006D6006A362064656C2065737461626C65636953
:1006E6006D69656E746F20000D0A0A206D736A3697
:1006F6003A2025730D0A0A000D0A0A204469676923
:10070600746520656C206D736A372064656C20659E
:10071600737461626C6563696D69656E746F2000E0
:100726000D0A0A206D736A373A2025730D0A0A00EE
:100736000D0A2049445F434C49454E54452020202C
:10074600202D2D2D20636D642030204964656E7444
:100756006966696361646F722064656C20636C69A5
:10076600656E7465206D6178696D6F203235350070
:100776000D0A20434F445F5041524B202020202039
:10078600202D2D2D20636D64203120456C206E7543
:100796006D65726F2064656C20706172717565613C
:1007A6006465726F206D6178696D6F203235350032
:1007B6000D0A20545F475241434941202020202002
:1007C600202D2D2D20636D642032205469656D70B7
:1007D6006F2073696E20636F62726F2030302C2039
:1007E600206D6178696D6F20323535000D0A205312
:1007F600494E5F434F42524F20202020202D2D2D61
:1008060020636D64203320496E686162696C697487
:1008160061646F3D20302C204772617469733D20FE
:1008260031202C2047726174697320792073616CC2
:1008360069646120656C206D69736D6F2064696100
:100846003D2032000D0A20444542554720202020F5
:1008560020202020202D2D2D20636D64203420485B
:100866006162696C69746172203D20312C20496E89
:10087600686162696C69746172203D2030000D0AFE
:10088600205553455F4C5052202020202020202DFB
:100896002D2D20636D642035486162696C69746131
:1008A60072203D20312C20496E686162696C697442
:1008B6006172203D2030000D0A20434F4D504152B9
:1008C6004143494F4E5F414354495641202D2D2DFA
:1008D600636D64203620486162696C6974617220B8
:1008E6003D20312C20496E686162696C69746172C1
:1008F600203D2030000D0A2051525F434F445F4295
:100906004152524153202D2D2D636D6420372048CE
:100916006162696C69746172205152203D20312CEC
:1009260020486162696C6974617220434F445F427A
:100936004152524153203D2030000D0A2054495067
:100946004F5F50414E54414C4C41202D2D2D20439C
:100956004D4420382050414E54414C4C41204C438C
:1009660044203D302050414E54414C4C4120524190
:10097600535042455252493D31000D0A20434C49DD
:10098600454E5445202020202020202D2D2D636DFE
:10099600642039204E6F6D6272652064656C206339
:1009A6006C69656E7465000D0A204E49542020203E
:1009B60020202020202020202D2D2D20636D642036
:1009C6003130204E756D65726F2064656C206E69DE
:1009D60074000D0A204E4F4D5F5041525120202089
:1009E6002020202D2D2D20636D64203131204E6F67
:1009F6006D6272652064656C2070617271756561E7
:100A06006465726F000D0A20444952454343494FBD
:100A16004E20202020202D2D2D20636D6420313284
:100A2600204E6F6D6272652064656C207061727114
:100A36007565616465726F000D0A204D534A5F311A
:100A46002020202020202020202D2D2D20636D64A5
:100A5600203133206D736A20646520696E666F727B
:100A66006D6163696F6E2064656C2070617271756B
:100A760065616465726F000D0A204D534A5F32202E
:100A860020202020202020202D2D2D20636D642065
:100A96003134206D736A20646520696E666F726DED
:100AA6006163696F6E2064656C2070617271756533
:100AB600616465726F000D0A204D534A5F33202032
:100AC600202020202020202D2D2D20636D64203114
:100AD60035206D736A20646520696E666F726D617C
:100AE60063696F6E2064656C2070617271756561F3
:100AF6006465726F000D0A204D534A5F3420202032
:100B06002020202020202D2D2D20636D64203136BD
:100B1600206D736A20646520696E666F726D61630D
:100B2600696F6E2064656C207061727175656164B1
:100B360065726F000D0A204D534A5F352020202034
:100B460020202020202D2D2D20636D64203137207C
:100B56006D736A20646520696E666F726D61636984
:100B66006F6E2064656C2070617271756561646575
:100B7600726F000D0A204D534A5F36202020202038
:100B8600202020202D2D2D20636D64203138206DEE
:100B9600736A20646520696E666F726D6163696F42
:100BA6006E2064656C207061727175656164657232
:100BB6006F000D0A204D534A5F3720202020202049
:100BC6002020202D2D2D20636D64203139206D735A
:100BD6006A20646520696E666F726D6163696F6E07
:100BE6002064656C20706172717565616465726FF1
:100BF600000D0A2041595544412020202020202064
:100C060020202D2D2D20636D64203230204D7565FA
:100C160073747261206C6F7320636F6D616E646FA5
:100C260073000D0A2053414C4952202020202020D9
:100C36002020202D2D2D20636D642032312053611C
:100C46006C69722064652070726F6772616D616392
:100C5600696F6E000D0A0A53697374656D612064CD
:100C6600652050726F6772616D6163696F6E2056A1
:100C760065726966696361646F720D0A0D0A000D1B
:100C86000A0A2F3E5573756172696F3A000D0A0A9A
:100C9600206461746F732064656C20627566666596
:100CA600722072782025730D0A0A000D0A0A206444
:100CB60061746F732064656C206275666665722068
:100CC60074782025730D0A0A000D0A0A2F3E50611A
:100CD6007373776F72643A00313233343536000DF0
:100CE6000A436F6D616E646F206E6F20657869735D
:100CF6007465202725732700200D0A00200D0A00A1
:040D0600220D0A00B0
:104DB0005400DF2F00000000000000000000000091
:104DC000000000000000004900D661646D696E00BB
:104DD000000000604200F3300000310000320000AB
:104DE0003300003400003500003600003700003882
:104DF00000003900003130003131003132003133F0
:104E0000003134003135003136003137003138009F
:094E10003139003230003231006A
:0B5C110090003FEBF0A3EAF0A3E9F0E5
:105C1C00E4900045F0900045E0FFC3941674809426
:105C2C00805041EF75F003A424F3F9740035F0FAB9
:105C3C007B0178427C007D011217B478427C007D98
:105C4C000190003FE0FBA3E0FAA3E0F91216CBEFC2
:105C5C003395E04F7006900045E0FF22900045E040
:065C6C0004F080B17FFF8F
:015C7200220F
:0B62410090000EE0FBA3E0FAA3E0F9E0
:0B624C0090003FEBF0A3EAF0A3E9F0A4
:1062570078427C007D017B017A0079D61217B478E9
:10626700427C007D0190003FE0FBA3E0FAA3E0F948
:0E6277001216CBEF3395E04F7002FF227FFF2F
:0162850022F6
:066308007B017A00792BF5
:0B630E0090003FEBF0A3EAF0A3E9F0E1
:1063190078427C007D017BFF7A0C79FE7E007F0448
:106329001213DA90004D7401F0A37400F0A37442C3
:0F633900F090003FE0FBA3E0FAA3E0F9024594E7
:10548500E0FBA3E0FAA3E02FF9EA3EFAE92401F9EB
:03549500E43AFAFC
:0B54980090003FEBF0A3EAF0A3E9F066
:1054A30078427C007D017BFF7A0D79027E007F04C8
:1054B3001213DA78467C007D017BFF7A0D79067E34
:1054C300007F041213DA90003FE0FBA3E0FAA3E0AD
:1054D300F9121400FFB4200C900040E475F001129F
:1054E300147A80E2EF90004DB4220D7401F0A3749E
:1054F30000F0A37446F080167401F0A37400F0A3C7
:105503007442F090003FE0FBA3E0FAA3E0F91245F8
:015513009403
:015514002274
:10694F009000A57401F0A37400F0A374DFF07BFF37
:07695F007A0079260218B34B
:084F9A007A00792B7B01E4FD94
:0E4FA20090007DEBF0A3EAF0A3E9F0A3EDF0A0
:104FB000126B8090007DE0FBA3E0FAA3E0F9EF1212
:104FC0001446900080E0701D90007DE0FBA3E0FAA5
:104FD000A3E0F91214009000A5F07BFF7A00792E6F
:104FE0001218B380057F2A12640590007DE0FBA3B0
:104FF000E0FAA3E0F9121400FF7E00900081EEF0C9
:10500000A3EFF090007EE475F00112147A90007D19
:10501000E0FBA3E0FAA3E0F9E4121446EF640D60AC
:105020000C900081E07004A3E0640A708390007E1D
:1050300074FFF5F012147A90007DE0FBA3E0FAA370
:07504000E0F9740A021446B6
:104E3000E4FDFC7FA81265717E00900049EEF0A3AE
:104E4000EFF09000A574FFF0A37400F0A37431F0AC
:104E5000A3EEF0A3EFF07B017A00793F1218AD903A
:104E600000A57401F0A37400F0A3743FF07BFF7AF7
:104E70000079341218B37BFF7A0079501218B37A94
:104E800000793F124F9E7B017A00793F124678905D
:104E90000049EEF0A3EFF0FBE4FDFC7FA81263876E
:104EA000E4FDFC7FA81265717E00900049EEF0A33E
:104EB000EFF09000A574FFF0A37400F0A37431F03C
:104EC000A3EEF0A3EFF07B017A00793F1218AD90CA
:104ED00000A57401F0A37400F0A3743FF07BFF7A87
:064EE0000079700218B316
:104B45007D027C007FA81265717E00900049EEF021
:104B5500A3EFF09000A574FFF0A37400F0A37431E7
:104B6500F0A3EEF0A3EFF07B017A00793F1218ADC8
:104B75009000A57401F0A37400F0A3743FF07BFFCF
:104B85007A0079951218B37BFF7A0079AF1218B3C2
:104B95007B017A00793FE4FD124FA27B017A00790F
:104BA5003F124678900049EEF0A3EFF0FB7D027CC2
:104BB500007FA81263877D027C007FA81265717E45
:104BC50000900049EEF0A3EFF09000A574FFF0A36C
:104BD5007400F0A37431F0A3EEF0A3EFF07B017A3B
:104BE50000793F1218AD9000A57401F0A37400F090
:0D4BF500A3743FF07BFF7A0079CD0218B366
:104C02007D047C007FA81265717E00900049EEF061
:104C1200A3EFF09000A574FFF0A37400F0A3743129
:104C2200F0A3EEF0A3EFF07B017A00793F1218AD0A
:104C32009000A57401F0A37400F0A3743FF07BFF11
:104C42007A0079F01218B37BFF7A01790F1218B348
:104C52007B017A00793FE4FD124FA27B017A007951
:104C62003F124678900049EEF0A3EFF0FB7D047C02
:104C7200007FA81263877D047C007FA81265717E85
:104C820000900049EEF0A3EFF09000A574FFF0A3AE
:104C92007400F0A37431F0A3EEF0A3EFF07B017A7D
:104CA20000793F1218AD9000A57401F0A37400F0D2
:0D4CB200A3743FF07BFF7A0179320218B342
:103709007D067C007FA81265717E00900049EEF06D
:10371900A3EFF09000A574FFF0A37400F0A3743137
:10372900F0A3EEF0A3EFF07B017A00793F1218AD18
:10373900900049E07002A3E070159000A504F0A381
:103749007400F0A3743FF07BFF7A01795A803590B9
:103759000049E07004A3E0640170159000A504F02D
:10376900A37400F0A3743FF07BFF7A01798280147F
:103779009000A57401F0A37400F0A3743FF07BFFDF
:103789007A0179A41218B37BFF7A0179DC1218B394
:103799007B017A00793FE4FD124FA27B017A00791F
:1037A9003F124678900049EEF0A3EFF0FB7D067CCE
:1037B900007FA81263877D067C007FA81265717E51
:1037C90000900049EEF0A3EFF09000A574FFF0A37C
:1037D9007400F0A37431F0A3EEF0A3EFF07B017A4B
:1037E90000793F1218AD900049E07002A3E070150E
:1037F9009000A504F0A37400F0A3743FF07BFF7A56
:1038090001795A8035900049E07004A3E0640170A1
:10381900159000A504F0A37400F0A3743FF07BFF9A
:103829007A01798280149000A57401F0A37400F0E4
:0D383900A3743FF07BFF7A0179A41218B34D
:01384600225F
:103DD2007D087C007FA81265717E00900049EEF09C
:103DE200A3EFF09000A574FFF0A37400F0A3743168
:103DF200F0A3EEF0A3EFF07B017A00793F1218AD49
:103E0200900049E07002A3E070159000A504F0A3B1
:103E12007400F0A3743FF07BFF7A0179FB80149069
:103E220000A57401F0A37400F0A3743FF07BFF7A45
:103E320002791F1218B37BFF7A0279411218B37B01
:103E4200017A00793FE4FD124FA27B017A00793FAB
:103E5200124678900049EEF0A3EFF0FB7D087C005B
:103E62007FA81263877D087C007FA81265717E009F
:103E7200900049EEF0A3EFF09000A574FFF0A37458
:103E820000F0A37431F0A3EEF0A3EFF07B017A000F
:103E9200793F1218AD900049E07002A3E0701590CE
:103EA20000A504F0A37400F0A3743FF07BFF7A0135
:103EB20079FB80149000A57401F0A37400F0A37440
:0B3EC2003FF07BFF7A02791F1218B35B
:013ECD0022D2
:103ECE007D0A7C007FA81265717E00900049EEF09D
:103EDE00A3EFF09000A574FFF0A37400F0A374316B
:103EEE00F0A3EEF0A3EFF07B017A00793F1218AD4C
:103EFE00900049E07002A3E070159000A504F0A3B5
:103F0E007400F0A3743FF07BFF7A02796680149000
:103F1E0000A57401F0A37400F0A3743FF07BFF7A48
:103F2E0002798C1218B37BFF7A0279B01218B37B28
:103F3E00017A00793FE4FD124FA27B017A00793FAE
:103F4E00124678900049EEF0A3EFF0FB7D0A7C005C
:103F5E007FA81263877D0A7C007FA81265717E00A0
:103F6E00900049EEF0A3EFF09000A574FFF0A3745B
:103F7E0000F0A37431F0A3EEF0A3EFF07B017A0012
:103F8E00793F1218AD900049E07002A3E0701590D1
:103F9E0000A504F0A37400F0A3743FF07BFF7A0237
:103FAE00796680149000A57401F0A37400F0A374D8
:0B3FBE003FF07BFF7A02798C1218B3F1
:013FC90022D5
:103FCA007D0C7C007FA81265717E00900049EEF09E
:103FDA00A3EFF09000A574FFF0A37400F0A374316E
:103FEA00F0A3EEF0A3EFF07B017A00793F1218AD4F
:103FFA00900049E07002A3E070159000A504F0A3B8
:10400A007400F0A3743FF07BFF7A0279D780149092
:10401A0000A57401F0A37400F0A3743FF07BFF7A4B
:10402A000379081218B37BFF7A0379381218B37B25
:10403A00017A00793FE4FD124FA27B017A00793FB1
:10404A00124678900049EEF0A3EFF0FB7D0C7C005D
:10405A007FA81263877D0C7C007FA81265717E00A1
:10406A00900049EEF0A3EFF09000A574FFF0A3745E
:10407A0000F0A37431F0A3EEF0A3EFF07B017A0015
:10408A00793F1218AD900049E07002A3E0701590D4
:10409A0000A504F0A37400F0A3743FF07BFF7A0339
:1040AA00796B80149000A57401F0A37400F0A374D6
:0B40BA003FF07BFF7A0379081218B377
:0140C50022D8
:1040C6007D0E7C007FA81265717E00900049EEF09F
:1040D600A3EFF09000A574FFF0A37400F0A3743171
:1040E600F0A3EEF0A3EFF07B017A00793F1218AD52
:1040F600900049E07002A3E070159000A504F0A3BB
:104106007400F0A3743FF07BFF7A03799D801490CE
:1041160000A57401F0A37400F0A3743FF07BFF7A4E
:104126000379C61218B37BFF7A0379E81218B37BBA
:10413600017A00793FE4FD124FA27B017A00793FB4
:10414600124678900049EEF0A3EFF0FB7D0E7C005E
:104156007FA81263877D0E7C007FA81265717E00A2
:10416600900049EEF0A3EFF09000A574FFF0A37461
:1041760000F0A37431F0A3EEF0A3EFF07B017A0018
:10418600793F1218AD900049E07002A3E0701590D7
:1041960000A504F0A37400F0A3743FF07BFF7A033C
:1041A600799D80149000A57401F0A37400F0A374A7
:0B41B6003FF07BFF7A0379C61218B3BC
:0141C10022DB
:1041C2007D0F7C007FA81265717E00900049EEF0A1
:1041D200A3EFF09000A574FFF0A37400F0A3743174
:1041E200F0A3EEF0A3EFF07B017A00793F1218AD55
:1041F200900049E07002A3E070159000A504F0A3BE
:104202007400F0A3743FF07BFF7A04792480149049
:1042120000A57401F0A37400F0A3743FF07BFF7A51
:104222000479461218B37BFF7A04796F1218B37BB4
:10423200017A00793FE4FD124FA27B017A00793FB7
:10424200124678900049EEF0A3EFF0FB7D0F7C0060
:104252007FA81263877D0F7C007FA81265717E00A4
:10426200900049EEF0A3EFF09000A574FFF0A37464
:1042720000F0A37431F0A3EEF0A3EFF07B017A001B
:10428200793F1218AD900049E07002A3E0701590DA
:1042920000A504F0A37400F0A3743FF07BFF7A043E
:1042A200799B80149000A57401F0A37400F0A374AC
:0B42B2003FF07BFF7A0479B91218B3CB
:0142BD0022DE
:105EA7007BFF7A0479DE1218B37B017A00793FE42D
:105EB700FD124FA27B017A00793F7D107C007FA8FD
:105EC7001256BA7B017A00793F7F107E00125C730D
:105ED7009000A57401F0A37400F0A3743FF07BFF5A
:075EE7007A0579000218B3EF
:105EEE007BFF7A0579181218B37B017A00793FE4AB
:105EFE00FD124FA27B017A00793F7D407C007FA886
:105F0E001256BA7B017A00793F7F407E00125C7395
:105F1E009000A57401F0A37400F0A3743FF07BFF12
:075F2E007A0579350218B372
:105F35007BFF7A0579441218B37B017A00793FE437
:105F4500FD124FA27B017A00793F7D507C007FA82E
:105F55001256BA7B017A00793F7F507E00125C733E
:105F65009000A57401F0A37400F0A3743FF07BFFCB
:075F75007A05796A0218B3F6
:105F7C007BFF7A05797C1218B37B017A00793FE4B8
:105F8C00FD124FA27B017A00793F7D807C007FA8B7
:105F9C001256BA7B017A00793F7F807E00125C73C7
:105FAC009000A57401F0A37400F0A3743FF07BFF84
:075FBC007A0579A90218B370
:105FC3007BFF7A0579BE1218B37B017A00793FE42F
:105FD300FD124FA27B017A00793F7DB07C007FA840
:105FE3001256BA7B017A00793F7FB07E00125C7350
:105FF3009000A57401F0A37400F0A3743FF07BFF3D
:076003007A0579E60218B3EB
:10600A007BFF7A0579F61218B37B017A00793FE4AF
:10601A00FD124FA27B017A00793F7DF17C007FA8B7
:10602A001256BA7B017A00793F7FF17E00125C73C7
:10603A009000A57401F0A37400F0A3743FF07BFFF5
:07604A007A0579E60218B3A4
:106051007BFF7A06791E1218B37B017A00793FE43F
:10606100FD124FA27B017A00793F7D327C017FA82E
:106071001256BA7B017A00793F7F327E01125C733E
:106081009000A57401F0A37400F0A3743FF07BFFAE
:076091007A0679460218B3FC
:106098007BFF7A0679561218B37B017A00793FE4C0
:1060A800FD124FA27B017A00793F7D737C017FA8A6
:1060B8001256BA7B017A00793F7F737E01125C73B6
:1060C8009000A57401F0A37400F0A3743FF07BFF67
:0760D8007A06797E0218B37D
:1060DF007BFF7A06798E1218B37B017A00793FE441
:1060EF00FD124FA27B017A00793F7DB47C017FA81E
:1060FF001256BA7B017A00793F7FB47E01125C732E
:10610F009000A57401F0A37400F0A3743FF07BFF1F
:07611F007A0679B60218B3FD
:106126007BFF7A0679C61218B37B017A00793FE4C1
:10613600FD124FA27B017A00793F7DF57C017FA895
:106146001256BA7B017A00793F7FF57E01125C73A5
:106156009000A57401F0A37400F0A3743FF07BFFD8
:076166007A0679EE0218B37E
:10616D007BFF7A0679FE1218B37B017A00793FE442
:10617D00FD124FA27B017A00793F7D367C027FA80C
:10618D001256BA7B017A00793F7F367E02125C731C
:10619D009000A57401F0A37400F0A3743FF07BFF91
:0761AD007A0779260218B3FE
:1048F6007BFF7A0779361218B37BFF7A077976122F
:1049060018B37BFF7A0779B61218B37BFF7A07795B
:10491600F21218B37BFF7A08794A1218B37BFF7A32
:104926000879841218B37BFF7A0879BD1218B37B15
:10493600FF7A0879FB1218B37BFF7A0979401218BF
:10494600B37BFF7A0979801218B37BFF7A0979ADB8
:104956001218B37BFF7A0979D81218B37BFF7A0A4B
:10496600790B1218B37BFF7A0A793E1218B37BFFD4
:104976007A0A797D1218B37BFF7A0A79BC1218B3CA
:104986007BFF7A0A79FB1218B37BFF7A0B793A120E
:1049960018B37BFF7A0B79791218B37BFF7A0B7900
:1049A600B81218B37BFF7A0B79F71218B37BFF7A2C
:0649B6000C79280218B381
:102828007BFF7A0C795A1218B37BFF7A0C798512E0
:1028380018B3126B72124F9A12630890000EEBF0E5
:10284800A3EAF0A3E9F09000A5E4F0A37400F0A3D4
:10285800742CF07BFF7A0C79931218B39000A5E4DE
:10286800F0A37400F0A3745EF07BFF7A0C79B112C8
:1028780018B3126241EF70B17BFF7A0C79CF12184E
:10288800B37B017A00792B7D01124FA21263089065
:10289800000EEBF0A3EAF0A3E9F078D67C007D0106
:1028A8007BFF7A0C79DE1217B4126241EF70C9020D
:1028B8002A3A12694F124F9A12630890000EEBF0F1
:1028C800A3EAF0A3E9F012000E90000E12548590CE
:1028D8000011EBF0A3EAF0A3E9F012000E9000114A
:1028E800125485900014EBF0A3EAF0A3E9F09000ED
:1028F80011E0FBA3E0FAA3E0F9EA494B60171214D0
:1029080000B42F1178177C007D01900011A3A3E07B
:102918001217B4803D900011E0FBA3E0FAA3E0F9A0
:10292800EA494B602D78177C007D017B017A00799C
:10293800DF1217B4900011E0F9A3E0FAA3E09000C9
:10294800A2C9F0A3EAF0A3E9F07B017A0079171293
:102958005BA690000EE0FBA3E0FAA3E0F9EA494B7E
:1029680070030228BA125C11EFB416004003022A61
:1029780040902980F82828730229C20229C8022910
:10298800CE0229D40229DA0229E00229E60229EC3A
:102998000229F20229F80229FE022A04022A0A025E
:1029A8002A10022A16022A1C022A22022A28022A8D
:1029B8002E022A34022A3A022A61124E300228BA1A
:1029C800124B450228BA124C020228BA12370902E1
:1029D80028BA123DD20228BA123ECE0228BA123FB5
:1029E800CA0228BA1240C60228BA1241C20228BA3C
:1029F800125EA70228BA125EEE0228BA125F3502EA
:102A080028BA125F7C0228BA125FC30228BA126081
:102A18000A0228BA1260510228BA1260980228BA2B
:102A28001260DF0228BA1261260228BA12616D020A
:102A380028BA1248F60228BA90000EE0F9A3E0FA84
:102A4800A3E09000A5C9F0A3EAF0A3E9F07BFF7A20
:092A58000C79E51218B30228BA4A
:012A61002252
:036C0B00256400FD
:0B52C80090000EEBF0A3EAF0A3E9F069
:1052D3009000137401F0A374F4F0126C08E49000CE
:1052E30012F0C286900011F0C2B2900013E0FEA348
:1052F300E0FF20B35B900011E07055900013E0FED7
:10530300A3E0FFEF1F70011EEF4E70059000110424
:10531300F030B406900011E060E920B4339000113E
:10532300E0702D90000EE0FBA3E0FAA3E0F9E5A006
:10533300121446900012E004F090000FE475F0019F
:1053430012147A900013E0FEA3E0FF30B4FD80A2B4
:0C535300D2B2D286126BFA900012E0FF7A
:01535F00222B
:0E4EE600900038EBF0A3EAF0A3E9F0A3EDF0A2
:104EF400900041F0D2B2D2B4C286E4900040F0C235
:104F0400B290003C1214D600004E2030B3499000F9
:104F140040E07043C2B2D2B490003CE0FCA3E0FD98
:104F2400A3E0FEA3E0FFEF24FFFFEE34FFFEED3429
:104F3400FFFDEC34FFFC90003C1214CA90003CE0EE
:104F4400FCA3E0FDA3E0FEA3E0FFEC4D4E4F70BBDD
:104F5400A304F0C28280B4900040E0702920B326FC
:104F6400900038E0FBA3E0FAA3E0F9121400F5A0E6
:104F7400126AC1900039E475F00112147A90003B72
:104F8400E014F0E070DA75A0FFD2B2D2B4D2867F1A
:064F9400627E00026A8B40
:103078009000367402F0E4A3F090000E7402F0A3FE
:10308800EFF07B017A00792C1264FA7B017A0079DF
:103098002C12000EE4FE9000367402F0742C2EF50B
:1030A80082E43400F583E0FD900036E0FC04F0741F
:1030B8000E2CF582E43400F583EDF01F0EEF70DC82
:1030C800900036E0FF04F0740E2FF582E43400F52A
:1030D80083742DF0900036E0A3F0240EF9E4340058
:1030E800FA7B01125047900037E0900036F0E02458
:1030F8000EF582E43400F583E02430FF900036E0DA
:10310800FE04F0740E2EF582E43400F583EFF0909F
:103118000036E0240EF582E43400F583E02430FF25
:10312800900036E0FE04F0740E2EF582E43400F5CB
:1031380083EFF0900036E0240EF582E43400F58346
:10314800E02430FF900036E0FE04F0740E2EF58285
:10315800E43400F583EFF0900036E0240EF582E4C5
:103168003400F583E02430FF900036E0FE04F0746C
:103178000E2EF582E43400F583EFF0900036E0245B
:103188000EF582E43400F583E02430FF900036E049
:10319800FE04F0740E2EF582E43400F583EFF0900F
:1031A8000036E0FF04F0740E2FF582E43400F58356
:1031B800742DF07B017A01795D12000EE4FEEF6058
:1031C80026745D2EF582E43401F583E0FD90003627
:1031D800E0FC04F0740E2CF582E43400F583EDF085
:1031E8001F0EEF70DC8014900036E0FF04F0740EC0
:1031F8002FF582E43400F5837420F0900036E0FF68
:1032080004F0740E2FF582E43400F5837403F0C2E1
:10321800B230B3FD7B017A00790E900036E0FD12E2
:103228004EE6126BB37B017A00790E900036E0FD12
:0C32380090003C7401F0125AC4026BB309
:106AC100C2B47F287E00126A8BD2B47F287E000276
:026AD1006A8BCE
:06574400900010EFF0FBE5
:10574A00D2B4C286E4A3F0A31214D600003A988B0E
:10575A00A0C2B230B343900011E0703DA3E0FCA3B5
:10576A00E0FDA3E0FEA3E0FFEF24FFFFEE34FFFE1F
:10577A00ED34FFFDEC34FFFC9000121214CA9000C5
:10578A0012E0FCA3E0FDA3E0FEA3E0FFEC4D4E4FC8
:10579A0070C190001104F080BA900011E0700C20E2
:1057AA00B309900010E0F5A0126AC1D2B2D2B4D205
:1057BA008675A0FF7F627E00126A8B7F627E00027E
:0257CA006A8BE8
:0A6B8C00D2B4D2B2D28675A0FF2267
:106639009000107402F0A37469F07B017A0079125A
:10664900124A817F8B1253FF900018EFF0A3740355
:0C665900F07B017A0079107D0A024EE609
:103BB600E4900020F09000107402F0A37444F0909A
:103BC60000A574FFF0A3746CF0A3740BF090017A57
:103BD600E0FFA3E09000A8CFF0A3EFF07B017A000E
:103BE600791B1218AD90001F7402F0900020E0249B
:103BF6001BF582E43400F583E0FF601790001FE0B8
:103C06002410F582E43400F583EFF0900020E00400
:103C1600F0801890001FE02410F582E43400F5834C
:103C2600743BF090001FE004F0800890001FE00451
:103C3600F080B89000A574FFF0A3746CF0A3740B29
:103C4600F0900176E0FFA3E09000A8CFF0A3EFF09C
:103C56007B017A00791B1218ADE4900020F09000E9
:103C660020E0241BF582E43400F583E0FF60179022
:103C7600001FE02410F582E43400F583EFF0900095
:103C860020E004F0801890001FE02410F582E43450
:103C960000F583743BF090001FE004F0800890006C
:103CA6001FE004F080B890001FE0FD2410F582E4C8
:103CB6003400F5837403F07B017A007910024EE636
:105CCB004461746F73204D462072657370756573F4
:105CDB0074613A20004461746F73204D4620456E09
:105CEB00766961646F733A20002F2A2D2D2D2D2D8F
:105CFB002D2D2D2D2D2D2D2D2D2D2D2D2D2D2D2DC9
:105D0B002D2D2D2D2D2D2D2D2D2D2D2D2D2D2D2DB8
:075D1B002D2D2A2F0D0A00B7
:06685200AE07EEC313FEC9
:10685800E4FFEFD3940774809480500D000000008B
:096868000000000000000F80E9AF
:016871002204
:10690400E4FFEFD3940474809480500D00000000E1
:096914000000000000000F80E902
:01691D002257
:025E5F00AE078C
:105E6100C2AFC2901268580000AD06EE5401FE7038
:105E710004C2908002D2901268587C01ECD394073E
:105E8100748094805015EDC313FD5401FE7004C25B
:105E9100908002D2901268580C80E1D2901268581A
:055EA100126858D2AFA9
:015EA60022D9
:0261B400AB0737
:1061B60090016AE06401703CEB54F0C4540FFFD3C5
:1061C600940974809480400674372FFF80047430DD
:1061D6002FFF125E5FEB540FFFD3940974809480F7
:1061E600400674372FFF800474302FFF125E5F7FE6
:0461F60020125E5FB6
:0161FA002282
:0E5AC400900038EBF0A3EAF0A3E9F0A3EDF0B8
:105AD20090016AE06401705C90003CE0FF3395E065
:105AE200FEEF4E7BFF60067A5C79CB80047A5C79AC
:105AF200E0126443E490003DF090003BE0FF900030
:105B02003DE0C39F5024900038E0FBA3E0FAA3E0FD
:105B1200F9121400FF1261B4900039E475F0011219
:105B2200147A90003DE004F080CF7F0D125E5F7F1B
:045B32000A125E5F96
:015B3600224C
:0B644300900050EBF0A3EAF0A3E9F09A
:10644E00E4A3F090016AE064017027900053F0908D
:10645E000050E0FBA3E0FAA3E0F9A3E0F582758318
:10646E0000121419FF600B125E5F900053E004F0EF
:02647E0080DDBF
:0164800022F9
:096BB3007BFF7A5C79F402644373
:1057CC007EFF126904126858208005747FFF8004E4
:1057DC00EE4480FF126852EE208005547FFF800358
:1057EC004480FF126852EE208005547FFF800344F2
:1057FC0080FF126852EE208005547FFF80034480A6
:10580C00FF126852EE208005547FFF80034480FF16
:10581C00126852EE208005547FFF80034480FF12F3
:10582C006852EE208005547FFF80034480FF12688D
:10583C0052EE208005547FFF80034480FFAE071298
:07584C0068583080FDAF0633
:015853002232
:056BFF00D290D28022BB
:0E4E1900010B00010C00010900010A00C10B91
:0300230002482967
:10482900C0E0C083C082C0D075D000C000C004C041
:0548390005C006C007E8
:10483E002098030248C6C298859908C3E509950ACF
:10484E00FFE49400FEEF54F84E700BE50954072474
:10485E002CF8A6080509900168E0FFD3940A74802D
:10486E0094804005900173E4F0900173E014600FA2
:10487E00047040900168E4F090017304F080397484
:10488E00222FF8A6087822E6FFFD7C00641270063F
:10489E0090017C04801AEFB4720790017C74028040
:1048AE000FED641E4C90017C70047403800274043E
:1048BE00F08000900173E4F030991AC299E50B650F
:1048CE000C6010E50C5401245EF8E6F599050CC257
:0548DE000B8002D20B6B
:1048E300D007D006D005D004D000D0D0D082D0835A
:0348F300D0E032E0
:10666500D310AF01C3C0D01266E1E4F50BF50CF50C
:1066750009F50AC29FD29EC29DD29CC298C299D2E8
:0A6685000BD2ACD2BCD0D092AF22F1
:1066E100D310AF01C3C0D0C299E4F50BF50CC28E33
:1066F100C2AB43878053890F438920758DFD758B0C
:08670100FDD28ED0D092AF2230
:10653600D310AF01C3C0D09000D5EFF0126AE5C307
:10654600EF94027480948040047FFF80199000D5F8
:10655600E0FFE50B5401245EF8A607050B300B049B
:0B656600C20BD2997F00D0D092AF2270
:1067A800D310AF01C3C0D0126AD3EF70067EFF7F4B
:1067B800FF800EAF0A050AEF5407242CF8E6FF7E87
:0667C80000D0D092AF22C8
:106AD300D310AF01C3C0D0C3E509950AFFD0D0924C
:026AE300AF22E0
:106AE500D310AF01C3C0D0C3E50B950CFFD0D09236
:026AF500AF22CE
:0E6B7200E4F50BF50CF509F50AC298C299225C
:1033FE0054697175657465204E6F3A20003E002049
:10340E0046656368613A203230002D0020003A0094
:10341E00205665686963756C6F3A20436172726FEE
:10342E0000205665686963756C6F3A204D6F746F36
:10343E0000506C6163613A20003E3C0A0025730027
:10344E004E49543A202573000A0A0A0A0A0A000A4B
:10345E000A0A0A002025730070797000202020547B
:10346E00697175657465204E6F3A200025730A00E8
:10347E0020202046656368613A202020202020000D
:10348E003230002020205665686963756C6F3A20D3
:10349E002020436172726F0A0020202056656869F1
:1034AE0063756C6F3A2020204D6F746F0A002020D8
:1034BE0020506C6163613A20202020200056656800
:1034CE006963756C6F20656E20656C206C6F6F7014
:1034DE000D0A0D0A0050756C7361646F72204163A2
:1034EE007469766F0D0A0050756C7361646F72208B
:1034FE004E6F2041637469766F0D0A0056656869D8
:10350E0063756C6F206E6F20656E20656C206C6F1E
:10351E006F700D0A0D0A005345515F504150454CD6
:10352E000D0A00496D707265736F726120636F6E64
:10353E0020706170656C200D0A00496D70726573A4
:10354E006F7261206E6F207469656E652070617098
:10355E00656C200D0A004E6976656C2062616A6F9B
:10356E0020646520706170656C200D0A00496D70D5
:10357E007265736F7261206E6F20726573706F6EFD
:10358E006465200D0A00496D7072696D69656E641F
:05359E006F200D0A0082
:084E27004101A1004101A200BC
:0A6B96007F1B1264057F40026405B6
:1067F000900040EFF0A3EDF07F1B1264057F441280
:106800006405900040E0FF126405900041E0FF0243
:0268100064051D
:106A63007F1D1264057F501264057FB41264057F95
:046A7300B402640500
:10696600EF24BD600B24F1600A24067009026B2730
:07697600026B36126B452293
:0F6B27007F1B1264057F611264057F30026405D5
:0F6B36007F1B1264057F611264057F31026405C5
:0F6B45007F1B1264057F611264057F32026405B5
:10697D0090007EEFF07F1B1264057F4D1264059031
:07698D00007EE0FF0264053B
:1069940090007EEFF07F1B1264057F331264059034
:0769A400007EE0FF02640524
:1069AB0090007EEFF07F1B1264057F45126405900B
:0769BB00007EE0FF0264050D
:1069C20090004FEFF07F1D1264057F211264059045
:0769D200004FE0FF02640525
:1069D90090004FEFF07F1B1264057F6412640590ED
:0769E900004FE0FF0264050E
:1069F000900040EFF07F1B1264057F4A12640590FF
:076A00000040E0FF02640505
:106A070090004FEFF07F1B1264057F201264059002
:076A1700004FE0FF026405DF
:106A1E0090004AEFF07F1D1264057F6812640590A6
:076A2E00004AE0FF026405CD
:106A350090004AEFF07F1D1264057F4812640590AF
:076A4500004AE0FF026405B6
:0F6B54007F1D1264057F661264057F30026405A1
:0E5E120090004AEFF0A3EBF0A3EAF0A3E9F052
:105E20007F1D1264057F6B12640590004AE0FF122B
:105E30006405E490004EF090004BE0FBA3E0FAA371
:105E4000E0F9A3E0F582758300121419FF600B12CC
:0F5E5000640590004EE004F080DDE4FF0264057D
:10660C007F1D1264057F281264057F6B1264057F61
:10661C0004126405E4FF1264057F311264057F41A6
:0D662C001264057F32126405E4FF0264056C
:106709007F1D1264057F281264057F6B1264057F63
:1067190003126405E4FF1264057F311264057F45A5
:086729001264057F31026405D2
:106731007F1D1264057F281264057F6B1264057F3B
:1067410003126405E4FF1264057F311264057F437F
:086751001264057F07026405D4
:0B59D90090009FEBF0A3EAF0A3E9F0C0
:1059E4007F1D1264057F281264057F6B1264059085
:1059F400009FE0FBA3E0FAA3E0F912000E9000A2DE
:105A0400EFF02403FF126405E4FF1264057F3112F2
:105A140064057F501264057F30126405E49000A38E
:105A2400F09000A2E0FFA3E0FEC39F501F90009FF0
:105A3400E0FBA3E0FAA3E0F98E8275830012141947
:0C5A4400FF1264059000A3E004F080D580
:015A50002233
:106759007F1D1264057F281264057F6B1264057F13
:1067690003126405E4FF1264057F311264057F5149
:086779001264057F3002640583
:0A6BA0007F1B1264057F6902640583
:106A4C0090000EEFF07F101264057F041264059025
:076A5C00000EE0FF026405DB
:102C970012660C12670912673178407C007D017B50
:102CA700FF7A3379FE1217B47B017A0079901264A8
:102CB700FA9000A27401F0A37400F0A37490F07B63
:102CC700017A007940125BA69000A274FFF0A3740A
:102CD70034F0A3740BF07B017A007940125BA69065
:102CE70000A274FFF0A37434F0A3740DF07B017A93
:102CF700007940125BA67B017A007990122EA09092
:102D070000A27401F0A37400F0A37490F0A3E4F0A0
:102D1700A37402F07B017A0079401249BC9000A2AB
:102D270074FFF0A37434F0A37418F07B017A007970
:102D370040125BA69000A27401F0A37400F0A37484
:102D470092F0A3E4F0A37402F07B017A00794012B9
:102D570049BC9000A274FFF0A37434F0A37418F078
:102D67007B017A007940125BA69000A27401F0A360
:102D77007400F0A37494F0A3E4F0A37402F07B0151
:102D87007A0079401249BC9000A274FFF0A3743412
:102D9700F0A3741AF07B017A007940125BA69000C9
:102DA700A27401F0A37400F0A37496F0A3E4F0A357
:102DB7007402F07B017A0079401249BC9000A2743A
:102DC700FFF0A37434F0A3741CF07B017A00794000
:102DD700125BA69000A27401F0A37400F0A374988C
:102DE700F0A3E4F0A37402F07B017A007940124962
:102DF700BC9000A274FFF0A37434F0A3740BF07BB3
:102E0700017A007940125BA690016FE09000A270F2
:102E17000C74FFF0A37434F0A3741E800A74FFF0DF
:102E2700A37434F0A3742FF07B017A007940125B0E
:102E3700A69000A274FFF0A37434F0A3740BF07B88
:102E4700017A007940125BA69000A274FFF0A37488
:102E570034F0A3743FF07B017A007940125BA690AF
:102E670000A27401F0A37401F0A3745DF07B017AF2
:102E7700007940125BA69000A274FFF0A37434F0AF
:102E8700A37447F07B017A007940125BA67B017A35
:092E97000079401259D902675973
:1044A600126B96E4FD7F351267F0126A637F431242
:1044B60069667F011269AB7F011269C27F01126AC8
:1044C600077F061269F07B017A00790E7F107E0065
:1044D600125C739000A57401F0A37400F0A3740E2F
:1044E600F07BFF7A34794B1218B37B017A00790E90
:1044F6007F407E00125C73E4FF1269ABE4FF126931
:10450600C2E4FF126A079000A57401F0A37400F0DC
:10451600A3740EF07BFF7A34794E1218B37F4312E0
:1045260069667B017A00790E7F507E00125C73907B
:1045360000A57401F0A37400F0A3740EF07BFF7A5B
:1045460034794B1218B37F431269667B017A00797E
:104556000E7F807E00125C739000A57401F0A37438
:1045660000F0A3740EF07BFF7A34794B1218B37FF8
:104576000A1269947F43126966122C971238471201
:0E4586003A9D7BFF7A3479561218B3026BA06F
:1042BE007F021269947F011269D9125D75126B9695
:1042CE00E4FD7F351267F0126A637F431269667FE1
:1042DE00011269AB7F011269C27F01126A077F0664
:1042EE001269F07B017A00790E7F107E00125C73EA
:1042FE009000A57401F0A37400F0A3740EF07BFF80
:10430E007A34794B1218B37B017A00790E7F407E96
:10431E0000125C73E4FF1269ABE4FF1269C2E4FFA2
:10432E00126A079000A57401F0A37400F0A3740E36
:10433E00F07BFF7A34794E1218B37F431269667B95
:10434E00017A00790E7F507E00125C739000A57486
:10435E0001F0A37400F0A3740EF07BFF7A34794B56
:10436E001218B37F431269667B017A00790E7F8043
:10437E007E00125C739000A57401F0A37400F0A38C
:10438E00740EF07BFF7A34794B1218B37F0A1269E0
:10439E0094123847123A9D125D757BFF7A34795D1F
:0643AE001218B3026BA01F
:105D7500126B967F431269667F65126A1E7F311228
:105D85006A35126B547F3112697D7B017A00794047
:105D95001264FA7B017A00794012000E74402FF5E7
:105DA50082E43400F5837424F074412FF582E434E1
:105DB50000F583E4F07B017A0079407F04025E12EE
:103A9D007F3112697D7F0A1269947F4C126966E449
:103AAD00FF1269AB7B017A0079407FB07E00125C1A
:103ABD00739000A57401F0A37400F0A37440F07B23
:103ACD00FF7A3479621218B37B017A0079407FF165
:103ADD007E00125C739000A57401F0A37400F0A336
:103AED007440F07BFF7A3479621218B37B017A004F
:103AFD0079407F327E01125C739000A57401F0A3B2
:103B0D007400F0A37440F07BFF7A3479621218B31D
:103B1D007B017A0079407F737E01125C739000A562
:103B2D007401F0A37400F0A37440F07BFF7A347934
:103B3D00621218B37B017A0079407FB47E01125C6A
:103B4D00739000A57401F0A37400F0A37440F07B92
:103B5D00FF7A3479621218B37B017A0079407FF5D0
:103B6D007E01125C739000A57401F0A37400F0A3A4
:103B7D007440F07BFF7A3479621218B37B017A00BE
:103B8D0079407F367E02125C739000A57401F0A31C
:103B9D007400F0A37440F07BFF7A3479621218B38D
:093BAD007BFF7A3479660218B33B
:103847007F0A1269947F011269AB7F011269D97FE0
:103857004C1269667BFF7A34796A1218B3E4FF1257
:1038670069AB7B017A0079401264FA9000A5740174
:10387700F0A37400F0A37440F07BFF7A34797A12D6
:1038870018B37B017A007940122EA07F4C1269662B
:103897007F011269AB7BFF7A34797E1218B3E4FF9C
:1038A7001269AB7BFF7A34798E1218B3900040E02F
:1038B700FF126405900041E0FF1264057F2D12643A
:1038C70005900042E0FF126405900043E0FF126498
:1038D700057F2D126405900044E0FF1264059000F7
:1038E70045E0FF1264057F20126405900046E0FF63
:1038F700126405900047E0FF1264057F3A126405E1
:10390700900048E0FF126405900049E0FF1264054B
:103917007F0A1264057F011269AB90016FE07BFF9C
:1039270070067A34799180047A3479A71218B37FB4
:10393700011269C27F01126A077F011269AB7BFF1F
:103947007A3479BC1218B39000A57401F0A37401FE
:10395700F0A3745DF07BFF7A34797A1218B3E4FF31
:0D3967001269C2E4FF126A07E4FF0269ABB7
:102A6200900171E0147003022AE9147003022B3002
:102A7200147003022BC2147003022C181470030288
:102A82002B0124056003022C91900166E064016031
:102A920003022C96125B37EF603C7BFF7A3479CBD2
:102AA2001264439001A1E070107FFE1225A87FA05E
:102AB2001257449001A17401F0126BD17BFF209157
:102AC2000E7A3479E31264439001717401F0227A30
:102AD2003479F5022B787BFF7A35790A126443E464
:102AE2009001A1F0022C807F451243B4126B727FD9
:102AF200FE1257449001717405F090016680249093
:102B02000166E064016003022C967BFF7A35792529
:102B12001264437F04126A4C9001717402F09001B6
:102B2200667405F0E490017CF0900173F02290014C
:102B320066E06401600990017CE07003022C967BE0
:102B4200007A00792290003C7401F0FD125AC49080
:102B5200017CE064017011F07BFF7A3579311264F7
:102B6200439001667405803390017CE06402700C2E
:102B72007BFF7A357948126443022C8090017CE015
:102B820064037BFF701D7A35796412644390016699
:102B92007405F0E490017CF0900173F0900171747F
:102BA20003F0227A35797B1264439001667405F052
:102BB200E490017CF0900173F09001717405F022B1
:102BC200900166E064016006200903022C967F6191
:102BD2001230787FA11257447FFA1225A87BFF7A20
:102BE20035799412644390016CE060051244A6802A
:102BF200031242BE9001667405F0E490017CF090ED
:102C02000173F09001717404F0D297E4900167F0BF
:102C12001263C60268AF900166E0640170769001AB
:102C2200A2E004F0E0D39412748094805045126BB9
:102C3200D1309129126BD830910D9001A2E0C3944A
:102C42001274809480400DE49001A2F09001A1F0F2
:102C5200C297802A7FFA1225A8C297800090016647
:102C62007405F0E490017CF0900173F090017174AE
:102C720004F022E49001A2F09001A1F0C297900129
:102C8200667405F0E490017CF0900173F08001E439
:042C9200900171F04C
:012C9600221B
:046C0400256C750086
:106B170090000AE41214587D007C057FA80256BA3B
:10668F009000A574FFF0A3746CF0A37404F0A31230
:10669F0014CA7B017A0079121218AD7B017A007946
:0A66AF00127D007C057FA80256BA98
:1068CD007B017A0079A67F007E05125C737B017ACD
:0C68DD000079A6123CC69000A20214CA6A
:1063C6001268CD90000E1214CA90000EE0FCA3E0F5
:1063D600FDA3E0FEA3E0FFE4FAF9F8EF2401FFEAEB
:1063E6003EFEE93DFDE83CFC90000E1214CA90000A
:0F63F6000EE0FCA3E0FDA3E0FEA3E0FF02668F34
:106481009000A27409F0E4A3F09000A3E0FFC3948C
:106491000A7480948050259000A2E0C39FFFE49489
:1064A10000FE8F82F5831214196430700F8F828E73
:0C64B100831214589000A3E004F080CD8A
:0164BD0022BC
:0B64FA0090009FEBF0A3EAF0A3E9F094
:106505001268CD9000A574FFF0A3746CF0A3740419
:10651500F0A31214CA90009FE0FBA3E0FAA3E0F9F0
:106525001218AD90009FE0FBA3E0FAA3E0F9026426
:0165350081E4
:0B53600090000EEBF0A3EAF0A3E9F0D0
:10536B00E4900012F0A3740CF0900169E0640170FA
:10537B0073900011F0900013E0FF900011E0C39FB9
:10538B005053E4FFFEFD30801DED701A0FBF00017E
:10539B000ED3EF9430EE947540EC7D01900013E04A
:1053AB00900011F080E0ED6401602A1257CC900060
:1053BB000EE0FBA3E0FAA3E0F9EF12144690000F06
:1053CB00E475F00112147A900012E004F0900011D1
:1053DB00E004F080A090000EE0FBA3E0FAA3E0F95C
:0953EB00E4121446900012E0FFE8
:0153F4002296
:0B50ED0090000EEBF0A3EAF0A3E9F046
:1050F800E4FF7E029000021214196403701C9000F1
:105108000EE0FBA3E0FAA3E0F9900001121419B431
:105118005008D297E4900167F02290000EE0FBA3BC
:10512800E0FAA3E0F9900001121419643C7056905B
:10513800000EE0FBA3E0FAA3E0F98E82758300126B
:105148001419FD745D2FF582E43401F583EDF00E3A
:105158000F8E82758300121419640370D290000EAA
:10516800E0FBA3E0FAA3E0F98E82758300E4121451
:1051780058745C2FF582E43401F583E4F0D2099089
:055188000166740AF04D
:01518D0022FF
:0543B40090000EEFF087
:1043B900E4A3F090001A7403F090017D14F0126ADE
:1043C900AF90017EEFF090000EE090017FF0900138
:1043D9006FE090001A6013E0FF04F0747D2FF582FE
:1043E900E43401F583744DF08011E0FF04F0747D2D
:1043F9002FF582E43401F5837443F07B017A007967
:10440900101264FA7B017A00791012000E90000FE5
:10441900E02410F582E43400F583E0FE90001AE010
:10442900FD04F0747D2DF582E43401F583EEF01F6F
:1044390090000FE004F0EF70D490001AE0FF04F050
:10444900747D2FF582E43401F583743AF090001AF3
:10445900E0247DF9E43401FA7B01122EA090001AC0
:10446900E0FF2487F582E43401F583743AF0748817
:104479002FF582E43401F5837403F07B017A017925
:104489007DEF240CFDE490003CF0125AC47B017AC4
:0D44990001797D90001AE0240CFD0262C73D
:0E62C70090003FEBF0A3EAF0A3E9F0A3EDF0A6
:1062D500E4A3F0900042E0FFA3E0C39F50249000A8
:1062E5003FE0FBA3E0FAA3E0F9121400FF125E5FA2
:1062F500900040E475F00112147A900043E004F038
:0263050080D145
:016307002273
:0B47530090001DEBF0A3EAF0A3E9F0DA
:10475E0090003E7403F090002014F0126AAF9000A7
:10476E0021EFF0A37453F090016FE090003E6013C0
:10477E00E0FF04F074202FF582E43400F583744DCD
:10478E00F08011E0FF04F074202FF582E43400F580
:10479E00837443F090003E7404F090001DE0FBA380
:1047AE00E0FAA3E0F9121400FF602190003EE0242D
:1047BE0020F582E43400F583EFF090001EE475F0EE
:1047CE000112147A90003EE004F080CE90003EE09C
:1047DE00FF04F074202FF582E43400F583743AF070
:1047EE0090003EE02420F9E43400FA7B01122EA062
:1047FE0090003EE0FF242AF582E43400F583743AFB
:10480E00F0742B2FF582E43400F5837403F07B01F2
:0B481E007A007920EF240CFD0262C735
:1068AF00E4FFEFC3940974809480500F745D2FF54B
:0D68BF0082E43401F583E4F00F80E7C209A4
:0168CC0022A9
:100D0A00020FB2E86480F8E933E83360110460F056
:100D1A00ED33EC337009E8FCE9FDEAFEEBFF22044F
:100D2A0060DED3EB9FEA9EE99DE8C2E78CF0C2F74A
:100D3A0095F0400CE8CCF8E9CDF9EACEFAEBCFFB16
:100D4A00120F7D85D0F05804700320D5B3E80470E3
:100D5A00075002B2D5020FBC92D5EC0460F7E4CC7E
:100D6A00C0E0C398F8603B94186008400DD0E0FBDF
:100D7A00020F94E4FBFAC9FC8028E830E406E4C9CF
:100D8A00FBE4CAFCE830E305E4C9CACBFCE8540733
:100D9A006010F8C3E913F9EA13FAEB13FBEC13FC3E
:100DAA00D8F130F52FC3E49CFCEF9BFFEE9AFEEDE1
:100DBA0099FDD0E0FBEF4E4D4C701222DB03020F7F
:100DCA00B9EC2CFCEF33FFEE33FEED33FDED30E7EB
:100DDA00EB020F94EF2BFFEE3AFEED39FDD0E0FB6C
:100DEA0050130BBB0003020FBCED13FDEE13FEEF15
:080DFA0013FFEC13FC020F943F
:100E0200EC4D6011E8497017ED33EC3304600DE4EA
:100E1200FCFFFEFD22E933E8330470F8020FB21240
:100E22000F7D58046009E4CC248150062850090241
:100E32000FBC284003020FB9C0E0EB4A7044B980EE
:100E420006D0E0FB020FA8EF4E701CBD8008EBFF3E
:100E5200EAFEE9FD80EBE98DF0A4FEE5F0020EEB7F
:100E6200E9CDF9EAFEEBFFEF89F0A4FCE5F0CE89CB
:100E7200F0A42EFFE435F0CD89F0A42DFEE435F088
:100E82008067EF4E7005BD80D780C3EF8BF0A4ACB6
:100E9200F0EE8BF0A42CFCE435F0F8EF8AF0A42CF1
:100EA200E5F038FCE433CB8DF0A42CFCE5F03BF804
:100EB200EE8AF0A42CFCE5F038F8E433CF89F0A4F4
:100EC2002CFCE5F038CF3400CE89F0A42FFFE5F0FA
:100ED2003EFEE433C98DF0A42EFEE5F039CD8AF052
:100EE200A42FFFE5F03EFEE43DFD33D0E0FB5007CA
:100EF2000BBB000F020FBCEC2CFCEF33FFEE33FEFA
:060F0200ED33FD020F9427
:100F080075F020800E75F010800575F0087D007E64
:100F1800007F003392D530D503121490EC33401083
:100F2800EF33FFEE33FEED33FDEC33FCD5F0ED226D
:0E0F3800E5F0247EA2D513CC92E7CDCEFF22A9
:100F4600EDD2E7CD33EC3392D524814006E4FFFEA3
:100F5600FDFC22FCE4CFCECDCC24E0501174FF8002
:100F6600EDC3CC13CCCD13CDCE13CECF13CF04709F
:070F7600F030D5DE021490FB
:10184800E50D24A5F582E43400F583E0050D22902A
:1018580000A23007039000A5E475F00112150702F5
:1018680014002000E97F2ED2008018EF540F249036
:10187800D43440D4FF30040BEF24BFB41A00500313
:101888002461FFE50E6002150E0511E511700205D1
:101898001030070E9000A2E475F001121507EF0250
:1018A80014460264057403D2078003E4C207F50DE9
:1018B8009000A212151EE4F50EF510F511E50E6064
:1018C800077F2012188B80F5750FFFC201C200C276
:1018D80002C203C205C206C208121857FF700D30B3
:1018E80007057F0012189CAF11AE1022B4255FC205
:1018F800D5C204121857FF24D0B40A00501A75F044
:101908000A780E30D50508B6FF0106C6A426F620CB
:10191800D5047002D20380D924CFB41A00EF500442
:10192800C2E5D204021B8ED20180C6D20080C0D28A
:101938000280BCD2D580BAD20580B47F2012188B21
:101948002002077401B50E0040F1121848FF121862
:101958008B0218C5D208D2068095121848FB1218B7
:1019680048FA121848F94A4B7006798C7A1C7BFFA2
:1019780020022EE50E602A7E008E827583001214E6
:101988001960060EEE650F70F0C2D5EBC0E0EAC034
:10199800E0E9C0E0EE121BEFD0E0F9D0E0FAD0E0C9
:1019A800FB121400FF60AAEBC0E0EAC0E0E9C0E067
:1019B80012188BD0E02401F9D0E03400FAD0E0FB13
:1019C800E50F0460DCD50FD98087D20280A2121BF4
:1019D800D160F7E50F70010412106BA90F600DE5D7
:1019E8000F600914F50F121C79EF60F3EA30E70273
:1019F800F404C3995079EAF4250F0430E701E404AC
:101A0800F50F800D121BD160C1EA050F250F1210CA
:101A18006BEA9000D1F030E701E4250F04D50F04FC
:101A280020050114121BEFE4C0E0121C799000D1CC
:101A3800E0601320E70714F0121873802204F0D036
:101A4800E014C0E07F00121873E50F600712186AEF
:101A5800150F800B30050312186AD0E00218C5D0A4
:101A6800E00480C4121BD1609EE50F0412106B9035
:101A780000D1EAF0E50F2005026001042404121BDE
:011A8800EF6E
:101A890074FF04C0E0121C79121873E50F200502D7
:101A9900600312186AD0E0B50FE87F4512187D90EF
:101AA90000D1E07F2B30E7047F2DF404C0E0121849
